{
  "_format": "hh-sol-artifact-1",
  "contractName": "DebtToken",
  "sourceName": "contracts/pledge/DebtToken.sol",
  "abi": [
    {
      "inputs": [
        {
          "internalType": "string",
          "name": "_name",
          "type": "string"
        },
        {
          "internalType": "string",
          "name": "_symbol",
          "type": "string"
        },
        {
          "internalType": "address",
          "name": "multiSignature",
          "type": "address"
        }
      ],
      "stateMutability": "nonpayable",
      "type": "constructor"
    },
    {
      "anonymous": false,
      "inputs": [
        {
          "indexed": true,
          "internalType": "address",
          "name": "owner",
          "type": "address"
        },
        {
          "indexed": true,
          "internalType": "address",
          "name": "spender",
          "type": "address"
        },
        {
          "indexed": false,
          "internalType": "uint256",
          "name": "value",
          "type": "uint256"
        }
      ],
      "name": "Approval",
      "type": "event"
    },
    {
      "anonymous": false,
      "inputs": [
        {
          "indexed": true,
          "internalType": "address",
          "name": "from",
          "type": "address"
        },
        {
          "indexed": true,
          "internalType": "address",
          "name": "to",
          "type": "address"
        },
        {
          "indexed": false,
          "internalType": "uint256",
          "name": "value",
          "type": "uint256"
        }
      ],
      "name": "Transfer",
      "type": "event"
    },
    {
      "inputs": [
        {
          "internalType": "address",
          "name": "_addMinter",
          "type": "address"
        }
      ],
      "name": "addMinter",
      "outputs": [
        {
          "internalType": "bool",
          "name": "",
          "type": "bool"
        }
      ],
      "stateMutability": "nonpayable",
      "type": "function"
    },
    {
      "inputs": [
        {
          "internalType": "address",
          "name": "owner",
          "type": "address"
        },
        {
          "internalType": "address",
          "name": "spender",
          "type": "address"
        }
      ],
      "name": "allowance",
      "outputs": [
        {
          "internalType": "uint256",
          "name": "",
          "type": "uint256"
        }
      ],
      "stateMutability": "view",
      "type": "function"
    },
    {
      "inputs": [
        {
          "internalType": "address",
          "name": "spender",
          "type": "address"
        },
        {
          "internalType": "uint256",
          "name": "amount",
          "type": "uint256"
        }
      ],
      "name": "approve",
      "outputs": [
        {
          "internalType": "bool",
          "name": "",
          "type": "bool"
        }
      ],
      "stateMutability": "nonpayable",
      "type": "function"
    },
    {
      "inputs": [
        {
          "internalType": "address",
          "name": "account",
          "type": "address"
        }
      ],
      "name": "balanceOf",
      "outputs": [
        {
          "internalType": "uint256",
          "name": "",
          "type": "uint256"
        }
      ],
      "stateMutability": "view",
      "type": "function"
    },
    {
      "inputs": [
        {
          "internalType": "address",
          "name": "_from",
          "type": "address"
        },
        {
          "internalType": "uint256",
          "name": "_amount",
          "type": "uint256"
        }
      ],
      "name": "burn",
      "outputs": [
        {
          "internalType": "bool",
          "name": "",
          "type": "bool"
        }
      ],
      "stateMutability": "nonpayable",
      "type": "function"
    },
    {
      "inputs": [],
      "name": "decimals",
      "outputs": [
        {
          "internalType": "uint8",
          "name": "",
          "type": "uint8"
        }
      ],
      "stateMutability": "view",
      "type": "function"
    },
    {
      "inputs": [
        {
          "internalType": "address",
          "name": "spender",
          "type": "address"
        },
        {
          "internalType": "uint256",
          "name": "subtractedValue",
          "type": "uint256"
        }
      ],
      "name": "decreaseAllowance",
      "outputs": [
        {
          "internalType": "bool",
          "name": "",
          "type": "bool"
        }
      ],
      "stateMutability": "nonpayable",
      "type": "function"
    },
    {
      "inputs": [
        {
          "internalType": "address",
          "name": "_delMinter",
          "type": "address"
        }
      ],
      "name": "delMinter",
      "outputs": [
        {
          "internalType": "bool",
          "name": "",
          "type": "bool"
        }
      ],
      "stateMutability": "nonpayable",
      "type": "function"
    },
    {
      "inputs": [
        {
          "internalType": "uint256",
          "name": "_index",
          "type": "uint256"
        }
      ],
      "name": "getMinter",
      "outputs": [
        {
          "internalType": "address",
          "name": "",
          "type": "address"
        }
      ],
      "stateMutability": "view",
      "type": "function"
    },
    {
      "inputs": [],
      "name": "getMinterLength",
      "outputs": [
        {
          "internalType": "uint256",
          "name": "",
          "type": "uint256"
        }
      ],
      "stateMutability": "view",
      "type": "function"
    },
    {
      "inputs": [],
      "name": "getMultiSignatureAddress",
      "outputs": [
        {
          "internalType": "address",
          "name": "",
          "type": "address"
        }
      ],
      "stateMutability": "view",
      "type": "function"
    },
    {
      "inputs": [
        {
          "internalType": "address",
          "name": "spender",
          "type": "address"
        },
        {
          "internalType": "uint256",
          "name": "addedValue",
          "type": "uint256"
        }
      ],
      "name": "increaseAllowance",
      "outputs": [
        {
          "internalType": "bool",
          "name": "",
          "type": "bool"
        }
      ],
      "stateMutability": "nonpayable",
      "type": "function"
    },
    {
      "inputs": [
        {
          "internalType": "address",
          "name": "account",
          "type": "address"
        }
      ],
      "name": "isMinter",
      "outputs": [
        {
          "internalType": "bool",
          "name": "",
          "type": "bool"
        }
      ],
      "stateMutability": "view",
      "type": "function"
    },
    {
      "inputs": [
        {
          "internalType": "address",
          "name": "_to",
          "type": "address"
        },
        {
          "internalType": "uint256",
          "name": "_amount",
          "type": "uint256"
        }
      ],
      "name": "mint",
      "outputs": [
        {
          "internalType": "bool",
          "name": "",
          "type": "bool"
        }
      ],
      "stateMutability": "nonpayable",
      "type": "function"
    },
    {
      "inputs": [],
      "name": "name",
      "outputs": [
        {
          "internalType": "string",
          "name": "",
          "type": "string"
        }
      ],
      "stateMutability": "view",
      "type": "function"
    },
    {
      "inputs": [],
      "name": "symbol",
      "outputs": [
        {
          "internalType": "string",
          "name": "",
          "type": "string"
        }
      ],
      "stateMutability": "view",
      "type": "function"
    },
    {
      "inputs": [],
      "name": "totalSupply",
      "outputs": [
        {
          "internalType": "uint256",
          "name": "",
          "type": "uint256"
        }
      ],
      "stateMutability": "view",
      "type": "function"
    },
    {
      "inputs": [
        {
          "internalType": "address",
          "name": "recipient",
          "type": "address"
        },
        {
          "internalType": "uint256",
          "name": "amount",
          "type": "uint256"
        }
      ],
      "name": "transfer",
      "outputs": [
        {
          "internalType": "bool",
          "name": "",
          "type": "bool"
        }
      ],
      "stateMutability": "nonpayable",
      "type": "function"
    },
    {
      "inputs": [
        {
          "internalType": "address",
          "name": "sender",
          "type": "address"
        },
        {
          "internalType": "address",
          "name": "recipient",
          "type": "address"
        },
        {
          "internalType": "uint256",
          "name": "amount",
          "type": "uint256"
        }
      ],
      "name": "transferFrom",
      "outputs": [
        {
          "internalType": "bool",
          "name": "",
          "type": "bool"
        }
      ],
      "stateMutability": "nonpayable",
      "type": "function"
    }
  ],
  "bytecode": "0x60806040523480156200001157600080fd5b506040516200172038038062001720833981810160405260608110156200003757600080fd5b81019080805160405193929190846401000000008211156200005857600080fd5b9083019060208201858111156200006e57600080fd5b82516401000000008111828201881017156200008957600080fd5b82525081516020918201929091019080838360005b83811015620000b85781810151838201526020016200009e565b50505050905090810190601f168015620000e65780820380516001836020036101000a031916815260200191505b50604052602001805160405193929190846401000000008211156200010a57600080fd5b9083019060208201858111156200012057600080fd5b82516401000000008111828201881017156200013b57600080fd5b82525081516020918201929091019080838360005b838110156200016a57818101518382015260200162000150565b50505050905090810190601f168015620001985780820380516001836020036101000a031916815260200191505b506040526020908101518551909350839250829186918691620001c19160039185019062000272565b508051620001d790600490602084019062000272565b50506005805460ff19166012179055506001600160a01b0381166200022e5760405162461bcd60e51b8152600401808060200182810382526043815260200180620016dd6043913960600191505060405180910390fd5b620002637f8dddb57468cf5338ee155397ad1400a7a564308824f517d20a8a7c516523bb476001600160a01b0383166200026e565b50505050506200030e565b9055565b828054600181600116156101000203166002900490600052602060002090601f016020900481019282601f10620002b557805160ff1916838001178555620002e5565b82800160010185558215620002e5579182015b82811115620002e5578251825591602001919060010190620002c8565b50620002f3929150620002f7565b5090565b5b80821115620002f35760008155600101620002f8565b6113bf806200031e6000396000f3fe608060405234801561001057600080fd5b50600436106101215760003560e01c80635b7121f8116100ad5780639dc29fac116100715780639dc29fac1461036c578063a457c2d714610398578063a9059cbb146103c4578063aa271e1a146103f0578063dd62ed3e1461041657610121565b80635b7121f8146102d7578063638c7e171461031057806370a082311461031857806395d89b411461033e578063983b2d561461034657610121565b806323338b88116100f457806323338b881461020557806323b872dd1461022b578063313ce56714610261578063395093511461027f57806340c10f19146102ab57610121565b80630323aac71461012657806306fdde0314610140578063095ea7b3146101bd57806318160ddd146101fd575b600080fd5b61012e610444565b60408051918252519081900360200190f35b610148610455565b6040805160208082528351818301528351919283929083019185019080838360005b8381101561018257818101518382015260200161016a565b50505050905090810190601f1680156101af5780820380516001836020036101000a031916815260200191505b509250505060405180910390f35b6101e9600480360360408110156101d357600080fd5b506001600160a01b0381351690602001356104eb565b604080519115158252519081900360200190f35b61012e610509565b6101e96004803603602081101561021b57600080fd5b50356001600160a01b031661050f565b6101e96004803603606081101561024157600080fd5b506001600160a01b03813581169160208101359091169060400135610569565b6102696105f0565b6040805160ff9092168252519081900360200190f35b6101e96004803603604081101561029557600080fd5b506001600160a01b0381351690602001356105f9565b6101e9600480360360408110156102c157600080fd5b506001600160a01b038135169060200135610647565b6102f4600480360360208110156102ed57600080fd5b50356106ad565b604080516001600160a01b039092168252519081900360200190f35b6102f4610719565b61012e6004803603602081101561032e57600080fd5b50356001600160a01b0316610744565b61014861075f565b6101e96004803603602081101561035c57600080fd5b50356001600160a01b03166107c0565b6101e96004803603604081101561038257600080fd5b506001600160a01b03813516906020013561081a565b6101e9600480360360408110156103ae57600080fd5b506001600160a01b038135169060200135610880565b6101e9600480360360408110156103da57600080fd5b506001600160a01b0381351690602001356108e8565b6101e96004803603602081101561040657600080fd5b50356001600160a01b03166108fc565b61012e6004803603604081101561042c57600080fd5b506001600160a01b0381358116916020013516610909565b60006104506006610934565b905090565b60038054604080516020601f60026000196101006001881615020190951694909404938401819004810282018101909252828152606093909290918301828280156104e15780601f106104b6576101008083540402835291602001916104e1565b820191906000526020600020905b8154815290600101906020018083116104c457829003601f168201915b5050505050905090565b60006104ff6104f861093f565b8484610943565b5060015b92915050565b60025490565b6000610519610a2f565b6001600160a01b03821661055e5760405162461bcd60e51b81526004018080602001828103825260258152602001806112356025913960400191505060405180910390fd5b610503600683610b2f565b6000610576848484610b4b565b6105e68461058261093f565b6105e1856040518060600160405280602881526020016112d3602891396001600160a01b038a166000908152600160205260408120906105c061093f565b6001600160a01b031681526020810191909152604001600020549190610ca6565b610943565b5060019392505050565b60055460ff1690565b60006104ff61060661093f565b846105e1856001600061061761093f565b6001600160a01b03908116825260208083019390935260409182016000908120918c168152925290205490610d3d565b6000610652336108fc565b6106a3576040805162461bcd60e51b815260206004820152601f60248201527f546f6b656e3a2063616c6c6572206973206e6f7420746865206d696e74657200604482015290519081900360640190fd5b6104ff8383610d97565b600060016106b9610444565b0382111561070e576040805162461bcd60e51b815260206004820152601a60248201527f546f6b656e3a20696e646578206f7574206f6620626f756e6473000000000000604482015290519081900360640190fd5b610503600683610e87565b60006104507f8dddb57468cf5338ee155397ad1400a7a564308824f517d20a8a7c516523bb47610e93565b6001600160a01b031660009081526020819052604090205490565b60048054604080516020601f60026000196101006001881615020190951694909404938401819004810282018101909252828152606093909290918301828280156104e15780601f106104b6576101008083540402835291602001916104e1565b60006107ca610a2f565b6001600160a01b03821661080f5760405162461bcd60e51b81526004018080602001828103825260258152602001806112ae6025913960400191505060405180910390fd5b610503600683610e97565b6000610825336108fc565b610876576040805162461bcd60e51b815260206004820152601f60248201527f546f6b656e3a2063616c6c6572206973206e6f7420746865206d696e74657200604482015290519081900360640190fd5b6104ff8383610eac565b60006104ff61088d61093f565b846105e18560405180606001604052806025815260200161136560259139600160006108b761093f565b6001600160a01b03908116825260208083019390935260409182016000908120918d16815292529020549190610ca6565b60006104ff6108f561093f565b8484610b4b565b6000610503600683610fa8565b6001600160a01b03918216600090815260016020908152604080832093909416825291909152205490565b600061050382610e93565b3390565b6001600160a01b0383166109885760405162461bcd60e51b81526004018080602001828103825260248152602001806113416024913960400191505060405180910390fd5b6001600160a01b0382166109cd5760405162461bcd60e51b81526004018080602001828103825260228152602001806112136022913960400191505060405180910390fd5b6001600160a01b03808416600081815260016020908152604080832094871680845294825291829020859055815185815291517f8c5be1e5ebec7d5bd14f71427d1e84f3dd0314c0f7b2291e5b200ac8c7c3b9259281900390910190a3505050565b6040805133606090811b6020808401919091523090911b6034830152825160288184030181526048909201909252805191012034906000610a6e610719565b90506000816001600160a01b0316631ebaa1668460006040518363ffffffff1660e01b8152600401808381526020018281526020019250505060206040518083038186803b158015610abf57600080fd5b505afa158015610ad3573d6000803e3d6000fd5b505050506040513d6020811015610ae957600080fd5b5051905080610b295760405162461bcd60e51b815260040180806020018281038252602e815260200180611280602e913960400191505060405180910390fd5b50505050565b6000610b44836001600160a01b038416610fbd565b9392505050565b6001600160a01b038316610b905760405162461bcd60e51b815260040180806020018281038252602581526020018061131c6025913960400191505060405180910390fd5b6001600160a01b038216610bd55760405162461bcd60e51b81526004018080602001828103825260238152602001806111ce6023913960400191505060405180910390fd5b610be0838383611083565b610c1d8160405180606001604052806026815260200161125a602691396001600160a01b0386166000908152602081905260409020549190610ca6565b6001600160a01b038085166000908152602081905260408082209390935590841681522054610c4c9082610d3d565b6001600160a01b038084166000818152602081815260409182902094909455805185815290519193928716927fddf252ad1be2c89b69c2b068fc378daa952ba7f163c4a11628f55a4df523b3ef92918290030190a3505050565b60008184841115610d355760405162461bcd60e51b81526004018080602001828103825283818151815260200191508051906020019080838360005b83811015610cfa578181015183820152602001610ce2565b50505050905090810190601f168015610d275780820380516001836020036101000a031916815260200191505b509250505060405180910390fd5b505050900390565b600082820183811015610b44576040805162461bcd60e51b815260206004820152601b60248201527f536166654d6174683a206164646974696f6e206f766572666c6f770000000000604482015290519081900360640190fd5b6001600160a01b038216610df2576040805162461bcd60e51b815260206004820152601f60248201527f45524332303a206d696e7420746f20746865207a65726f206164647265737300604482015290519081900360640190fd5b610dfe60008383611083565b600254610e0b9082610d3d565b6002556001600160a01b038216600090815260208190526040902054610e319082610d3d565b6001600160a01b0383166000818152602081815260408083209490945583518581529351929391927fddf252ad1be2c89b69c2b068fc378daa952ba7f163c4a11628f55a4df523b3ef9281900390910190a35050565b6000610b448383611088565b5490565b6000610b44836001600160a01b0384166110ec565b6001600160a01b038216610ef15760405162461bcd60e51b81526004018080602001828103825260218152602001806112fb6021913960400191505060405180910390fd5b610efd82600083611083565b610f3a816040518060600160405280602281526020016111f1602291396001600160a01b0385166000908152602081905260409020549190610ca6565b6001600160a01b038316600090815260208190526040902055600254610f609082611136565b6002556040805182815290516000916001600160a01b038516917fddf252ad1be2c89b69c2b068fc378daa952ba7f163c4a11628f55a4df523b3ef9181900360200190a35050565b6000610b44836001600160a01b038416611193565b600081815260018301602052604081205480156110795783546000198083019190810190600090879083908110610ff057fe5b906000526020600020015490508087600001848154811061100d57fe5b60009182526020808320909101929092558281526001898101909252604090209084019055865487908061103d57fe5b60019003818190600052602060002001600090559055866001016000878152602001908152602001600020600090556001945050505050610503565b6000915050610503565b505050565b815460009082106110ca5760405162461bcd60e51b81526004018080602001828103825260228152602001806111ac6022913960400191505060405180910390fd5b8260000182815481106110d957fe5b9060005260206000200154905092915050565b60006110f88383611193565b61112e57508154600181810184556000848152602080822090930184905584548482528286019093526040902091909155610503565b506000610503565b60008282111561118d576040805162461bcd60e51b815260206004820152601e60248201527f536166654d6174683a207375627472616374696f6e206f766572666c6f770000604482015290519081900360640190fd5b50900390565b6000908152600191909101602052604090205415159056fe456e756d657261626c655365743a20696e646578206f7574206f6620626f756e647345524332303a207472616e7366657220746f20746865207a65726f206164647265737345524332303a206275726e20616d6f756e7420657863656564732062616c616e636545524332303a20617070726f766520746f20746865207a65726f2061646472657373546f6b656e3a205f64656c4d696e74657220697320746865207a65726f206164647265737345524332303a207472616e7366657220616d6f756e7420657863656564732062616c616e63656d756c74695369676e6174757265436c69656e74203a2054686973207478206973206e6f7420617072726f766564546f6b656e3a205f6164644d696e74657220697320746865207a65726f206164647265737345524332303a207472616e7366657220616d6f756e74206578636565647320616c6c6f77616e636545524332303a206275726e2066726f6d20746865207a65726f206164647265737345524332303a207472616e736665722066726f6d20746865207a65726f206164647265737345524332303a20617070726f76652066726f6d20746865207a65726f206164647265737345524332303a2064656372656173656420616c6c6f77616e63652062656c6f77207a65726fa2646970667358221220ef5b95386a9bba1354001b524505fa6a6758555c070d5923dbd1f1794c453cd264736f6c634300060c00336d756c74695369676e6174757265436c69656e74203a204d756c7469706c65207369676e617475726520636f6e74726163742061646472657373206973207a65726f21",
  "linkReferences": {},
  "deployedLinkReferences": {}
}