{
  "_format": "hh-sol-artifact-1",
  "contractName": "DebtToken",
  "sourceName": "contracts/pledge/DebtToken.sol",
  "abi": [
    {
      "inputs": [
        {
          "internalType": "string",
          "name": "_name",
          "type": "string"
        },
        {
          "internalType": "string",
          "name": "_symbol",
          "type": "string"
        }
      ],
      "stateMutability": "nonpayable",
      "type": "constructor"
    },
    {
      "anonymous": false,
      "inputs": [
        {
          "indexed": true,
          "internalType": "address",
          "name": "owner",
          "type": "address"
        },
        {
          "indexed": true,
          "internalType": "address",
          "name": "spender",
          "type": "address"
        },
        {
          "indexed": false,
          "internalType": "uint256",
          "name": "value",
          "type": "uint256"
        }
      ],
      "name": "Approval",
      "type": "event"
    },
    {
      "anonymous": false,
      "inputs": [
        {
          "indexed": true,
          "internalType": "address",
          "name": "previousOwner",
          "type": "address"
        },
        {
          "indexed": true,
          "internalType": "address",
          "name": "newOwner",
          "type": "address"
        }
      ],
      "name": "OwnershipTransferred",
      "type": "event"
    },
    {
      "anonymous": false,
      "inputs": [
        {
          "indexed": true,
          "internalType": "address",
          "name": "from",
          "type": "address"
        },
        {
          "indexed": true,
          "internalType": "address",
          "name": "to",
          "type": "address"
        },
        {
          "indexed": false,
          "internalType": "uint256",
          "name": "value",
          "type": "uint256"
        }
      ],
      "name": "Transfer",
      "type": "event"
    },
    {
      "inputs": [
        {
          "internalType": "address",
          "name": "_addMinter",
          "type": "address"
        }
      ],
      "name": "addMinter",
      "outputs": [
        {
          "internalType": "bool",
          "name": "",
          "type": "bool"
        }
      ],
      "stateMutability": "nonpayable",
      "type": "function"
    },
    {
      "inputs": [
        {
          "internalType": "address",
          "name": "owner",
          "type": "address"
        },
        {
          "internalType": "address",
          "name": "spender",
          "type": "address"
        }
      ],
      "name": "allowance",
      "outputs": [
        {
          "internalType": "uint256",
          "name": "",
          "type": "uint256"
        }
      ],
      "stateMutability": "view",
      "type": "function"
    },
    {
      "inputs": [
        {
          "internalType": "address",
          "name": "spender",
          "type": "address"
        },
        {
          "internalType": "uint256",
          "name": "amount",
          "type": "uint256"
        }
      ],
      "name": "approve",
      "outputs": [
        {
          "internalType": "bool",
          "name": "",
          "type": "bool"
        }
      ],
      "stateMutability": "nonpayable",
      "type": "function"
    },
    {
      "inputs": [
        {
          "internalType": "address",
          "name": "account",
          "type": "address"
        }
      ],
      "name": "balanceOf",
      "outputs": [
        {
          "internalType": "uint256",
          "name": "",
          "type": "uint256"
        }
      ],
      "stateMutability": "view",
      "type": "function"
    },
    {
      "inputs": [
        {
          "internalType": "address",
          "name": "_from",
          "type": "address"
        },
        {
          "internalType": "uint256",
          "name": "_amount",
          "type": "uint256"
        }
      ],
      "name": "burn",
      "outputs": [
        {
          "internalType": "bool",
          "name": "",
          "type": "bool"
        }
      ],
      "stateMutability": "nonpayable",
      "type": "function"
    },
    {
      "inputs": [],
      "name": "decimals",
      "outputs": [
        {
          "internalType": "uint8",
          "name": "",
          "type": "uint8"
        }
      ],
      "stateMutability": "view",
      "type": "function"
    },
    {
      "inputs": [
        {
          "internalType": "address",
          "name": "spender",
          "type": "address"
        },
        {
          "internalType": "uint256",
          "name": "subtractedValue",
          "type": "uint256"
        }
      ],
      "name": "decreaseAllowance",
      "outputs": [
        {
          "internalType": "bool",
          "name": "",
          "type": "bool"
        }
      ],
      "stateMutability": "nonpayable",
      "type": "function"
    },
    {
      "inputs": [
        {
          "internalType": "address",
          "name": "_delMinter",
          "type": "address"
        }
      ],
      "name": "delMinter",
      "outputs": [
        {
          "internalType": "bool",
          "name": "",
          "type": "bool"
        }
      ],
      "stateMutability": "nonpayable",
      "type": "function"
    },
    {
      "inputs": [
        {
          "internalType": "uint256",
          "name": "_index",
          "type": "uint256"
        }
      ],
      "name": "getMinter",
      "outputs": [
        {
          "internalType": "address",
          "name": "",
          "type": "address"
        }
      ],
      "stateMutability": "view",
      "type": "function"
    },
    {
      "inputs": [],
      "name": "getMinterLength",
      "outputs": [
        {
          "internalType": "uint256",
          "name": "",
          "type": "uint256"
        }
      ],
      "stateMutability": "view",
      "type": "function"
    },
    {
      "inputs": [
        {
          "internalType": "address",
          "name": "spender",
          "type": "address"
        },
        {
          "internalType": "uint256",
          "name": "addedValue",
          "type": "uint256"
        }
      ],
      "name": "increaseAllowance",
      "outputs": [
        {
          "internalType": "bool",
          "name": "",
          "type": "bool"
        }
      ],
      "stateMutability": "nonpayable",
      "type": "function"
    },
    {
      "inputs": [
        {
          "internalType": "address",
          "name": "account",
          "type": "address"
        }
      ],
      "name": "isMinter",
      "outputs": [
        {
          "internalType": "bool",
          "name": "",
          "type": "bool"
        }
      ],
      "stateMutability": "view",
      "type": "function"
    },
    {
      "inputs": [
        {
          "internalType": "address",
          "name": "_to",
          "type": "address"
        },
        {
          "internalType": "uint256",
          "name": "_amount",
          "type": "uint256"
        }
      ],
      "name": "mint",
      "outputs": [
        {
          "internalType": "bool",
          "name": "",
          "type": "bool"
        }
      ],
      "stateMutability": "nonpayable",
      "type": "function"
    },
    {
      "inputs": [],
      "name": "name",
      "outputs": [
        {
          "internalType": "string",
          "name": "",
          "type": "string"
        }
      ],
      "stateMutability": "view",
      "type": "function"
    },
    {
      "inputs": [],
      "name": "owner",
      "outputs": [
        {
          "internalType": "address",
          "name": "",
          "type": "address"
        }
      ],
      "stateMutability": "view",
      "type": "function"
    },
    {
      "inputs": [],
      "name": "renounceOwnership",
      "outputs": [],
      "stateMutability": "nonpayable",
      "type": "function"
    },
    {
      "inputs": [],
      "name": "symbol",
      "outputs": [
        {
          "internalType": "string",
          "name": "",
          "type": "string"
        }
      ],
      "stateMutability": "view",
      "type": "function"
    },
    {
      "inputs": [],
      "name": "totalSupply",
      "outputs": [
        {
          "internalType": "uint256",
          "name": "",
          "type": "uint256"
        }
      ],
      "stateMutability": "view",
      "type": "function"
    },
    {
      "inputs": [
        {
          "internalType": "address",
          "name": "recipient",
          "type": "address"
        },
        {
          "internalType": "uint256",
          "name": "amount",
          "type": "uint256"
        }
      ],
      "name": "transfer",
      "outputs": [
        {
          "internalType": "bool",
          "name": "",
          "type": "bool"
        }
      ],
      "stateMutability": "nonpayable",
      "type": "function"
    },
    {
      "inputs": [
        {
          "internalType": "address",
          "name": "sender",
          "type": "address"
        },
        {
          "internalType": "address",
          "name": "recipient",
          "type": "address"
        },
        {
          "internalType": "uint256",
          "name": "amount",
          "type": "uint256"
        }
      ],
      "name": "transferFrom",
      "outputs": [
        {
          "internalType": "bool",
          "name": "",
          "type": "bool"
        }
      ],
      "stateMutability": "nonpayable",
      "type": "function"
    },
    {
      "inputs": [
        {
          "internalType": "address",
          "name": "newOwner",
          "type": "address"
        }
      ],
      "name": "transferOwnership",
      "outputs": [],
      "stateMutability": "nonpayable",
      "type": "function"
    }
  ],
  "bytecode": "0x60806040523480156200001157600080fd5b506040516200187238038062001872833981810160405260408110156200003757600080fd5b81019080805160405193929190846401000000008211156200005857600080fd5b9083019060208201858111156200006e57600080fd5b82516401000000008111828201881017156200008957600080fd5b82525081516020918201929091019080838360005b83811015620000b85781810151838201526020016200009e565b50505050905090810190601f168015620000e65780820380516001836020036101000a031916815260200191505b50604052602001805160405193929190846401000000008211156200010a57600080fd5b9083019060208201858111156200012057600080fd5b82516401000000008111828201881017156200013b57600080fd5b82525081516020918201929091019080838360005b838110156200016a57818101518382015260200162000150565b50505050905090810190601f168015620001985780820380516001836020036101000a031916815260200191505b50604052505082518391508290620001b89060039060208501906200024c565b508051620001ce9060049060208401906200024c565b50506005805460ff19166012179055506000620001ea62000248565b60058054610100600160a81b0319166101006001600160a01b03841690810291909117909155604051919250906000907f8be0079c531659141344cd1fd0a4f28419497f9722a3daafe3b4186f6b6457e0908290a3505050620002e8565b3390565b828054600181600116156101000203166002900490600052602060002090601f016020900481019282601f106200028f57805160ff1916838001178555620002bf565b82800160010185558215620002bf579182015b82811115620002bf578251825591602001919060010190620002a2565b50620002cd929150620002d1565b5090565b5b80821115620002cd5760008155600101620002d2565b61157a80620002f86000396000f3fe608060405234801561001057600080fd5b50600436106101375760003560e01c806370a08231116100b85780639dc29fac1161007c5780639dc29fac1461038c578063a457c2d7146103b8578063a9059cbb146103e4578063aa271e1a14610410578063dd62ed3e14610436578063f2fde38b1461046457610137565b806370a0823114610326578063715018a61461034c5780638da5cb5b1461035657806395d89b411461035e578063983b2d561461036657610137565b806323b872dd116100ff57806323b872dd14610241578063313ce56714610277578063395093511461029557806340c10f19146102c15780635b7121f8146102ed57610137565b80630323aac71461013c57806306fdde0314610156578063095ea7b3146101d357806318160ddd1461021357806323338b881461021b575b600080fd5b61014461048a565b60408051918252519081900360200190f35b61015e61049b565b6040805160208082528351818301528351919283929083019185019080838360005b83811015610198578181015183820152602001610180565b50505050905090810190601f1680156101c55780820380516001836020036101000a031916815260200191505b509250505060405180910390f35b6101ff600480360360408110156101e957600080fd5b506001600160a01b038135169060200135610531565b604080519115158252519081900360200190f35b61014461054f565b6101ff6004803603602081101561023157600080fd5b50356001600160a01b0316610555565b6101ff6004803603606081101561025757600080fd5b506001600160a01b03813581169160208101359091169060400135610609565b61027f610690565b6040805160ff9092168252519081900360200190f35b6101ff600480360360408110156102ab57600080fd5b506001600160a01b038135169060200135610699565b6101ff600480360360408110156102d757600080fd5b506001600160a01b0381351690602001356106e7565b61030a6004803603602081101561030357600080fd5b503561074d565b604080516001600160a01b039092168252519081900360200190f35b6101446004803603602081101561033c57600080fd5b50356001600160a01b03166107b9565b6103546107d4565b005b61030a610886565b61015e61089a565b6101ff6004803603602081101561037c57600080fd5b50356001600160a01b03166108fb565b6101ff600480360360408110156103a257600080fd5b506001600160a01b0381351690602001356109af565b6101ff600480360360408110156103ce57600080fd5b506001600160a01b038135169060200135610a15565b6101ff600480360360408110156103fa57600080fd5b506001600160a01b038135169060200135610a7d565b6101ff6004803603602081101561042657600080fd5b50356001600160a01b0316610a91565b6101446004803603604081101561044c57600080fd5b506001600160a01b0381358116916020013516610a9e565b6103546004803603602081101561047a57600080fd5b50356001600160a01b0316610ac9565b60006104966006610bd7565b905090565b60038054604080516020601f60026000196101006001881615020190951694909404938401819004810282018101909252828152606093909290918301828280156105275780601f106104fc57610100808354040283529160200191610527565b820191906000526020600020905b81548152906001019060200180831161050a57829003601f168201915b5050505050905090565b600061054561053e610be2565b8484610be6565b5060015b92915050565b60025490565b600061055f610be2565b6001600160a01b0316610570610886565b6001600160a01b0316146105b9576040805162461bcd60e51b81526020600482018190526024820152600080516020611496833981519152604482015290519081900360640190fd5b6001600160a01b0382166105fe5760405162461bcd60e51b81526004018080602001828103825260258152602001806113fe6025913960400191505060405180910390fd5b610549600683610cd2565b6000610616848484610cee565b61068684610622610be2565b6106818560405180606001604052806028815260200161146e602891396001600160a01b038a16600090815260016020526040812090610660610be2565b6001600160a01b031681526020810191909152604001600020549190610e49565b610be6565b5060019392505050565b60055460ff1690565b60006105456106a6610be2565b8461068185600160006106b7610be2565b6001600160a01b03908116825260208083019390935260409182016000908120918c168152925290205490610ee0565b60006106f233610a91565b610743576040805162461bcd60e51b815260206004820152601f60248201527f546f6b656e3a2063616c6c6572206973206e6f7420746865206d696e74657200604482015290519081900360640190fd5b6105458383610f3a565b6000600161075961048a565b038211156107ae576040805162461bcd60e51b815260206004820152601a60248201527f546f6b656e3a20696e646578206f7574206f6620626f756e6473000000000000604482015290519081900360640190fd5b61054960068361102a565b6001600160a01b031660009081526020819052604090205490565b6107dc610be2565b6001600160a01b03166107ed610886565b6001600160a01b031614610836576040805162461bcd60e51b81526020600482018190526024820152600080516020611496833981519152604482015290519081900360640190fd5b60055460405160009161010090046001600160a01b0316907f8be0079c531659141344cd1fd0a4f28419497f9722a3daafe3b4186f6b6457e0908390a360058054610100600160a81b0319169055565b60055461010090046001600160a01b031690565b60048054604080516020601f60026000196101006001881615020190951694909404938401819004810282018101909252828152606093909290918301828280156105275780601f106104fc57610100808354040283529160200191610527565b6000610905610be2565b6001600160a01b0316610916610886565b6001600160a01b03161461095f576040805162461bcd60e51b81526020600482018190526024820152600080516020611496833981519152604482015290519081900360640190fd5b6001600160a01b0382166109a45760405162461bcd60e51b81526004018080602001828103825260258152602001806114496025913960400191505060405180910390fd5b610549600683611036565b60006109ba33610a91565b610a0b576040805162461bcd60e51b815260206004820152601f60248201527f546f6b656e3a2063616c6c6572206973206e6f7420746865206d696e74657200604482015290519081900360640190fd5b610545838361104b565b6000610545610a22610be2565b84610681856040518060600160405280602581526020016115206025913960016000610a4c610be2565b6001600160a01b03908116825260208083019390935260409182016000908120918d16815292529020549190610e49565b6000610545610a8a610be2565b8484610cee565b6000610549600683611147565b6001600160a01b03918216600090815260016020908152604080832093909416825291909152205490565b610ad1610be2565b6001600160a01b0316610ae2610886565b6001600160a01b031614610b2b576040805162461bcd60e51b81526020600482018190526024820152600080516020611496833981519152604482015290519081900360640190fd5b6001600160a01b038116610b705760405162461bcd60e51b81526004018080602001828103825260268152602001806113b66026913960400191505060405180910390fd5b6005546040516001600160a01b0380841692610100900416907f8be0079c531659141344cd1fd0a4f28419497f9722a3daafe3b4186f6b6457e090600090a3600580546001600160a01b0390921661010002610100600160a81b0319909216919091179055565b60006105498261115c565b3390565b6001600160a01b038316610c2b5760405162461bcd60e51b81526004018080602001828103825260248152602001806114fc6024913960400191505060405180910390fd5b6001600160a01b038216610c705760405162461bcd60e51b81526004018080602001828103825260228152602001806113dc6022913960400191505060405180910390fd5b6001600160a01b03808416600081815260016020908152604080832094871680845294825291829020859055815185815291517f8c5be1e5ebec7d5bd14f71427d1e84f3dd0314c0f7b2291e5b200ac8c7c3b9259281900390910190a3505050565b6000610ce7836001600160a01b038416611160565b9392505050565b6001600160a01b038316610d335760405162461bcd60e51b81526004018080602001828103825260258152602001806114d76025913960400191505060405180910390fd5b6001600160a01b038216610d785760405162461bcd60e51b81526004018080602001828103825260238152602001806113716023913960400191505060405180910390fd5b610d83838383611226565b610dc081604051806060016040528060268152602001611423602691396001600160a01b0386166000908152602081905260409020549190610e49565b6001600160a01b038085166000908152602081905260408082209390935590841681522054610def9082610ee0565b6001600160a01b038084166000818152602081815260409182902094909455805185815290519193928716927fddf252ad1be2c89b69c2b068fc378daa952ba7f163c4a11628f55a4df523b3ef92918290030190a3505050565b60008184841115610ed85760405162461bcd60e51b81526004018080602001828103825283818151815260200191508051906020019080838360005b83811015610e9d578181015183820152602001610e85565b50505050905090810190601f168015610eca5780820380516001836020036101000a031916815260200191505b509250505060405180910390fd5b505050900390565b600082820183811015610ce7576040805162461bcd60e51b815260206004820152601b60248201527f536166654d6174683a206164646974696f6e206f766572666c6f770000000000604482015290519081900360640190fd5b6001600160a01b038216610f95576040805162461bcd60e51b815260206004820152601f60248201527f45524332303a206d696e7420746f20746865207a65726f206164647265737300604482015290519081900360640190fd5b610fa160008383611226565b600254610fae9082610ee0565b6002556001600160a01b038216600090815260208190526040902054610fd49082610ee0565b6001600160a01b0383166000818152602081815260408083209490945583518581529351929391927fddf252ad1be2c89b69c2b068fc378daa952ba7f163c4a11628f55a4df523b3ef9281900390910190a35050565b6000610ce7838361122b565b6000610ce7836001600160a01b03841661128f565b6001600160a01b0382166110905760405162461bcd60e51b81526004018080602001828103825260218152602001806114b66021913960400191505060405180910390fd5b61109c82600083611226565b6110d981604051806060016040528060228152602001611394602291396001600160a01b0385166000908152602081905260409020549190610e49565b6001600160a01b0383166000908152602081905260409020556002546110ff90826112d9565b6002556040805182815290516000916001600160a01b038516917fddf252ad1be2c89b69c2b068fc378daa952ba7f163c4a11628f55a4df523b3ef9181900360200190a35050565b6000610ce7836001600160a01b038416611336565b5490565b6000818152600183016020526040812054801561121c578354600019808301919081019060009087908390811061119357fe5b90600052602060002001549050808760000184815481106111b057fe5b6000918252602080832090910192909255828152600189810190925260409020908401905586548790806111e057fe5b60019003818190600052602060002001600090559055866001016000878152602001908152602001600020600090556001945050505050610549565b6000915050610549565b505050565b8154600090821061126d5760405162461bcd60e51b815260040180806020018281038252602281526020018061134f6022913960400191505060405180910390fd5b82600001828154811061127c57fe5b9060005260206000200154905092915050565b600061129b8383611336565b6112d157508154600181810184556000848152602080822090930184905584548482528286019093526040902091909155610549565b506000610549565b600082821115611330576040805162461bcd60e51b815260206004820152601e60248201527f536166654d6174683a207375627472616374696f6e206f766572666c6f770000604482015290519081900360640190fd5b50900390565b6000908152600191909101602052604090205415159056fe456e756d657261626c655365743a20696e646578206f7574206f6620626f756e647345524332303a207472616e7366657220746f20746865207a65726f206164647265737345524332303a206275726e20616d6f756e7420657863656564732062616c616e63654f776e61626c653a206e6577206f776e657220697320746865207a65726f206164647265737345524332303a20617070726f766520746f20746865207a65726f2061646472657373546f6b656e3a205f64656c4d696e74657220697320746865207a65726f206164647265737345524332303a207472616e7366657220616d6f756e7420657863656564732062616c616e6365546f6b656e3a205f6164644d696e74657220697320746865207a65726f206164647265737345524332303a207472616e7366657220616d6f756e74206578636565647320616c6c6f77616e63654f776e61626c653a2063616c6c6572206973206e6f7420746865206f776e657245524332303a206275726e2066726f6d20746865207a65726f206164647265737345524332303a207472616e736665722066726f6d20746865207a65726f206164647265737345524332303a20617070726f76652066726f6d20746865207a65726f206164647265737345524332303a2064656372656173656420616c6c6f77616e63652062656c6f77207a65726fa2646970667358221220c52cf7787d14d6878b8a6638e6f663ba1b295e6172654c33a9e5e710e4d1953564736f6c634300060c0033",
  "linkReferences": {},
  "deployedLinkReferences": {}
}