{
  "_format": "hh-sol-artifact-1",
  "contractName": "MockPledgePool",
  "sourceName": "contracts/mock/MockPledgePool.sol",
  "abi": [
    {
      "inputs": [
        {
          "internalType": "address",
          "name": "_oracle",
          "type": "address"
        },
        {
          "internalType": "address",
          "name": "_swapRouter",
          "type": "address"
        },
        {
          "internalType": "address payable",
          "name": "_feeAddress",
          "type": "address"
        }
      ],
      "stateMutability": "nonpayable",
      "type": "constructor"
    },
    {
      "anonymous": false,
      "inputs": [
        {
          "indexed": true,
          "internalType": "address",
          "name": "from",
          "type": "address"
        },
        {
          "indexed": true,
          "internalType": "address",
          "name": "token",
          "type": "address"
        },
        {
          "indexed": false,
          "internalType": "uint256",
          "name": "amount",
          "type": "uint256"
        }
      ],
      "name": "ClaimBorrow",
      "type": "event"
    },
    {
      "anonymous": false,
      "inputs": [
        {
          "indexed": true,
          "internalType": "address",
          "name": "from",
          "type": "address"
        },
        {
          "indexed": true,
          "internalType": "address",
          "name": "token",
          "type": "address"
        },
        {
          "indexed": false,
          "internalType": "uint256",
          "name": "amount",
          "type": "uint256"
        }
      ],
      "name": "ClaimLend",
      "type": "event"
    },
    {
      "anonymous": false,
      "inputs": [
        {
          "indexed": true,
          "internalType": "address",
          "name": "from",
          "type": "address"
        },
        {
          "indexed": true,
          "internalType": "address",
          "name": "token",
          "type": "address"
        },
        {
          "indexed": false,
          "internalType": "uint256",
          "name": "amount",
          "type": "uint256"
        },
        {
          "indexed": false,
          "internalType": "uint256",
          "name": "mintAmount",
          "type": "uint256"
        }
      ],
      "name": "DepositBorrow",
      "type": "event"
    },
    {
      "anonymous": false,
      "inputs": [
        {
          "indexed": true,
          "internalType": "address",
          "name": "from",
          "type": "address"
        },
        {
          "indexed": true,
          "internalType": "address",
          "name": "token",
          "type": "address"
        },
        {
          "indexed": false,
          "internalType": "uint256",
          "name": "amount",
          "type": "uint256"
        },
        {
          "indexed": false,
          "internalType": "uint256",
          "name": "mintAmount",
          "type": "uint256"
        }
      ],
      "name": "DepositLend",
      "type": "event"
    },
    {
      "anonymous": false,
      "inputs": [
        {
          "indexed": true,
          "internalType": "address",
          "name": "from",
          "type": "address"
        },
        {
          "indexed": true,
          "internalType": "address",
          "name": "token",
          "type": "address"
        },
        {
          "indexed": false,
          "internalType": "uint256",
          "name": "amount",
          "type": "uint256"
        }
      ],
      "name": "EmergencyBorrowWithdrawal",
      "type": "event"
    },
    {
      "anonymous": false,
      "inputs": [
        {
          "indexed": true,
          "internalType": "address",
          "name": "from",
          "type": "address"
        },
        {
          "indexed": true,
          "internalType": "address",
          "name": "token",
          "type": "address"
        },
        {
          "indexed": false,
          "internalType": "uint256",
          "name": "amount",
          "type": "uint256"
        }
      ],
      "name": "EmergencyLendWithdrawal",
      "type": "event"
    },
    {
      "anonymous": false,
      "inputs": [
        {
          "indexed": true,
          "internalType": "address",
          "name": "previousOwner",
          "type": "address"
        },
        {
          "indexed": true,
          "internalType": "address",
          "name": "newOwner",
          "type": "address"
        }
      ],
      "name": "OwnershipTransferred",
      "type": "event"
    },
    {
      "anonymous": false,
      "inputs": [
        {
          "indexed": true,
          "internalType": "address",
          "name": "recieptor",
          "type": "address"
        },
        {
          "indexed": true,
          "internalType": "address",
          "name": "token",
          "type": "address"
        },
        {
          "indexed": false,
          "internalType": "uint256",
          "name": "amount",
          "type": "uint256"
        }
      ],
      "name": "Redeem",
      "type": "event"
    },
    {
      "anonymous": false,
      "inputs": [
        {
          "indexed": true,
          "internalType": "address",
          "name": "from",
          "type": "address"
        },
        {
          "indexed": true,
          "internalType": "address",
          "name": "token",
          "type": "address"
        },
        {
          "indexed": false,
          "internalType": "uint256",
          "name": "refund",
          "type": "uint256"
        }
      ],
      "name": "RefundBorrow",
      "type": "event"
    },
    {
      "anonymous": false,
      "inputs": [
        {
          "indexed": true,
          "internalType": "address",
          "name": "from",
          "type": "address"
        },
        {
          "indexed": true,
          "internalType": "address",
          "name": "token",
          "type": "address"
        },
        {
          "indexed": false,
          "internalType": "uint256",
          "name": "refund",
          "type": "uint256"
        }
      ],
      "name": "RefundLend",
      "type": "event"
    },
    {
      "anonymous": false,
      "inputs": [
        {
          "indexed": true,
          "internalType": "address",
          "name": "fromCoin",
          "type": "address"
        },
        {
          "indexed": true,
          "internalType": "address",
          "name": "toCoin",
          "type": "address"
        },
        {
          "indexed": false,
          "internalType": "uint256",
          "name": "fromValue",
          "type": "uint256"
        },
        {
          "indexed": false,
          "internalType": "uint256",
          "name": "toValue",
          "type": "uint256"
        }
      ],
      "name": "Swap",
      "type": "event"
    },
    {
      "anonymous": false,
      "inputs": [
        {
          "indexed": true,
          "internalType": "address",
          "name": "from",
          "type": "address"
        },
        {
          "indexed": true,
          "internalType": "address",
          "name": "token",
          "type": "address"
        },
        {
          "indexed": false,
          "internalType": "uint256",
          "name": "amount",
          "type": "uint256"
        },
        {
          "indexed": false,
          "internalType": "uint256",
          "name": "burnAmount",
          "type": "uint256"
        }
      ],
      "name": "WithdrawBorrow",
      "type": "event"
    },
    {
      "anonymous": false,
      "inputs": [
        {
          "indexed": true,
          "internalType": "address",
          "name": "from",
          "type": "address"
        },
        {
          "indexed": true,
          "internalType": "address",
          "name": "token",
          "type": "address"
        },
        {
          "indexed": false,
          "internalType": "uint256",
          "name": "amount",
          "type": "uint256"
        },
        {
          "indexed": false,
          "internalType": "uint256",
          "name": "burnAmount",
          "type": "uint256"
        }
      ],
      "name": "WithdrawLend",
      "type": "event"
    },
    {
      "inputs": [],
      "name": "borrowFee",
      "outputs": [
        {
          "internalType": "uint256",
          "name": "",
          "type": "uint256"
        }
      ],
      "stateMutability": "view",
      "type": "function"
    },
    {
      "inputs": [
        {
          "internalType": "uint256",
          "name": "_pid",
          "type": "uint256"
        }
      ],
      "name": "checkoutFinish",
      "outputs": [
        {
          "internalType": "bool",
          "name": "",
          "type": "bool"
        }
      ],
      "stateMutability": "view",
      "type": "function"
    },
    {
      "inputs": [
        {
          "internalType": "uint256",
          "name": "_pid",
          "type": "uint256"
        }
      ],
      "name": "checkoutLiquidate",
      "outputs": [
        {
          "internalType": "bool",
          "name": "",
          "type": "bool"
        }
      ],
      "stateMutability": "view",
      "type": "function"
    },
    {
      "inputs": [
        {
          "internalType": "uint256",
          "name": "_pid",
          "type": "uint256"
        }
      ],
      "name": "checkoutSettle",
      "outputs": [
        {
          "internalType": "bool",
          "name": "",
          "type": "bool"
        }
      ],
      "stateMutability": "view",
      "type": "function"
    },
    {
      "inputs": [
        {
          "internalType": "uint256",
          "name": "_pid",
          "type": "uint256"
        }
      ],
      "name": "claimBorrow",
      "outputs": [],
      "stateMutability": "nonpayable",
      "type": "function"
    },
    {
      "inputs": [
        {
          "internalType": "uint256",
          "name": "_pid",
          "type": "uint256"
        }
      ],
      "name": "claimLend",
      "outputs": [],
      "stateMutability": "nonpayable",
      "type": "function"
    },
    {
      "inputs": [
        {
          "internalType": "uint256",
          "name": "_settleTime",
          "type": "uint256"
        },
        {
          "internalType": "uint256",
          "name": "_endTime",
          "type": "uint256"
        },
        {
          "internalType": "uint64",
          "name": "_interestRate",
          "type": "uint64"
        },
        {
          "internalType": "uint256",
          "name": "_maxSupply",
          "type": "uint256"
        },
        {
          "internalType": "uint256",
          "name": "_martgageRate",
          "type": "uint256"
        },
        {
          "internalType": "address",
          "name": "_lendToken",
          "type": "address"
        },
        {
          "internalType": "address",
          "name": "_borrowToken",
          "type": "address"
        },
        {
          "internalType": "address",
          "name": "_spToken",
          "type": "address"
        },
        {
          "internalType": "address",
          "name": "_jpToken",
          "type": "address"
        },
        {
          "internalType": "uint256",
          "name": "_autoLiquidateThreshold",
          "type": "uint256"
        }
      ],
      "name": "createPoolInfo",
      "outputs": [],
      "stateMutability": "nonpayable",
      "type": "function"
    },
    {
      "inputs": [
        {
          "internalType": "uint256",
          "name": "_pid",
          "type": "uint256"
        },
        {
          "internalType": "uint256",
          "name": "_stakeAmount",
          "type": "uint256"
        },
        {
          "internalType": "uint256",
          "name": "_deadLine",
          "type": "uint256"
        }
      ],
      "name": "depositBorrow",
      "outputs": [],
      "stateMutability": "payable",
      "type": "function"
    },
    {
      "inputs": [
        {
          "internalType": "uint256",
          "name": "_pid",
          "type": "uint256"
        },
        {
          "internalType": "uint256",
          "name": "_stakeAmount",
          "type": "uint256"
        }
      ],
      "name": "depositLend",
      "outputs": [],
      "stateMutability": "payable",
      "type": "function"
    },
    {
      "inputs": [
        {
          "internalType": "uint256",
          "name": "_pid",
          "type": "uint256"
        }
      ],
      "name": "emergencyBorrowWithdrawal",
      "outputs": [],
      "stateMutability": "nonpayable",
      "type": "function"
    },
    {
      "inputs": [
        {
          "internalType": "uint256",
          "name": "_pid",
          "type": "uint256"
        }
      ],
      "name": "emergencyLendWithdrawal",
      "outputs": [],
      "stateMutability": "nonpayable",
      "type": "function"
    },
    {
      "inputs": [],
      "name": "feeAddress",
      "outputs": [
        {
          "internalType": "address payable",
          "name": "",
          "type": "address"
        }
      ],
      "stateMutability": "view",
      "type": "function"
    },
    {
      "inputs": [
        {
          "internalType": "uint256",
          "name": "_pid",
          "type": "uint256"
        }
      ],
      "name": "finish",
      "outputs": [],
      "stateMutability": "nonpayable",
      "type": "function"
    },
    {
      "inputs": [
        {
          "internalType": "uint256",
          "name": "_pid",
          "type": "uint256"
        }
      ],
      "name": "getPoolState",
      "outputs": [
        {
          "internalType": "uint256",
          "name": "",
          "type": "uint256"
        }
      ],
      "stateMutability": "view",
      "type": "function"
    },
    {
      "inputs": [
        {
          "internalType": "uint256",
          "name": "_pid",
          "type": "uint256"
        }
      ],
      "name": "getUnderlyingPriceView",
      "outputs": [
        {
          "internalType": "uint256[2]",
          "name": "",
          "type": "uint256[2]"
        }
      ],
      "stateMutability": "view",
      "type": "function"
    },
    {
      "inputs": [],
      "name": "globalPaused",
      "outputs": [
        {
          "internalType": "bool",
          "name": "",
          "type": "bool"
        }
      ],
      "stateMutability": "view",
      "type": "function"
    },
    {
      "inputs": [],
      "name": "lendFee",
      "outputs": [
        {
          "internalType": "uint256",
          "name": "",
          "type": "uint256"
        }
      ],
      "stateMutability": "view",
      "type": "function"
    },
    {
      "inputs": [
        {
          "internalType": "uint256",
          "name": "_pid",
          "type": "uint256"
        }
      ],
      "name": "liquidate",
      "outputs": [],
      "stateMutability": "nonpayable",
      "type": "function"
    },
    {
      "inputs": [],
      "name": "minAmount",
      "outputs": [
        {
          "internalType": "uint256",
          "name": "",
          "type": "uint256"
        }
      ],
      "stateMutability": "view",
      "type": "function"
    },
    {
      "inputs": [],
      "name": "oracle",
      "outputs": [
        {
          "internalType": "contract IBscPledgeOracle",
          "name": "",
          "type": "address"
        }
      ],
      "stateMutability": "view",
      "type": "function"
    },
    {
      "inputs": [],
      "name": "owner",
      "outputs": [
        {
          "internalType": "address",
          "name": "",
          "type": "address"
        }
      ],
      "stateMutability": "view",
      "type": "function"
    },
    {
      "inputs": [
        {
          "internalType": "uint256",
          "name": "",
          "type": "uint256"
        }
      ],
      "name": "poolBaseInfo",
      "outputs": [
        {
          "internalType": "uint256",
          "name": "settleTime",
          "type": "uint256"
        },
        {
          "internalType": "uint256",
          "name": "endTime",
          "type": "uint256"
        },
        {
          "internalType": "uint256",
          "name": "interestRate",
          "type": "uint256"
        },
        {
          "internalType": "uint256",
          "name": "maxSupply",
          "type": "uint256"
        },
        {
          "internalType": "uint256",
          "name": "lendSupply",
          "type": "uint256"
        },
        {
          "internalType": "uint256",
          "name": "borrowSupply",
          "type": "uint256"
        },
        {
          "internalType": "uint256",
          "name": "martgageRate",
          "type": "uint256"
        },
        {
          "internalType": "address",
          "name": "lendToken",
          "type": "address"
        },
        {
          "internalType": "address",
          "name": "borrowToken",
          "type": "address"
        },
        {
          "internalType": "enum MockPledgePool.PoolState",
          "name": "state",
          "type": "uint8"
        },
        {
          "internalType": "contract IDebtToken",
          "name": "spCoin",
          "type": "address"
        },
        {
          "internalType": "contract IDebtToken",
          "name": "jpCoin",
          "type": "address"
        },
        {
          "internalType": "uint256",
          "name": "autoLiquidateThreshold",
          "type": "uint256"
        }
      ],
      "stateMutability": "view",
      "type": "function"
    },
    {
      "inputs": [
        {
          "internalType": "uint256",
          "name": "",
          "type": "uint256"
        }
      ],
      "name": "poolDataInfo",
      "outputs": [
        {
          "internalType": "uint256",
          "name": "settleAmountLend",
          "type": "uint256"
        },
        {
          "internalType": "uint256",
          "name": "settleAmountBorrow",
          "type": "uint256"
        },
        {
          "internalType": "uint256",
          "name": "finishAmountLend",
          "type": "uint256"
        },
        {
          "internalType": "uint256",
          "name": "finishAmountBorrow",
          "type": "uint256"
        },
        {
          "internalType": "uint256",
          "name": "liquidationAmounLend",
          "type": "uint256"
        },
        {
          "internalType": "uint256",
          "name": "liquidationAmounBorrow",
          "type": "uint256"
        }
      ],
      "stateMutability": "view",
      "type": "function"
    },
    {
      "inputs": [],
      "name": "poolLength",
      "outputs": [
        {
          "internalType": "uint256",
          "name": "",
          "type": "uint256"
        }
      ],
      "stateMutability": "view",
      "type": "function"
    },
    {
      "inputs": [
        {
          "internalType": "uint256",
          "name": "_pid",
          "type": "uint256"
        }
      ],
      "name": "refundBorrow",
      "outputs": [],
      "stateMutability": "nonpayable",
      "type": "function"
    },
    {
      "inputs": [
        {
          "internalType": "uint256",
          "name": "_pid",
          "type": "uint256"
        }
      ],
      "name": "refundLend",
      "outputs": [],
      "stateMutability": "nonpayable",
      "type": "function"
    },
    {
      "inputs": [],
      "name": "renounceOwnership",
      "outputs": [],
      "stateMutability": "nonpayable",
      "type": "function"
    },
    {
      "inputs": [
        {
          "internalType": "uint256",
          "name": "_lendFee",
          "type": "uint256"
        },
        {
          "internalType": "uint256",
          "name": "_borrowFee",
          "type": "uint256"
        }
      ],
      "name": "setFee",
      "outputs": [],
      "stateMutability": "nonpayable",
      "type": "function"
    },
    {
      "inputs": [
        {
          "internalType": "address payable",
          "name": "_feeAddress",
          "type": "address"
        }
      ],
      "name": "setFeeAddress",
      "outputs": [],
      "stateMutability": "nonpayable",
      "type": "function"
    },
    {
      "inputs": [
        {
          "internalType": "uint256",
          "name": "_minAmount",
          "type": "uint256"
        }
      ],
      "name": "setMinAmount",
      "outputs": [],
      "stateMutability": "nonpayable",
      "type": "function"
    },
    {
      "inputs": [],
      "name": "setPause",
      "outputs": [],
      "stateMutability": "nonpayable",
      "type": "function"
    },
    {
      "inputs": [
        {
          "internalType": "uint256",
          "name": "_pid",
          "type": "uint256"
        },
        {
          "internalType": "uint256",
          "name": "_state",
          "type": "uint256"
        }
      ],
      "name": "setPoolState",
      "outputs": [],
      "stateMutability": "nonpayable",
      "type": "function"
    },
    {
      "inputs": [
        {
          "internalType": "address",
          "name": "_swapRouter",
          "type": "address"
        }
      ],
      "name": "setSwapRouterAddress",
      "outputs": [],
      "stateMutability": "nonpayable",
      "type": "function"
    },
    {
      "inputs": [
        {
          "internalType": "uint256",
          "name": "_pid",
          "type": "uint256"
        }
      ],
      "name": "settle",
      "outputs": [],
      "stateMutability": "nonpayable",
      "type": "function"
    },
    {
      "inputs": [],
      "name": "swapRouter",
      "outputs": [
        {
          "internalType": "address",
          "name": "",
          "type": "address"
        }
      ],
      "stateMutability": "view",
      "type": "function"
    },
    {
      "inputs": [
        {
          "internalType": "address",
          "name": "newOwner",
          "type": "address"
        }
      ],
      "name": "transferOwnership",
      "outputs": [],
      "stateMutability": "nonpayable",
      "type": "function"
    },
    {
      "inputs": [
        {
          "internalType": "uint256",
          "name": "_pid",
          "type": "uint256"
        },
        {
          "internalType": "uint64",
          "name": "_interestRate",
          "type": "uint64"
        },
        {
          "internalType": "uint256",
          "name": "_maxSupply",
          "type": "uint256"
        },
        {
          "internalType": "uint256",
          "name": "_autoLiquidateThreshold",
          "type": "uint256"
        }
      ],
      "name": "updatePoolBaseInfo",
      "outputs": [],
      "stateMutability": "nonpayable",
      "type": "function"
    },
    {
      "inputs": [
        {
          "internalType": "address",
          "name": "",
          "type": "address"
        },
        {
          "internalType": "uint256",
          "name": "",
          "type": "uint256"
        }
      ],
      "name": "userBorrowInfo",
      "outputs": [
        {
          "internalType": "uint256",
          "name": "stakeAmount",
          "type": "uint256"
        },
        {
          "internalType": "uint256",
          "name": "refundAmount",
          "type": "uint256"
        },
        {
          "internalType": "bool",
          "name": "hasNoRefund",
          "type": "bool"
        },
        {
          "internalType": "bool",
          "name": "hasNoClaim",
          "type": "bool"
        }
      ],
      "stateMutability": "view",
      "type": "function"
    },
    {
      "inputs": [
        {
          "internalType": "address",
          "name": "",
          "type": "address"
        },
        {
          "internalType": "uint256",
          "name": "",
          "type": "uint256"
        }
      ],
      "name": "userLendInfo",
      "outputs": [
        {
          "internalType": "uint256",
          "name": "stakeAmount",
          "type": "uint256"
        },
        {
          "internalType": "uint256",
          "name": "refundAmount",
          "type": "uint256"
        },
        {
          "internalType": "bool",
          "name": "hasNoRefund",
          "type": "bool"
        },
        {
          "internalType": "bool",
          "name": "hasNoClaim",
          "type": "bool"
        }
      ],
      "stateMutability": "view",
      "type": "function"
    },
    {
      "inputs": [
        {
          "internalType": "uint256",
          "name": "_pid",
          "type": "uint256"
        },
        {
          "internalType": "uint256",
          "name": "_jpAmount",
          "type": "uint256"
        },
        {
          "internalType": "uint256",
          "name": "_deadLine",
          "type": "uint256"
        }
      ],
      "name": "withdrawBorrow",
      "outputs": [],
      "stateMutability": "nonpayable",
      "type": "function"
    },
    {
      "inputs": [
        {
          "internalType": "uint256",
          "name": "_pid",
          "type": "uint256"
        },
        {
          "internalType": "uint256",
          "name": "_spAmount",
          "type": "uint256"
        }
      ],
      "name": "withdrawLend",
      "outputs": [],
      "stateMutability": "nonpayable",
      "type": "function"
    }
  ],
  "bytecode": "0x608060405268056bc75e2d631000006002556003805460ff191690553480156200002857600080fd5b5060405162005eef38038062005eef833981810160405260608110156200004e57600080fd5b5080516020820151604090920151600160009081559192916200007062000203565b600180546001600160a01b0319166001600160a01b038316908117909155604051919250906000907f8be0079c531659141344cd1fd0a4f28419497f9722a3daafe3b4186f6b6457e0908290a3506001600160a01b0383166200010c576040805162461bcd60e51b815260206004820152600f60248201526e4973207a65726f206164647265737360881b604482015290519081900360640190fd5b6001600160a01b0382166200015a576040805162461bcd60e51b815260206004820152600f60248201526e4973207a65726f206164647265737360881b604482015290519081900360640190fd5b6001600160a01b038116620001a8576040805162461bcd60e51b815260206004820152600f60248201526e4973207a65726f206164647265737360881b604482015290519081900360640190fd5b600580546001600160a01b039485166001600160a01b0319918216179091556003805493851661010002610100600160a81b031990941693909317909255600480549190931691161790556000600681905560075562000207565b3390565b615cd880620002176000396000f3fe6080604052600436106102465760003560e01c80637dc0d1d011610139578063bf38b8f6116100b6578063d431b1ac1161007a578063d431b1ac14610921578063e271fa0c14610936578063e626648a14610960578063ebded01714610975578063eec8d506146109f3578063f2fde38b14610a1d57610246565b8063bf38b8f61461081d578063c31c9c0714610847578063c93337561461085c578063c9bf047c146108c1578063d353a1cb146108f757610246565b806390590da0116100fd57806390590da0146107585780639b2cb5d81461077b578063a62ff16414610790578063b1597517146107ba578063bb176a64146107e457610246565b80637dc0d1d0146106a75780638705fcd4146106bc578063897b0637146106ef5780638da5cb5b146107195780638df828001461072e57610246565b80634aea0aec116101c757806361a552dc1161018b57806361a552dc146105e35780636abd7f29146105f85780636c42fed214610622578063715018a61461064c57806373effaf11461066157610246565b80634aea0aec1461047f5780635249961b1461049457806352f7c988146104c7578063593f4cb7146104f75780635a5a971e1461052057610246565b806338f2aa761161020e57806338f2aa76146103695780633ab4a445146103995780633c9fadc3146103c35780634127535814610424578063415f12401461045557610246565b80630177b68c1461024b57806303593097146102a8578063081e3eda146102da57806308e7305f1461030157806314c090cc1461033f575b600080fd5b34801561025757600080fd5b506102756004803603602081101561026e57600080fd5b5035610a50565b604080519687526020870195909552858501939093526060850191909152608084015260a0830152519081900360c00190f35b3480156102b457600080fd5b506102d8600480360360408110156102cb57600080fd5b5080359060200135610a93565b005b3480156102e657600080fd5b506102ef610c46565b60408051918252519081900360200190f35b34801561030d57600080fd5b5061032b6004803603602081101561032457600080fd5b5035610c4c565b604080519115158252519081900360200190f35b34801561034b57600080fd5b5061032b6004803603602081101561036257600080fd5b5035610d25565b34801561037557600080fd5b506102d86004803603604081101561038c57600080fd5b5080359060200135610d4f565b3480156103a557600080fd5b506102d8600480360360208110156103bc57600080fd5b50356111b8565b3480156103cf57600080fd5b506103fc600480360360408110156103e657600080fd5b506001600160a01b038135169060200135611635565b6040805194855260208501939093529015158383015215156060830152519081900360800190f35b34801561043057600080fd5b5061043961166d565b604080516001600160a01b039092168252519081900360200190f35b34801561046157600080fd5b506102d86004803603602081101561047857600080fd5b503561167c565b34801561048b57600080fd5b506102ef611921565b3480156104a057600080fd5b506102d8600480360360208110156104b757600080fd5b50356001600160a01b0316611927565b3480156104d357600080fd5b506102d8600480360360408110156104ea57600080fd5b50803590602001356119fe565b6102d86004803603606081101561050d57600080fd5b5080359060208101359060400135611a6b565b34801561052c57600080fd5b5061054a6004803603602081101561054357600080fd5b5035611d7a565b604051808e81526020018d81526020018c81526020018b81526020018a8152602001898152602001888152602001876001600160a01b03168152602001866001600160a01b031681526020018560048111156105a257fe5b8152602001846001600160a01b03168152602001836001600160a01b031681526020018281526020019d505050505050505050505050505060405180910390f35b3480156105ef57600080fd5b5061032b611e06565b34801561060457600080fd5b5061032b6004803603602081101561061b57600080fd5b5035611e0f565b34801561062e57600080fd5b506102d86004803603602081101561064557600080fd5b5035611e39565b34801561065857600080fd5b506102d8612247565b34801561066d57600080fd5b506102d86004803603608081101561068457600080fd5b5080359067ffffffffffffffff60208201351690604081013590606001356122f3565b3480156106b357600080fd5b50610439612407565b3480156106c857600080fd5b506102d8600480360360208110156106df57600080fd5b50356001600160a01b0316612416565b3480156106fb57600080fd5b506102d86004803603602081101561071257600080fd5b50356124e7565b34801561072557600080fd5b5061043961254e565b34801561073a57600080fd5b506102d86004803603602081101561075157600080fd5b503561255d565b6102d86004803603604081101561076e57600080fd5b50803590602001356127f9565b34801561078757600080fd5b506102ef612b13565b34801561079c57600080fd5b506102d8600480360360208110156107b357600080fd5b5035612b19565b3480156107c657600080fd5b506102ef600480360360208110156107dd57600080fd5b5035612f69565b3480156107f057600080fd5b506103fc6004803603604081101561080757600080fd5b506001600160a01b038135169060200135612fad565b34801561082957600080fd5b506102d86004803603602081101561084057600080fd5b5035612fe5565b34801561085357600080fd5b506104396132bb565b34801561086857600080fd5b506108866004803603602081101561087f57600080fd5b50356132cf565b6040518082600260200280838360005b838110156108ae578181015183820152602001610896565b5050505090500191505060405180910390f35b3480156108cd57600080fd5b506102d8600480360360608110156108e457600080fd5b5080359060208101359060400135613506565b34801561090357600080fd5b506102d86004803603602081101561091a57600080fd5b50356139bd565b34801561092d57600080fd5b506102d8613cb4565b34801561094257600080fd5b506102d86004803603602081101561095957600080fd5b5035613d2a565b34801561096c57600080fd5b506102ef614002565b34801561098157600080fd5b506102d8600480360361014081101561099957600080fd5b5080359060208101359067ffffffffffffffff604082013516906060810135906080810135906001600160a01b0360a082013581169160c081013582169160e0820135811691610100810135909116906101200135614008565b3480156109ff57600080fd5b506102d860048036036020811015610a1657600080fd5b503561442f565b348015610a2957600080fd5b506102d860048036036020811015610a4057600080fd5b50356001600160a01b0316614869565b60098181548110610a5d57fe5b60009182526020909120600690910201805460018201546002830154600384015460048501546005909501549395509193909286565b610a9b61496c565b6001600160a01b0316610aac61254e565b6001600160a01b031614610af5576040805162461bcd60e51b81526020600482018190526024820152600080516020615bf2833981519152604482015290519081900360640190fd5b600060088381548110610b0457fe5b90600052602060002090600c020190508160001480610b235750816001145b80610b2e5750816002145b80610b395750816003145b80610b445750816004145b610b95576040805162461bcd60e51b815260206004820152601960248201527f736574506f6f6c53746174653a207374617465206572726f7200000000000000604482015290519081900360640190fd5b81610bbc576008810180546000919060ff60a01b1916600160a01b835b0217905550610c41565b8160011415610be1576008810180546001919060ff60a01b1916600160a01b83610bb2565b8160021415610c06576008810180546002919060ff60a01b1916600160a01b83610bb2565b8160031415610c2b576008810180546003919060ff60a01b1916600160a01b83610bb2565b60088101805460ff60a01b1916600160a21b1790555b505050565b60085490565b60008060088381548110610c5c57fe5b90600052602060002090600c02019050600060098481548110610c7b57fe5b90600052602060002090600602019050610c936159ab565b610c9c856132cf565b90506000610ce6670de0b6b3a7640000610cd5610cdb85855b6020020151610cd5670de0b6b3a76400008860015b602002015190614970565b906149d2565b600187015490614970565b90506000610d186305f5e100610cd5610d1088600b01546305f5e100614a1490919063ffffffff16565b875490614970565b9091109695505050505050565b600060088281548110610d3457fe5b90600052602060002090600c02016000015442119050919050565b60026000541415610d95576040805162461bcd60e51b815260206004820152601f60248201526000805160206159ca833981519152604482015290519081900360640190fd5b600260005560035460ff1615610de0576040805162461bcd60e51b81526020600482015260186024820152600080516020615af7833981519152604482015290519081900360640190fd5b81600260088281548110610df057fe5b90600052602060002090600c020160080160149054906101000a900460ff166004811115610e1a57fe5b1480610e5c5750600360088281548110610e3057fe5b90600052602060002090600c020160080160149054906101000a900460ff166004811115610e5a57fe5b145b610ea9576040805162461bcd60e51b815260206004820152601960248201527839ba30ba329d103334b734b9b4103634b8bab4b230ba34b7b760391b604482015290519081900360640190fd5b600060088481548110610eb857fe5b90600052602060002090600c02019050600060098581548110610ed757fe5b9060005260206000209060060201905060008411610f265760405162461bcd60e51b8152600401808060200182810382526025815260200180615a0e6025913960400191505060405180910390fd5b600982015460408051632770a7eb60e21b81523360048201526024810187905290516001600160a01b0390921691639dc29fac9160448082019260009290919082900301818387803b158015610f7b57600080fd5b505af1158015610f8f573d6000803e3d6000fd5b50508254915060009050610faf82610cd588670de0b6b3a7640000614970565b905060026008850154600160a01b900460ff166004811115610fcd57fe5b14156110ba578360010154421161102b576040805162461bcd60e51b815260206004820181905260248201527f77697468647261774c656e643a206c657373207468616e20656e642074696d65604482015290519081900360640190fd5b6000611050670de0b6b3a7640000610cd584876002015461497090919063ffffffff16565b600786015490915061106d9033906001600160a01b031683614a6e565b600785015460408051838152602081018a905281516001600160a01b039093169233927f690f32ccf3e832d5ff975d781039bc2affebee9c973939c9b710091b87954c9d928290030190a3505b60036008850154600160a01b900460ff1660048111156110d657fe5b14156111aa578354421161111b5760405162461bcd60e51b8152600401808060200182810382526022815260200180615ad56022913960400191505060405180910390fd5b6000611140670de0b6b3a7640000610cd584876004015461497090919063ffffffff16565b600786015490915061115d9033906001600160a01b031683614a6e565b600785015460408051838152602081018a905281516001600160a01b039093169233927f690f32ccf3e832d5ff975d781039bc2affebee9c973939c9b710091b87954c9d928290030190a3505b505060016000555050505050565b600260005414156111fe576040805162461bcd60e51b815260206004820152601f60248201526000805160206159ca833981519152604482015290519081900360640190fd5b600260005560035460ff1615611249576040805162461bcd60e51b81526020600482015260186024820152600080516020615af7833981519152604482015290519081900360640190fd5b806008818154811061125757fe5b90600052602060002090600c02016000015442116112b4576040805162461bcd60e51b8152602060048201526015602482015274477265617465207468616e20746869732074696d6560581b604482015290519081900360640190fd5b816001600882815481106112c457fe5b90600052602060002090600c020160080160149054906101000a900460ff1660048111156112ee57fe5b1480611330575060026008828154811061130457fe5b90600052602060002090600c020160080160149054906101000a900460ff16600481111561132e57fe5b145b80611371575060036008828154811061134557fe5b90600052602060002090600c020160080160149054906101000a900460ff16600481111561136f57fe5b145b6113b0576040805162461bcd60e51b815260206004820152601b6024820152600080516020615b89833981519152604482015290519081900360640190fd5b6000600884815481106113bf57fe5b90600052602060002090600c020190506000600985815481106113de57fe5b60009182526020808320338452600a825260408085208a86529092529220805460069092029092019250611459576040805162461bcd60e51b815260206004820152601f60248201527f636c61696d426f72726f773a206e6f7420636c61696d206a705f746f6b656e00604482015290519081900360640190fd5b6002810154610100900460ff16156114b8576040805162461bcd60e51b815260206004820152601860248201527f636c61696d426f72726f773a20616761696e20636c61696d0000000000000000604482015290519081900360640190fd5b60006114dd6305f5e100610cd58660060154866000015461497090919063ffffffff16565b905060006115088560050154610cd5670de0b6b3a7640000866000015461497090919063ffffffff16565b90506000611522670de0b6b3a7640000610cd58585614970565b600a870154604080516340c10f1960e01b81523360048201526024810184905290519293506001600160a01b03909116916340c10f199160448082019260009290919082900301818387803b15801561157a57600080fd5b505af115801561158e573d6000803e3d6000fd5b50508654600092506115af9150670de0b6b3a764000090610cd59086614970565b60078801549091506115cc9033906001600160a01b031683614a6e565b60028501805461ff00191661010017905560088701546040805184815290516001600160a01b039092169133917f3ddafe3ebb4d0c818317027aabfa82dc9983942ceeb80523167e2de047b17fbd919081900360200190a3505060016000555050505050505050565b600a60209081526000928352604080842090915290825290208054600182015460029092015490919060ff8082169161010090041684565b6004546001600160a01b031681565b61168461496c565b6001600160a01b031661169561254e565b6001600160a01b0316146116de576040805162461bcd60e51b81526020600482018190526024820152600080516020615bf2833981519152604482015290519081900360640190fd5b6000600982815481106116ed57fe5b9060005260206000209060060201905060006008838154811061170c57fe5b90600052602060002090600c0201905080600001544211611774576040805162461bcd60e51b815260206004820181905260248201527f6e6f772074696d65206973206c657373207468616e206d617463682074696d65604482015290519081900360640190fd5b60016008820154600160a01b900460ff16600481111561179057fe5b146117cc5760405162461bcd60e51b8152600401808060200182810382526027815260200180615b3c6027913960400191505060405180910390fd5b6008810154600782015460028301546001600160a01b03928316929091169060009061180e906305f5e10090610cd5906118069083614a14565b885490614970565b9050600061183d6305f5e100610cd56118366305f5e100600654614a1490919063ffffffff16565b8590614970565b9050600080611863600360019054906101000a90046001600160a01b0316878786614b1f565b91509150838111156118b257600061187b8286614b6c565b60045460078a015491925061189d916001600160a01b03918216911683614a6e565b6118a78282614b6c565b60048a0155506118ba565b600488018190555b60018801546000906118cc9084614b6c565b60075460088a01549192506000916118ee91906001600160a01b031684614bae565b60058b0181905560088a01805491925060039160ff60a01b1916600160a01b835b02179055505050505050505050505050565b60065481565b61192f61496c565b6001600160a01b031661194061254e565b6001600160a01b031614611989576040805162461bcd60e51b81526020600482018190526024820152600080516020615bf2833981519152604482015290519081900360640190fd5b6001600160a01b0381166119d6576040805162461bcd60e51b815260206004820152600f60248201526e4973207a65726f206164647265737360881b604482015290519081900360640190fd5b600380546001600160a01b0390921661010002610100600160a81b0319909216919091179055565b611a0661496c565b6001600160a01b0316611a1761254e565b6001600160a01b031614611a60576040805162461bcd60e51b81526020600482018190526024820152600080516020615bf2833981519152604482015290519081900360640190fd5b600691909155600755565b60026000541415611ab1576040805162461bcd60e51b815260206004820152601f60248201526000805160206159ca833981519152604482015290519081900360640190fd5b600260005560035460ff1615611afc576040805162461bcd60e51b81526020600482015260186024820152600080516020615af7833981519152604482015290519081900360640190fd5b8260088181548110611b0a57fe5b90600052602060002090600c0201600001544210611b65576040805162461bcd60e51b81526020600482015260136024820152724c657373207468616e20746869732074696d6560681b604482015290519081900360640190fd5b83600060088281548110611b7557fe5b90600052602060002090600c020160080160149054906101000a900460ff166004811115611b9f57fe5b14611bdb5760405162461bcd60e51b8152600401808060200182810382526028815260200180615ba96028913960400191505060405180910390fd5b8242811015611c22576040805162461bcd60e51b815260206004820152600e60248201526d1cdd185ad94e881156141254915160921b604482015290519081900360640190fd5b600060088781548110611c3157fe5b60009182526020808320338452600a825260408085208c8652909252908320600c92909202016008810154909350909190611c75906001600160a01b031689614bfa565b905060008111611cb65760405162461bcd60e51b8152600401808060200182810382526025815260200180615b176025913960400191505060405180910390fd5b60028201805461ffff1916905560088301546001600160a01b0316611cfc578154611ce19034614a14565b82556005830154611cf29034614a14565b6005840155611d1f565b8154611d089089614a14565b82556005830154611d199089614a14565b60058401555b6008830154604080518a81526020810184905281516001600160a01b039093169233927f1d7b72e666a0b6217efe7cfa1b604ea5c7b39219563ce48b30c9da77045247a5928290030190a35050600160005550505050505050565b60088181548110611d8757fe5b60009182526020909120600c9091020180546001820154600283015460038401546004850154600586015460068701546007880154600889015460098a0154600a8b0154600b909b0154999b509799969895979496939592946001600160a01b039283169483831694600160a01b90930460ff1693918216929116908d565b60035460ff1681565b600060088281548110611e1e57fe5b90600052602060002090600c02016001015442119050919050565b60026000541415611e7f576040805162461bcd60e51b815260206004820152601f60248201526000805160206159ca833981519152604482015290519081900360640190fd5b600260005560035460ff1615611eca576040805162461bcd60e51b81526020600482015260186024820152600080516020615af7833981519152604482015290519081900360640190fd5b8060088181548110611ed857fe5b90600052602060002090600c0201600001544211611f35576040805162461bcd60e51b8152602060048201526015602482015274477265617465207468616e20746869732074696d6560581b604482015290519081900360640190fd5b81600160088281548110611f4557fe5b90600052602060002090600c020160080160149054906101000a900460ff166004811115611f6f57fe5b1480611fb15750600260088281548110611f8557fe5b90600052602060002090600c020160080160149054906101000a900460ff166004811115611faf57fe5b145b80611ff25750600360088281548110611fc657fe5b90600052602060002090600c020160080160149054906101000a900460ff166004811115611ff057fe5b145b612031576040805162461bcd60e51b815260206004820152601b6024820152600080516020615b89833981519152604482015290519081900360640190fd5b60006008848154811061204057fe5b90600052602060002090600c0201905060006009858154811061205f57fe5b60009182526020808320338452600b825260408085208a865290925292208054600690920290920192506120da576040805162461bcd60e51b815260206004820152601d60248201527f636c61696d4c656e643a206e6f7420636c61696d2073705f746f6b656e000000604482015290519081900360640190fd5b6002810154610100900460ff1615612132576040805162461bcd60e51b8152602060048201526016602482015275636c61696d4c656e643a20616761696e20636c61696d60501b604482015290519081900360640190fd5b6004830154815460009161215291610cd590670de0b6b3a7640000614970565b8354909150600061216f670de0b6b3a7640000610cd58486614970565b6009870154604080516340c10f1960e01b81523360048201526024810184905290519293506001600160a01b03909116916340c10f199160448082019260009290919082900301818387803b1580156121c757600080fd5b505af11580156121db573d6000803e3d6000fd5b50505060028501805461ff0019166101001790555060088601546040805183815290516001600160a01b039092169133917f6f4dd2687b3c3bfa99d39742b01d6e0ad9604c48559791d5df4ff5df44b41dfd919081900360200190a35050600160005550505050505050565b61224f61496c565b6001600160a01b031661226061254e565b6001600160a01b0316146122a9576040805162461bcd60e51b81526020600482018190526024820152600080516020615bf2833981519152604482015290519081900360640190fd5b6001546040516000916001600160a01b0316907f8be0079c531659141344cd1fd0a4f28419497f9722a3daafe3b4186f6b6457e0908390a3600180546001600160a01b0319169055565b6122fb61496c565b6001600160a01b031661230c61254e565b6001600160a01b031614612355576040805162461bcd60e51b81526020600482018190526024820152600080516020615bf2833981519152604482015290519081900360640190fd5b836008818154811061236357fe5b90600052602060002090600c02016000015442106123be576040805162461bcd60e51b81526020600482015260136024820152724c657373207468616e20746869732074696d6560681b604482015290519081900360640190fd5b6000600886815481106123cd57fe5b6000918252602090912067ffffffffffffffff9096166002600c9092029096019081019590955550506003830191909155600b9091015550565b6005546001600160a01b031681565b61241e61496c565b6001600160a01b031661242f61254e565b6001600160a01b031614612478576040805162461bcd60e51b81526020600482018190526024820152600080516020615bf2833981519152604482015290519081900360640190fd5b6001600160a01b0381166124c5576040805162461bcd60e51b815260206004820152600f60248201526e4973207a65726f206164647265737360881b604482015290519081900360640190fd5b600480546001600160a01b0319166001600160a01b0392909216919091179055565b6124ef61496c565b6001600160a01b031661250061254e565b6001600160a01b031614612549576040805162461bcd60e51b81526020600482018190526024820152600080516020615bf2833981519152604482015290519081900360640190fd5b600255565b6001546001600160a01b031690565b61256561496c565b6001600160a01b031661257661254e565b6001600160a01b0316146125bf576040805162461bcd60e51b81526020600482018190526024820152600080516020615bf2833981519152604482015290519081900360640190fd5b6000600882815481106125ce57fe5b90600052602060002090600c020190506000600983815481106125ed57fe5b906000526020600020906006020190506008838154811061260a57fe5b90600052602060002090600c020160000154421161266f576040805162461bcd60e51b815260206004820152601c60248201527f736574746c653a206c657373207468616e20736574746c6554696d6500000000604482015290519081900360640190fd5b60006008830154600160a01b900460ff16600481111561268b57fe5b146126dd576040805162461bcd60e51b815260206004820181905260248201527f736574746c653a20706f6f6c207374617465206d757374206265206d61746368604482015290519081900360640190fd5b600082600401541180156126f5575060008260050154115b156127cd576127026159ab565b61270b846132cf565b90506000612733670de0b6b3a7640000610cd56127288585610cb5565b600588015490614970565b905060006127568560060154610cd56305f5e1008561497090919063ffffffff16565b9050808560040154111561277657808455600585015460018501556127b0565b6004850154845582516127aa9061279790610cd56305f5e100876001610cca565b60068701546004880154610cd591614970565b60018501555b50505060088201805460ff60a01b1916600160a01b179055610c41565b60088201805460ff60a01b1916600160a21b179055600482015481556005909101546001919091015550565b6002600054141561283f576040805162461bcd60e51b815260206004820152601f60248201526000805160206159ca833981519152604482015290519081900360640190fd5b600260005560035460ff161561288a576040805162461bcd60e51b81526020600482015260186024820152600080516020615af7833981519152604482015290519081900360640190fd5b816008818154811061289857fe5b90600052602060002090600c02016000015442106128f3576040805162461bcd60e51b81526020600482015260136024820152724c657373207468616e20746869732074696d6560681b604482015290519081900360640190fd5b8260006008828154811061290357fe5b90600052602060002090600c020160080160149054906101000a900460ff16600481111561292d57fe5b146129695760405162461bcd60e51b8152600401808060200182810382526028815260200180615ba96028913960400191505060405180910390fd5b60006008858154811061297857fe5b60009182526020808320338452600b825260408085208a865290925292206004600c9092029092019081015460038201549193506129b69190614b6c565b8511156129f45760405162461bcd60e51b815260040180806020018281038252602b815260200180615a83602b913960400191505060405180910390fd5b6007820154600090612a0f906001600160a01b031687614bfa565b90506002548111612a515760405162461bcd60e51b8152600401808060200182810382526021815260200180615c126021913960400191505060405180910390fd5b60028201805461ffff1916905560078301546001600160a01b0316612a97578154612a7c9034614a14565b82556004830154612a8d9034614a14565b6004840155612aba565b8154612aa39087614a14565b82556004830154612ab49087614a14565b60048401555b6007830154604080518881526020810184905281516001600160a01b039093169233927f129e8c18c2f7baf99c7eb257934c21f038c72412803512dcf0a942a4562a82ea928290030190a3505060016000555050505050565b60025481565b60026000541415612b5f576040805162461bcd60e51b815260206004820152601f60248201526000805160206159ca833981519152604482015290519081900360640190fd5b600260005560035460ff1615612baa576040805162461bcd60e51b81526020600482015260186024820152600080516020615af7833981519152604482015290519081900360640190fd5b8060088181548110612bb857fe5b90600052602060002090600c0201600001544211612c15576040805162461bcd60e51b8152602060048201526015602482015274477265617465207468616e20746869732074696d6560581b604482015290519081900360640190fd5b81600160088281548110612c2557fe5b90600052602060002090600c020160080160149054906101000a900460ff166004811115612c4f57fe5b1480612c915750600260088281548110612c6557fe5b90600052602060002090600c020160080160149054906101000a900460ff166004811115612c8f57fe5b145b80612cd25750600360088281548110612ca657fe5b90600052602060002090600c020160080160149054906101000a900460ff166004811115612cd057fe5b145b612d11576040805162461bcd60e51b815260206004820152601b6024820152600080516020615b89833981519152604482015290519081900360640190fd5b600060088481548110612d2057fe5b90600052602060002090600c02019050600060098581548110612d3f57fe5b60009182526020808320338452600a825260408085208a86529092529083206006929092020160018101546005860154919450919291612d7f9190614b6c565b11612dd1576040805162461bcd60e51b815260206004820152601860248201527f726566756e64426f72726f773a206e6f7420726566756e640000000000000000604482015290519081900360640190fd5b8054612e20576040805162461bcd60e51b81526020600482015260196024820152781c99599d5b99109bdc9c9bddce881b9bdd081c1b195919d959603a1b604482015290519081900360640190fd5b600281015460ff1615612e7a576040805162461bcd60e51b815260206004820152601a60248201527f726566756e64426f72726f773a20616761696e20726566756e64000000000000604482015290519081900360640190fd5b60058301548154600091612e9a91610cd590670de0b6b3a7640000614970565b90506000612ecf670de0b6b3a7640000610cd584612ec988600101548a60050154614b6c90919063ffffffff16565b90614970565b6008860154909150612eec9033906001600160a01b031683614a6e565b6001830154612efb9082614a14565b60018085019190915560028401805460ff1916909117905560088501546040805183815290516001600160a01b039092169133917f732816f48de550f238bd0d4f5b79819c7b24a49d6132928978e3cd36568dd5db919081900360200190a350506001600055505050505050565b60008060088381548110612f7957fe5b90600052602060002090600c020190508060080160149054906101000a900460ff166004811115612fa657fe5b9392505050565b600b60209081526000928352604080842090915290825290208054600182015460029092015490919060ff8082169161010090041684565b6002600054141561302b576040805162461bcd60e51b815260206004820152601f60248201526000805160206159ca833981519152604482015290519081900360640190fd5b600260005560035460ff1615613076576040805162461bcd60e51b81526020600482015260186024820152600080516020615af7833981519152604482015290519081900360640190fd5b8060046008828154811061308657fe5b90600052602060002090600c020160080160149054906101000a900460ff1660048111156130b057fe5b14613102576040805162461bcd60e51b815260206004820152601b60248201527f73746174653a207374617465206d75737420626520756e646f6e650000000000604482015290519081900360640190fd5b60006008838154811061311157fe5b90600052602060002090600c02019050600081600401541161317a576040805162461bcd60e51b815260206004820152601c60248201527f656d657267656e634c656e643a206e6f74207769746864726177616c00000000604482015290519081900360640190fd5b336000908152600b60209081526040808320868452909152902080546131e1576040805162461bcd60e51b81526020600482015260176024820152761c99599d5b9913195b990e881b9bdd081c1b195919d959604a1b604482015290519081900360640190fd5b600281015460ff161561323b576040805162461bcd60e51b815260206004820152601860248201527f726566756e644c656e643a20616761696e20726566756e640000000000000000604482015290519081900360640190fd5b600782015481546132599133916001600160a01b0390911690614a6e565b60028101805460ff191660011790556007820154815460408051918252516001600160a01b039092169133917f71d14c5f08cb34cbfb59c06ea5151aafbf742d0b6ed00fdb83addd9afb5c0fd0919081900360200190a3505060016000555050565b60035461010090046001600160a01b031681565b6132d76159ab565b6000600883815481106132e657fe5b600091825260209182902060408051600280825260608083018452600c9095029093019550929383019080368337505050600783015481519192506001600160a01b031690829060009061333657fe5b6020908102919091010152600882015481516001600160a01b03909116908290600190811061336157fe5b6020908102919091018101919091526005546040516304e59d2760e11b8152600481018381528451602483015284516060946001600160a01b03909416936309cb3a4e938793928392604490920191858101910280838360005b838110156133d35781810151838201526020016133bb565b505050509050019250505060006040518083038186803b1580156133f657600080fd5b505afa15801561340a573d6000803e3d6000fd5b505050506040513d6000823e601f3d908101601f19168201604052602081101561343357600080fd5b8101908080516040519392919084600160201b82111561345257600080fd5b90830190602082018581111561346757600080fd5b82518660208202830111600160201b8211171561348357600080fd5b82525081516020918201928201910280838360005b838110156134b0578181015183820152602001613498565b5050505090500160405250505090506040518060400160405280826000815181106134d757fe5b60200260200101518152602001826001815181106134f157fe5b60200260200101518152509350505050919050565b6002600054141561354c576040805162461bcd60e51b815260206004820152601f60248201526000805160206159ca833981519152604482015290519081900360640190fd5b600260005560035460ff1615613597576040805162461bcd60e51b81526020600482015260186024820152600080516020615af7833981519152604482015290519081900360640190fd5b80428110156135de576040805162461bcd60e51b815260206004820152600e60248201526d1cdd185ad94e881156141254915160921b604482015290519081900360640190fd5b836002600882815481106135ee57fe5b90600052602060002090600c020160080160149054906101000a900460ff16600481111561361857fe5b148061365a575060036008828154811061362e57fe5b90600052602060002090600c020160080160149054906101000a900460ff16600481111561365857fe5b145b6136a7576040805162461bcd60e51b815260206004820152601960248201527839ba30ba329d103334b734b9b4103634b8bab4b230ba34b7b760391b604482015290519081900360640190fd5b6000600886815481106136b657fe5b90600052602060002090600c020190506000600987815481106136d557fe5b90600052602060002090600602019050600086116137245760405162461bcd60e51b8152600401808060200182810382526027815260200180615aae6027913960400191505060405180910390fd5b600a82015460408051632770a7eb60e21b81523360048201526024810189905290516001600160a01b0390921691639dc29fac9160448082019260009290919082900301818387803b15801561377957600080fd5b505af115801561378d573d6000803e3d6000fd5b50505060068301548254600092506137ae916305f5e10091610cd591614970565b905060006137c882610cd58a670de0b6b3a7640000614970565b905060026008850154600160a01b900460ff1660048111156137e657fe5b14156138bd578360010154421161382e5760405162461bcd60e51b8152600401808060200182810382526022815260200180615c816022913960400191505060405180910390fd5b6000613853670de0b6b3a7640000610cd586600301548561497090919063ffffffff16565b60088601549091506138709033906001600160a01b031683614a6e565b6008850154604080518b81526020810184905281516001600160a01b039093169233927f0f5e74952c2f9259a748f3aa9a6c4534a6f46a5966e5baabdb6bd337f05234a8928290030190a3505b60036008850154600160a01b900460ff1660048111156138d957fe5b14156139ad578354421161391e5760405162461bcd60e51b81526004018080602001828103825260248152602001806159ea6024913960400191505060405180910390fd5b6000613943670de0b6b3a7640000610cd586600501548561497090919063ffffffff16565b60088601549091506139609033906001600160a01b031683614a6e565b6008850154604080518b81526020810184905281516001600160a01b039093169233927f0f5e74952c2f9259a748f3aa9a6c4534a6f46a5966e5baabdb6bd337f05234a8928290030190a3505b5050600160005550505050505050565b6139c561496c565b6001600160a01b03166139d661254e565b6001600160a01b031614613a1f576040805162461bcd60e51b81526020600482018190526024820152600080516020615bf2833981519152604482015290519081900360640190fd5b600060088281548110613a2e57fe5b90600052602060002090600c02019050600060098381548110613a4d57fe5b9060005260206000209060060201905060088381548110613a6a57fe5b90600052602060002090600c0201600101544211613acf576040805162461bcd60e51b815260206004820152601a60248201527f66696e6973683a206c657373207468616e20656e642074696d65000000000000604482015290519081900360640190fd5b60016008830154600160a01b900460ff166004811115613aeb57fe5b14613b275760405162461bcd60e51b8152600401808060200182810382526024815260200180615c336024913960400191505060405180910390fd5b6008820154600783015460028401546001600160a01b039283169290911690600090613b61906305f5e10090610cd590610d109083614a14565b90506000613b896305f5e100610cd56118366305f5e100600654614a1490919063ffffffff16565b9050600080613baf600360019054906101000a90046001600160a01b0316878786614b1f565b9150915083811015613c08576040805162461bcd60e51b815260206004820152601c60248201527f66696e6973683a20536c69707061676520697320746f6f206869676800000000604482015290519081900360640190fd5b83811115613c53576000613c1c8286614b6c565b60045460078b0154919250613c3e916001600160a01b03918216911683614a6e565b613c488282614b6c565b600289015550613c5b565b600287018190555b6001870154600090613c6d9084614b6c565b60065460088b0154919250600091613c8f91906001600160a01b031684614bae565b60038a0181905560088b01805491925060029160ff60a01b1916600160a01b8361190f565b613cbc61496c565b6001600160a01b0316613ccd61254e565b6001600160a01b031614613d16576040805162461bcd60e51b81526020600482018190526024820152600080516020615bf2833981519152604482015290519081900360640190fd5b6003805460ff19811660ff90911615179055565b60026000541415613d70576040805162461bcd60e51b815260206004820152601f60248201526000805160206159ca833981519152604482015290519081900360640190fd5b600260005560035460ff1615613dbb576040805162461bcd60e51b81526020600482015260186024820152600080516020615af7833981519152604482015290519081900360640190fd5b80600460088281548110613dcb57fe5b90600052602060002090600c020160080160149054906101000a900460ff166004811115613df557fe5b14613e47576040805162461bcd60e51b815260206004820152601b60248201527f73746174653a207374617465206d75737420626520756e646f6e650000000000604482015290519081900360640190fd5b600060088381548110613e5657fe5b90600052602060002090600c020190506000816005015411613ebf576040805162461bcd60e51b815260206004820152601f60248201527f656d657267656e6379426f72726f773a206e6f74207769746864726177616c00604482015290519081900360640190fd5b336000908152600a6020908152604080832086845290915290208054613f28576040805162461bcd60e51b81526020600482015260196024820152781c99599d5b99109bdc9c9bddce881b9bdd081c1b195919d959603a1b604482015290519081900360640190fd5b600281015460ff1615613f82576040805162461bcd60e51b815260206004820152601a60248201527f726566756e64426f72726f773a20616761696e20726566756e64000000000000604482015290519081900360640190fd5b60088201548154613fa09133916001600160a01b0390911690614a6e565b60028101805460ff191660011790556008820154815460408051918252516001600160a01b039092169133917f5a06c7de92f1dc59e8cba872927d016c80ce5f0fb2295c898dfb7a2f08e43fb1919081900360200190a3505060016000555050565b60075481565b61401061496c565b6001600160a01b031661402161254e565b6001600160a01b03161461406a576040805162461bcd60e51b81526020600482018190526024820152600080516020615bf2833981519152604482015290519081900360640190fd5b8989116140a85760405162461bcd60e51b815260040180806020018281038252602a815260200180615a33602a913960400191505060405180910390fd5b6001600160a01b038216614103576040805162461bcd60e51b815260206004820152601a60248201527f637265617465506f6f6c3a6973207a65726f2061646472657373000000000000604482015290519081900360640190fd5b6001600160a01b03831661415e576040805162461bcd60e51b815260206004820152601a60248201527f637265617465506f6f6c3a6973207a65726f2061646472657373000000000000604482015290519081900360640190fd5b6008604051806101a001604052808c81526020018b81526020018a67ffffffffffffffff1681526020018981526020016000815260200160008152602001888152602001876001600160a01b03168152602001866001600160a01b03168152602001600060048111156141cd57fe5b81526001600160a01b0380871660208084019190915286821660408085019190915260609384018790528554600181810188556000978852968390208651600c909202019081559185015195820195909555938301516002850155908201516003840155608082015160048085019190915560a0830151600585015560c0830151600685015560e08301516007850180549184166001600160a01b031992831617905561010084015160088601805491909416911617808355610120840151939493929160ff60a01b1990911690600160a01b9084908111156142ac57fe5b0217905550610140820151600980830180546001600160a01b039384166001600160a01b031991821617909155610160850151600a850180549190941691161790915561018090920151600b909101556040805160c081018252600080825260208201818152928201818152606083018281526080840183815260a08501848152875460018101895597909452935160069096027f6e1540171b6c0c960b71a7020d9f60077f6af931a8bbf590da0223dacf75c7af81019690965593517f6e1540171b6c0c960b71a7020d9f60077f6af931a8bbf590da0223dacf75c7b0860155517f6e1540171b6c0c960b71a7020d9f60077f6af931a8bbf590da0223dacf75c7b185015591517f6e1540171b6c0c960b71a7020d9f60077f6af931a8bbf590da0223dacf75c7b2840155517f6e1540171b6c0c960b71a7020d9f60077f6af931a8bbf590da0223dacf75c7b3830155517f6e1540171b6c0c960b71a7020d9f60077f6af931a8bbf590da0223dacf75c7b49091015550505050505050505050565b60026000541415614475576040805162461bcd60e51b815260206004820152601f60248201526000805160206159ca833981519152604482015290519081900360640190fd5b600260005560035460ff16156144c0576040805162461bcd60e51b81526020600482015260186024820152600080516020615af7833981519152604482015290519081900360640190fd5b80600881815481106144ce57fe5b90600052602060002090600c020160000154421161452b576040805162461bcd60e51b8152602060048201526015602482015274477265617465207468616e20746869732074696d6560581b604482015290519081900360640190fd5b8160016008828154811061453b57fe5b90600052602060002090600c020160080160149054906101000a900460ff16600481111561456557fe5b14806145a7575060026008828154811061457b57fe5b90600052602060002090600c020160080160149054906101000a900460ff1660048111156145a557fe5b145b806145e857506003600882815481106145bc57fe5b90600052602060002090600c020160080160149054906101000a900460ff1660048111156145e657fe5b145b614627576040805162461bcd60e51b815260206004820152601b6024820152600080516020615b89833981519152604482015290519081900360640190fd5b60006008848154811061463657fe5b90600052602060002090600c0201905060006009858154811061465557fe5b60009182526020808320338452600b825260408085208a865290925292208054600690920290920192506146ca576040805162461bcd60e51b81526020600482015260176024820152761c99599d5b9913195b990e881b9bdd081c1b195919d959604a1b604482015290519081900360640190fd5b815460048401546000916146de9190614b6c565b11614729576040805162461bcd60e51b81526020600482015260166024820152751c99599d5b9913195b990e881b9bdd081c99599d5b9960521b604482015290519081900360640190fd5b600281015460ff1615614783576040805162461bcd60e51b815260206004820152601960248201527f726566756e644c656e643a2072657065617420726566756e6400000000000000604482015290519081900360640190fd5b600483015481546000916147a391610cd590670de0b6b3a7640000614970565b905060006147d2670de0b6b3a7640000610cd584612ec988600001548a60040154614b6c90919063ffffffff16565b60078601549091506147ef9033906001600160a01b031683614a6e565b60028301805460ff1916600190811790915583015461480e9082614a14565b600184015560078501546040805183815290516001600160a01b039092169133917fc3e20279d41b3ed21d277920877e5e5c6665bf6aca607046a3fe0fd2bd6bda7d919081900360200190a350506001600055505050505050565b61487161496c565b6001600160a01b031661488261254e565b6001600160a01b0316146148cb576040805162461bcd60e51b81526020600482018190526024820152600080516020615bf2833981519152604482015290519081900360640190fd5b6001600160a01b0381166149105760405162461bcd60e51b8152600401808060200182810382526026815260200180615a5d6026913960400191505060405180910390fd5b6001546040516001600160a01b038084169216907f8be0079c531659141344cd1fd0a4f28419497f9722a3daafe3b4186f6b6457e090600090a3600180546001600160a01b0319166001600160a01b0392909216919091179055565b3390565b60008261497f575060006149cc565b8282028284828161498c57fe5b04146149c95760405162461bcd60e51b8152600401808060200182810382526021815260200180615bd16021913960400191505060405180910390fd5b90505b92915050565b60006149c983836040518060400160405280601a81526020017f536166654d6174683a206469766973696f6e206279207a65726f000000000000815250614c36565b6000828201838110156149c9576040805162461bcd60e51b815260206004820152601b60248201527f536166654d6174683a206164646974696f6e206f766572666c6f770000000000604482015290519081900360640190fd5b6001600160a01b038216614ab8576040516001600160a01b0384169082156108fc029083906000818181858888f19350505050158015614ab2573d6000803e3d6000fd5b50614acf565b81614acd6001600160a01b0382168584614cd8565b505b816001600160a01b0316836001600160a01b03167fd12200efa34901b99367694174c3b0d32c99585fdf37c7c26892136ddd0836d9836040518082815260200191505060405180910390a3505050565b6000806000808411614b32576000614b4f565b600354614b4f9061010090046001600160a01b0316878787614d2a565b905080614b5e88888885614ec7565b925092505094509492505050565b60006149c983836040518060400160405280601e81526020017f536166654d6174683a207375627472616374696f6e206f766572666c6f77000081525061539e565b6000806305f5e100614bc08487614970565b81614bc757fe5b0490508015614be757600454614be7906001600160a01b03168583614a6e565b614bf18382614b6c565b95945050505050565b60006001600160a01b038316614c1257349150614c30565b8115614c305782614c2e6001600160a01b0382163330866153f8565b505b50919050565b60008183614cc25760405162461bcd60e51b81526004018080602001828103825283818151815260200191508051906020019080838360005b83811015614c87578181015183820152602001614c6f565b50505050905090810190601f168015614cb45780820380516001836020036101000a031916815260200191505b509250505060405180910390fd5b506000838581614cce57fe5b0495945050505050565b604080516001600160a01b038416602482015260448082018490528251808303909101815260649091019091526020810180516001600160e01b031663a9059cbb60e01b179052610c41908490615458565b6003546000908590606090614d4e9061010090046001600160a01b03168787615509565b90506060826001600160a01b0316631f00ca7486846040518363ffffffff1660e01b81526004018083815260200180602001828103825283818151815260200191508051906020019060200280838360005b83811015614db8578181015183820152602001614da0565b50505050905001935050505060006040518083038186803b158015614ddc57600080fd5b505afa158015614df0573d6000803e3d6000fd5b505050506040513d6000823e601f3d908101601f191682016040526020811015614e1957600080fd5b8101908080516040519392919084600160201b821115614e3857600080fd5b908301906020820185811115614e4d57600080fd5b82518660208202830111600160201b82111715614e6957600080fd5b82525081516020918201928201910280838360005b83811015614e96578181015183820152602001614e7e565b50505050905001604052505050905080600081518110614eb257fe5b60200260200101519350505050949350505050565b60006001600160a01b03841615614ee557614ee58486600019615673565b6001600160a01b03831615614f0157614f018386600019615673565b846060614f0f828787615509565b905060606001600160a01b03871661509957826001600160a01b0316637ff36ab5866000853042601e016040518663ffffffff1660e01b81526004018085815260200180602001846001600160a01b03168152602001838152602001828103825285818151815260200191508051906020019060200280838360005b83811015614fa3578181015183820152602001614f8b565b50505050905001955050505050506000604051808303818588803b158015614fca57600080fd5b505af1158015614fde573d6000803e3d6000fd5b50505050506040513d6000823e601f3d908101601f19168201604052602081101561500857600080fd5b8101908080516040519392919084600160201b82111561502757600080fd5b90830190602082018581111561503c57600080fd5b82518660208202830111600160201b8211171561505857600080fd5b82525081516020918201928201910280838360005b8381101561508557818101518382015260200161506d565b505050509050016040525050509050615310565b6001600160a01b03861661519557826001600160a01b03166318cbafe5866000853042601e016040518663ffffffff1660e01b81526004018086815260200185815260200180602001846001600160a01b03168152602001838152602001828103825285818151815260200191508051906020019060200280838360005b8381101561512f578181015183820152602001615117565b505050509050019650505050505050600060405180830381600087803b15801561515857600080fd5b505af115801561516c573d6000803e3d6000fd5b505050506040513d6000823e601f3d908101601f19168201604052602081101561500857600080fd5b826001600160a01b03166338ed1739866000853042601e016040518663ffffffff1660e01b81526004018086815260200185815260200180602001846001600160a01b03168152602001838152602001828103825285818151815260200191508051906020019060200280838360005b8381101561521d578181015183820152602001615205565b505050509050019650505050505050600060405180830381600087803b15801561524657600080fd5b505af115801561525a573d6000803e3d6000fd5b505050506040513d6000823e601f3d908101601f19168201604052602081101561528357600080fd5b8101908080516040519392919084600160201b8211156152a257600080fd5b9083019060208201858111156152b757600080fd5b82518660208202830111600160201b821117156152d357600080fd5b82525081516020918201928201910280838360005b838110156153005781810151838201526020016152e8565b5050505090500160405250505090505b856001600160a01b0316876001600160a01b03167ffa2dda1cc1b86e41239702756b13effbc1a092b5c57e3ad320fbe4f3b13fe2358360008151811061535257fe5b60200260200101518460018651038151811061536a57fe5b6020026020010151604051808381526020018281526020019250505060405180910390a380600182510381518110614eb257fe5b600081848411156153f05760405162461bcd60e51b8152602060048201818152835160248401528351909283926044909101919085019080838360008315614c87578181015183820152602001614c6f565b505050900390565b604080516001600160a01b0380861660248301528416604482015260648082018490528251808303909101815260849091019091526020810180516001600160e01b03166323b872dd60e01b179052615452908590615458565b50505050565b60606154ad826040518060400160405280602081526020017f5361666545524332303a206c6f772d6c6576656c2063616c6c206661696c6564815250856001600160a01b03166157cc9092919063ffffffff16565b805190915015610c41578080602001905160208110156154cc57600080fd5b5051610c415760405162461bcd60e51b815260040180806020018281038252602a815260200180615c57602a913960400191505060405180910390fd5b6040805160028082526060808301845292869291906020830190803683370190505091506001600160a01b0384161561554257836155a8565b806001600160a01b031663ad5c46486040518163ffffffff1660e01b815260040160206040518083038186803b15801561557b57600080fd5b505afa15801561558f573d6000803e3d6000fd5b505050506040513d60208110156155a557600080fd5b50515b826000815181106155b557fe5b6001600160a01b0392831660209182029290920101528316156155d8578261563e565b806001600160a01b031663ad5c46486040518163ffffffff1660e01b815260040160206040518083038186803b15801561561157600080fd5b505afa158015615625573d6000803e3d6000fd5b505050506040513d602081101561563b57600080fd5b50515b8260018151811061564b57fe5b60200260200101906001600160a01b031690816001600160a01b031681525050509392505050565b604080516001600160a01b038481166024830152604480830185905283518084039091018152606490920183526020820180516001600160e01b031663095ea7b360e01b178152925182516000946060949389169392918291908083835b602083106156f05780518252601f1990920191602091820191016156d1565b6001836020036101000a0380198251168184511680821785525050505050509050019150506000604051808303816000865af19150503d8060008114615752576040519150601f19603f3d011682016040523d82523d6000602084013e615757565b606091505b5091509150818015615785575080511580615785575080806020019051602081101561578257600080fd5b50515b6157c5576040805162461bcd60e51b815260206004820152600c60248201526b2173616665417070726f766560a01b604482015290519081900360640190fd5b5050505050565b60606157db84846000856157e3565b949350505050565b6060824710156158245760405162461bcd60e51b8152600401808060200182810382526026815260200180615b636026913960400191505060405180910390fd5b61582d8561593f565b61587e576040805162461bcd60e51b815260206004820152601d60248201527f416464726573733a2063616c6c20746f206e6f6e2d636f6e7472616374000000604482015290519081900360640190fd5b60006060866001600160a01b031685876040518082805190602001908083835b602083106158bd5780518252601f19909201916020918201910161589e565b6001836020036101000a03801982511681845116808217855250505050505090500191505060006040518083038185875af1925050503d806000811461591f576040519150601f19603f3d011682016040523d82523d6000602084013e615924565b606091505b5091509150615934828286615945565b979650505050505050565b3b151590565b60608315615954575081612fa6565b8251156159645782518084602001fd5b60405162461bcd60e51b8152602060048201818152845160248401528451859391928392604401919085019080838360008315614c87578181015183820152602001614c6f565b6040518060400160405280600290602082028036833750919291505056fe5265656e7472616e637947756172643a207265656e7472616e742063616c6c007769746864726177426f72726f773a206c657373207468616e206d617463682074696d6577697468647261774c656e643a20776974686472617720616d6f756e74206973207a65726f637265617465506f6f6c3a656e642074696d65206772617465207468616e20736574746c652074696d654f776e61626c653a206e6577206f776e657220697320746865207a65726f20616464726573736465706f7369744c656e643a20746865207175616e74697479206578636565647320746865206c696d69747769746864726177426f72726f773a20776974686472617720616d6f756e74206973207a65726f77697468647261774c656e643a206c657373207468616e206d617463682074696d655374616b6520686173206265656e2073757370656e64656400000000000000006465706f736974426f72726f773a206465706f73697420616d6f756e74206973207a65726f6c69717569646174653a20706f6f6c207374617465206d75737420626520657865637574696f6e416464726573733a20696e73756666696369656e742062616c616e636520666f722063616c6c73746174653a206e6f74206d6174636820616e6420756e646f6e65000000000073746174653a20506f6f6c20737461747573206973206e6f7420657175616c20746f206d61746368536166654d6174683a206d756c7469706c69636174696f6e206f766572666c6f774f776e61626c653a2063616c6c6572206973206e6f7420746865206f776e65726465706f7369744c656e643a206c657373207468616e206d696e20616d6f756e7466696e6973683a20706f6f6c207374617465206d75737420626520657865637574696f6e5361666545524332303a204552433230206f7065726174696f6e20646964206e6f7420737563636565647769746864726177426f72726f773a206c657373207468616e20656e642074696d65a26469706673582212201a367793264cb8e813513d011476b601d04a908d117f967c777e65d364b3f96e64736f6c634300060c0033",
  "linkReferences": {},
  "deployedLinkReferences": {}
}