{
  "_format": "hh-sol-artifact-1",
  "contractName": "BscPledgeOracle",
  "sourceName": "contracts/pledge/BscPledgeOracle.sol",
  "abi": [
    {
      "inputs": [],
      "stateMutability": "nonpayable",
      "type": "constructor"
    },
    {
      "anonymous": false,
      "inputs": [
        {
          "indexed": true,
          "internalType": "address",
          "name": "previousOwner",
          "type": "address"
        },
        {
          "indexed": true,
          "internalType": "address",
          "name": "newOwner",
          "type": "address"
        }
      ],
      "name": "OwnershipTransferred",
      "type": "event"
    },
    {
      "inputs": [
        {
          "internalType": "address",
          "name": "asset",
          "type": "address"
        }
      ],
      "name": "getAssetsAggregator",
      "outputs": [
        {
          "internalType": "address",
          "name": "",
          "type": "address"
        },
        {
          "internalType": "uint256",
          "name": "",
          "type": "uint256"
        }
      ],
      "stateMutability": "view",
      "type": "function"
    },
    {
      "inputs": [
        {
          "internalType": "address",
          "name": "asset",
          "type": "address"
        }
      ],
      "name": "getPrice",
      "outputs": [
        {
          "internalType": "uint256",
          "name": "",
          "type": "uint256"
        }
      ],
      "stateMutability": "view",
      "type": "function"
    },
    {
      "inputs": [
        {
          "internalType": "uint256[]",
          "name": "assets",
          "type": "uint256[]"
        }
      ],
      "name": "getPrices",
      "outputs": [
        {
          "internalType": "uint256[]",
          "name": "",
          "type": "uint256[]"
        }
      ],
      "stateMutability": "view",
      "type": "function"
    },
    {
      "inputs": [
        {
          "internalType": "uint256",
          "name": "underlying",
          "type": "uint256"
        }
      ],
      "name": "getUnderlyingAggregator",
      "outputs": [
        {
          "internalType": "address",
          "name": "",
          "type": "address"
        },
        {
          "internalType": "uint256",
          "name": "",
          "type": "uint256"
        }
      ],
      "stateMutability": "view",
      "type": "function"
    },
    {
      "inputs": [
        {
          "internalType": "uint256",
          "name": "underlying",
          "type": "uint256"
        }
      ],
      "name": "getUnderlyingPrice",
      "outputs": [
        {
          "internalType": "uint256",
          "name": "",
          "type": "uint256"
        }
      ],
      "stateMutability": "view",
      "type": "function"
    },
    {
      "inputs": [],
      "name": "owner",
      "outputs": [
        {
          "internalType": "address",
          "name": "",
          "type": "address"
        }
      ],
      "stateMutability": "view",
      "type": "function"
    },
    {
      "inputs": [],
      "name": "renounceOwnership",
      "outputs": [],
      "stateMutability": "nonpayable",
      "type": "function"
    },
    {
      "inputs": [
        {
          "internalType": "address",
          "name": "asset",
          "type": "address"
        },
        {
          "internalType": "address",
          "name": "aggergator",
          "type": "address"
        },
        {
          "internalType": "uint256",
          "name": "_decimals",
          "type": "uint256"
        }
      ],
      "name": "setAssetsAggregator",
      "outputs": [],
      "stateMutability": "nonpayable",
      "type": "function"
    },
    {
      "inputs": [
        {
          "internalType": "uint256",
          "name": "newDecimals",
          "type": "uint256"
        }
      ],
      "name": "setDecimals",
      "outputs": [],
      "stateMutability": "nonpayable",
      "type": "function"
    },
    {
      "inputs": [
        {
          "internalType": "address",
          "name": "asset",
          "type": "address"
        },
        {
          "internalType": "uint256",
          "name": "price",
          "type": "uint256"
        }
      ],
      "name": "setPrice",
      "outputs": [],
      "stateMutability": "nonpayable",
      "type": "function"
    },
    {
      "inputs": [
        {
          "internalType": "uint256[]",
          "name": "assets",
          "type": "uint256[]"
        },
        {
          "internalType": "uint256[]",
          "name": "prices",
          "type": "uint256[]"
        }
      ],
      "name": "setPrices",
      "outputs": [],
      "stateMutability": "nonpayable",
      "type": "function"
    },
    {
      "inputs": [
        {
          "internalType": "uint256",
          "name": "underlying",
          "type": "uint256"
        },
        {
          "internalType": "address",
          "name": "aggergator",
          "type": "address"
        },
        {
          "internalType": "uint256",
          "name": "_decimals",
          "type": "uint256"
        }
      ],
      "name": "setUnderlyingAggregator",
      "outputs": [],
      "stateMutability": "nonpayable",
      "type": "function"
    },
    {
      "inputs": [
        {
          "internalType": "uint256",
          "name": "underlying",
          "type": "uint256"
        },
        {
          "internalType": "uint256",
          "name": "price",
          "type": "uint256"
        }
      ],
      "name": "setUnderlyingPrice",
      "outputs": [],
      "stateMutability": "nonpayable",
      "type": "function"
    },
    {
      "inputs": [
        {
          "internalType": "address",
          "name": "newOwner",
          "type": "address"
        }
      ],
      "name": "transferOwnership",
      "outputs": [],
      "stateMutability": "nonpayable",
      "type": "function"
    }
  ],
  "bytecode": "0x6080604052600160045534801561001557600080fd5b50600061002061021c565b600080546001600160a01b0319166001600160a01b0383169081178255604051929350917f8be0079c531659141344cd1fd0a4f28419497f9722a3daafe3b4186f6b6457e0908290a3507fa6eef7e35abe7026729641147f7915573c7e97b47efa546f5f6e3230263bcb4980546001600160a01b0319908116732514895c72f50d8bd4b4f9b1110f0d6bd2c97526179091557f64c2e3f305a1dee253577991a495a55a5ffea9609a3b64eae1a7e16086d430c58054821673e4ee17114774713d2de0ec0f035d4f7665fc025d1790557f6eeadcf5fabe7583409d8a00190d7530a5c756ce67bc330fc1fb48ae9bd42bb480548216735741306c21795fdcbb9b265ea0255f499dfe515c1790557f4804273ce0a05e4df6c3edc58751e9fb3906046c2b20743fc88635400203fd898054909116739331b55d9830ef609a2abcfac0fbce050a52fdea179055600260205260127fac33ff75c19e70fe83507db0d683fd3465c996598dc972688b7ace676c89077b8190557fcbfdb6bcdeac078b7ae24a05a21ebc220a2eeeac1336ce7904c4a5efd5f494558190557fe508599687267e945b19f23393662edb7152a6209986184e26043335310aacd581905573dc6df65b2fa0322394a8af628ad25be7d7f413c26000527f96e1ad09fb81be4424057773d16a7c0a728f48a80c00024f6442ae2c2cd9054655610220565b3390565b610d7f8061022f6000396000f3fe608060405234801561001057600080fd5b50600436106100e95760003560e01c80638c8885c81161008c578063cd9ffa0b11610066578063cd9ffa0b1461034b578063d05eaae014610381578063da663257146104a8578063f2fde38b146104c5576100e9565b80638c8885c8146102e45780638da5cb5b14610301578063b889a98914610325576100e9565b8063434b33ac116100c8578063434b33ac14610247578063715018a61461027957806375e443aa1461028157806383532667146102c1576100e9565b8062e4768b146100ee57806309cb3a4e1461011c57806341976e091461020f575b600080fd5b61011a6004803603604081101561010457600080fd5b506001600160a01b0381351690602001356104eb565b005b6101bf6004803603602081101561013257600080fd5b81019060208101813564010000000081111561014d57600080fd5b82018360208201111561015f57600080fd5b8035906020019184602083028401116401000000008311171561018157600080fd5b919080806020026020016040519081016040528093929190818152602001838360200280828437600092019190915250929550610569945050505050565b60408051602080825283518183015283519192839290830191858101910280838360005b838110156101fb5781810151838201526020016101e3565b505050509050019250505060405180910390f35b6102356004803603602081101561022557600080fd5b50356001600160a01b0316610603565b60408051918252519081900360200190f35b61011a6004803603606081101561025d57600080fd5b508035906001600160a01b03602082013516906040013561061d565b61011a610709565b61029e6004803603602081101561029757600080fd5b50356107b5565b604080516001600160a01b03909316835260208301919091528051918290030190f35b61011a600480360360408110156102d757600080fd5b50803590602001356107de565b61011a600480360360208110156102fa57600080fd5b50356108a3565b61030961090a565b604080516001600160a01b039092168252519081900360200190f35b61029e6004803603602081101561033b57600080fd5b50356001600160a01b0316610919565b61011a6004803603606081101561036157600080fd5b506001600160a01b03813581169160208101359091169060400135610944565b61011a6004803603604081101561039757600080fd5b8101906020810181356401000000008111156103b257600080fd5b8201836020820111156103c457600080fd5b803590602001918460208302840111640100000000831117156103e657600080fd5b919080806020026020016040519081016040528093929190818152602001838360200280828437600092019190915250929594936020810193503591505064010000000081111561043657600080fd5b82018360208201111561044857600080fd5b8035906020019184602083028401116401000000008311171561046a57600080fd5b9190808060200260200160405190810160405280939291908181526020018383602002808284376000920191909152509295506109e3945050505050565b610235600480360360208110156104be57600080fd5b5035610ac8565b61011a600480360360208110156104db57600080fd5b50356001600160a01b0316610bdb565b6104f3610cdd565b6001600160a01b031661050461090a565b6001600160a01b03161461054d576040805162461bcd60e51b81526020600482018190526024820152600080516020610d08833981519152604482015290519081900360640190fd5b6001600160a01b03909116600090815260036020526040902055565b8051606090818167ffffffffffffffff8111801561058657600080fd5b506040519080825280602002602001820160405280156105b0578160200160208202803683370190505b50905060005b828110156105f9576105da8582815181106105cd57fe5b6020026020010151610ac8565b8282815181106105e657fe5b60209081029190910101526001016105b6565b509150505b919050565b6000610617826001600160a01b0316610ac8565b92915050565b610625610cdd565b6001600160a01b031661063661090a565b6001600160a01b03161461067f576040805162461bcd60e51b81526020600482018190526024820152600080516020610d08833981519152604482015290519081900360640190fd5b600083116106d0576040805162461bcd60e51b8152602060048201526019602482015278756e6465726c79696e672063616e6e6f74206265207a65726f60381b604482015290519081900360640190fd5b600092835260016020908152604080852080546001600160a01b0319166001600160a01b03959095169490941790935560029052912055565b610711610cdd565b6001600160a01b031661072261090a565b6001600160a01b03161461076b576040805162461bcd60e51b81526020600482018190526024820152600080516020610d08833981519152604482015290519081900360640190fd5b600080546040516001600160a01b03909116907f8be0079c531659141344cd1fd0a4f28419497f9722a3daafe3b4186f6b6457e0908390a3600080546001600160a01b0319169055565b6000908152600160209081526040808320546002909252909120546001600160a01b0390911691565b6107e6610cdd565b6001600160a01b03166107f761090a565b6001600160a01b031614610840576040805162461bcd60e51b81526020600482018190526024820152600080516020610d08833981519152604482015290519081900360640190fd5b60008211610891576040805162461bcd60e51b8152602060048201526019602482015278756e6465726c79696e672063616e6e6f74206265207a65726f60381b604482015290519081900360640190fd5b60009182526003602052604090912055565b6108ab610cdd565b6001600160a01b03166108bc61090a565b6001600160a01b031614610905576040805162461bcd60e51b81526020600482018190526024820152600080516020610d08833981519152604482015290519081900360640190fd5b600455565b6000546001600160a01b031690565b6001600160a01b03908116600090815260016020908152604080832054600290925290912054911691565b61094c610cdd565b6001600160a01b031661095d61090a565b6001600160a01b0316146109a6576040805162461bcd60e51b81526020600482018190526024820152600080516020610d08833981519152604482015290519081900360640190fd5b6001600160a01b03928316600090815260016020908152604080832080546001600160a01b03191695909616949094179094556002909352912055565b6109eb610cdd565b6001600160a01b03166109fc61090a565b6001600160a01b031614610a45576040805162461bcd60e51b81526020600482018190526024820152600080516020610d08833981519152604482015290519081900360640190fd5b8051825114610a855760405162461bcd60e51b8152600401808060200182810382526022815260200180610d286022913960400191505060405180910390fd5b815160005b81811015610ac257828181518110610a9e57fe5b60209081029190910181015160008381526003909252604090912055600101610a8a565b50505050565b6000818152600160205260408120546001600160a01b03168015610bc5576000816001600160a01b031663feaf968c6040518163ffffffff1660e01b815260040160a06040518083038186803b158015610b2157600080fd5b505afa158015610b35573d6000803e3d6000fd5b505050506040513d60a0811015610b4b57600080fd5b50602090810151600086815260029092526040909120549091506012811015610b8c5780601203600a0a6004548381610b8057fe5b040293505050506105fe565b6012811115610bba5780601203600a0a6004548381610ba757fe5b0481610baf57fe5b0493505050506105fe565b6004548281610baf57fe5b50506000818152600360205260409020546105fe565b610be3610cdd565b6001600160a01b0316610bf461090a565b6001600160a01b031614610c3d576040805162461bcd60e51b81526020600482018190526024820152600080516020610d08833981519152604482015290519081900360640190fd5b6001600160a01b038116610c825760405162461bcd60e51b8152600401808060200182810382526026815260200180610ce26026913960400191505060405180910390fd5b600080546040516001600160a01b03808516939216917f8be0079c531659141344cd1fd0a4f28419497f9722a3daafe3b4186f6b6457e091a3600080546001600160a01b0319166001600160a01b0392909216919091179055565b339056fe4f776e61626c653a206e6577206f776e657220697320746865207a65726f20616464726573734f776e61626c653a2063616c6c6572206973206e6f7420746865206f776e6572696e7075742061727261797327206c656e67746820617265206e6f7420657175616ca26469706673582212201efda2f022379aa9f4c8902fa6bf2934c24f252631fe30a7346c8829c2be844264736f6c634300060c0033",
  "linkReferences": {},
  "deployedLinkReferences": {}
}