{
  "_format": "hh-sol-artifact-1",
  "contractName": "BscPledgeOracle",
  "sourceName": "contracts/pledge/BscPledgeOracle.sol",
  "abi": [
    {
      "inputs": [
        {
          "internalType": "address",
          "name": "multiSignature",
          "type": "address"
        }
      ],
      "stateMutability": "nonpayable",
      "type": "constructor"
    },
    {
      "inputs": [
        {
          "internalType": "address",
          "name": "asset",
          "type": "address"
        }
      ],
      "name": "getAssetsAggregator",
      "outputs": [
        {
          "internalType": "address",
          "name": "",
          "type": "address"
        },
        {
          "internalType": "uint256",
          "name": "",
          "type": "uint256"
        }
      ],
      "stateMutability": "view",
      "type": "function"
    },
    {
      "inputs": [],
      "name": "getMultiSignatureAddress",
      "outputs": [
        {
          "internalType": "address",
          "name": "",
          "type": "address"
        }
      ],
      "stateMutability": "view",
      "type": "function"
    },
    {
      "inputs": [
        {
          "internalType": "address",
          "name": "asset",
          "type": "address"
        }
      ],
      "name": "getPrice",
      "outputs": [
        {
          "internalType": "uint256",
          "name": "",
          "type": "uint256"
        }
      ],
      "stateMutability": "view",
      "type": "function"
    },
    {
      "inputs": [
        {
          "internalType": "uint256[]",
          "name": "assets",
          "type": "uint256[]"
        }
      ],
      "name": "getPrices",
      "outputs": [
        {
          "internalType": "uint256[]",
          "name": "",
          "type": "uint256[]"
        }
      ],
      "stateMutability": "view",
      "type": "function"
    },
    {
      "inputs": [
        {
          "internalType": "uint256",
          "name": "underlying",
          "type": "uint256"
        }
      ],
      "name": "getUnderlyingAggregator",
      "outputs": [
        {
          "internalType": "address",
          "name": "",
          "type": "address"
        },
        {
          "internalType": "uint256",
          "name": "",
          "type": "uint256"
        }
      ],
      "stateMutability": "view",
      "type": "function"
    },
    {
      "inputs": [
        {
          "internalType": "uint256",
          "name": "underlying",
          "type": "uint256"
        }
      ],
      "name": "getUnderlyingPrice",
      "outputs": [
        {
          "internalType": "uint256",
          "name": "",
          "type": "uint256"
        }
      ],
      "stateMutability": "view",
      "type": "function"
    },
    {
      "inputs": [
        {
          "internalType": "address",
          "name": "asset",
          "type": "address"
        },
        {
          "internalType": "address",
          "name": "aggergator",
          "type": "address"
        },
        {
          "internalType": "uint256",
          "name": "_decimals",
          "type": "uint256"
        }
      ],
      "name": "setAssetsAggregator",
      "outputs": [],
      "stateMutability": "nonpayable",
      "type": "function"
    },
    {
      "inputs": [
        {
          "internalType": "uint256",
          "name": "newDecimals",
          "type": "uint256"
        }
      ],
      "name": "setDecimals",
      "outputs": [],
      "stateMutability": "nonpayable",
      "type": "function"
    },
    {
      "inputs": [
        {
          "internalType": "address",
          "name": "asset",
          "type": "address"
        },
        {
          "internalType": "uint256",
          "name": "price",
          "type": "uint256"
        }
      ],
      "name": "setPrice",
      "outputs": [],
      "stateMutability": "nonpayable",
      "type": "function"
    },
    {
      "inputs": [
        {
          "internalType": "uint256[]",
          "name": "assets",
          "type": "uint256[]"
        },
        {
          "internalType": "uint256[]",
          "name": "prices",
          "type": "uint256[]"
        }
      ],
      "name": "setPrices",
      "outputs": [],
      "stateMutability": "nonpayable",
      "type": "function"
    },
    {
      "inputs": [
        {
          "internalType": "uint256",
          "name": "underlying",
          "type": "uint256"
        },
        {
          "internalType": "address",
          "name": "aggergator",
          "type": "address"
        },
        {
          "internalType": "uint256",
          "name": "_decimals",
          "type": "uint256"
        }
      ],
      "name": "setUnderlyingAggregator",
      "outputs": [],
      "stateMutability": "nonpayable",
      "type": "function"
    },
    {
      "inputs": [
        {
          "internalType": "uint256",
          "name": "underlying",
          "type": "uint256"
        },
        {
          "internalType": "uint256",
          "name": "price",
          "type": "uint256"
        }
      ],
      "name": "setUnderlyingPrice",
      "outputs": [],
      "stateMutability": "nonpayable",
      "type": "function"
    }
  ],
  "bytecode": "0x6080604052600160035534801561001557600080fd5b50604051610b5c380380610b5c8339818101604052602081101561003857600080fd5b5051806001600160a01b0381166100805760405162461bcd60e51b8152600401808060200182810382526043815260200180610b196043913960600191505060405180910390fd5b6100b37f8dddb57468cf5338ee155397ad1400a7a564308824f517d20a8a7c516523bb476001600160a01b0383166100ba565b50506100be565b9055565b610a4c806100cd6000396000f3fe608060405234801561001057600080fd5b50600436106100b35760003560e01c8063835326671161007157806383532667146102a75780638c8885c8146102ca578063b889a989146102e7578063cd9ffa0b1461030d578063d05eaae014610343578063da6632571461046a576100b3565b8062e4768b146100b857806309cb3a4e146100e657806341976e09146101d9578063434b33ac14610211578063638c7e171461024357806375e443aa14610267575b600080fd5b6100e4600480360360408110156100ce57600080fd5b506001600160a01b038135169060200135610487565b005b610189600480360360208110156100fc57600080fd5b81019060208101813564010000000081111561011757600080fd5b82018360208201111561012957600080fd5b8035906020019184602083028401116401000000008311171561014b57600080fd5b9190808060200260200160405190810160405280939291908181526020018383602002808284376000920191909152509295506104ab945050505050565b60408051602080825283518183015283519192839290830191858101910280838360005b838110156101c55781810151838201526020016101ad565b505050509050019250505060405180910390f35b6101ff600480360360208110156101ef57600080fd5b50356001600160a01b0316610545565b60408051918252519081900360200190f35b6100e46004803603606081101561022757600080fd5b508035906001600160a01b03602082013516906040013561055f565b61024b6105ef565b604080516001600160a01b039092168252519081900360200190f35b6102846004803603602081101561027d57600080fd5b503561061f565b604080516001600160a01b03909316835260208301919091528051918290030190f35b6100e4600480360360408110156102bd57600080fd5b5080359060200135610646565b6100e4600480360360208110156102e057600080fd5b50356106b1565b610284600480360360208110156102fd57600080fd5b50356001600160a01b03166106be565b6100e46004803603606081101561032357600080fd5b506001600160a01b038135811691602081013590911690604001356106e7565b6100e46004803603604081101561035957600080fd5b81019060208101813564010000000081111561037457600080fd5b82018360208201111561038657600080fd5b803590602001918460208302840111640100000000831117156103a857600080fd5b91908080602002602001604051908101604052809392919081815260200183836020028082843760009201919091525092959493602081019350359150506401000000008111156103f857600080fd5b82018360208201111561040a57600080fd5b8035906020019184602083028401116401000000008311171561042c57600080fd5b91908080602002602001604051908101604052809392919081815260200183836020028082843760009201919091525092955061072a945050505050565b6101ff6004803603602081101561048057600080fd5b50356107b5565b61048f6108c8565b6001600160a01b03909116600090815260026020526040902055565b8051606090818167ffffffffffffffff811180156104c857600080fd5b506040519080825280602002602001820160405280156104f2578160200160208202803683370190505b50905060005b8281101561053b5761051c85828151811061050f57fe5b60200260200101516107b5565b82828151811061052857fe5b60209081029190910101526001016104f8565b509150505b919050565b6000610559826001600160a01b03166107b5565b92915050565b6105676108c8565b600083116105b8576040805162461bcd60e51b8152602060048201526019602482015278756e6465726c79696e672063616e6e6f74206265207a65726f60381b604482015290519081900360640190fd5b60009283526020838152604080852080546001600160a01b0319166001600160a01b03959095169490941790935560019052912055565b600061061a7f8dddb57468cf5338ee155397ad1400a7a564308824f517d20a8a7c516523bb476109c2565b905090565b600090815260208181526040808320546001909252909120546001600160a01b0390911691565b61064e6108c8565b6000821161069f576040805162461bcd60e51b8152602060048201526019602482015278756e6465726c79696e672063616e6e6f74206265207a65726f60381b604482015290519081900360640190fd5b60009182526002602052604090912055565b6106b96108c8565b600355565b6001600160a01b0390811660009081526020818152604080832054600190925290912054911691565b6106ef6108c8565b6001600160a01b0392831660009081526020818152604080832080546001600160a01b03191695909616949094179094556001909352912055565b6107326108c8565b80518251146107725760405162461bcd60e51b81526004018080602001828103825260228152602001806109f56022913960400191505060405180910390fd5b815160005b818110156107af5782818151811061078b57fe5b60209081029190910181015160008381526002909252604090912055600101610777565b50505050565b6000818152602081905260408120546001600160a01b031680156108b2576000816001600160a01b031663feaf968c6040518163ffffffff1660e01b815260040160a06040518083038186803b15801561080e57600080fd5b505afa158015610822573d6000803e3d6000fd5b505050506040513d60a081101561083857600080fd5b506020908101516000868152600190925260409091205490915060128110156108795780601203600a0a600354838161086d57fe5b04029350505050610540565b60128111156108a75780601203600a0a600354838161089457fe5b048161089c57fe5b049350505050610540565b600354828161089c57fe5b5050600081815260026020526040902054610540565b6040805133606090811b6020808401919091523090911b60348301528251602881840301815260489092019092528051910120349060006109076105ef565b90506000816001600160a01b0316631ebaa1668460006040518363ffffffff1660e01b8152600401808381526020018281526020019250505060206040518083038186803b15801561095857600080fd5b505afa15801561096c573d6000803e3d6000fd5b505050506040513d602081101561098257600080fd5b50519050806107af5760405162461bcd60e51b815260040180806020018281038252602e8152602001806109c7602e913960400191505060405180910390fd5b549056fe6d756c74695369676e6174757265436c69656e74203a2054686973207478206973206e6f7420617072726f766564696e7075742061727261797327206c656e67746820617265206e6f7420657175616ca2646970667358221220dfa320bfa8746c6aa899775f48138b17db8ba27dad1636b70e5a8e61aacdda7164736f6c634300060c00336d756c74695369676e6174757265436c69656e74203a204d756c7469706c65207369676e617475726520636f6e74726163742061646472657373206973207a65726f21",
  "linkReferences": {},
  "deployedLinkReferences": {}
}