{
  "_format": "hh-sol-artifact-1",
  "contractName": "PledgePool",
  "sourceName": "contracts/pledge/PledgePool.sol",
  "abi": [
    {
      "inputs": [
        {
          "internalType": "address",
          "name": "_oracle",
          "type": "address"
        },
        {
          "internalType": "address",
          "name": "_swapRouter",
          "type": "address"
        },
        {
          "internalType": "address payable",
          "name": "_feeAddress",
          "type": "address"
        }
      ],
      "stateMutability": "nonpayable",
      "type": "constructor"
    },
    {
      "anonymous": false,
      "inputs": [
        {
          "indexed": true,
          "internalType": "address",
          "name": "from",
          "type": "address"
        },
        {
          "indexed": true,
          "internalType": "address",
          "name": "token",
          "type": "address"
        },
        {
          "indexed": false,
          "internalType": "uint256",
          "name": "amount",
          "type": "uint256"
        }
      ],
      "name": "ClaimBorrow",
      "type": "event"
    },
    {
      "anonymous": false,
      "inputs": [
        {
          "indexed": true,
          "internalType": "address",
          "name": "from",
          "type": "address"
        },
        {
          "indexed": true,
          "internalType": "address",
          "name": "token",
          "type": "address"
        },
        {
          "indexed": false,
          "internalType": "uint256",
          "name": "amount",
          "type": "uint256"
        }
      ],
      "name": "ClaimLend",
      "type": "event"
    },
    {
      "anonymous": false,
      "inputs": [
        {
          "indexed": true,
          "internalType": "address",
          "name": "from",
          "type": "address"
        },
        {
          "indexed": true,
          "internalType": "address",
          "name": "token",
          "type": "address"
        },
        {
          "indexed": false,
          "internalType": "uint256",
          "name": "amount",
          "type": "uint256"
        },
        {
          "indexed": false,
          "internalType": "uint256",
          "name": "mintAmount",
          "type": "uint256"
        }
      ],
      "name": "DepositBorrow",
      "type": "event"
    },
    {
      "anonymous": false,
      "inputs": [
        {
          "indexed": true,
          "internalType": "address",
          "name": "from",
          "type": "address"
        },
        {
          "indexed": true,
          "internalType": "address",
          "name": "token",
          "type": "address"
        },
        {
          "indexed": false,
          "internalType": "uint256",
          "name": "amount",
          "type": "uint256"
        },
        {
          "indexed": false,
          "internalType": "uint256",
          "name": "mintAmount",
          "type": "uint256"
        }
      ],
      "name": "DepositLend",
      "type": "event"
    },
    {
      "anonymous": false,
      "inputs": [
        {
          "indexed": true,
          "internalType": "address",
          "name": "from",
          "type": "address"
        },
        {
          "indexed": true,
          "internalType": "address",
          "name": "token",
          "type": "address"
        },
        {
          "indexed": false,
          "internalType": "uint256",
          "name": "amount",
          "type": "uint256"
        }
      ],
      "name": "EmergencyBorrowWithdrawal",
      "type": "event"
    },
    {
      "anonymous": false,
      "inputs": [
        {
          "indexed": true,
          "internalType": "address",
          "name": "from",
          "type": "address"
        },
        {
          "indexed": true,
          "internalType": "address",
          "name": "token",
          "type": "address"
        },
        {
          "indexed": false,
          "internalType": "uint256",
          "name": "amount",
          "type": "uint256"
        }
      ],
      "name": "EmergencyLendWithdrawal",
      "type": "event"
    },
    {
      "anonymous": false,
      "inputs": [
        {
          "indexed": true,
          "internalType": "address",
          "name": "previousOwner",
          "type": "address"
        },
        {
          "indexed": true,
          "internalType": "address",
          "name": "newOwner",
          "type": "address"
        }
      ],
      "name": "OwnershipTransferred",
      "type": "event"
    },
    {
      "anonymous": false,
      "inputs": [
        {
          "indexed": true,
          "internalType": "address",
          "name": "recieptor",
          "type": "address"
        },
        {
          "indexed": true,
          "internalType": "address",
          "name": "token",
          "type": "address"
        },
        {
          "indexed": false,
          "internalType": "uint256",
          "name": "amount",
          "type": "uint256"
        }
      ],
      "name": "Redeem",
      "type": "event"
    },
    {
      "anonymous": false,
      "inputs": [
        {
          "indexed": true,
          "internalType": "address",
          "name": "from",
          "type": "address"
        },
        {
          "indexed": true,
          "internalType": "address",
          "name": "token",
          "type": "address"
        },
        {
          "indexed": false,
          "internalType": "uint256",
          "name": "refund",
          "type": "uint256"
        }
      ],
      "name": "RefundBorrow",
      "type": "event"
    },
    {
      "anonymous": false,
      "inputs": [
        {
          "indexed": true,
          "internalType": "address",
          "name": "from",
          "type": "address"
        },
        {
          "indexed": true,
          "internalType": "address",
          "name": "token",
          "type": "address"
        },
        {
          "indexed": false,
          "internalType": "uint256",
          "name": "refund",
          "type": "uint256"
        }
      ],
      "name": "RefundLend",
      "type": "event"
    },
    {
      "anonymous": false,
      "inputs": [
        {
          "indexed": true,
          "internalType": "address",
          "name": "fromCoin",
          "type": "address"
        },
        {
          "indexed": true,
          "internalType": "address",
          "name": "toCoin",
          "type": "address"
        },
        {
          "indexed": false,
          "internalType": "uint256",
          "name": "fromValue",
          "type": "uint256"
        },
        {
          "indexed": false,
          "internalType": "uint256",
          "name": "toValue",
          "type": "uint256"
        }
      ],
      "name": "Swap",
      "type": "event"
    },
    {
      "anonymous": false,
      "inputs": [
        {
          "indexed": true,
          "internalType": "address",
          "name": "from",
          "type": "address"
        },
        {
          "indexed": true,
          "internalType": "address",
          "name": "token",
          "type": "address"
        },
        {
          "indexed": false,
          "internalType": "uint256",
          "name": "amount",
          "type": "uint256"
        },
        {
          "indexed": false,
          "internalType": "uint256",
          "name": "burnAmount",
          "type": "uint256"
        }
      ],
      "name": "WithdrawBorrow",
      "type": "event"
    },
    {
      "anonymous": false,
      "inputs": [
        {
          "indexed": true,
          "internalType": "address",
          "name": "from",
          "type": "address"
        },
        {
          "indexed": true,
          "internalType": "address",
          "name": "token",
          "type": "address"
        },
        {
          "indexed": false,
          "internalType": "uint256",
          "name": "amount",
          "type": "uint256"
        },
        {
          "indexed": false,
          "internalType": "uint256",
          "name": "burnAmount",
          "type": "uint256"
        }
      ],
      "name": "WithdrawLend",
      "type": "event"
    },
    {
      "inputs": [],
      "name": "autoLiquidateThreshold",
      "outputs": [
        {
          "internalType": "uint256",
          "name": "",
          "type": "uint256"
        }
      ],
      "stateMutability": "view",
      "type": "function"
    },
    {
      "inputs": [],
      "name": "borrowFee",
      "outputs": [
        {
          "internalType": "uint256",
          "name": "",
          "type": "uint256"
        }
      ],
      "stateMutability": "view",
      "type": "function"
    },
    {
      "inputs": [
        {
          "internalType": "uint256",
          "name": "_pid",
          "type": "uint256"
        }
      ],
      "name": "checkoutFinish",
      "outputs": [
        {
          "internalType": "bool",
          "name": "",
          "type": "bool"
        }
      ],
      "stateMutability": "view",
      "type": "function"
    },
    {
      "inputs": [
        {
          "internalType": "uint256",
          "name": "_pid",
          "type": "uint256"
        }
      ],
      "name": "checkoutLiquidate",
      "outputs": [
        {
          "internalType": "bool",
          "name": "",
          "type": "bool"
        }
      ],
      "stateMutability": "view",
      "type": "function"
    },
    {
      "inputs": [
        {
          "internalType": "uint256",
          "name": "_pid",
          "type": "uint256"
        }
      ],
      "name": "checkoutSettle",
      "outputs": [
        {
          "internalType": "bool",
          "name": "",
          "type": "bool"
        }
      ],
      "stateMutability": "view",
      "type": "function"
    },
    {
      "inputs": [
        {
          "internalType": "uint256",
          "name": "_pid",
          "type": "uint256"
        }
      ],
      "name": "claimBorrow",
      "outputs": [],
      "stateMutability": "nonpayable",
      "type": "function"
    },
    {
      "inputs": [
        {
          "internalType": "uint256",
          "name": "_pid",
          "type": "uint256"
        }
      ],
      "name": "claimLend",
      "outputs": [],
      "stateMutability": "nonpayable",
      "type": "function"
    },
    {
      "inputs": [
        {
          "internalType": "uint256",
          "name": "_matchTime",
          "type": "uint256"
        },
        {
          "internalType": "uint256",
          "name": "_endTime",
          "type": "uint256"
        },
        {
          "internalType": "uint64",
          "name": "_interestRate",
          "type": "uint64"
        },
        {
          "internalType": "uint256",
          "name": "_maxSupply",
          "type": "uint256"
        },
        {
          "internalType": "uint256",
          "name": "_pledgeRate",
          "type": "uint256"
        },
        {
          "internalType": "address",
          "name": "_lendToken",
          "type": "address"
        },
        {
          "internalType": "address",
          "name": "_borrowToken",
          "type": "address"
        },
        {
          "internalType": "address",
          "name": "_spToken",
          "type": "address"
        },
        {
          "internalType": "address",
          "name": "_jpToken",
          "type": "address"
        }
      ],
      "name": "createPoolInfo",
      "outputs": [],
      "stateMutability": "nonpayable",
      "type": "function"
    },
    {
      "inputs": [
        {
          "internalType": "uint256",
          "name": "_pid",
          "type": "uint256"
        },
        {
          "internalType": "uint256",
          "name": "_stakeAmount",
          "type": "uint256"
        },
        {
          "internalType": "uint256",
          "name": "_deadLine",
          "type": "uint256"
        }
      ],
      "name": "depositBorrow",
      "outputs": [],
      "stateMutability": "payable",
      "type": "function"
    },
    {
      "inputs": [
        {
          "internalType": "uint256",
          "name": "_pid",
          "type": "uint256"
        },
        {
          "internalType": "uint256",
          "name": "_stakeAmount",
          "type": "uint256"
        }
      ],
      "name": "depositLend",
      "outputs": [],
      "stateMutability": "payable",
      "type": "function"
    },
    {
      "inputs": [
        {
          "internalType": "uint256",
          "name": "_pid",
          "type": "uint256"
        }
      ],
      "name": "emergencyBorrowWithdrawal",
      "outputs": [],
      "stateMutability": "nonpayable",
      "type": "function"
    },
    {
      "inputs": [
        {
          "internalType": "uint256",
          "name": "_pid",
          "type": "uint256"
        }
      ],
      "name": "emergencyLendWithdrawal",
      "outputs": [],
      "stateMutability": "nonpayable",
      "type": "function"
    },
    {
      "inputs": [],
      "name": "feeAddress",
      "outputs": [
        {
          "internalType": "address payable",
          "name": "",
          "type": "address"
        }
      ],
      "stateMutability": "view",
      "type": "function"
    },
    {
      "inputs": [
        {
          "internalType": "uint256",
          "name": "_pid",
          "type": "uint256"
        }
      ],
      "name": "finish",
      "outputs": [],
      "stateMutability": "nonpayable",
      "type": "function"
    },
    {
      "inputs": [
        {
          "internalType": "uint256",
          "name": "_pid",
          "type": "uint256"
        }
      ],
      "name": "getPoolState",
      "outputs": [
        {
          "internalType": "uint256",
          "name": "",
          "type": "uint256"
        }
      ],
      "stateMutability": "view",
      "type": "function"
    },
    {
      "inputs": [
        {
          "internalType": "uint256",
          "name": "_pid",
          "type": "uint256"
        }
      ],
      "name": "getUnderlyingPriceView",
      "outputs": [
        {
          "internalType": "uint256[2]",
          "name": "",
          "type": "uint256[2]"
        }
      ],
      "stateMutability": "view",
      "type": "function"
    },
    {
      "inputs": [],
      "name": "lendFee",
      "outputs": [
        {
          "internalType": "uint256",
          "name": "",
          "type": "uint256"
        }
      ],
      "stateMutability": "view",
      "type": "function"
    },
    {
      "inputs": [
        {
          "internalType": "uint256",
          "name": "_pid",
          "type": "uint256"
        }
      ],
      "name": "liquidate",
      "outputs": [],
      "stateMutability": "nonpayable",
      "type": "function"
    },
    {
      "inputs": [],
      "name": "oracle",
      "outputs": [
        {
          "internalType": "contract IBscPledgeOracle",
          "name": "",
          "type": "address"
        }
      ],
      "stateMutability": "view",
      "type": "function"
    },
    {
      "inputs": [],
      "name": "owner",
      "outputs": [
        {
          "internalType": "address",
          "name": "",
          "type": "address"
        }
      ],
      "stateMutability": "view",
      "type": "function"
    },
    {
      "inputs": [],
      "name": "paused",
      "outputs": [
        {
          "internalType": "bool",
          "name": "",
          "type": "bool"
        }
      ],
      "stateMutability": "view",
      "type": "function"
    },
    {
      "inputs": [
        {
          "internalType": "uint256",
          "name": "",
          "type": "uint256"
        }
      ],
      "name": "poolBaseInfo",
      "outputs": [
        {
          "internalType": "uint256",
          "name": "matchTime",
          "type": "uint256"
        },
        {
          "internalType": "uint256",
          "name": "endTime",
          "type": "uint256"
        },
        {
          "internalType": "uint256",
          "name": "interestRate",
          "type": "uint256"
        },
        {
          "internalType": "uint256",
          "name": "maxSupply",
          "type": "uint256"
        },
        {
          "internalType": "uint256",
          "name": "lendSupply",
          "type": "uint256"
        },
        {
          "internalType": "uint256",
          "name": "borrowSupply",
          "type": "uint256"
        },
        {
          "internalType": "uint256",
          "name": "pledgeRate",
          "type": "uint256"
        },
        {
          "internalType": "address",
          "name": "lendToken",
          "type": "address"
        },
        {
          "internalType": "address",
          "name": "borrowToken",
          "type": "address"
        },
        {
          "internalType": "enum PledgePool.PoolState",
          "name": "state",
          "type": "uint8"
        },
        {
          "internalType": "contract IDebtToken",
          "name": "spCoin",
          "type": "address"
        },
        {
          "internalType": "contract IDebtToken",
          "name": "jpCoin",
          "type": "address"
        }
      ],
      "stateMutability": "view",
      "type": "function"
    },
    {
      "inputs": [
        {
          "internalType": "uint256",
          "name": "",
          "type": "uint256"
        }
      ],
      "name": "poolDataInfo",
      "outputs": [
        {
          "internalType": "uint256",
          "name": "settleAmount0",
          "type": "uint256"
        },
        {
          "internalType": "uint256",
          "name": "settleAmount1",
          "type": "uint256"
        },
        {
          "internalType": "uint256",
          "name": "finishAmount0",
          "type": "uint256"
        },
        {
          "internalType": "uint256",
          "name": "finishAmount1",
          "type": "uint256"
        },
        {
          "internalType": "uint256",
          "name": "liquidationAmoun0",
          "type": "uint256"
        },
        {
          "internalType": "uint256",
          "name": "liquidationAmoun1",
          "type": "uint256"
        }
      ],
      "stateMutability": "view",
      "type": "function"
    },
    {
      "inputs": [],
      "name": "poolLength",
      "outputs": [
        {
          "internalType": "uint256",
          "name": "",
          "type": "uint256"
        }
      ],
      "stateMutability": "view",
      "type": "function"
    },
    {
      "inputs": [
        {
          "internalType": "uint256",
          "name": "_pid",
          "type": "uint256"
        }
      ],
      "name": "refundBorrow",
      "outputs": [],
      "stateMutability": "nonpayable",
      "type": "function"
    },
    {
      "inputs": [
        {
          "internalType": "uint256",
          "name": "_pid",
          "type": "uint256"
        }
      ],
      "name": "refundLend",
      "outputs": [],
      "stateMutability": "nonpayable",
      "type": "function"
    },
    {
      "inputs": [],
      "name": "renounceOwnership",
      "outputs": [],
      "stateMutability": "nonpayable",
      "type": "function"
    },
    {
      "inputs": [
        {
          "internalType": "uint256",
          "name": "_lendFee",
          "type": "uint256"
        },
        {
          "internalType": "uint256",
          "name": "_borrowFee",
          "type": "uint256"
        }
      ],
      "name": "setFee",
      "outputs": [],
      "stateMutability": "nonpayable",
      "type": "function"
    },
    {
      "inputs": [
        {
          "internalType": "address payable",
          "name": "_feeAddress",
          "type": "address"
        }
      ],
      "name": "setFeeAddress",
      "outputs": [],
      "stateMutability": "nonpayable",
      "type": "function"
    },
    {
      "inputs": [],
      "name": "setPause",
      "outputs": [],
      "stateMutability": "nonpayable",
      "type": "function"
    },
    {
      "inputs": [
        {
          "internalType": "address",
          "name": "_swapRouter",
          "type": "address"
        }
      ],
      "name": "setSwapRouterAddress",
      "outputs": [],
      "stateMutability": "nonpayable",
      "type": "function"
    },
    {
      "inputs": [
        {
          "internalType": "uint256",
          "name": "_pid",
          "type": "uint256"
        }
      ],
      "name": "settle",
      "outputs": [],
      "stateMutability": "nonpayable",
      "type": "function"
    },
    {
      "inputs": [],
      "name": "swapRouter",
      "outputs": [
        {
          "internalType": "address",
          "name": "",
          "type": "address"
        }
      ],
      "stateMutability": "view",
      "type": "function"
    },
    {
      "inputs": [
        {
          "internalType": "address",
          "name": "newOwner",
          "type": "address"
        }
      ],
      "name": "transferOwnership",
      "outputs": [],
      "stateMutability": "nonpayable",
      "type": "function"
    },
    {
      "inputs": [
        {
          "internalType": "uint256",
          "name": "_pid",
          "type": "uint256"
        },
        {
          "internalType": "uint64",
          "name": "_interestRate",
          "type": "uint64"
        },
        {
          "internalType": "uint256",
          "name": "_maxSupply",
          "type": "uint256"
        }
      ],
      "name": "updatePoolBaseInfo",
      "outputs": [],
      "stateMutability": "nonpayable",
      "type": "function"
    },
    {
      "inputs": [
        {
          "internalType": "address",
          "name": "",
          "type": "address"
        },
        {
          "internalType": "uint256",
          "name": "",
          "type": "uint256"
        }
      ],
      "name": "userBorrowInfo",
      "outputs": [
        {
          "internalType": "uint256",
          "name": "stakeAmount",
          "type": "uint256"
        },
        {
          "internalType": "uint256",
          "name": "refundAmount",
          "type": "uint256"
        },
        {
          "internalType": "bool",
          "name": "refundFlag",
          "type": "bool"
        },
        {
          "internalType": "bool",
          "name": "claimFlag",
          "type": "bool"
        }
      ],
      "stateMutability": "view",
      "type": "function"
    },
    {
      "inputs": [
        {
          "internalType": "address",
          "name": "",
          "type": "address"
        },
        {
          "internalType": "uint256",
          "name": "",
          "type": "uint256"
        }
      ],
      "name": "userLendInfo",
      "outputs": [
        {
          "internalType": "uint256",
          "name": "stakeAmount",
          "type": "uint256"
        },
        {
          "internalType": "uint256",
          "name": "refundAmount",
          "type": "uint256"
        },
        {
          "internalType": "bool",
          "name": "refundFlag",
          "type": "bool"
        },
        {
          "internalType": "bool",
          "name": "claimFlag",
          "type": "bool"
        }
      ],
      "stateMutability": "view",
      "type": "function"
    },
    {
      "inputs": [
        {
          "internalType": "uint256",
          "name": "_pid",
          "type": "uint256"
        },
        {
          "internalType": "uint256",
          "name": "_jpAmount",
          "type": "uint256"
        },
        {
          "internalType": "uint256",
          "name": "_deadLine",
          "type": "uint256"
        }
      ],
      "name": "withdrawBorrow",
      "outputs": [],
      "stateMutability": "nonpayable",
      "type": "function"
    },
    {
      "inputs": [
        {
          "internalType": "uint256",
          "name": "_pid",
          "type": "uint256"
        },
        {
          "internalType": "uint256",
          "name": "_spAmount",
          "type": "uint256"
        }
      ],
      "name": "withdrawLend",
      "outputs": [],
      "stateMutability": "nonpayable",
      "type": "function"
    }
  ],
  "bytecode": "0x60806040526001805460ff60a01b191690553480156200001e57600080fd5b5060405162005a6738038062005a67833981810160405260608110156200004457600080fd5b5080516020820151604090920151600160009081559192916200006662000109565b600180546001600160a01b0319166001600160a01b038316908117909155604051919250906000907f8be0079c531659141344cd1fd0a4f28419497f9722a3daafe3b4186f6b6457e0908290a350600480546001600160a01b039485166001600160a01b031991821617909155600280549385169382169390931790925560038054919093169116179055600060058190556006556301312d006007556200010d565b3390565b61594a806200011d6000396000f3fe6080604052600436106102305760003560e01c80637dc0d1d01161012e578063bf38b8f6116100ab578063d431b1ac1161006f578063d431b1ac14610919578063e271fa0c1461092e578063e626648a14610958578063eec8d5061461096d578063f2fde38b1461099757610230565b8063bf38b8f614610815578063c31c9c071461083f578063c933375614610854578063c9bf047c146108b9578063d353a1cb146108ef57610230565b806390590da0116100f257806390590da0146106f0578063a62ff16414610713578063ad6102e51461073d578063b1597517146107b2578063bb176a64146107dc57610230565b80637dc0d1d0146106545780638705fcd4146106695780638a5a8f5f1461069c5780638da5cb5b146106b15780638df82800146106c657610230565b8063415f1240116101bc5780635a5a971e116101805780635a5a971e1461051a5780635c975abb146105d65780636abd7f29146105eb5780636c42fed214610615578063715018a61461063f57610230565b8063415f12401461044f5780634aea0aec146104795780635249961b1461048e57806352f7c988146104c1578063593f4cb7146104f157610230565b80632fc0c96c116102035780632fc0c96c1461032157806338f2aa76146103635780633ab4a445146103935780633c9fadc3146103bd578063412753581461041e57610230565b80630177b68c14610235578063081e3eda1461029257806308e7305f146102b957806314c090cc146102f7575b600080fd5b34801561024157600080fd5b5061025f6004803603602081101561025857600080fd5b50356109ca565b604080519687526020870195909552858501939093526060850191909152608084015260a0830152519081900360c00190f35b34801561029e57600080fd5b506102a7610a0d565b60408051918252519081900360200190f35b3480156102c557600080fd5b506102e3600480360360208110156102dc57600080fd5b5035610a13565b604080519115158252519081900360200190f35b34801561030357600080fd5b506102e36004803603602081101561031a57600080fd5b5035610aca565b34801561032d57600080fd5b506103616004803603606081101561034457600080fd5b5080359067ffffffffffffffff6020820135169060400135610af4565b005b34801561036f57600080fd5b506103616004803603604081101561038657600080fd5b5080359060200135610b97565b34801561039f57600080fd5b50610361600480360360208110156103b657600080fd5b5035611035565b3480156103c957600080fd5b506103f6600480360360408110156103e057600080fd5b506001600160a01b0381351690602001356114b9565b6040805194855260208501939093529015158383015215156060830152519081900360800190f35b34801561042a57600080fd5b506104336114f1565b604080516001600160a01b039092168252519081900360200190f35b34801561045b57600080fd5b506103616004803603602081101561047257600080fd5b5035611500565b34801561048557600080fd5b506102a7611846565b34801561049a57600080fd5b50610361600480360360208110156104b157600080fd5b50356001600160a01b031661184c565b3480156104cd57600080fd5b50610361600480360360408110156104e457600080fd5b50803590602001356118d0565b6103616004803603606081101561050757600080fd5b508035906020810135906040013561193d565b34801561052657600080fd5b506105446004803603602081101561053d57600080fd5b5035611c44565b604051808d81526020018c81526020018b81526020018a8152602001898152602001888152602001878152602001866001600160a01b03168152602001856001600160a01b0316815260200184600481111561059c57fe5b8152602001836001600160a01b03168152602001826001600160a01b031681526020019c5050505050505050505050505060405180910390f35b3480156105e257600080fd5b506102e3611cc9565b3480156105f757600080fd5b506102e36004803603602081101561060e57600080fd5b5035611cd9565b34801561062157600080fd5b506103616004803603602081101561063857600080fd5b5035611d03565b34801561064b57600080fd5b5061036161213f565b34801561066057600080fd5b506104336121eb565b34801561067557600080fd5b506103616004803603602081101561068c57600080fd5b50356001600160a01b03166121fa565b3480156106a857600080fd5b506102a761227e565b3480156106bd57600080fd5b50610433612284565b3480156106d257600080fd5b50610361600480360360208110156106e957600080fd5b5035612293565b6103616004803603604081101561070657600080fd5b508035906020013561252f565b34801561071f57600080fd5b506103616004803603602081101561073657600080fd5b5035612851565b34801561074957600080fd5b50610361600480360361012081101561076157600080fd5b5080359060208101359067ffffffffffffffff604082013516906060810135906080810135906001600160a01b0360a082013581169160c081013582169160e0820135811691610100013516612ca2565b3480156107be57600080fd5b506102a7600480360360208110156107d557600080fd5b5035612fc1565b3480156107e857600080fd5b506103f6600480360360408110156107ff57600080fd5b506001600160a01b038135169060200135613005565b34801561082157600080fd5b506103616004803603602081101561083857600080fd5b503561303d565b34801561084b57600080fd5b506104336132fb565b34801561086057600080fd5b5061087e6004803603602081101561087757600080fd5b503561330a565b6040518082600260200280838360005b838110156108a657818101518382015260200161088e565b5050505090500191505060405180910390f35b3480156108c557600080fd5b50610361600480360360608110156108dc57600080fd5b508035906020810135906040013561353f565b3480156108fb57600080fd5b506103616004803603602081101561091257600080fd5b50356139fd565b34801561092557600080fd5b50610361613e2c565b34801561093a57600080fd5b506103616004803603602081101561095157600080fd5b5035613eaf565b34801561096457600080fd5b506102a761416f565b34801561097957600080fd5b506103616004803603602081101561099057600080fd5b5035614175565b3480156109a357600080fd5b50610361600480360360208110156109ba57600080fd5b50356001600160a01b03166145b6565b600981815481106109d757fe5b60009182526020909120600690910201805460018201546002830154600384015460048501546005909501549395509193909286565b60085490565b60008060098381548110610a2357fe5b90600052602060002090600602019050610a3b615696565b610a448461330a565b90506000610a8e670de0b6b3a7640000610a7d610a8385855b6020020151610a7d670de0b6b3a76400008860015b6020020151906146b9565b9061471b565b6001870154906146b9565b90506000610abe6305f5e100610a7d610ab66007546305f5e10061475d90919063ffffffff16565b8754906146b9565b90911095945050505050565b600060088281548110610ad957fe5b90600052602060002090600b02016000015442119050919050565b610afc6147b7565b6001600160a01b0316610b0d612284565b6001600160a01b031614610b56576040805162461bcd60e51b81526020600482018190526024820152600080516020615885833981519152604482015290519081900360640190fd5b600060088481548110610b6557fe5b90600052602060002090600b020190508267ffffffffffffffff16816002018190555081816003018190555050505050565b60026000541415610bdd576040805162461bcd60e51b815260206004820152601f60248201526000805160206156b5833981519152604482015290519081900360640190fd5b6002600055600154600160a01b900460ff1615610c2f576040805162461bcd60e51b815260206004820152601860248201526000805160206157b8833981519152604482015290519081900360640190fd5b81600260088281548110610c3f57fe5b90600052602060002090600b020160080160149054906101000a900460ff166004811115610c6957fe5b1480610cab5750600360088281548110610c7f57fe5b90600052602060002090600b020160080160149054906101000a900460ff166004811115610ca957fe5b145b610cf8576040805162461bcd60e51b815260206004820152601960248201527839ba30ba329d103334b734b9b4103634b8bab4b230ba34b7b760391b604482015290519081900360640190fd5b600060088481548110610d0757fe5b90600052602060002090600b02019050600060098581548110610d2657fe5b9060005260206000209060060201905060008411610d755760405162461bcd60e51b81526004018080602001828103825260258152602001806156f96025913960400191505060405180910390fd5b600982015460408051632770a7eb60e21b81523360048201526024810187905290516001600160a01b0390921691639dc29fac9160448082019260009290919082900301818387803b158015610dca57600080fd5b505af1158015610dde573d6000803e3d6000fd5b505050506000610e126305f5e100610a7d610e0a6305f5e100876002015461475d90919063ffffffff16565b8554906146b9565b90506000610e2c82610a7d88670de0b6b3a76400006146b9565b905060026008850154600160a01b900460ff166004811115610e4a57fe5b1415610f375783600101544211610ea8576040805162461bcd60e51b815260206004820181905260248201527f77697468647261774c656e643a206c657373207468616e20656e642074696d65604482015290519081900360640190fd5b6000610ecd670de0b6b3a7640000610a7d8487600201546146b990919063ffffffff16565b6007860154909150610eea9033906001600160a01b0316836147bb565b600785015460408051838152602081018a905281516001600160a01b039093169233927f690f32ccf3e832d5ff975d781039bc2affebee9c973939c9b710091b87954c9d928290030190a3505b60036008850154600160a01b900460ff166004811115610f5357fe5b14156110275783544211610f985760405162461bcd60e51b81526004018080602001828103825260228152602001806157966022913960400191505060405180910390fd5b6000610fbd670de0b6b3a7640000610a7d8487600401546146b990919063ffffffff16565b6007860154909150610fda9033906001600160a01b0316836147bb565b600785015460408051838152602081018a905281516001600160a01b039093169233927f690f32ccf3e832d5ff975d781039bc2affebee9c973939c9b710091b87954c9d928290030190a3505b505060016000555050505050565b6002600054141561107b576040805162461bcd60e51b815260206004820152601f60248201526000805160206156b5833981519152604482015290519081900360640190fd5b6002600055600154600160a01b900460ff16156110cd576040805162461bcd60e51b815260206004820152601860248201526000805160206157b8833981519152604482015290519081900360640190fd5b80600881815481106110db57fe5b90600052602060002090600b0201600001544211611138576040805162461bcd60e51b8152602060048201526015602482015274477265617465207468616e20746869732074696d6560581b604482015290519081900360640190fd5b8160016008828154811061114857fe5b90600052602060002090600b020160080160149054906101000a900460ff16600481111561117257fe5b14806111b4575060026008828154811061118857fe5b90600052602060002090600b020160080160149054906101000a900460ff1660048111156111b257fe5b145b806111f557506003600882815481106111c957fe5b90600052602060002090600b020160080160149054906101000a900460ff1660048111156111f357fe5b145b611234576040805162461bcd60e51b815260206004820152601b6024820152600080516020615823833981519152604482015290519081900360640190fd5b60006008848154811061124357fe5b90600052602060002090600b0201905060006009858154811061126257fe5b60009182526020808320338452600a825260408085208a865290925292208054600690920290920192506112dd576040805162461bcd60e51b815260206004820152601f60248201527f636c61696d426f72726f773a206e6f7420636c61696d206a705f746f6b656e00604482015290519081900360640190fd5b6002810154610100900460ff161561133c576040805162461bcd60e51b815260206004820152601860248201527f636c61696d426f72726f773a20616761696e20636c61696d0000000000000000604482015290519081900360640190fd5b60006113616305f5e100610a7d866006015486600001546146b990919063ffffffff16565b9050600061138c8560050154610a7d670de0b6b3a764000086600001546146b990919063ffffffff16565b905060006113a6670de0b6b3a7640000610a7d85856146b9565b600a870154604080516340c10f1960e01b81523360048201526024810184905290519293506001600160a01b03909116916340c10f199160448082019260009290919082900301818387803b1580156113fe57600080fd5b505af1158015611412573d6000803e3d6000fd5b50508654600092506114339150670de0b6b3a764000090610a7d90866146b9565b60078801549091506114509033906001600160a01b0316836147bb565b60028501805461ff00191661010017905560088701546040805184815290516001600160a01b039092169133917f3ddafe3ebb4d0c818317027aabfa82dc9983942ceeb80523167e2de047b17fbd919081900360200190a3505060016000555050505050505050565b600a60209081526000928352604080842090915290825290208054600182015460029092015490919060ff8082169161010090041684565b6003546001600160a01b031681565b6115086147b7565b6001600160a01b0316611519612284565b6001600160a01b031614611562576040805162461bcd60e51b81526020600482018190526024820152600080516020615885833981519152604482015290519081900360640190fd5b60006009828154811061157157fe5b9060005260206000209060060201905060006008838154811061159057fe5b90600052602060002090600b02019050806000015442116115f8576040805162461bcd60e51b815260206004820181905260248201527f6e6f772074696d65206973206c657373207468616e206d617463682074696d65604482015290519081900360640190fd5b6008810154600782015460028301546001600160a01b03928316929091169060009061163a906305f5e10090610a7d90611632908361475d565b8854906146b9565b6005549091501561176c5760006116726305f5e100610a7d61166b6305f5e10060055461475d90919063ffffffff16565b85906146b9565b6002549091506000908190611692906001600160a01b031687878661486c565b91509150838111156116ce5760006116aa82866148a8565b60035460078a01549192506116cc916001600160a01b039182169116836147bb565b505b600488018190556006541561174f57600061170a6305f5e100610a7d600654611704878e600101546148a890919063ffffffff16565b906146b9565b60035460088a015491925061172c916001600160a01b039182169116836147bb565b611744611739848361475d565b60018b0154906148a8565b60058a015550611764565b600188015461175e90836148a8565b60058901555b505050611821565b6002546000908190611789906001600160a01b031686868661486c565b600489018190556006549193509150156118095760006117c46305f5e100610a7d600654611704878d600101546148a890919063ffffffff16565b60035460088901549192506117e6916001600160a01b039182169116836147bb565b6117fe6117f3848361475d565b60018a0154906148a8565b60058901555061181e565b600187015461181890836148a8565b60058801555b50505b6008840180546003919060ff60a01b1916600160a01b835b0217905550505050505050565b60055481565b6118546147b7565b6001600160a01b0316611865612284565b6001600160a01b0316146118ae576040805162461bcd60e51b81526020600482018190526024820152600080516020615885833981519152604482015290519081900360640190fd5b600280546001600160a01b0319166001600160a01b0392909216919091179055565b6118d86147b7565b6001600160a01b03166118e9612284565b6001600160a01b031614611932576040805162461bcd60e51b81526020600482018190526024820152600080516020615885833981519152604482015290519081900360640190fd5b600591909155600655565b60026000541415611983576040805162461bcd60e51b815260206004820152601f60248201526000805160206156b5833981519152604482015290519081900360640190fd5b6002600055600154600160a01b900460ff16156119d5576040805162461bcd60e51b815260206004820152601860248201526000805160206157b8833981519152604482015290519081900360640190fd5b82600881815481106119e357fe5b90600052602060002090600b0201600001544210611a3e576040805162461bcd60e51b81526020600482015260136024820152724c657373207468616e20746869732074696d6560681b604482015290519081900360640190fd5b83600060088281548110611a4e57fe5b90600052602060002090600b020160080160149054906101000a900460ff166004811115611a7857fe5b14611ab45760405162461bcd60e51b81526004018080602001828103825260218152602001806158436021913960400191505060405180910390fd5b8242811015611afb576040805162461bcd60e51b815260206004820152600e60248201526d1cdd185ad94e881156141254915160921b604482015290519081900360640190fd5b600060088781548110611b0a57fe5b60009182526020808320338452600a825260408085208c8652909252908320600b92909202016008810154909350909190611b4e906001600160a01b0316896148ea565b905060008111611b8f5760405162461bcd60e51b81526004018080602001828103825260258152602001806157d86025913960400191505060405180910390fd5b60028201805461ffff1916905560088301546001600160a01b0316611bc65781543490810183556005840180549091019055611be9565b8154611bd2908961475d565b82556005830154611be3908961475d565b60058401555b6008830154604080518a81526020810184905281516001600160a01b039093169233927f1d7b72e666a0b6217efe7cfa1b604ea5c7b39219563ce48b30c9da77045247a5928290030190a35050600160005550505050505050565b60088181548110611c5157fe5b60009182526020909120600b9091020180546001820154600283015460038401546004850154600586015460068701546007880154600889015460098a0154600a909a0154989a509698959794969395929491936001600160a01b039182169382821693600160a01b90920460ff169290811691168c565b600154600160a01b900460ff1681565b600060088281548110611ce857fe5b90600052602060002090600b02016001015442119050919050565b60026000541415611d49576040805162461bcd60e51b815260206004820152601f60248201526000805160206156b5833981519152604482015290519081900360640190fd5b6002600055600154600160a01b900460ff1615611d9b576040805162461bcd60e51b815260206004820152601860248201526000805160206157b8833981519152604482015290519081900360640190fd5b8060088181548110611da957fe5b90600052602060002090600b0201600001544211611e06576040805162461bcd60e51b8152602060048201526015602482015274477265617465207468616e20746869732074696d6560581b604482015290519081900360640190fd5b81600160088281548110611e1657fe5b90600052602060002090600b020160080160149054906101000a900460ff166004811115611e4057fe5b1480611e825750600260088281548110611e5657fe5b90600052602060002090600b020160080160149054906101000a900460ff166004811115611e8057fe5b145b80611ec35750600360088281548110611e9757fe5b90600052602060002090600b020160080160149054906101000a900460ff166004811115611ec157fe5b145b611f02576040805162461bcd60e51b815260206004820152601b6024820152600080516020615823833981519152604482015290519081900360640190fd5b600060088481548110611f1157fe5b90600052602060002090600b02019050600060098581548110611f3057fe5b60009182526020808320338452600b825260408085208a86529092529220805460069092029092019250611fab576040805162461bcd60e51b815260206004820152601d60248201527f636c61696d4c656e643a206e6f7420636c61696d2073705f746f6b656e000000604482015290519081900360640190fd5b6002810154610100900460ff1615612003576040805162461bcd60e51b8152602060048201526016602482015275636c61696d4c656e643a20616761696e20636c61696d60501b604482015290519081900360640190fd5b6004830154815460009161202391610a7d90670de0b6b3a76400006146b9565b9050600061204d6305f5e100610a7d610ab66305f5e100896002015461475d90919063ffffffff16565b90506000612067670de0b6b3a7640000610a7d84866146b9565b6009870154604080516340c10f1960e01b81523360048201526024810184905290519293506001600160a01b03909116916340c10f199160448082019260009290919082900301818387803b1580156120bf57600080fd5b505af11580156120d3573d6000803e3d6000fd5b50505060028501805461ff0019166101001790555060088601546040805183815290516001600160a01b039092169133917f6f4dd2687b3c3bfa99d39742b01d6e0ad9604c48559791d5df4ff5df44b41dfd919081900360200190a35050600160005550505050505050565b6121476147b7565b6001600160a01b0316612158612284565b6001600160a01b0316146121a1576040805162461bcd60e51b81526020600482018190526024820152600080516020615885833981519152604482015290519081900360640190fd5b6001546040516000916001600160a01b0316907f8be0079c531659141344cd1fd0a4f28419497f9722a3daafe3b4186f6b6457e0908390a3600180546001600160a01b0319169055565b6004546001600160a01b031681565b6122026147b7565b6001600160a01b0316612213612284565b6001600160a01b03161461225c576040805162461bcd60e51b81526020600482018190526024820152600080516020615885833981519152604482015290519081900360640190fd5b600380546001600160a01b0319166001600160a01b0392909216919091179055565b60075481565b6001546001600160a01b031690565b61229b6147b7565b6001600160a01b03166122ac612284565b6001600160a01b0316146122f5576040805162461bcd60e51b81526020600482018190526024820152600080516020615885833981519152604482015290519081900360640190fd5b60006008828154811061230457fe5b90600052602060002090600b0201905060006009838154811061232357fe5b906000526020600020906006020190506008838154811061234057fe5b90600052602060002090600b02016000015442116123a5576040805162461bcd60e51b815260206004820152601b60248201527f736574746c653a206c657373207468616e206d6174636874696d650000000000604482015290519081900360640190fd5b60006008830154600160a01b900460ff1660048111156123c157fe5b14612413576040805162461bcd60e51b815260206004820181905260248201527f736574746c653a20706f6f6c207374617465206d757374206265206d61746368604482015290519081900360640190fd5b6000826004015411801561242b575060008260050154115b1561250357612438615696565b6124418461330a565b90506000612469670de0b6b3a7640000610a7d61245e8585610a5d565b6005880154906146b9565b9050600061248c8560060154610a7d6305f5e100856146b990919063ffffffff16565b905080856004015411156124ac57808455600585015460018501556124fb565b6004850154845582516124e0906124cd90610a7d6305f5e100876001610a72565b60068701546004880154610a7d916146b9565b600185015560088501805460ff60a01b1916600160a01b1790555b50505061252a565b60088201805460ff60a01b1916600160a21b17905560048201548155600582015460018201555b505050565b60026000541415612575576040805162461bcd60e51b815260206004820152601f60248201526000805160206156b5833981519152604482015290519081900360640190fd5b6002600055600154600160a01b900460ff16156125c7576040805162461bcd60e51b815260206004820152601860248201526000805160206157b8833981519152604482015290519081900360640190fd5b81600881815481106125d557fe5b90600052602060002090600b0201600001544210612630576040805162461bcd60e51b81526020600482015260136024820152724c657373207468616e20746869732074696d6560681b604482015290519081900360640190fd5b8260006008828154811061264057fe5b90600052602060002090600b020160080160149054906101000a900460ff16600481111561266a57fe5b146126a65760405162461bcd60e51b81526004018080602001828103825260218152602001806158436021913960400191505060405180910390fd5b6000600885815481106126b557fe5b60009182526020808320338452600b80835260408086208b8752909352919093209102909101600481015460038201549193506126f291906148a8565b8511156127305760405162461bcd60e51b815260040180806020018281038252602b815260200180615744602b913960400191505060405180910390fd5b600782015460009061274b906001600160a01b0316876148ea565b905068056bc75e2d63100000811161279e576040805162461bcd60e51b815260206004820152601160248201527006d696e20616d6f756e742069732031303607c1b604482015290519081900360640190fd5b60028201805461ffff1916905560078301546001600160a01b03166127d557815434908101835560048401805490910190556127f8565b81546127e1908761475d565b825560048301546127f2908761475d565b60048401555b6007830154604080518881526020810184905281516001600160a01b039093169233927f129e8c18c2f7baf99c7eb257934c21f038c72412803512dcf0a942a4562a82ea928290030190a3505060016000555050505050565b60026000541415612897576040805162461bcd60e51b815260206004820152601f60248201526000805160206156b5833981519152604482015290519081900360640190fd5b6002600055600154600160a01b900460ff16156128e9576040805162461bcd60e51b815260206004820152601860248201526000805160206157b8833981519152604482015290519081900360640190fd5b80600881815481106128f757fe5b90600052602060002090600b0201600001544211612954576040805162461bcd60e51b8152602060048201526015602482015274477265617465207468616e20746869732074696d6560581b604482015290519081900360640190fd5b8160016008828154811061296457fe5b90600052602060002090600b020160080160149054906101000a900460ff16600481111561298e57fe5b14806129d057506002600882815481106129a457fe5b90600052602060002090600b020160080160149054906101000a900460ff1660048111156129ce57fe5b145b80612a1157506003600882815481106129e557fe5b90600052602060002090600b020160080160149054906101000a900460ff166004811115612a0f57fe5b145b612a50576040805162461bcd60e51b815260206004820152601b6024820152600080516020615823833981519152604482015290519081900360640190fd5b600060088481548110612a5f57fe5b90600052602060002090600b02019050600060098581548110612a7e57fe5b60009182526020808320338452600a825260408085208a86529092529083206006929092020160018101546005860154919450919291612abe91906148a8565b11612b10576040805162461bcd60e51b815260206004820152601860248201527f726566756e64426f72726f773a206e6f7420726566756e640000000000000000604482015290519081900360640190fd5b8054612b5f576040805162461bcd60e51b81526020600482015260196024820152781c99599d5b99109bdc9c9bddce881b9bdd081c1b195919d959603a1b604482015290519081900360640190fd5b600281015460ff1615612bb9576040805162461bcd60e51b815260206004820152601a60248201527f726566756e64426f72726f773a20616761696e20726566756e64000000000000604482015290519081900360640190fd5b60058301548154600091612bd991610a7d90670de0b6b3a76400006146b9565b90506000612c08670de0b6b3a7640000610a7d8461170488600101548a600501546148a890919063ffffffff16565b6008860154909150612c259033906001600160a01b0316836147bb565b6001830154612c34908261475d565b60018085019190915560028401805460ff1916909117905560088501546040805183815290516001600160a01b039092169133917f732816f48de550f238bd0d4f5b79819c7b24a49d6132928978e3cd36568dd5db919081900360200190a350506001600055505050505050565b612caa6147b7565b6001600160a01b0316612cbb612284565b6001600160a01b031614612d04576040805162461bcd60e51b81526020600482018190526024820152600080516020615885833981519152604482015290519081900360640190fd5b60086040518061018001604052808b81526020018a81526020018967ffffffffffffffff1681526020018881526020016000815260200160008152602001878152602001866001600160a01b03168152602001856001600160a01b0316815260200160006004811115612d7357fe5b81526001600160a01b038086166020808401919091528582166040938401528454600181810187556000968752958290208551600b90920201908155908401519481019490945590820151600284015560608201516003840155608082015160048085019190915560a0830151600585015560c0830151600685015560e08301516007850180549184166001600160a01b031992831617905561010084015160088601805491909416911617808355610120840151939493929160ff60a01b1990911690600160a01b908490811115612e4857fe5b0217905550610140820151600982810180546001600160a01b03199081166001600160a01b039485161790915561016090940151600a909301805490941692909116919091179091556040805160c081018252600080825260208201818152928201818152606083018281526080840183815260a0850184815287546001810189559790945293517f6e1540171b6c0c960b71a7020d9f60077f6af931a8bbf590da0223dacf75c7af60069097029687015593517f6e1540171b6c0c960b71a7020d9f60077f6af931a8bbf590da0223dacf75c7b0860155517f6e1540171b6c0c960b71a7020d9f60077f6af931a8bbf590da0223dacf75c7b185015591517f6e1540171b6c0c960b71a7020d9f60077f6af931a8bbf590da0223dacf75c7b2840155517f6e1540171b6c0c960b71a7020d9f60077f6af931a8bbf590da0223dacf75c7b3830155517f6e1540171b6c0c960b71a7020d9f60077f6af931a8bbf590da0223dacf75c7b490910155505050505050505050565b60008060088381548110612fd157fe5b90600052602060002090600b020190508060080160149054906101000a900460ff166004811115612ffe57fe5b9392505050565b600b60209081526000928352604080842090915290825290208054600182015460029092015490919060ff8082169161010090041684565b60026000541415613083576040805162461bcd60e51b815260206004820152601f60248201526000805160206156b5833981519152604482015290519081900360640190fd5b6002600055600154600160a01b900460ff16156130d5576040805162461bcd60e51b815260206004820152601860248201526000805160206157b8833981519152604482015290519081900360640190fd5b6000600882815481106130e457fe5b90600052602060002090600b02019050600081600401541161314d576040805162461bcd60e51b815260206004820152601c60248201527f656d657267656e634c656e643a206e6f74207769746864726177616c00000000604482015290519081900360640190fd5b60046008820154600160a01b900460ff16600481111561316957fe5b146131bb576040805162461bcd60e51b815260206004820152601f60248201527f656d657267656e63793a207374617465206d75737420626520756e646f6e6500604482015290519081900360640190fd5b336000908152600b6020908152604080832085845290915290208054613222576040805162461bcd60e51b81526020600482015260176024820152761c99599d5b9913195b990e881b9bdd081c1b195919d959604a1b604482015290519081900360640190fd5b600281015460ff161561327c576040805162461bcd60e51b815260206004820152601860248201527f726566756e644c656e643a20616761696e20726566756e640000000000000000604482015290519081900360640190fd5b6007820154815461329a9133916001600160a01b03909116906147bb565b60028101805460ff191660011790556007820154815460408051918252516001600160a01b039092169133917f71d14c5f08cb34cbfb59c06ea5151aafbf742d0b6ed00fdb83addd9afb5c0fd0919081900360200190a35050600160005550565b6002546001600160a01b031681565b613312615696565b60006008838154811061332157fe5b600091825260209182902060408051600280825260608083018452600b9095029093019550929383019080368337505050600783015481519192506001600160a01b031690829060009061337157fe5b6020908102919091010152600882015481516001600160a01b03909116908290600190811061339c57fe5b602090810291909101810191909152600480546040516304e59d2760e11b81529182018381528451602484015284516060946001600160a01b03909316936309cb3a4e93879392839260440191858101910280838360005b8381101561340c5781810151838201526020016133f4565b505050509050019250505060006040518083038186803b15801561342f57600080fd5b505afa158015613443573d6000803e3d6000fd5b505050506040513d6000823e601f3d908101601f19168201604052602081101561346c57600080fd5b8101908080516040519392919084600160201b82111561348b57600080fd5b9083019060208201858111156134a057600080fd5b82518660208202830111600160201b821117156134bc57600080fd5b82525081516020918201928201910280838360005b838110156134e95781810151838201526020016134d1565b50505050905001604052505050905060405180604001604052808260008151811061351057fe5b602002602001015181526020018260018151811061352a57fe5b60200260200101518152509350505050919050565b60026000541415613585576040805162461bcd60e51b815260206004820152601f60248201526000805160206156b5833981519152604482015290519081900360640190fd5b6002600055600154600160a01b900460ff16156135d7576040805162461bcd60e51b815260206004820152601860248201526000805160206157b8833981519152604482015290519081900360640190fd5b804281101561361e576040805162461bcd60e51b815260206004820152600e60248201526d1cdd185ad94e881156141254915160921b604482015290519081900360640190fd5b8360026008828154811061362e57fe5b90600052602060002090600b020160080160149054906101000a900460ff16600481111561365857fe5b148061369a575060036008828154811061366e57fe5b90600052602060002090600b020160080160149054906101000a900460ff16600481111561369857fe5b145b6136e7576040805162461bcd60e51b815260206004820152601960248201527839ba30ba329d103334b734b9b4103634b8bab4b230ba34b7b760391b604482015290519081900360640190fd5b6000600886815481106136f657fe5b90600052602060002090600b0201905060006009878154811061371557fe5b90600052602060002090600602019050600086116137645760405162461bcd60e51b815260040180806020018281038252602781526020018061576f6027913960400191505060405180910390fd5b600a82015460408051632770a7eb60e21b81523360048201526024810189905290516001600160a01b0390921691639dc29fac9160448082019260009290919082900301818387803b1580156137b957600080fd5b505af11580156137cd573d6000803e3d6000fd5b50505060068301548254600092506137ee916305f5e10091610a7d916146b9565b9050600061380882610a7d8a670de0b6b3a76400006146b9565b905060026008850154600160a01b900460ff16600481111561382657fe5b14156138fd578360010154421161386e5760405162461bcd60e51b81526004018080602001828103825260228152602001806158f36022913960400191505060405180910390fd5b6000613893670de0b6b3a7640000610a7d8660030154856146b990919063ffffffff16565b60088601549091506138b09033906001600160a01b0316836147bb565b6008850154604080518b81526020810184905281516001600160a01b039093169233927f0f5e74952c2f9259a748f3aa9a6c4534a6f46a5966e5baabdb6bd337f05234a8928290030190a3505b60036008850154600160a01b900460ff16600481111561391957fe5b14156139ed578354421161395e5760405162461bcd60e51b81526004018080602001828103825260248152602001806156d56024913960400191505060405180910390fd5b6000613983670de0b6b3a7640000610a7d8660050154856146b990919063ffffffff16565b60088601549091506139a09033906001600160a01b0316836147bb565b6008850154604080518b81526020810184905281516001600160a01b039093169233927f0f5e74952c2f9259a748f3aa9a6c4534a6f46a5966e5baabdb6bd337f05234a8928290030190a3505b5050600160005550505050505050565b613a056147b7565b6001600160a01b0316613a16612284565b6001600160a01b031614613a5f576040805162461bcd60e51b81526020600482018190526024820152600080516020615885833981519152604482015290519081900360640190fd5b600060088281548110613a6e57fe5b90600052602060002090600b02019050600060098381548110613a8d57fe5b9060005260206000209060060201905060088381548110613aaa57fe5b90600052602060002090600b0201600101544211613b0f576040805162461bcd60e51b815260206004820152601a60248201527f66696e6973683a206c657373207468616e20656e642074696d65000000000000604482015290519081900360640190fd5b60016008830154600160a01b900460ff166004811115613b2b57fe5b14613b675760405162461bcd60e51b81526004018080602001828103825260248152602001806158a56024913960400191505060405180910390fd5b6008820154600783015460028401546001600160a01b039283169290911690600090613ba1906305f5e10090610a7d90610ab6908361475d565b60055490915015613d07576000613bd26305f5e100610a7d61166b6305f5e10060055461475d90919063ffffffff16565b6002549091506000908190613bf2906001600160a01b031687878661486c565b9150915083811015613c4b576040805162461bcd60e51b815260206004820152601c60248201527f66696e6973683a20536c69707061676520697320746f6f206869676800000000604482015290519081900360640190fd5b6000613c5782866148a8565b60035460078b0154919250613c79916001600160a01b039182169116836147bb565b6002880185905560065415613ce9576000613caf6305f5e100610a7d600654611704888e600101546148a890919063ffffffff16565b60035460088c0154919250613cd1916001600160a01b039182169116836147bb565b613cde611739858361475d565b60038a015550613cfe565b6001880154613cf890846148a8565b60038901555b50505050613e10565b6002546000908190613d24906001600160a01b031686868661486c565b9150915082811015613d7d576040805162461bcd60e51b815260206004820152601c60248201527f66696e6973683a20536c69707061676520697320746f6f206869676800000000604482015290519081900360640190fd5b6002860183905560065415613df8576000613db36305f5e100610a7d600654611704878c600101546148a890919063ffffffff16565b60035460088a0154919250613dd5916001600160a01b039182169116836147bb565b613ded613de2848361475d565b6001890154906148a8565b600388015550613e0d565b6001860154613e0790836148a8565b60038701555b50505b6008850180546002919060ff60a01b1916600160a01b83611839565b613e346147b7565b6001600160a01b0316613e45612284565b6001600160a01b031614613e8e576040805162461bcd60e51b81526020600482018190526024820152600080516020615885833981519152604482015290519081900360640190fd5b6001805460ff60a01b198116600160a01b9182900460ff1615909102179055565b60026000541415613ef5576040805162461bcd60e51b815260206004820152601f60248201526000805160206156b5833981519152604482015290519081900360640190fd5b6002600055600154600160a01b900460ff1615613f47576040805162461bcd60e51b815260206004820152601860248201526000805160206157b8833981519152604482015290519081900360640190fd5b600060088281548110613f5657fe5b90600052602060002090600b020190506000816005015411613fbf576040805162461bcd60e51b815260206004820152601f60248201527f656d657267656e6379426f72726f773a206e6f74207769746864726177616c00604482015290519081900360640190fd5b60046008820154600160a01b900460ff166004811115613fdb57fe5b1461402d576040805162461bcd60e51b815260206004820152601f60248201527f656d657267656e63793a207374617465206d75737420626520756e646f6e6500604482015290519081900360640190fd5b336000908152600a6020908152604080832085845290915290208054614096576040805162461bcd60e51b81526020600482015260196024820152781c99599d5b99109bdc9c9bddce881b9bdd081c1b195919d959603a1b604482015290519081900360640190fd5b600281015460ff16156140f0576040805162461bcd60e51b815260206004820152601a60248201527f726566756e64426f72726f773a20616761696e20726566756e64000000000000604482015290519081900360640190fd5b6008820154815461410e9133916001600160a01b03909116906147bb565b60028101805460ff191660011790556008820154815460408051918252516001600160a01b039092169133917f5a06c7de92f1dc59e8cba872927d016c80ce5f0fb2295c898dfb7a2f08e43fb1919081900360200190a35050600160005550565b60065481565b600260005414156141bb576040805162461bcd60e51b815260206004820152601f60248201526000805160206156b5833981519152604482015290519081900360640190fd5b6002600055600154600160a01b900460ff161561420d576040805162461bcd60e51b815260206004820152601860248201526000805160206157b8833981519152604482015290519081900360640190fd5b806008818154811061421b57fe5b90600052602060002090600b0201600001544211614278576040805162461bcd60e51b8152602060048201526015602482015274477265617465207468616e20746869732074696d6560581b604482015290519081900360640190fd5b8160016008828154811061428857fe5b90600052602060002090600b020160080160149054906101000a900460ff1660048111156142b257fe5b14806142f457506002600882815481106142c857fe5b90600052602060002090600b020160080160149054906101000a900460ff1660048111156142f257fe5b145b80614335575060036008828154811061430957fe5b90600052602060002090600b020160080160149054906101000a900460ff16600481111561433357fe5b145b614374576040805162461bcd60e51b815260206004820152601b6024820152600080516020615823833981519152604482015290519081900360640190fd5b60006008848154811061438357fe5b90600052602060002090600b020190506000600985815481106143a257fe5b60009182526020808320338452600b825260408085208a86529092529220805460069092029092019250614417576040805162461bcd60e51b81526020600482015260176024820152761c99599d5b9913195b990e881b9bdd081c1b195919d959604a1b604482015290519081900360640190fd5b8154600484015460009161442b91906148a8565b11614476576040805162461bcd60e51b81526020600482015260166024820152751c99599d5b9913195b990e881b9bdd081c99599d5b9960521b604482015290519081900360640190fd5b600281015460ff16156144d0576040805162461bcd60e51b815260206004820152601960248201527f726566756e644c656e643a2072657065617420726566756e6400000000000000604482015290519081900360640190fd5b600483015481546000916144f091610a7d90670de0b6b3a76400006146b9565b9050600061451f670de0b6b3a7640000610a7d8461170488600001548a600401546148a890919063ffffffff16565b600786015490915061453c9033906001600160a01b0316836147bb565b60028301805460ff1916600190811790915583015461455b908261475d565b600184015560078501546040805183815290516001600160a01b039092169133917fc3e20279d41b3ed21d277920877e5e5c6665bf6aca607046a3fe0fd2bd6bda7d919081900360200190a350506001600055505050505050565b6145be6147b7565b6001600160a01b03166145cf612284565b6001600160a01b031614614618576040805162461bcd60e51b81526020600482018190526024820152600080516020615885833981519152604482015290519081900360640190fd5b6001600160a01b03811661465d5760405162461bcd60e51b815260040180806020018281038252602681526020018061571e6026913960400191505060405180910390fd5b6001546040516001600160a01b038084169216907f8be0079c531659141344cd1fd0a4f28419497f9722a3daafe3b4186f6b6457e090600090a3600180546001600160a01b0319166001600160a01b0392909216919091179055565b6000826146c857506000614715565b828202828482816146d557fe5b04146147125760405162461bcd60e51b81526004018080602001828103825260218152602001806158646021913960400191505060405180910390fd5b90505b92915050565b600061471283836040518060400160405280601a81526020017f536166654d6174683a206469766973696f6e206279207a65726f000000000000815250614926565b600082820183811015614712576040805162461bcd60e51b815260206004820152601b60248201527f536166654d6174683a206164646974696f6e206f766572666c6f770000000000604482015290519081900360640190fd5b3390565b6001600160a01b038216614805576040516001600160a01b0384169082156108fc029083906000818181858888f193505050501580156147ff573d6000803e3d6000fd5b5061481c565b8161481a6001600160a01b03821685846149c8565b505b816001600160a01b0316836001600160a01b03167fd12200efa34901b99367694174c3b0d32c99585fdf37c7c26892136ddd0836d9836040518082815260200191505060405180910390a3505050565b600080600061487d87878787614a1a565b600254909150819061489a906001600160a01b0316888884614bb2565b925092505094509492505050565b600061471283836040518060400160405280601e81526020017f536166654d6174683a207375627472616374696f6e206f766572666c6f770000815250615089565b60006001600160a01b03831661490257349150614920565b8115614920578261491e6001600160a01b0382163330866150e3565b505b50919050565b600081836149b25760405162461bcd60e51b81526004018080602001828103825283818151815260200191508051906020019080838360005b8381101561497757818101518382015260200161495f565b50505050905090810190601f1680156149a45780820380516001836020036101000a031916815260200191505b509250505060405180910390fd5b5060008385816149be57fe5b0495945050505050565b604080516001600160a01b038416602482015260448082018490528251808303909101815260649091019091526020810180516001600160e01b031663a9059cbb60e01b17905261252a908490615143565b6002546000908590606090614a39906001600160a01b031687876151f4565b90506060826001600160a01b0316631f00ca7486846040518363ffffffff1660e01b81526004018083815260200180602001828103825283818151815260200191508051906020019060200280838360005b83811015614aa3578181015183820152602001614a8b565b50505050905001935050505060006040518083038186803b158015614ac757600080fd5b505afa158015614adb573d6000803e3d6000fd5b505050506040513d6000823e601f3d908101601f191682016040526020811015614b0457600080fd5b8101908080516040519392919084600160201b821115614b2357600080fd5b908301906020820185811115614b3857600080fd5b82518660208202830111600160201b82111715614b5457600080fd5b82525081516020918201928201910280838360005b83811015614b81578181015183820152602001614b69565b50505050905001604052505050905080600081518110614b9d57fe5b60200260200101519350505050949350505050565b60006001600160a01b03841615614bd057614bd0848660001961535e565b6001600160a01b03831615614bec57614bec838660001961535e565b846060614bfa8287876151f4565b905060606001600160a01b038716614d8457826001600160a01b0316637ff36ab5866000853042601e016040518663ffffffff1660e01b81526004018085815260200180602001846001600160a01b03168152602001838152602001828103825285818151815260200191508051906020019060200280838360005b83811015614c8e578181015183820152602001614c76565b50505050905001955050505050506000604051808303818588803b158015614cb557600080fd5b505af1158015614cc9573d6000803e3d6000fd5b50505050506040513d6000823e601f3d908101601f191682016040526020811015614cf357600080fd5b8101908080516040519392919084600160201b821115614d1257600080fd5b908301906020820185811115614d2757600080fd5b82518660208202830111600160201b82111715614d4357600080fd5b82525081516020918201928201910280838360005b83811015614d70578181015183820152602001614d58565b505050509050016040525050509050614ffb565b6001600160a01b038616614e8057826001600160a01b03166318cbafe5866000853042601e016040518663ffffffff1660e01b81526004018086815260200185815260200180602001846001600160a01b03168152602001838152602001828103825285818151815260200191508051906020019060200280838360005b83811015614e1a578181015183820152602001614e02565b505050509050019650505050505050600060405180830381600087803b158015614e4357600080fd5b505af1158015614e57573d6000803e3d6000fd5b505050506040513d6000823e601f3d908101601f191682016040526020811015614cf357600080fd5b826001600160a01b03166338ed1739866000853042601e016040518663ffffffff1660e01b81526004018086815260200185815260200180602001846001600160a01b03168152602001838152602001828103825285818151815260200191508051906020019060200280838360005b83811015614f08578181015183820152602001614ef0565b505050509050019650505050505050600060405180830381600087803b158015614f3157600080fd5b505af1158015614f45573d6000803e3d6000fd5b505050506040513d6000823e601f3d908101601f191682016040526020811015614f6e57600080fd5b8101908080516040519392919084600160201b821115614f8d57600080fd5b908301906020820185811115614fa257600080fd5b82518660208202830111600160201b82111715614fbe57600080fd5b82525081516020918201928201910280838360005b83811015614feb578181015183820152602001614fd3565b5050505090500160405250505090505b856001600160a01b0316876001600160a01b03167ffa2dda1cc1b86e41239702756b13effbc1a092b5c57e3ad320fbe4f3b13fe2358360008151811061503d57fe5b60200260200101518460018651038151811061505557fe5b6020026020010151604051808381526020018281526020019250505060405180910390a380600182510381518110614b9d57fe5b600081848411156150db5760405162461bcd60e51b815260206004820181815283516024840152835190928392604490910191908501908083836000831561497757818101518382015260200161495f565b505050900390565b604080516001600160a01b0380861660248301528416604482015260648082018490528251808303909101815260849091019091526020810180516001600160e01b03166323b872dd60e01b17905261513d908590615143565b50505050565b6060615198826040518060400160405280602081526020017f5361666545524332303a206c6f772d6c6576656c2063616c6c206661696c6564815250856001600160a01b03166154b79092919063ffffffff16565b80519091501561252a578080602001905160208110156151b757600080fd5b505161252a5760405162461bcd60e51b815260040180806020018281038252602a8152602001806158c9602a913960400191505060405180910390fd5b6040805160028082526060808301845292869291906020830190803683370190505091506001600160a01b0384161561522d5783615293565b806001600160a01b031663ad5c46486040518163ffffffff1660e01b815260040160206040518083038186803b15801561526657600080fd5b505afa15801561527a573d6000803e3d6000fd5b505050506040513d602081101561529057600080fd5b50515b826000815181106152a057fe5b6001600160a01b0392831660209182029290920101528316156152c35782615329565b806001600160a01b031663ad5c46486040518163ffffffff1660e01b815260040160206040518083038186803b1580156152fc57600080fd5b505afa158015615310573d6000803e3d6000fd5b505050506040513d602081101561532657600080fd5b50515b8260018151811061533657fe5b60200260200101906001600160a01b031690816001600160a01b031681525050509392505050565b604080516001600160a01b038481166024830152604480830185905283518084039091018152606490920183526020820180516001600160e01b031663095ea7b360e01b178152925182516000946060949389169392918291908083835b602083106153db5780518252601f1990920191602091820191016153bc565b6001836020036101000a0380198251168184511680821785525050505050509050019150506000604051808303816000865af19150503d806000811461543d576040519150601f19603f3d011682016040523d82523d6000602084013e615442565b606091505b5091509150818015615470575080511580615470575080806020019051602081101561546d57600080fd5b50515b6154b0576040805162461bcd60e51b815260206004820152600c60248201526b2173616665417070726f766560a01b604482015290519081900360640190fd5b5050505050565b60606154c684846000856154ce565b949350505050565b60608247101561550f5760405162461bcd60e51b81526004018080602001828103825260268152602001806157fd6026913960400191505060405180910390fd5b6155188561562a565b615569576040805162461bcd60e51b815260206004820152601d60248201527f416464726573733a2063616c6c20746f206e6f6e2d636f6e7472616374000000604482015290519081900360640190fd5b60006060866001600160a01b031685876040518082805190602001908083835b602083106155a85780518252601f199092019160209182019101615589565b6001836020036101000a03801982511681845116808217855250505050505090500191505060006040518083038185875af1925050503d806000811461560a576040519150601f19603f3d011682016040523d82523d6000602084013e61560f565b606091505b509150915061561f828286615630565b979650505050505050565b3b151590565b6060831561563f575081612ffe565b82511561564f5782518084602001fd5b60405162461bcd60e51b815260206004820181815284516024840152845185939192839260440191908501908083836000831561497757818101518382015260200161495f565b6040518060400160405280600290602082028036833750919291505056fe5265656e7472616e637947756172643a207265656e7472616e742063616c6c007769746864726177426f72726f773a206c657373207468616e206d617463682074696d6577697468647261774c656e643a20776974686472617720616d6f756e74206973207a65726f4f776e61626c653a206e6577206f776e657220697320746865207a65726f20616464726573736465706f7369744c656e643a20746865207175616e74697479206578636565647320746865206c696d69747769746864726177426f72726f773a20776974686472617720616d6f756e74206973207a65726f77697468647261774c656e643a206c657373207468616e206d617463682074696d655374616b6520686173206265656e2073757370656e64656400000000000000006465706f736974426f72726f773a206465706f73697420616d6f756e74206973207a65726f416464726573733a20696e73756666696369656e742062616c616e636520666f722063616c6c73746174653a206e6f74206d6174636820616e6420756e646f6e650000000000506f6f6c20737461747573206973206e6f7420657175616c20746f206d61746368536166654d6174683a206d756c7469706c69636174696f6e206f766572666c6f774f776e61626c653a2063616c6c6572206973206e6f7420746865206f776e657266696e6973683a20706f6f6c207374617465206d75737420626520657865637574696f6e5361666545524332303a204552433230206f7065726174696f6e20646964206e6f7420737563636565647769746864726177426f72726f773a206c657373207468616e20656e642074696d65a26469706673582212201148d1781e2bb4b865627b92a16626cfaaf3318b7ad95dd8218c60f88065d96664736f6c634300060c0033",
  "linkReferences": {},
  "deployedLinkReferences": {}
}