{
  "_format": "hh-sol-artifact-1",
  "contractName": "PledgePool",
  "sourceName": "contracts/pledge/PledgePool.sol",
  "abi": [
    {
      "inputs": [
        {
          "internalType": "address",
          "name": "_oracle",
          "type": "address"
        },
        {
          "internalType": "address",
          "name": "_swapRouter",
          "type": "address"
        },
        {
          "internalType": "address payable",
          "name": "_feeAddress",
          "type": "address"
        }
      ],
      "stateMutability": "nonpayable",
      "type": "constructor"
    },
    {
      "anonymous": false,
      "inputs": [
        {
          "indexed": true,
          "internalType": "address",
          "name": "from",
          "type": "address"
        },
        {
          "indexed": true,
          "internalType": "address",
          "name": "token",
          "type": "address"
        },
        {
          "indexed": false,
          "internalType": "uint256",
          "name": "amount",
          "type": "uint256"
        }
      ],
      "name": "ClaimBorrow",
      "type": "event"
    },
    {
      "anonymous": false,
      "inputs": [
        {
          "indexed": true,
          "internalType": "address",
          "name": "from",
          "type": "address"
        },
        {
          "indexed": true,
          "internalType": "address",
          "name": "token",
          "type": "address"
        },
        {
          "indexed": false,
          "internalType": "uint256",
          "name": "amount",
          "type": "uint256"
        }
      ],
      "name": "ClaimLend",
      "type": "event"
    },
    {
      "anonymous": false,
      "inputs": [
        {
          "indexed": true,
          "internalType": "address",
          "name": "from",
          "type": "address"
        },
        {
          "indexed": true,
          "internalType": "address",
          "name": "token",
          "type": "address"
        },
        {
          "indexed": false,
          "internalType": "uint256",
          "name": "amount",
          "type": "uint256"
        },
        {
          "indexed": false,
          "internalType": "uint256",
          "name": "mintAmount",
          "type": "uint256"
        }
      ],
      "name": "DepositBorrow",
      "type": "event"
    },
    {
      "anonymous": false,
      "inputs": [
        {
          "indexed": true,
          "internalType": "address",
          "name": "from",
          "type": "address"
        },
        {
          "indexed": true,
          "internalType": "address",
          "name": "token",
          "type": "address"
        },
        {
          "indexed": false,
          "internalType": "uint256",
          "name": "amount",
          "type": "uint256"
        },
        {
          "indexed": false,
          "internalType": "uint256",
          "name": "mintAmount",
          "type": "uint256"
        }
      ],
      "name": "DepositLend",
      "type": "event"
    },
    {
      "anonymous": false,
      "inputs": [
        {
          "indexed": true,
          "internalType": "address",
          "name": "from",
          "type": "address"
        },
        {
          "indexed": true,
          "internalType": "address",
          "name": "token",
          "type": "address"
        },
        {
          "indexed": false,
          "internalType": "uint256",
          "name": "amount",
          "type": "uint256"
        }
      ],
      "name": "EmergencyBorrowWithdrawal",
      "type": "event"
    },
    {
      "anonymous": false,
      "inputs": [
        {
          "indexed": true,
          "internalType": "address",
          "name": "from",
          "type": "address"
        },
        {
          "indexed": true,
          "internalType": "address",
          "name": "token",
          "type": "address"
        },
        {
          "indexed": false,
          "internalType": "uint256",
          "name": "amount",
          "type": "uint256"
        }
      ],
      "name": "EmergencyLendWithdrawal",
      "type": "event"
    },
    {
      "anonymous": false,
      "inputs": [
        {
          "indexed": true,
          "internalType": "address",
          "name": "previousOwner",
          "type": "address"
        },
        {
          "indexed": true,
          "internalType": "address",
          "name": "newOwner",
          "type": "address"
        }
      ],
      "name": "OwnershipTransferred",
      "type": "event"
    },
    {
      "anonymous": false,
      "inputs": [
        {
          "indexed": true,
          "internalType": "address",
          "name": "recieptor",
          "type": "address"
        },
        {
          "indexed": true,
          "internalType": "address",
          "name": "token",
          "type": "address"
        },
        {
          "indexed": false,
          "internalType": "uint256",
          "name": "amount",
          "type": "uint256"
        }
      ],
      "name": "Redeem",
      "type": "event"
    },
    {
      "anonymous": false,
      "inputs": [
        {
          "indexed": true,
          "internalType": "address",
          "name": "from",
          "type": "address"
        },
        {
          "indexed": true,
          "internalType": "address",
          "name": "token",
          "type": "address"
        },
        {
          "indexed": false,
          "internalType": "uint256",
          "name": "refund",
          "type": "uint256"
        }
      ],
      "name": "RefundBorrow",
      "type": "event"
    },
    {
      "anonymous": false,
      "inputs": [
        {
          "indexed": true,
          "internalType": "address",
          "name": "from",
          "type": "address"
        },
        {
          "indexed": true,
          "internalType": "address",
          "name": "token",
          "type": "address"
        },
        {
          "indexed": false,
          "internalType": "uint256",
          "name": "refund",
          "type": "uint256"
        }
      ],
      "name": "RefundLend",
      "type": "event"
    },
    {
      "anonymous": false,
      "inputs": [
        {
          "indexed": true,
          "internalType": "uint256",
          "name": "newLendFee",
          "type": "uint256"
        },
        {
          "indexed": true,
          "internalType": "uint256",
          "name": "newBorrowFee",
          "type": "uint256"
        }
      ],
      "name": "SetFee",
      "type": "event"
    },
    {
      "anonymous": false,
      "inputs": [
        {
          "indexed": true,
          "internalType": "address",
          "name": "oldFeeAddress",
          "type": "address"
        },
        {
          "indexed": true,
          "internalType": "address",
          "name": "newFeeAddress",
          "type": "address"
        }
      ],
      "name": "SetFeeAddress",
      "type": "event"
    },
    {
      "anonymous": false,
      "inputs": [
        {
          "indexed": true,
          "internalType": "uint256",
          "name": "oldMinAmount",
          "type": "uint256"
        },
        {
          "indexed": true,
          "internalType": "uint256",
          "name": "newMinAmount",
          "type": "uint256"
        }
      ],
      "name": "SetMinAmount",
      "type": "event"
    },
    {
      "anonymous": false,
      "inputs": [
        {
          "indexed": true,
          "internalType": "address",
          "name": "oldSwapAddress",
          "type": "address"
        },
        {
          "indexed": true,
          "internalType": "address",
          "name": "newSwapAddress",
          "type": "address"
        }
      ],
      "name": "SetSwapRouterAddress",
      "type": "event"
    },
    {
      "anonymous": false,
      "inputs": [
        {
          "indexed": true,
          "internalType": "uint256",
          "name": "pid",
          "type": "uint256"
        },
        {
          "indexed": true,
          "internalType": "uint256",
          "name": "beforeState",
          "type": "uint256"
        },
        {
          "indexed": true,
          "internalType": "uint256",
          "name": "afterState",
          "type": "uint256"
        }
      ],
      "name": "StateChange",
      "type": "event"
    },
    {
      "anonymous": false,
      "inputs": [
        {
          "indexed": true,
          "internalType": "address",
          "name": "fromCoin",
          "type": "address"
        },
        {
          "indexed": true,
          "internalType": "address",
          "name": "toCoin",
          "type": "address"
        },
        {
          "indexed": false,
          "internalType": "uint256",
          "name": "fromValue",
          "type": "uint256"
        },
        {
          "indexed": false,
          "internalType": "uint256",
          "name": "toValue",
          "type": "uint256"
        }
      ],
      "name": "Swap",
      "type": "event"
    },
    {
      "anonymous": false,
      "inputs": [
        {
          "indexed": true,
          "internalType": "address",
          "name": "from",
          "type": "address"
        },
        {
          "indexed": true,
          "internalType": "address",
          "name": "token",
          "type": "address"
        },
        {
          "indexed": false,
          "internalType": "uint256",
          "name": "amount",
          "type": "uint256"
        },
        {
          "indexed": false,
          "internalType": "uint256",
          "name": "burnAmount",
          "type": "uint256"
        }
      ],
      "name": "WithdrawBorrow",
      "type": "event"
    },
    {
      "anonymous": false,
      "inputs": [
        {
          "indexed": true,
          "internalType": "address",
          "name": "from",
          "type": "address"
        },
        {
          "indexed": true,
          "internalType": "address",
          "name": "token",
          "type": "address"
        },
        {
          "indexed": false,
          "internalType": "uint256",
          "name": "amount",
          "type": "uint256"
        },
        {
          "indexed": false,
          "internalType": "uint256",
          "name": "burnAmount",
          "type": "uint256"
        }
      ],
      "name": "WithdrawLend",
      "type": "event"
    },
    {
      "inputs": [],
      "name": "borrowFee",
      "outputs": [
        {
          "internalType": "uint256",
          "name": "",
          "type": "uint256"
        }
      ],
      "stateMutability": "view",
      "type": "function"
    },
    {
      "inputs": [
        {
          "internalType": "uint256",
          "name": "_pid",
          "type": "uint256"
        }
      ],
      "name": "checkoutFinish",
      "outputs": [
        {
          "internalType": "bool",
          "name": "",
          "type": "bool"
        }
      ],
      "stateMutability": "view",
      "type": "function"
    },
    {
      "inputs": [
        {
          "internalType": "uint256",
          "name": "_pid",
          "type": "uint256"
        }
      ],
      "name": "checkoutLiquidate",
      "outputs": [
        {
          "internalType": "bool",
          "name": "",
          "type": "bool"
        }
      ],
      "stateMutability": "view",
      "type": "function"
    },
    {
      "inputs": [
        {
          "internalType": "uint256",
          "name": "_pid",
          "type": "uint256"
        }
      ],
      "name": "checkoutSettle",
      "outputs": [
        {
          "internalType": "bool",
          "name": "",
          "type": "bool"
        }
      ],
      "stateMutability": "view",
      "type": "function"
    },
    {
      "inputs": [
        {
          "internalType": "uint256",
          "name": "_pid",
          "type": "uint256"
        }
      ],
      "name": "claimBorrow",
      "outputs": [],
      "stateMutability": "nonpayable",
      "type": "function"
    },
    {
      "inputs": [
        {
          "internalType": "uint256",
          "name": "_pid",
          "type": "uint256"
        }
      ],
      "name": "claimLend",
      "outputs": [],
      "stateMutability": "nonpayable",
      "type": "function"
    },
    {
      "inputs": [
        {
          "internalType": "uint256",
          "name": "_settleTime",
          "type": "uint256"
        },
        {
          "internalType": "uint256",
          "name": "_endTime",
          "type": "uint256"
        },
        {
          "internalType": "uint64",
          "name": "_interestRate",
          "type": "uint64"
        },
        {
          "internalType": "uint256",
          "name": "_maxSupply",
          "type": "uint256"
        },
        {
          "internalType": "uint256",
          "name": "_martgageRate",
          "type": "uint256"
        },
        {
          "internalType": "address",
          "name": "_lendToken",
          "type": "address"
        },
        {
          "internalType": "address",
          "name": "_borrowToken",
          "type": "address"
        },
        {
          "internalType": "address",
          "name": "_spToken",
          "type": "address"
        },
        {
          "internalType": "address",
          "name": "_jpToken",
          "type": "address"
        },
        {
          "internalType": "uint256",
          "name": "_autoLiquidateThreshold",
          "type": "uint256"
        }
      ],
      "name": "createPoolInfo",
      "outputs": [],
      "stateMutability": "nonpayable",
      "type": "function"
    },
    {
      "inputs": [
        {
          "internalType": "uint256",
          "name": "_pid",
          "type": "uint256"
        },
        {
          "internalType": "uint256",
          "name": "_stakeAmount",
          "type": "uint256"
        }
      ],
      "name": "depositBorrow",
      "outputs": [],
      "stateMutability": "payable",
      "type": "function"
    },
    {
      "inputs": [
        {
          "internalType": "uint256",
          "name": "_pid",
          "type": "uint256"
        },
        {
          "internalType": "uint256",
          "name": "_stakeAmount",
          "type": "uint256"
        }
      ],
      "name": "depositLend",
      "outputs": [],
      "stateMutability": "payable",
      "type": "function"
    },
    {
      "inputs": [
        {
          "internalType": "uint256",
          "name": "_pid",
          "type": "uint256"
        }
      ],
      "name": "emergencyBorrowWithdrawal",
      "outputs": [],
      "stateMutability": "nonpayable",
      "type": "function"
    },
    {
      "inputs": [
        {
          "internalType": "uint256",
          "name": "_pid",
          "type": "uint256"
        }
      ],
      "name": "emergencyLendWithdrawal",
      "outputs": [],
      "stateMutability": "nonpayable",
      "type": "function"
    },
    {
      "inputs": [],
      "name": "feeAddress",
      "outputs": [
        {
          "internalType": "address payable",
          "name": "",
          "type": "address"
        }
      ],
      "stateMutability": "view",
      "type": "function"
    },
    {
      "inputs": [
        {
          "internalType": "uint256",
          "name": "_pid",
          "type": "uint256"
        }
      ],
      "name": "finish",
      "outputs": [],
      "stateMutability": "nonpayable",
      "type": "function"
    },
    {
      "inputs": [
        {
          "internalType": "uint256",
          "name": "_pid",
          "type": "uint256"
        }
      ],
      "name": "getPoolState",
      "outputs": [
        {
          "internalType": "uint256",
          "name": "",
          "type": "uint256"
        }
      ],
      "stateMutability": "view",
      "type": "function"
    },
    {
      "inputs": [
        {
          "internalType": "uint256",
          "name": "_pid",
          "type": "uint256"
        }
      ],
      "name": "getUnderlyingPriceView",
      "outputs": [
        {
          "internalType": "uint256[2]",
          "name": "",
          "type": "uint256[2]"
        }
      ],
      "stateMutability": "view",
      "type": "function"
    },
    {
      "inputs": [],
      "name": "globalPaused",
      "outputs": [
        {
          "internalType": "bool",
          "name": "",
          "type": "bool"
        }
      ],
      "stateMutability": "view",
      "type": "function"
    },
    {
      "inputs": [],
      "name": "lendFee",
      "outputs": [
        {
          "internalType": "uint256",
          "name": "",
          "type": "uint256"
        }
      ],
      "stateMutability": "view",
      "type": "function"
    },
    {
      "inputs": [
        {
          "internalType": "uint256",
          "name": "_pid",
          "type": "uint256"
        }
      ],
      "name": "liquidate",
      "outputs": [],
      "stateMutability": "nonpayable",
      "type": "function"
    },
    {
      "inputs": [],
      "name": "minAmount",
      "outputs": [
        {
          "internalType": "uint256",
          "name": "",
          "type": "uint256"
        }
      ],
      "stateMutability": "view",
      "type": "function"
    },
    {
      "inputs": [],
      "name": "oracle",
      "outputs": [
        {
          "internalType": "contract IBscPledgeOracle",
          "name": "",
          "type": "address"
        }
      ],
      "stateMutability": "view",
      "type": "function"
    },
    {
      "inputs": [],
      "name": "owner",
      "outputs": [
        {
          "internalType": "address",
          "name": "",
          "type": "address"
        }
      ],
      "stateMutability": "view",
      "type": "function"
    },
    {
      "inputs": [
        {
          "internalType": "uint256",
          "name": "",
          "type": "uint256"
        }
      ],
      "name": "poolBaseInfo",
      "outputs": [
        {
          "internalType": "uint256",
          "name": "settleTime",
          "type": "uint256"
        },
        {
          "internalType": "uint256",
          "name": "endTime",
          "type": "uint256"
        },
        {
          "internalType": "uint256",
          "name": "interestRate",
          "type": "uint256"
        },
        {
          "internalType": "uint256",
          "name": "maxSupply",
          "type": "uint256"
        },
        {
          "internalType": "uint256",
          "name": "lendSupply",
          "type": "uint256"
        },
        {
          "internalType": "uint256",
          "name": "borrowSupply",
          "type": "uint256"
        },
        {
          "internalType": "uint256",
          "name": "martgageRate",
          "type": "uint256"
        },
        {
          "internalType": "address",
          "name": "lendToken",
          "type": "address"
        },
        {
          "internalType": "address",
          "name": "borrowToken",
          "type": "address"
        },
        {
          "internalType": "enum PledgePool.PoolState",
          "name": "state",
          "type": "uint8"
        },
        {
          "internalType": "contract IDebtToken",
          "name": "spCoin",
          "type": "address"
        },
        {
          "internalType": "contract IDebtToken",
          "name": "jpCoin",
          "type": "address"
        },
        {
          "internalType": "uint256",
          "name": "autoLiquidateThreshold",
          "type": "uint256"
        }
      ],
      "stateMutability": "view",
      "type": "function"
    },
    {
      "inputs": [
        {
          "internalType": "uint256",
          "name": "",
          "type": "uint256"
        }
      ],
      "name": "poolDataInfo",
      "outputs": [
        {
          "internalType": "uint256",
          "name": "settleAmountLend",
          "type": "uint256"
        },
        {
          "internalType": "uint256",
          "name": "settleAmountBorrow",
          "type": "uint256"
        },
        {
          "internalType": "uint256",
          "name": "finishAmountLend",
          "type": "uint256"
        },
        {
          "internalType": "uint256",
          "name": "finishAmountBorrow",
          "type": "uint256"
        },
        {
          "internalType": "uint256",
          "name": "liquidationAmounLend",
          "type": "uint256"
        },
        {
          "internalType": "uint256",
          "name": "liquidationAmounBorrow",
          "type": "uint256"
        }
      ],
      "stateMutability": "view",
      "type": "function"
    },
    {
      "inputs": [],
      "name": "poolLength",
      "outputs": [
        {
          "internalType": "uint256",
          "name": "",
          "type": "uint256"
        }
      ],
      "stateMutability": "view",
      "type": "function"
    },
    {
      "inputs": [
        {
          "internalType": "uint256",
          "name": "_pid",
          "type": "uint256"
        }
      ],
      "name": "refundBorrow",
      "outputs": [],
      "stateMutability": "nonpayable",
      "type": "function"
    },
    {
      "inputs": [
        {
          "internalType": "uint256",
          "name": "_pid",
          "type": "uint256"
        }
      ],
      "name": "refundLend",
      "outputs": [],
      "stateMutability": "nonpayable",
      "type": "function"
    },
    {
      "inputs": [],
      "name": "renounceOwnership",
      "outputs": [],
      "stateMutability": "nonpayable",
      "type": "function"
    },
    {
      "inputs": [
        {
          "internalType": "uint256",
          "name": "_lendFee",
          "type": "uint256"
        },
        {
          "internalType": "uint256",
          "name": "_borrowFee",
          "type": "uint256"
        }
      ],
      "name": "setFee",
      "outputs": [],
      "stateMutability": "nonpayable",
      "type": "function"
    },
    {
      "inputs": [
        {
          "internalType": "address payable",
          "name": "_feeAddress",
          "type": "address"
        }
      ],
      "name": "setFeeAddress",
      "outputs": [],
      "stateMutability": "nonpayable",
      "type": "function"
    },
    {
      "inputs": [
        {
          "internalType": "uint256",
          "name": "_minAmount",
          "type": "uint256"
        }
      ],
      "name": "setMinAmount",
      "outputs": [],
      "stateMutability": "nonpayable",
      "type": "function"
    },
    {
      "inputs": [],
      "name": "setPause",
      "outputs": [],
      "stateMutability": "nonpayable",
      "type": "function"
    },
    {
      "inputs": [
        {
          "internalType": "address",
          "name": "_swapRouter",
          "type": "address"
        }
      ],
      "name": "setSwapRouterAddress",
      "outputs": [],
      "stateMutability": "nonpayable",
      "type": "function"
    },
    {
      "inputs": [
        {
          "internalType": "uint256",
          "name": "_pid",
          "type": "uint256"
        }
      ],
      "name": "settle",
      "outputs": [],
      "stateMutability": "nonpayable",
      "type": "function"
    },
    {
      "inputs": [],
      "name": "swapRouter",
      "outputs": [
        {
          "internalType": "address",
          "name": "",
          "type": "address"
        }
      ],
      "stateMutability": "view",
      "type": "function"
    },
    {
      "inputs": [
        {
          "internalType": "address",
          "name": "newOwner",
          "type": "address"
        }
      ],
      "name": "transferOwnership",
      "outputs": [],
      "stateMutability": "nonpayable",
      "type": "function"
    },
    {
      "inputs": [
        {
          "internalType": "address",
          "name": "",
          "type": "address"
        },
        {
          "internalType": "uint256",
          "name": "",
          "type": "uint256"
        }
      ],
      "name": "userBorrowInfo",
      "outputs": [
        {
          "internalType": "uint256",
          "name": "stakeAmount",
          "type": "uint256"
        },
        {
          "internalType": "uint256",
          "name": "refundAmount",
          "type": "uint256"
        },
        {
          "internalType": "bool",
          "name": "hasNoRefund",
          "type": "bool"
        },
        {
          "internalType": "bool",
          "name": "hasNoClaim",
          "type": "bool"
        }
      ],
      "stateMutability": "view",
      "type": "function"
    },
    {
      "inputs": [
        {
          "internalType": "address",
          "name": "",
          "type": "address"
        },
        {
          "internalType": "uint256",
          "name": "",
          "type": "uint256"
        }
      ],
      "name": "userLendInfo",
      "outputs": [
        {
          "internalType": "uint256",
          "name": "stakeAmount",
          "type": "uint256"
        },
        {
          "internalType": "uint256",
          "name": "refundAmount",
          "type": "uint256"
        },
        {
          "internalType": "bool",
          "name": "hasNoRefund",
          "type": "bool"
        },
        {
          "internalType": "bool",
          "name": "hasNoClaim",
          "type": "bool"
        }
      ],
      "stateMutability": "view",
      "type": "function"
    },
    {
      "inputs": [
        {
          "internalType": "uint256",
          "name": "_pid",
          "type": "uint256"
        },
        {
          "internalType": "uint256",
          "name": "_jpAmount",
          "type": "uint256"
        }
      ],
      "name": "withdrawBorrow",
      "outputs": [],
      "stateMutability": "nonpayable",
      "type": "function"
    },
    {
      "inputs": [
        {
          "internalType": "uint256",
          "name": "_pid",
          "type": "uint256"
        },
        {
          "internalType": "uint256",
          "name": "_spAmount",
          "type": "uint256"
        }
      ],
      "name": "withdrawLend",
      "outputs": [],
      "stateMutability": "nonpayable",
      "type": "function"
    }
  ],
  "bytecode": "0x608060405268056bc75e2d631000006002556003805460ff191690553480156200002857600080fd5b5060405162005ca638038062005ca6833981810160405260608110156200004e57600080fd5b5080516020820151604090920151600160009081559192916200007062000203565b600180546001600160a01b0319166001600160a01b038316908117909155604051919250906000907f8be0079c531659141344cd1fd0a4f28419497f9722a3daafe3b4186f6b6457e0908290a3506001600160a01b0383166200010c576040805162461bcd60e51b815260206004820152600f60248201526e4973207a65726f206164647265737360881b604482015290519081900360640190fd5b6001600160a01b0382166200015a576040805162461bcd60e51b815260206004820152600f60248201526e4973207a65726f206164647265737360881b604482015290519081900360640190fd5b6001600160a01b038116620001a8576040805162461bcd60e51b815260206004820152600f60248201526e4973207a65726f206164647265737360881b604482015290519081900360640190fd5b600580546001600160a01b039485166001600160a01b0319918216179091556003805493851661010002610100600160a81b031990941693909317909255600480549190931691161790556000600681905560075562000207565b3390565b615a8f80620002176000396000f3fe6080604052600436106102305760003560e01c80637dc0d1d01161012e578063bf38b8f6116100ab578063e271fa0c1161006f578063e271fa0c1461089e578063e626648a146108c8578063ebded017146108dd578063eec8d5061461095b578063f2fde38b1461098557610230565b8063bf38b8f6146107bb578063c31c9c07146107e5578063c9333756146107fa578063d353a1cb1461085f578063d431b1ac1461088957610230565b806390590da0116100f257806390590da0146106f65780639b2cb5d814610719578063a62ff1641461072e578063b159751714610758578063bb176a641461078257610230565b80637dc0d1d0146106455780638705fcd41461065a578063897b06371461068d5780638da5cb5b146106b75780638df82800146106cc57610230565b806341275358116101bc5780635a5a971e116101805780635a5a971e1461050457806361a552dc146105c75780636abd7f29146105dc5780636c42fed214610606578063715018a61461063057610230565b80634127535814610431578063415f1240146104625780634aea0aec1461048c5780635249961b146104a157806352f7c988146104d457610230565b806316f941b51161020357806316f941b5146103215780631e1079791461034657806338f2aa76146103765780633ab4a445146103a65780633c9fadc3146103d057610230565b80630177b68c14610235578063081e3eda1461029257806308e7305f146102b957806314c090cc146102f7575b600080fd5b34801561024157600080fd5b5061025f6004803603602081101561025857600080fd5b50356109b8565b604080519687526020870195909552858501939093526060850191909152608084015260a0830152519081900360c00190f35b34801561029e57600080fd5b506102a76109fb565b60408051918252519081900360200190f35b3480156102c557600080fd5b506102e3600480360360208110156102dc57600080fd5b5035610a01565b604080519115158252519081900360200190f35b34801561030357600080fd5b506102e36004803603602081101561031a57600080fd5b5035610ada565b6103446004803603604081101561033757600080fd5b5080359060200135610b04565b005b34801561035257600080fd5b506103446004803603604081101561036957600080fd5b5080359060200135610dca565b34801561038257600080fd5b506103446004803603604081101561039957600080fd5b5080359060200135611238565b3480156103b257600080fd5b50610344600480360360208110156103c957600080fd5b50356116a0565b3480156103dc57600080fd5b50610409600480360360408110156103f357600080fd5b506001600160a01b038135169060200135611b1d565b6040805194855260208501939093529015158383015215156060830152519081900360800190f35b34801561043d57600080fd5b50610446611b55565b604080516001600160a01b039092168252519081900360200190f35b34801561046e57600080fd5b506103446004803603602081101561048557600080fd5b5035611b64565b34801561049857600080fd5b506102a7611e59565b3480156104ad57600080fd5b50610344600480360360208110156104c457600080fd5b50356001600160a01b0316611e5f565b3480156104e057600080fd5b50610344600480360360408110156104f757600080fd5b5080359060200135611f75565b34801561051057600080fd5b5061052e6004803603602081101561052757600080fd5b5035612012565b604051808e81526020018d81526020018c81526020018b81526020018a8152602001898152602001888152602001876001600160a01b03168152602001866001600160a01b0316815260200185600481111561058657fe5b8152602001846001600160a01b03168152602001836001600160a01b031681526020018281526020019d505050505050505050505050505060405180910390f35b3480156105d357600080fd5b506102e361209e565b3480156105e857600080fd5b506102e3600480360360208110156105ff57600080fd5b50356120a7565b34801561061257600080fd5b506103446004803603602081101561062957600080fd5b50356120d1565b34801561063c57600080fd5b506103446124df565b34801561065157600080fd5b5061044661258b565b34801561066657600080fd5b506103446004803603602081101561067d57600080fd5b50356001600160a01b031661259a565b34801561069957600080fd5b50610344600480360360208110156106b057600080fd5b50356126a5565b3480156106c357600080fd5b5061044661273b565b3480156106d857600080fd5b50610344600480360360208110156106ef57600080fd5b503561274a565b6103446004803603604081101561070c57600080fd5b5080359060200135612a44565b34801561072557600080fd5b506102a7612d5e565b34801561073a57600080fd5b506103446004803603602081101561075157600080fd5b5035612d64565b34801561076457600080fd5b506102a76004803603602081101561077b57600080fd5b50356131ae565b34801561078e57600080fd5b50610409600480360360408110156107a557600080fd5b506001600160a01b0381351690602001356131f2565b3480156107c757600080fd5b50610344600480360360208110156107de57600080fd5b503561322a565b3480156107f157600080fd5b50610446613500565b34801561080657600080fd5b506108246004803603602081101561081d57600080fd5b5035613514565b6040518082600260200280838360005b8381101561084c578181015183820152602001610834565b5050505090500191505060405180910390f35b34801561086b57600080fd5b506103446004803603602081101561088257600080fd5b503561374b565b34801561089557600080fd5b50610344613a6b565b3480156108aa57600080fd5b50610344600480360360208110156108c157600080fd5b5035613ae1565b3480156108d457600080fd5b506102a7613db9565b3480156108e957600080fd5b50610344600480360361014081101561090157600080fd5b5080359060208101359067ffffffffffffffff604082013516906060810135906080810135906001600160a01b0360a082013581169160c081013582169160e0820135811691610100810135909116906101200135613dbf565b34801561096757600080fd5b506103446004803603602081101561097e57600080fd5b50356141e6565b34801561099157600080fd5b50610344600480360360208110156109a857600080fd5b50356001600160a01b0316614620565b600981815481106109c557fe5b60009182526020909120600690910201805460018201546002830154600384015460048501546005909501549395509193909286565b60085490565b60008060088381548110610a1157fe5b90600052602060002090600c02019050600060098481548110610a3057fe5b90600052602060002090600602019050610a48615762565b610a5185613514565b90506000610a9b670de0b6b3a7640000610a8a610a9085855b6020020151610a8a670de0b6b3a76400008860015b602002015190614723565b90614785565b600187015490614723565b90506000610acd6305f5e100610a8a610ac588600b01546305f5e1006147c790919063ffffffff16565b875490614723565b9091109695505050505050565b600060088281548110610ae957fe5b90600052602060002090600c02016000015442119050919050565b60026000541415610b4a576040805162461bcd60e51b815260206004820152601f6024820152600080516020615781833981519152604482015290519081900360640190fd5b600260005560035460ff1615610b95576040805162461bcd60e51b815260206004820152601860248201526000805160206158ae833981519152604482015290519081900360640190fd5b8160088181548110610ba357fe5b90600052602060002090600c0201600001544210610bfe576040805162461bcd60e51b81526020600482015260136024820152724c657373207468616e20746869732074696d6560681b604482015290519081900360640190fd5b82600060088281548110610c0e57fe5b90600052602060002090600c020160080160149054906101000a900460ff166004811115610c3857fe5b14610c745760405162461bcd60e51b81526004018080602001828103825260288152602001806159606028913960400191505060405180910390fd5b600060088581548110610c8357fe5b60009182526020808320338452600a825260408085208a8652909252908320600c92909202016008810154909350909190610cc7906001600160a01b031687614821565b905060008111610d085760405162461bcd60e51b81526004018080602001828103825260258152602001806158ce6025913960400191505060405180910390fd5b60028201805461ffff1916905560088301546001600160a01b0316610d4e578154610d3390346147c7565b82556005830154610d4490346147c7565b6005840155610d71565b8154610d5a90876147c7565b82556005830154610d6b90876147c7565b60058401555b6008830154604080518881526020810184905281516001600160a01b039093169233927f1d7b72e666a0b6217efe7cfa1b604ea5c7b39219563ce48b30c9da77045247a5928290030190a3505060016000555050505050565b60026000541415610e10576040805162461bcd60e51b815260206004820152601f6024820152600080516020615781833981519152604482015290519081900360640190fd5b600260005560035460ff1615610e5b576040805162461bcd60e51b815260206004820152601860248201526000805160206158ae833981519152604482015290519081900360640190fd5b81600260088281548110610e6b57fe5b90600052602060002090600c020160080160149054906101000a900460ff166004811115610e9557fe5b1480610ed75750600360088281548110610eab57fe5b90600052602060002090600c020160080160149054906101000a900460ff166004811115610ed557fe5b145b610f24576040805162461bcd60e51b815260206004820152601960248201527839ba30ba329d103334b734b9b4103634b8bab4b230ba34b7b760391b604482015290519081900360640190fd5b600060088481548110610f3357fe5b90600052602060002090600c02019050600060098581548110610f5257fe5b9060005260206000209060060201905060008411610fa15760405162461bcd60e51b81526004018080602001828103825260278152602001806158656027913960400191505060405180910390fd5b600a82015460408051632770a7eb60e21b81523360048201526024810187905290516001600160a01b0390921691639dc29fac9160448082019260009290919082900301818387803b158015610ff657600080fd5b505af115801561100a573d6000803e3d6000fd5b505050600683015482546000925061102b916305f5e10091610a8a91614723565b9050600061104582610a8a88670de0b6b3a7640000614723565b905060026008850154600160a01b900460ff16600481111561106357fe5b141561113a57836001015442116110ab5760405162461bcd60e51b8152600401808060200182810382526022815260200180615a386022913960400191505060405180910390fd5b60006110d0670de0b6b3a7640000610a8a86600301548561472390919063ffffffff16565b60088601549091506110ed9033906001600160a01b03168361485d565b6008850154604080518981526020810184905281516001600160a01b039093169233927f0f5e74952c2f9259a748f3aa9a6c4534a6f46a5966e5baabdb6bd337f05234a8928290030190a3505b60036008850154600160a01b900460ff16600481111561115657fe5b141561122a578354421161119b5760405162461bcd60e51b81526004018080602001828103825260248152602001806157a16024913960400191505060405180910390fd5b60006111c0670de0b6b3a7640000610a8a86600501548561472390919063ffffffff16565b60088601549091506111dd9033906001600160a01b03168361485d565b6008850154604080518981526020810184905281516001600160a01b039093169233927f0f5e74952c2f9259a748f3aa9a6c4534a6f46a5966e5baabdb6bd337f05234a8928290030190a3505b505060016000555050505050565b6002600054141561127e576040805162461bcd60e51b815260206004820152601f6024820152600080516020615781833981519152604482015290519081900360640190fd5b600260005560035460ff16156112c9576040805162461bcd60e51b815260206004820152601860248201526000805160206158ae833981519152604482015290519081900360640190fd5b816002600882815481106112d957fe5b90600052602060002090600c020160080160149054906101000a900460ff16600481111561130357fe5b1480611345575060036008828154811061131957fe5b90600052602060002090600c020160080160149054906101000a900460ff16600481111561134357fe5b145b611392576040805162461bcd60e51b815260206004820152601960248201527839ba30ba329d103334b734b9b4103634b8bab4b230ba34b7b760391b604482015290519081900360640190fd5b6000600884815481106113a157fe5b90600052602060002090600c020190506000600985815481106113c057fe5b906000526020600020906006020190506000841161140f5760405162461bcd60e51b81526004018080602001828103825260258152602001806157c56025913960400191505060405180910390fd5b600982015460408051632770a7eb60e21b81523360048201526024810187905290516001600160a01b0390921691639dc29fac9160448082019260009290919082900301818387803b15801561146457600080fd5b505af1158015611478573d6000803e3d6000fd5b5050825491506000905061149882610a8a88670de0b6b3a7640000614723565b905060026008850154600160a01b900460ff1660048111156114b657fe5b14156115a35783600101544211611514576040805162461bcd60e51b815260206004820181905260248201527f77697468647261774c656e643a206c657373207468616e20656e642074696d65604482015290519081900360640190fd5b6000611539670de0b6b3a7640000610a8a84876002015461472390919063ffffffff16565b60078601549091506115569033906001600160a01b03168361485d565b600785015460408051838152602081018a905281516001600160a01b039093169233927f690f32ccf3e832d5ff975d781039bc2affebee9c973939c9b710091b87954c9d928290030190a3505b60036008850154600160a01b900460ff1660048111156115bf57fe5b141561122a57835442116116045760405162461bcd60e51b815260040180806020018281038252602281526020018061588c6022913960400191505060405180910390fd5b6000611629670de0b6b3a7640000610a8a84876004015461472390919063ffffffff16565b60078601549091506116469033906001600160a01b03168361485d565b600785015460408051838152602081018a905281516001600160a01b039093169233927f690f32ccf3e832d5ff975d781039bc2affebee9c973939c9b710091b87954c9d928290030190a350505060016000555050505050565b600260005414156116e6576040805162461bcd60e51b815260206004820152601f6024820152600080516020615781833981519152604482015290519081900360640190fd5b600260005560035460ff1615611731576040805162461bcd60e51b815260206004820152601860248201526000805160206158ae833981519152604482015290519081900360640190fd5b806008818154811061173f57fe5b90600052602060002090600c020160000154421161179c576040805162461bcd60e51b8152602060048201526015602482015274477265617465207468616e20746869732074696d6560581b604482015290519081900360640190fd5b816001600882815481106117ac57fe5b90600052602060002090600c020160080160149054906101000a900460ff1660048111156117d657fe5b148061181857506002600882815481106117ec57fe5b90600052602060002090600c020160080160149054906101000a900460ff16600481111561181657fe5b145b80611859575060036008828154811061182d57fe5b90600052602060002090600c020160080160149054906101000a900460ff16600481111561185757fe5b145b611898576040805162461bcd60e51b815260206004820152601b6024820152600080516020615940833981519152604482015290519081900360640190fd5b6000600884815481106118a757fe5b90600052602060002090600c020190506000600985815481106118c657fe5b60009182526020808320338452600a825260408085208a86529092529220805460069092029092019250611941576040805162461bcd60e51b815260206004820152601f60248201527f636c61696d426f72726f773a206e6f7420636c61696d206a705f746f6b656e00604482015290519081900360640190fd5b6002810154610100900460ff16156119a0576040805162461bcd60e51b815260206004820152601860248201527f636c61696d426f72726f773a20616761696e20636c61696d0000000000000000604482015290519081900360640190fd5b60006119c56305f5e100610a8a8660060154866000015461472390919063ffffffff16565b905060006119f08560050154610a8a670de0b6b3a7640000866000015461472390919063ffffffff16565b90506000611a0a670de0b6b3a7640000610a8a8585614723565b600a870154604080516340c10f1960e01b81523360048201526024810184905290519293506001600160a01b03909116916340c10f199160448082019260009290919082900301818387803b158015611a6257600080fd5b505af1158015611a76573d6000803e3d6000fd5b5050865460009250611a979150670de0b6b3a764000090610a8a9086614723565b6007880154909150611ab49033906001600160a01b03168361485d565b60028501805461ff00191661010017905560088701546040805184815290516001600160a01b039092169133917f3ddafe3ebb4d0c818317027aabfa82dc9983942ceeb80523167e2de047b17fbd919081900360200190a3505060016000555050505050505050565b600a60209081526000928352604080842090915290825290208054600182015460029092015490919060ff8082169161010090041684565b6004546001600160a01b031681565b611b6c61490e565b6001600160a01b0316611b7d61273b565b6001600160a01b031614611bc6576040805162461bcd60e51b815260206004820181905260248201526000805160206159a9833981519152604482015290519081900360640190fd5b600060098281548110611bd557fe5b90600052602060002090600602019050600060088381548110611bf457fe5b90600052602060002090600c0201905080600001544211611c5c576040805162461bcd60e51b815260206004820181905260248201527f6e6f772074696d65206973206c657373207468616e206d617463682074696d65604482015290519081900360640190fd5b60016008820154600160a01b900460ff166004811115611c7857fe5b14611cb45760405162461bcd60e51b81526004018080602001828103825260278152602001806158f36027913960400191505060405180910390fd5b60088101546007820154825460018401546001600160a01b039384169390921691600091611cfc916301e1338091610a8a916305f5e10091611cf69190614912565b90614723565b90506000611d1d6305f5e100610a8a611d1585836147c7565b895490614723565b90506000611d4c6305f5e100610a8a611d456305f5e1006006546147c790919063ffffffff16565b8590614723565b9050600080611d72600360019054906101000a90046001600160a01b0316888886614954565b9150915083811115611dc1576000611d8a8286614912565b60045460078b0154919250611dac916001600160a01b0391821691168361485d565b611db68282614912565b60048b015550611dc9565b600489018190555b6001890154600090611ddb9084614912565b60075460088b0154919250600091611dfd91906001600160a01b0316846149a1565b60058c0181905560088b01805460ff60a01b1916600360a01b179055905060035b60016040518e907f516112f3bf06e373fcea44db364769c04cc7ef4392e6de95d2b250720bcacefb90600090a4505050505050505050505050565b60065481565b611e6761490e565b6001600160a01b0316611e7861273b565b6001600160a01b031614611ec1576040805162461bcd60e51b815260206004820181905260248201526000805160206159a9833981519152604482015290519081900360640190fd5b6001600160a01b038116611f0e576040805162461bcd60e51b815260206004820152600f60248201526e4973207a65726f206164647265737360881b604482015290519081900360640190fd5b6003546040516001600160a01b0380841692610100900416907f4558149b3c5427365f76d4ff19bef30aba41f17e5e601d4661330d8d2b68762790600090a3600380546001600160a01b0390921661010002610100600160a81b0319909216919091179055565b611f7d61490e565b6001600160a01b0316611f8e61273b565b6001600160a01b031614611fd7576040805162461bcd60e51b815260206004820181905260248201526000805160206159a9833981519152604482015290519081900360640190fd5b60068290556007819055604051819083907f032dc6a2d839eb179729a55633fdf1c41a1fc4739394154117005db2b354b9b590600090a35050565b6008818154811061201f57fe5b60009182526020909120600c9091020180546001820154600283015460038401546004850154600586015460068701546007880154600889015460098a0154600a8b0154600b909b0154999b509799969895979496939592946001600160a01b039283169483831694600160a01b90930460ff1693918216929116908d565b60035460ff1681565b6000600882815481106120b657fe5b90600052602060002090600c02016001015442119050919050565b60026000541415612117576040805162461bcd60e51b815260206004820152601f6024820152600080516020615781833981519152604482015290519081900360640190fd5b600260005560035460ff1615612162576040805162461bcd60e51b815260206004820152601860248201526000805160206158ae833981519152604482015290519081900360640190fd5b806008818154811061217057fe5b90600052602060002090600c02016000015442116121cd576040805162461bcd60e51b8152602060048201526015602482015274477265617465207468616e20746869732074696d6560581b604482015290519081900360640190fd5b816001600882815481106121dd57fe5b90600052602060002090600c020160080160149054906101000a900460ff16600481111561220757fe5b1480612249575060026008828154811061221d57fe5b90600052602060002090600c020160080160149054906101000a900460ff16600481111561224757fe5b145b8061228a575060036008828154811061225e57fe5b90600052602060002090600c020160080160149054906101000a900460ff16600481111561228857fe5b145b6122c9576040805162461bcd60e51b815260206004820152601b6024820152600080516020615940833981519152604482015290519081900360640190fd5b6000600884815481106122d857fe5b90600052602060002090600c020190506000600985815481106122f757fe5b60009182526020808320338452600b825260408085208a86529092529220805460069092029092019250612372576040805162461bcd60e51b815260206004820152601d60248201527f636c61696d4c656e643a206e6f7420636c61696d2073705f746f6b656e000000604482015290519081900360640190fd5b6002810154610100900460ff16156123ca576040805162461bcd60e51b8152602060048201526016602482015275636c61696d4c656e643a20616761696e20636c61696d60501b604482015290519081900360640190fd5b600483015481546000916123ea91610a8a90670de0b6b3a7640000614723565b83549091506000612407670de0b6b3a7640000610a8a8486614723565b6009870154604080516340c10f1960e01b81523360048201526024810184905290519293506001600160a01b03909116916340c10f199160448082019260009290919082900301818387803b15801561245f57600080fd5b505af1158015612473573d6000803e3d6000fd5b50505060028501805461ff0019166101001790555060088601546040805183815290516001600160a01b039092169133917f6f4dd2687b3c3bfa99d39742b01d6e0ad9604c48559791d5df4ff5df44b41dfd919081900360200190a35050600160005550505050505050565b6124e761490e565b6001600160a01b03166124f861273b565b6001600160a01b031614612541576040805162461bcd60e51b815260206004820181905260248201526000805160206159a9833981519152604482015290519081900360640190fd5b6001546040516000916001600160a01b0316907f8be0079c531659141344cd1fd0a4f28419497f9722a3daafe3b4186f6b6457e0908390a3600180546001600160a01b0319169055565b6005546001600160a01b031681565b6125a261490e565b6001600160a01b03166125b361273b565b6001600160a01b0316146125fc576040805162461bcd60e51b815260206004820181905260248201526000805160206159a9833981519152604482015290519081900360640190fd5b6001600160a01b038116612649576040805162461bcd60e51b815260206004820152600f60248201526e4973207a65726f206164647265737360881b604482015290519081900360640190fd5b6004546040516001600160a01b038084169216907fd44190acf9d04bdb5d3a1aafff7e6dee8b40b93dfb8c5d3f0eea4b9f4539c3f790600090a3600480546001600160a01b0319166001600160a01b0392909216919091179055565b6126ad61490e565b6001600160a01b03166126be61273b565b6001600160a01b031614612707576040805162461bcd60e51b815260206004820181905260248201526000805160206159a9833981519152604482015290519081900360640190fd5b6002546040518291907ffa6189b739625142c695478e9d0095a1cb9e6fad92ad8a727e0055a5cc85b06b90600090a3600255565b6001546001600160a01b031690565b61275261490e565b6001600160a01b031661276361273b565b6001600160a01b0316146127ac576040805162461bcd60e51b815260206004820181905260248201526000805160206159a9833981519152604482015290519081900360640190fd5b6000600882815481106127bb57fe5b90600052602060002090600c020190506000600983815481106127da57fe5b90600052602060002090600602019050600883815481106127f757fe5b90600052602060002090600c020160000154421161285c576040805162461bcd60e51b815260206004820152601c60248201527f736574746c653a206c657373207468616e20736574746c6554696d6500000000604482015290519081900360640190fd5b60006008830154600160a01b900460ff16600481111561287857fe5b146128ca576040805162461bcd60e51b815260206004820181905260248201527f736574746c653a20706f6f6c207374617465206d757374206265206d61746368604482015290519081900360640190fd5b600082600401541180156128e2575060008260050154115b156129ea576128ef615762565b6128f884613514565b90506000612920670de0b6b3a7640000610a8a6129158585610a6a565b600588015490614723565b905060006129438560060154610a8a6305f5e1008561472390919063ffffffff16565b90508085600401541115612963578084556005850154600185015561299d565b6004850154845582516129979061298490610a8a6305f5e100876001610a7f565b60068701546004880154610a8a91614723565b60018501555b60088501805460ff60a01b1916600160a01b17905560405160019060009088907f516112f3bf06e373fcea44db364769c04cc7ef4392e6de95d2b250720bcacefb908390a4505050612a3f565b60088201805460ff60a01b1916600160a21b17905560048083015482556005830154600183015560405160009085907f516112f3bf06e373fcea44db364769c04cc7ef4392e6de95d2b250720bcacefb908390a45b505050565b60026000541415612a8a576040805162461bcd60e51b815260206004820152601f6024820152600080516020615781833981519152604482015290519081900360640190fd5b600260005560035460ff1615612ad5576040805162461bcd60e51b815260206004820152601860248201526000805160206158ae833981519152604482015290519081900360640190fd5b8160088181548110612ae357fe5b90600052602060002090600c0201600001544210612b3e576040805162461bcd60e51b81526020600482015260136024820152724c657373207468616e20746869732074696d6560681b604482015290519081900360640190fd5b82600060088281548110612b4e57fe5b90600052602060002090600c020160080160149054906101000a900460ff166004811115612b7857fe5b14612bb45760405162461bcd60e51b81526004018080602001828103825260288152602001806159606028913960400191505060405180910390fd5b600060088581548110612bc357fe5b60009182526020808320338452600b825260408085208a865290925292206004600c909202909201908101546003820154919350612c019190614912565b851115612c3f5760405162461bcd60e51b815260040180806020018281038252602b81526020018061583a602b913960400191505060405180910390fd5b6007820154600090612c5a906001600160a01b031687614821565b90506002548111612c9c5760405162461bcd60e51b81526004018080602001828103825260218152602001806159c96021913960400191505060405180910390fd5b60028201805461ffff1916905560078301546001600160a01b0316612ce2578154612cc790346147c7565b82556004830154612cd890346147c7565b6004840155612d05565b8154612cee90876147c7565b82556004830154612cff90876147c7565b60048401555b6007830154604080518881526020810184905281516001600160a01b039093169233927f129e8c18c2f7baf99c7eb257934c21f038c72412803512dcf0a942a4562a82ea928290030190a3505060016000555050505050565b60025481565b60026000541415612daa576040805162461bcd60e51b815260206004820152601f6024820152600080516020615781833981519152604482015290519081900360640190fd5b600260005560035460ff1615612df5576040805162461bcd60e51b815260206004820152601860248201526000805160206158ae833981519152604482015290519081900360640190fd5b8060088181548110612e0357fe5b90600052602060002090600c0201600001544211612e60576040805162461bcd60e51b8152602060048201526015602482015274477265617465207468616e20746869732074696d6560581b604482015290519081900360640190fd5b81600160088281548110612e7057fe5b90600052602060002090600c020160080160149054906101000a900460ff166004811115612e9a57fe5b1480612edc5750600260088281548110612eb057fe5b90600052602060002090600c020160080160149054906101000a900460ff166004811115612eda57fe5b145b80612f1d5750600360088281548110612ef157fe5b90600052602060002090600c020160080160149054906101000a900460ff166004811115612f1b57fe5b145b612f5c576040805162461bcd60e51b815260206004820152601b6024820152600080516020615940833981519152604482015290519081900360640190fd5b600060088481548110612f6b57fe5b90600052602060002090600c02019050600060098581548110612f8a57fe5b60009182526020808320338452600a825260408085208a86529092529083206006929092020160018101546005860154919450919291612fca9190614912565b1161301c576040805162461bcd60e51b815260206004820152601860248201527f726566756e64426f72726f773a206e6f7420726566756e640000000000000000604482015290519081900360640190fd5b805461306b576040805162461bcd60e51b81526020600482015260196024820152781c99599d5b99109bdc9c9bddce881b9bdd081c1b195919d959603a1b604482015290519081900360640190fd5b600281015460ff16156130c5576040805162461bcd60e51b815260206004820152601a60248201527f726566756e64426f72726f773a20616761696e20726566756e64000000000000604482015290519081900360640190fd5b600583015481546000916130e591610a8a90670de0b6b3a7640000614723565b90506000613114670de0b6b3a7640000610a8a84611cf688600101548a6005015461491290919063ffffffff16565b60088601549091506131319033906001600160a01b03168361485d565b600183015461314090826147c7565b60018085019190915560028401805460ff1916909117905560088501546040805183815290516001600160a01b039092169133917f732816f48de550f238bd0d4f5b79819c7b24a49d6132928978e3cd36568dd5db919081900360200190a350506001600055505050505050565b600080600883815481106131be57fe5b90600052602060002090600c020190508060080160149054906101000a900460ff1660048111156131eb57fe5b9392505050565b600b60209081526000928352604080842090915290825290208054600182015460029092015490919060ff8082169161010090041684565b60026000541415613270576040805162461bcd60e51b815260206004820152601f6024820152600080516020615781833981519152604482015290519081900360640190fd5b600260005560035460ff16156132bb576040805162461bcd60e51b815260206004820152601860248201526000805160206158ae833981519152604482015290519081900360640190fd5b806004600882815481106132cb57fe5b90600052602060002090600c020160080160149054906101000a900460ff1660048111156132f557fe5b14613347576040805162461bcd60e51b815260206004820152601b60248201527f73746174653a207374617465206d75737420626520756e646f6e650000000000604482015290519081900360640190fd5b60006008838154811061335657fe5b90600052602060002090600c0201905060008160040154116133bf576040805162461bcd60e51b815260206004820152601c60248201527f656d657267656e634c656e643a206e6f74207769746864726177616c00000000604482015290519081900360640190fd5b336000908152600b6020908152604080832086845290915290208054613426576040805162461bcd60e51b81526020600482015260176024820152761c99599d5b9913195b990e881b9bdd081c1b195919d959604a1b604482015290519081900360640190fd5b600281015460ff1615613480576040805162461bcd60e51b815260206004820152601860248201527f726566756e644c656e643a20616761696e20726566756e640000000000000000604482015290519081900360640190fd5b6007820154815461349e9133916001600160a01b039091169061485d565b60028101805460ff191660011790556007820154815460408051918252516001600160a01b039092169133917f71d14c5f08cb34cbfb59c06ea5151aafbf742d0b6ed00fdb83addd9afb5c0fd0919081900360200190a3505060016000555050565b60035461010090046001600160a01b031681565b61351c615762565b60006008838154811061352b57fe5b600091825260209182902060408051600280825260608083018452600c9095029093019550929383019080368337505050600783015481519192506001600160a01b031690829060009061357b57fe5b6020908102919091010152600882015481516001600160a01b0390911690829060019081106135a657fe5b6020908102919091018101919091526005546040516304e59d2760e11b8152600481018381528451602483015284516060946001600160a01b03909416936309cb3a4e938793928392604490920191858101910280838360005b83811015613618578181015183820152602001613600565b505050509050019250505060006040518083038186803b15801561363b57600080fd5b505afa15801561364f573d6000803e3d6000fd5b505050506040513d6000823e601f3d908101601f19168201604052602081101561367857600080fd5b8101908080516040519392919084600160201b82111561369757600080fd5b9083019060208201858111156136ac57600080fd5b82518660208202830111600160201b821117156136c857600080fd5b82525081516020918201928201910280838360005b838110156136f55781810151838201526020016136dd565b50505050905001604052505050905060405180604001604052808260008151811061371c57fe5b602002602001015181526020018260018151811061373657fe5b60200260200101518152509350505050919050565b61375361490e565b6001600160a01b031661376461273b565b6001600160a01b0316146137ad576040805162461bcd60e51b815260206004820181905260248201526000805160206159a9833981519152604482015290519081900360640190fd5b6000600882815481106137bc57fe5b90600052602060002090600c020190506000600983815481106137db57fe5b90600052602060002090600602019050600883815481106137f857fe5b90600052602060002090600c020160010154421161385d576040805162461bcd60e51b815260206004820152601a60248201527f66696e6973683a206c657373207468616e20656e642074696d65000000000000604482015290519081900360640190fd5b60016008830154600160a01b900460ff16600481111561387957fe5b146138b55760405162461bcd60e51b81526004018080602001828103825260248152602001806159ea6024913960400191505060405180910390fd5b60088201546007830154835460018501546001600160a01b0393841693909216916000916138f7916301e1338091610a8a916305f5e10091611cf69190614912565b905060006139186305f5e100610a8a61391085836147c7565b885490614723565b905060006139406305f5e100610a8a611d456305f5e1006006546147c790919063ffffffff16565b9050600080613966600360019054906101000a90046001600160a01b0316888886614954565b91509150838110156139bf576040805162461bcd60e51b815260206004820152601c60248201527f66696e6973683a20536c69707061676520697320746f6f206869676800000000604482015290519081900360640190fd5b83811115613a0a5760006139d38286614912565b60045460078c01549192506139f5916001600160a01b0391821691168361485d565b6139ff8282614912565b60028a015550613a12565b600288018190555b6001880154600090613a249084614912565b60075460088c0154919250600091613a4691906001600160a01b0316846149a1565b60038b0181905560088c01805460ff60a01b1916600160a11b17905590506002611e1e565b613a7361490e565b6001600160a01b0316613a8461273b565b6001600160a01b031614613acd576040805162461bcd60e51b815260206004820181905260248201526000805160206159a9833981519152604482015290519081900360640190fd5b6003805460ff19811660ff90911615179055565b60026000541415613b27576040805162461bcd60e51b815260206004820152601f6024820152600080516020615781833981519152604482015290519081900360640190fd5b600260005560035460ff1615613b72576040805162461bcd60e51b815260206004820152601860248201526000805160206158ae833981519152604482015290519081900360640190fd5b80600460088281548110613b8257fe5b90600052602060002090600c020160080160149054906101000a900460ff166004811115613bac57fe5b14613bfe576040805162461bcd60e51b815260206004820152601b60248201527f73746174653a207374617465206d75737420626520756e646f6e650000000000604482015290519081900360640190fd5b600060088381548110613c0d57fe5b90600052602060002090600c020190506000816005015411613c76576040805162461bcd60e51b815260206004820152601f60248201527f656d657267656e6379426f72726f773a206e6f74207769746864726177616c00604482015290519081900360640190fd5b336000908152600a6020908152604080832086845290915290208054613cdf576040805162461bcd60e51b81526020600482015260196024820152781c99599d5b99109bdc9c9bddce881b9bdd081c1b195919d959603a1b604482015290519081900360640190fd5b600281015460ff1615613d39576040805162461bcd60e51b815260206004820152601a60248201527f726566756e64426f72726f773a20616761696e20726566756e64000000000000604482015290519081900360640190fd5b60088201548154613d579133916001600160a01b039091169061485d565b60028101805460ff191660011790556008820154815460408051918252516001600160a01b039092169133917f5a06c7de92f1dc59e8cba872927d016c80ce5f0fb2295c898dfb7a2f08e43fb1919081900360200190a3505060016000555050565b60075481565b613dc761490e565b6001600160a01b0316613dd861273b565b6001600160a01b031614613e21576040805162461bcd60e51b815260206004820181905260248201526000805160206159a9833981519152604482015290519081900360640190fd5b898911613e5f5760405162461bcd60e51b815260040180806020018281038252602a8152602001806157ea602a913960400191505060405180910390fd5b6001600160a01b038216613eba576040805162461bcd60e51b815260206004820152601a60248201527f637265617465506f6f6c3a6973207a65726f2061646472657373000000000000604482015290519081900360640190fd5b6001600160a01b038316613f15576040805162461bcd60e51b815260206004820152601a60248201527f637265617465506f6f6c3a6973207a65726f2061646472657373000000000000604482015290519081900360640190fd5b6008604051806101a001604052808c81526020018b81526020018a67ffffffffffffffff1681526020018981526020016000815260200160008152602001888152602001876001600160a01b03168152602001866001600160a01b0316815260200160006004811115613f8457fe5b81526001600160a01b0380871660208084019190915286821660408085019190915260609384018790528554600181810188556000978852968390208651600c909202019081559185015195820195909555938301516002850155908201516003840155608082015160048085019190915560a0830151600585015560c0830151600685015560e08301516007850180549184166001600160a01b031992831617905561010084015160088601805491909416911617808355610120840151939493929160ff60a01b1990911690600160a01b90849081111561406357fe5b0217905550610140820151600980830180546001600160a01b039384166001600160a01b031991821617909155610160850151600a850180549190941691161790915561018090920151600b909101556040805160c081018252600080825260208201818152928201818152606083018281526080840183815260a08501848152875460018101895597909452935160069096027f6e1540171b6c0c960b71a7020d9f60077f6af931a8bbf590da0223dacf75c7af81019690965593517f6e1540171b6c0c960b71a7020d9f60077f6af931a8bbf590da0223dacf75c7b0860155517f6e1540171b6c0c960b71a7020d9f60077f6af931a8bbf590da0223dacf75c7b185015591517f6e1540171b6c0c960b71a7020d9f60077f6af931a8bbf590da0223dacf75c7b2840155517f6e1540171b6c0c960b71a7020d9f60077f6af931a8bbf590da0223dacf75c7b3830155517f6e1540171b6c0c960b71a7020d9f60077f6af931a8bbf590da0223dacf75c7b49091015550505050505050505050565b6002600054141561422c576040805162461bcd60e51b815260206004820152601f6024820152600080516020615781833981519152604482015290519081900360640190fd5b600260005560035460ff1615614277576040805162461bcd60e51b815260206004820152601860248201526000805160206158ae833981519152604482015290519081900360640190fd5b806008818154811061428557fe5b90600052602060002090600c02016000015442116142e2576040805162461bcd60e51b8152602060048201526015602482015274477265617465207468616e20746869732074696d6560581b604482015290519081900360640190fd5b816001600882815481106142f257fe5b90600052602060002090600c020160080160149054906101000a900460ff16600481111561431c57fe5b148061435e575060026008828154811061433257fe5b90600052602060002090600c020160080160149054906101000a900460ff16600481111561435c57fe5b145b8061439f575060036008828154811061437357fe5b90600052602060002090600c020160080160149054906101000a900460ff16600481111561439d57fe5b145b6143de576040805162461bcd60e51b815260206004820152601b6024820152600080516020615940833981519152604482015290519081900360640190fd5b6000600884815481106143ed57fe5b90600052602060002090600c0201905060006009858154811061440c57fe5b60009182526020808320338452600b825260408085208a86529092529220805460069092029092019250614481576040805162461bcd60e51b81526020600482015260176024820152761c99599d5b9913195b990e881b9bdd081c1b195919d959604a1b604482015290519081900360640190fd5b815460048401546000916144959190614912565b116144e0576040805162461bcd60e51b81526020600482015260166024820152751c99599d5b9913195b990e881b9bdd081c99599d5b9960521b604482015290519081900360640190fd5b600281015460ff161561453a576040805162461bcd60e51b815260206004820152601960248201527f726566756e644c656e643a2072657065617420726566756e6400000000000000604482015290519081900360640190fd5b6004830154815460009161455a91610a8a90670de0b6b3a7640000614723565b90506000614589670de0b6b3a7640000610a8a84611cf688600001548a6004015461491290919063ffffffff16565b60078601549091506145a69033906001600160a01b03168361485d565b60028301805460ff191660019081179091558301546145c590826147c7565b600184015560078501546040805183815290516001600160a01b039092169133917fc3e20279d41b3ed21d277920877e5e5c6665bf6aca607046a3fe0fd2bd6bda7d919081900360200190a350506001600055505050505050565b61462861490e565b6001600160a01b031661463961273b565b6001600160a01b031614614682576040805162461bcd60e51b815260206004820181905260248201526000805160206159a9833981519152604482015290519081900360640190fd5b6001600160a01b0381166146c75760405162461bcd60e51b81526004018080602001828103825260268152602001806158146026913960400191505060405180910390fd5b6001546040516001600160a01b038084169216907f8be0079c531659141344cd1fd0a4f28419497f9722a3daafe3b4186f6b6457e090600090a3600180546001600160a01b0319166001600160a01b0392909216919091179055565b6000826147325750600061477f565b8282028284828161473f57fe5b041461477c5760405162461bcd60e51b81526004018080602001828103825260218152602001806159886021913960400191505060405180910390fd5b90505b92915050565b600061477c83836040518060400160405280601a81526020017f536166654d6174683a206469766973696f6e206279207a65726f0000000000008152506149ed565b60008282018381101561477c576040805162461bcd60e51b815260206004820152601b60248201527f536166654d6174683a206164646974696f6e206f766572666c6f770000000000604482015290519081900360640190fd5b60006001600160a01b03831661483957349150614857565b811561485757826148556001600160a01b038216333086614a8f565b505b50919050565b6001600160a01b0382166148a7576040516001600160a01b0384169082156108fc029083906000818181858888f193505050501580156148a1573d6000803e3d6000fd5b506148be565b816148bc6001600160a01b0382168584614aef565b505b816001600160a01b0316836001600160a01b03167fd12200efa34901b99367694174c3b0d32c99585fdf37c7c26892136ddd0836d9836040518082815260200191505060405180910390a3505050565b3390565b600061477c83836040518060400160405280601e81526020017f536166654d6174683a207375627472616374696f6e206f766572666c6f770000815250614b41565b6000806000808411614967576000614984565b6003546149849061010090046001600160a01b0316878787614b9b565b90508061499388888885614d38565b925092505094509492505050565b6000806305f5e1006149b38487614723565b816149ba57fe5b04905080156149da576004546149da906001600160a01b0316858361485d565b6149e48382614912565b95945050505050565b60008183614a795760405162461bcd60e51b81526004018080602001828103825283818151815260200191508051906020019080838360005b83811015614a3e578181015183820152602001614a26565b50505050905090810190601f168015614a6b5780820380516001836020036101000a031916815260200191505b509250505060405180910390fd5b506000838581614a8557fe5b0495945050505050565b604080516001600160a01b0380861660248301528416604482015260648082018490528251808303909101815260849091019091526020810180516001600160e01b03166323b872dd60e01b179052614ae990859061520f565b50505050565b604080516001600160a01b038416602482015260448082018490528251808303909101815260649091019091526020810180516001600160e01b031663a9059cbb60e01b179052612a3f90849061520f565b60008184841115614b935760405162461bcd60e51b8152602060048201818152835160248401528351909283926044909101919085019080838360008315614a3e578181015183820152602001614a26565b505050900390565b6003546000908590606090614bbf9061010090046001600160a01b031687876152c0565b90506060826001600160a01b0316631f00ca7486846040518363ffffffff1660e01b81526004018083815260200180602001828103825283818151815260200191508051906020019060200280838360005b83811015614c29578181015183820152602001614c11565b50505050905001935050505060006040518083038186803b158015614c4d57600080fd5b505afa158015614c61573d6000803e3d6000fd5b505050506040513d6000823e601f3d908101601f191682016040526020811015614c8a57600080fd5b8101908080516040519392919084600160201b821115614ca957600080fd5b908301906020820185811115614cbe57600080fd5b82518660208202830111600160201b82111715614cda57600080fd5b82525081516020918201928201910280838360005b83811015614d07578181015183820152602001614cef565b50505050905001604052505050905080600081518110614d2357fe5b60200260200101519350505050949350505050565b60006001600160a01b03841615614d5657614d56848660001961542a565b6001600160a01b03831615614d7257614d72838660001961542a565b846060614d808287876152c0565b905060606001600160a01b038716614f0a57826001600160a01b0316637ff36ab5866000853042601e016040518663ffffffff1660e01b81526004018085815260200180602001846001600160a01b03168152602001838152602001828103825285818151815260200191508051906020019060200280838360005b83811015614e14578181015183820152602001614dfc565b50505050905001955050505050506000604051808303818588803b158015614e3b57600080fd5b505af1158015614e4f573d6000803e3d6000fd5b50505050506040513d6000823e601f3d908101601f191682016040526020811015614e7957600080fd5b8101908080516040519392919084600160201b821115614e9857600080fd5b908301906020820185811115614ead57600080fd5b82518660208202830111600160201b82111715614ec957600080fd5b82525081516020918201928201910280838360005b83811015614ef6578181015183820152602001614ede565b505050509050016040525050509050615181565b6001600160a01b03861661500657826001600160a01b03166318cbafe5866000853042601e016040518663ffffffff1660e01b81526004018086815260200185815260200180602001846001600160a01b03168152602001838152602001828103825285818151815260200191508051906020019060200280838360005b83811015614fa0578181015183820152602001614f88565b505050509050019650505050505050600060405180830381600087803b158015614fc957600080fd5b505af1158015614fdd573d6000803e3d6000fd5b505050506040513d6000823e601f3d908101601f191682016040526020811015614e7957600080fd5b826001600160a01b03166338ed1739866000853042601e016040518663ffffffff1660e01b81526004018086815260200185815260200180602001846001600160a01b03168152602001838152602001828103825285818151815260200191508051906020019060200280838360005b8381101561508e578181015183820152602001615076565b505050509050019650505050505050600060405180830381600087803b1580156150b757600080fd5b505af11580156150cb573d6000803e3d6000fd5b505050506040513d6000823e601f3d908101601f1916820160405260208110156150f457600080fd5b8101908080516040519392919084600160201b82111561511357600080fd5b90830190602082018581111561512857600080fd5b82518660208202830111600160201b8211171561514457600080fd5b82525081516020918201928201910280838360005b83811015615171578181015183820152602001615159565b5050505090500160405250505090505b856001600160a01b0316876001600160a01b03167ffa2dda1cc1b86e41239702756b13effbc1a092b5c57e3ad320fbe4f3b13fe235836000815181106151c357fe5b6020026020010151846001865103815181106151db57fe5b6020026020010151604051808381526020018281526020019250505060405180910390a380600182510381518110614d2357fe5b6060615264826040518060400160405280602081526020017f5361666545524332303a206c6f772d6c6576656c2063616c6c206661696c6564815250856001600160a01b03166155839092919063ffffffff16565b805190915015612a3f5780806020019051602081101561528357600080fd5b5051612a3f5760405162461bcd60e51b815260040180806020018281038252602a815260200180615a0e602a913960400191505060405180910390fd5b6040805160028082526060808301845292869291906020830190803683370190505091506001600160a01b038416156152f9578361535f565b806001600160a01b031663ad5c46486040518163ffffffff1660e01b815260040160206040518083038186803b15801561533257600080fd5b505afa158015615346573d6000803e3d6000fd5b505050506040513d602081101561535c57600080fd5b50515b8260008151811061536c57fe5b6001600160a01b03928316602091820292909201015283161561538f57826153f5565b806001600160a01b031663ad5c46486040518163ffffffff1660e01b815260040160206040518083038186803b1580156153c857600080fd5b505afa1580156153dc573d6000803e3d6000fd5b505050506040513d60208110156153f257600080fd5b50515b8260018151811061540257fe5b60200260200101906001600160a01b031690816001600160a01b031681525050509392505050565b604080516001600160a01b038481166024830152604480830185905283518084039091018152606490920183526020820180516001600160e01b031663095ea7b360e01b178152925182516000946060949389169392918291908083835b602083106154a75780518252601f199092019160209182019101615488565b6001836020036101000a0380198251168184511680821785525050505050509050019150506000604051808303816000865af19150503d8060008114615509576040519150601f19603f3d011682016040523d82523d6000602084013e61550e565b606091505b509150915081801561553c57508051158061553c575080806020019051602081101561553957600080fd5b50515b61557c576040805162461bcd60e51b815260206004820152600c60248201526b2173616665417070726f766560a01b604482015290519081900360640190fd5b5050505050565b6060615592848460008561559a565b949350505050565b6060824710156155db5760405162461bcd60e51b815260040180806020018281038252602681526020018061591a6026913960400191505060405180910390fd5b6155e4856156f6565b615635576040805162461bcd60e51b815260206004820152601d60248201527f416464726573733a2063616c6c20746f206e6f6e2d636f6e7472616374000000604482015290519081900360640190fd5b60006060866001600160a01b031685876040518082805190602001908083835b602083106156745780518252601f199092019160209182019101615655565b6001836020036101000a03801982511681845116808217855250505050505090500191505060006040518083038185875af1925050503d80600081146156d6576040519150601f19603f3d011682016040523d82523d6000602084013e6156db565b606091505b50915091506156eb8282866156fc565b979650505050505050565b3b151590565b6060831561570b5750816131eb565b82511561571b5782518084602001fd5b60405162461bcd60e51b8152602060048201818152845160248401528451859391928392604401919085019080838360008315614a3e578181015183820152602001614a26565b6040518060400160405280600290602082028036833750919291505056fe5265656e7472616e637947756172643a207265656e7472616e742063616c6c007769746864726177426f72726f773a206c657373207468616e206d617463682074696d6577697468647261774c656e643a20776974686472617720616d6f756e74206973207a65726f637265617465506f6f6c3a656e642074696d65206772617465207468616e20736574746c652074696d654f776e61626c653a206e6577206f776e657220697320746865207a65726f20616464726573736465706f7369744c656e643a20746865207175616e74697479206578636565647320746865206c696d69747769746864726177426f72726f773a20776974686472617720616d6f756e74206973207a65726f77697468647261774c656e643a206c657373207468616e206d617463682074696d655374616b6520686173206265656e2073757370656e64656400000000000000006465706f736974426f72726f773a206465706f73697420616d6f756e74206973207a65726f6c69717569646174653a20706f6f6c207374617465206d75737420626520657865637574696f6e416464726573733a20696e73756666696369656e742062616c616e636520666f722063616c6c73746174653a206e6f74206d6174636820616e6420756e646f6e65000000000073746174653a20506f6f6c20737461747573206973206e6f7420657175616c20746f206d61746368536166654d6174683a206d756c7469706c69636174696f6e206f766572666c6f774f776e61626c653a2063616c6c6572206973206e6f7420746865206f776e65726465706f7369744c656e643a206c657373207468616e206d696e20616d6f756e7466696e6973683a20706f6f6c207374617465206d75737420626520657865637574696f6e5361666545524332303a204552433230206f7065726174696f6e20646964206e6f7420737563636565647769746864726177426f72726f773a206c657373207468616e20656e642074696d65a26469706673582212207cf88216fa6e982ddb20f80a02ac45cf10aa3a951f44c1893c0959570a403dc264736f6c634300060c0033",
  "linkReferences": {},
  "deployedLinkReferences": {}
}