{
  "_format": "hh-sol-artifact-1",
  "contractName": "PledgePool",
  "sourceName": "contracts/pledge/PledgePool.sol",
  "abi": [
    {
      "inputs": [
        {
          "internalType": "address",
          "name": "_oracle",
          "type": "address"
        },
        {
          "internalType": "address",
          "name": "_swapRouter",
          "type": "address"
        },
        {
          "internalType": "address payable",
          "name": "_feeAddress",
          "type": "address"
        },
        {
          "internalType": "address",
          "name": "_multiSignature",
          "type": "address"
        }
      ],
      "stateMutability": "nonpayable",
      "type": "constructor"
    },
    {
      "anonymous": false,
      "inputs": [
        {
          "indexed": true,
          "internalType": "address",
          "name": "from",
          "type": "address"
        },
        {
          "indexed": true,
          "internalType": "address",
          "name": "token",
          "type": "address"
        },
        {
          "indexed": false,
          "internalType": "uint256",
          "name": "amount",
          "type": "uint256"
        }
      ],
      "name": "ClaimBorrow",
      "type": "event"
    },
    {
      "anonymous": false,
      "inputs": [
        {
          "indexed": true,
          "internalType": "address",
          "name": "from",
          "type": "address"
        },
        {
          "indexed": true,
          "internalType": "address",
          "name": "token",
          "type": "address"
        },
        {
          "indexed": false,
          "internalType": "uint256",
          "name": "amount",
          "type": "uint256"
        }
      ],
      "name": "ClaimLend",
      "type": "event"
    },
    {
      "anonymous": false,
      "inputs": [
        {
          "indexed": true,
          "internalType": "address",
          "name": "from",
          "type": "address"
        },
        {
          "indexed": true,
          "internalType": "address",
          "name": "token",
          "type": "address"
        },
        {
          "indexed": false,
          "internalType": "uint256",
          "name": "amount",
          "type": "uint256"
        },
        {
          "indexed": false,
          "internalType": "uint256",
          "name": "mintAmount",
          "type": "uint256"
        }
      ],
      "name": "DepositBorrow",
      "type": "event"
    },
    {
      "anonymous": false,
      "inputs": [
        {
          "indexed": true,
          "internalType": "address",
          "name": "from",
          "type": "address"
        },
        {
          "indexed": true,
          "internalType": "address",
          "name": "token",
          "type": "address"
        },
        {
          "indexed": false,
          "internalType": "uint256",
          "name": "amount",
          "type": "uint256"
        },
        {
          "indexed": false,
          "internalType": "uint256",
          "name": "mintAmount",
          "type": "uint256"
        }
      ],
      "name": "DepositLend",
      "type": "event"
    },
    {
      "anonymous": false,
      "inputs": [
        {
          "indexed": true,
          "internalType": "address",
          "name": "from",
          "type": "address"
        },
        {
          "indexed": true,
          "internalType": "address",
          "name": "token",
          "type": "address"
        },
        {
          "indexed": false,
          "internalType": "uint256",
          "name": "amount",
          "type": "uint256"
        }
      ],
      "name": "EmergencyBorrowWithdrawal",
      "type": "event"
    },
    {
      "anonymous": false,
      "inputs": [
        {
          "indexed": true,
          "internalType": "address",
          "name": "from",
          "type": "address"
        },
        {
          "indexed": true,
          "internalType": "address",
          "name": "token",
          "type": "address"
        },
        {
          "indexed": false,
          "internalType": "uint256",
          "name": "amount",
          "type": "uint256"
        }
      ],
      "name": "EmergencyLendWithdrawal",
      "type": "event"
    },
    {
      "anonymous": false,
      "inputs": [
        {
          "indexed": true,
          "internalType": "address",
          "name": "recieptor",
          "type": "address"
        },
        {
          "indexed": true,
          "internalType": "address",
          "name": "token",
          "type": "address"
        },
        {
          "indexed": false,
          "internalType": "uint256",
          "name": "amount",
          "type": "uint256"
        }
      ],
      "name": "Redeem",
      "type": "event"
    },
    {
      "anonymous": false,
      "inputs": [
        {
          "indexed": true,
          "internalType": "address",
          "name": "from",
          "type": "address"
        },
        {
          "indexed": true,
          "internalType": "address",
          "name": "token",
          "type": "address"
        },
        {
          "indexed": false,
          "internalType": "uint256",
          "name": "refund",
          "type": "uint256"
        }
      ],
      "name": "RefundBorrow",
      "type": "event"
    },
    {
      "anonymous": false,
      "inputs": [
        {
          "indexed": true,
          "internalType": "address",
          "name": "from",
          "type": "address"
        },
        {
          "indexed": true,
          "internalType": "address",
          "name": "token",
          "type": "address"
        },
        {
          "indexed": false,
          "internalType": "uint256",
          "name": "refund",
          "type": "uint256"
        }
      ],
      "name": "RefundLend",
      "type": "event"
    },
    {
      "anonymous": false,
      "inputs": [
        {
          "indexed": true,
          "internalType": "uint256",
          "name": "newLendFee",
          "type": "uint256"
        },
        {
          "indexed": true,
          "internalType": "uint256",
          "name": "newBorrowFee",
          "type": "uint256"
        }
      ],
      "name": "SetFee",
      "type": "event"
    },
    {
      "anonymous": false,
      "inputs": [
        {
          "indexed": true,
          "internalType": "address",
          "name": "oldFeeAddress",
          "type": "address"
        },
        {
          "indexed": true,
          "internalType": "address",
          "name": "newFeeAddress",
          "type": "address"
        }
      ],
      "name": "SetFeeAddress",
      "type": "event"
    },
    {
      "anonymous": false,
      "inputs": [
        {
          "indexed": true,
          "internalType": "uint256",
          "name": "oldMinAmount",
          "type": "uint256"
        },
        {
          "indexed": true,
          "internalType": "uint256",
          "name": "newMinAmount",
          "type": "uint256"
        }
      ],
      "name": "SetMinAmount",
      "type": "event"
    },
    {
      "anonymous": false,
      "inputs": [
        {
          "indexed": true,
          "internalType": "address",
          "name": "oldSwapAddress",
          "type": "address"
        },
        {
          "indexed": true,
          "internalType": "address",
          "name": "newSwapAddress",
          "type": "address"
        }
      ],
      "name": "SetSwapRouterAddress",
      "type": "event"
    },
    {
      "anonymous": false,
      "inputs": [
        {
          "indexed": true,
          "internalType": "uint256",
          "name": "pid",
          "type": "uint256"
        },
        {
          "indexed": true,
          "internalType": "uint256",
          "name": "beforeState",
          "type": "uint256"
        },
        {
          "indexed": true,
          "internalType": "uint256",
          "name": "afterState",
          "type": "uint256"
        }
      ],
      "name": "StateChange",
      "type": "event"
    },
    {
      "anonymous": false,
      "inputs": [
        {
          "indexed": true,
          "internalType": "address",
          "name": "fromCoin",
          "type": "address"
        },
        {
          "indexed": true,
          "internalType": "address",
          "name": "toCoin",
          "type": "address"
        },
        {
          "indexed": false,
          "internalType": "uint256",
          "name": "fromValue",
          "type": "uint256"
        },
        {
          "indexed": false,
          "internalType": "uint256",
          "name": "toValue",
          "type": "uint256"
        }
      ],
      "name": "Swap",
      "type": "event"
    },
    {
      "anonymous": false,
      "inputs": [
        {
          "indexed": true,
          "internalType": "address",
          "name": "from",
          "type": "address"
        },
        {
          "indexed": true,
          "internalType": "address",
          "name": "token",
          "type": "address"
        },
        {
          "indexed": false,
          "internalType": "uint256",
          "name": "amount",
          "type": "uint256"
        },
        {
          "indexed": false,
          "internalType": "uint256",
          "name": "burnAmount",
          "type": "uint256"
        }
      ],
      "name": "WithdrawBorrow",
      "type": "event"
    },
    {
      "anonymous": false,
      "inputs": [
        {
          "indexed": true,
          "internalType": "address",
          "name": "from",
          "type": "address"
        },
        {
          "indexed": true,
          "internalType": "address",
          "name": "token",
          "type": "address"
        },
        {
          "indexed": false,
          "internalType": "uint256",
          "name": "amount",
          "type": "uint256"
        },
        {
          "indexed": false,
          "internalType": "uint256",
          "name": "burnAmount",
          "type": "uint256"
        }
      ],
      "name": "WithdrawLend",
      "type": "event"
    },
    {
      "inputs": [],
      "name": "borrowFee",
      "outputs": [
        {
          "internalType": "uint256",
          "name": "",
          "type": "uint256"
        }
      ],
      "stateMutability": "view",
      "type": "function"
    },
    {
      "inputs": [
        {
          "internalType": "uint256",
          "name": "_pid",
          "type": "uint256"
        }
      ],
      "name": "checkoutFinish",
      "outputs": [
        {
          "internalType": "bool",
          "name": "",
          "type": "bool"
        }
      ],
      "stateMutability": "view",
      "type": "function"
    },
    {
      "inputs": [
        {
          "internalType": "uint256",
          "name": "_pid",
          "type": "uint256"
        }
      ],
      "name": "checkoutLiquidate",
      "outputs": [
        {
          "internalType": "bool",
          "name": "",
          "type": "bool"
        }
      ],
      "stateMutability": "view",
      "type": "function"
    },
    {
      "inputs": [
        {
          "internalType": "uint256",
          "name": "_pid",
          "type": "uint256"
        }
      ],
      "name": "checkoutSettle",
      "outputs": [
        {
          "internalType": "bool",
          "name": "",
          "type": "bool"
        }
      ],
      "stateMutability": "view",
      "type": "function"
    },
    {
      "inputs": [
        {
          "internalType": "uint256",
          "name": "_pid",
          "type": "uint256"
        }
      ],
      "name": "claimBorrow",
      "outputs": [],
      "stateMutability": "nonpayable",
      "type": "function"
    },
    {
      "inputs": [
        {
          "internalType": "uint256",
          "name": "_pid",
          "type": "uint256"
        }
      ],
      "name": "claimLend",
      "outputs": [],
      "stateMutability": "nonpayable",
      "type": "function"
    },
    {
      "inputs": [
        {
          "internalType": "uint256",
          "name": "_settleTime",
          "type": "uint256"
        },
        {
          "internalType": "uint256",
          "name": "_endTime",
          "type": "uint256"
        },
        {
          "internalType": "uint64",
          "name": "_interestRate",
          "type": "uint64"
        },
        {
          "internalType": "uint256",
          "name": "_maxSupply",
          "type": "uint256"
        },
        {
          "internalType": "uint256",
          "name": "_martgageRate",
          "type": "uint256"
        },
        {
          "internalType": "address",
          "name": "_lendToken",
          "type": "address"
        },
        {
          "internalType": "address",
          "name": "_borrowToken",
          "type": "address"
        },
        {
          "internalType": "address",
          "name": "_spToken",
          "type": "address"
        },
        {
          "internalType": "address",
          "name": "_jpToken",
          "type": "address"
        },
        {
          "internalType": "uint256",
          "name": "_autoLiquidateThreshold",
          "type": "uint256"
        }
      ],
      "name": "createPoolInfo",
      "outputs": [],
      "stateMutability": "nonpayable",
      "type": "function"
    },
    {
      "inputs": [
        {
          "internalType": "uint256",
          "name": "_pid",
          "type": "uint256"
        },
        {
          "internalType": "uint256",
          "name": "_stakeAmount",
          "type": "uint256"
        }
      ],
      "name": "depositBorrow",
      "outputs": [],
      "stateMutability": "payable",
      "type": "function"
    },
    {
      "inputs": [
        {
          "internalType": "uint256",
          "name": "_pid",
          "type": "uint256"
        },
        {
          "internalType": "uint256",
          "name": "_stakeAmount",
          "type": "uint256"
        }
      ],
      "name": "depositLend",
      "outputs": [],
      "stateMutability": "payable",
      "type": "function"
    },
    {
      "inputs": [
        {
          "internalType": "uint256",
          "name": "_pid",
          "type": "uint256"
        }
      ],
      "name": "emergencyBorrowWithdrawal",
      "outputs": [],
      "stateMutability": "nonpayable",
      "type": "function"
    },
    {
      "inputs": [
        {
          "internalType": "uint256",
          "name": "_pid",
          "type": "uint256"
        }
      ],
      "name": "emergencyLendWithdrawal",
      "outputs": [],
      "stateMutability": "nonpayable",
      "type": "function"
    },
    {
      "inputs": [],
      "name": "feeAddress",
      "outputs": [
        {
          "internalType": "address payable",
          "name": "",
          "type": "address"
        }
      ],
      "stateMutability": "view",
      "type": "function"
    },
    {
      "inputs": [
        {
          "internalType": "uint256",
          "name": "_pid",
          "type": "uint256"
        }
      ],
      "name": "finish",
      "outputs": [],
      "stateMutability": "nonpayable",
      "type": "function"
    },
    {
      "inputs": [],
      "name": "getMultiSignatureAddress",
      "outputs": [
        {
          "internalType": "address",
          "name": "",
          "type": "address"
        }
      ],
      "stateMutability": "view",
      "type": "function"
    },
    {
      "inputs": [
        {
          "internalType": "uint256",
          "name": "_pid",
          "type": "uint256"
        }
      ],
      "name": "getPoolState",
      "outputs": [
        {
          "internalType": "uint256",
          "name": "",
          "type": "uint256"
        }
      ],
      "stateMutability": "view",
      "type": "function"
    },
    {
      "inputs": [
        {
          "internalType": "uint256",
          "name": "_pid",
          "type": "uint256"
        }
      ],
      "name": "getUnderlyingPriceView",
      "outputs": [
        {
          "internalType": "uint256[2]",
          "name": "",
          "type": "uint256[2]"
        }
      ],
      "stateMutability": "view",
      "type": "function"
    },
    {
      "inputs": [],
      "name": "globalPaused",
      "outputs": [
        {
          "internalType": "bool",
          "name": "",
          "type": "bool"
        }
      ],
      "stateMutability": "view",
      "type": "function"
    },
    {
      "inputs": [],
      "name": "lendFee",
      "outputs": [
        {
          "internalType": "uint256",
          "name": "",
          "type": "uint256"
        }
      ],
      "stateMutability": "view",
      "type": "function"
    },
    {
      "inputs": [
        {
          "internalType": "uint256",
          "name": "_pid",
          "type": "uint256"
        }
      ],
      "name": "liquidate",
      "outputs": [],
      "stateMutability": "nonpayable",
      "type": "function"
    },
    {
      "inputs": [],
      "name": "minAmount",
      "outputs": [
        {
          "internalType": "uint256",
          "name": "",
          "type": "uint256"
        }
      ],
      "stateMutability": "view",
      "type": "function"
    },
    {
      "inputs": [],
      "name": "oracle",
      "outputs": [
        {
          "internalType": "contract IBscPledgeOracle",
          "name": "",
          "type": "address"
        }
      ],
      "stateMutability": "view",
      "type": "function"
    },
    {
      "inputs": [
        {
          "internalType": "uint256",
          "name": "",
          "type": "uint256"
        }
      ],
      "name": "poolBaseInfo",
      "outputs": [
        {
          "internalType": "uint256",
          "name": "settleTime",
          "type": "uint256"
        },
        {
          "internalType": "uint256",
          "name": "endTime",
          "type": "uint256"
        },
        {
          "internalType": "uint256",
          "name": "interestRate",
          "type": "uint256"
        },
        {
          "internalType": "uint256",
          "name": "maxSupply",
          "type": "uint256"
        },
        {
          "internalType": "uint256",
          "name": "lendSupply",
          "type": "uint256"
        },
        {
          "internalType": "uint256",
          "name": "borrowSupply",
          "type": "uint256"
        },
        {
          "internalType": "uint256",
          "name": "martgageRate",
          "type": "uint256"
        },
        {
          "internalType": "address",
          "name": "lendToken",
          "type": "address"
        },
        {
          "internalType": "address",
          "name": "borrowToken",
          "type": "address"
        },
        {
          "internalType": "enum PledgePool.PoolState",
          "name": "state",
          "type": "uint8"
        },
        {
          "internalType": "contract IDebtToken",
          "name": "spCoin",
          "type": "address"
        },
        {
          "internalType": "contract IDebtToken",
          "name": "jpCoin",
          "type": "address"
        },
        {
          "internalType": "uint256",
          "name": "autoLiquidateThreshold",
          "type": "uint256"
        }
      ],
      "stateMutability": "view",
      "type": "function"
    },
    {
      "inputs": [
        {
          "internalType": "uint256",
          "name": "",
          "type": "uint256"
        }
      ],
      "name": "poolDataInfo",
      "outputs": [
        {
          "internalType": "uint256",
          "name": "settleAmountLend",
          "type": "uint256"
        },
        {
          "internalType": "uint256",
          "name": "settleAmountBorrow",
          "type": "uint256"
        },
        {
          "internalType": "uint256",
          "name": "finishAmountLend",
          "type": "uint256"
        },
        {
          "internalType": "uint256",
          "name": "finishAmountBorrow",
          "type": "uint256"
        },
        {
          "internalType": "uint256",
          "name": "liquidationAmounLend",
          "type": "uint256"
        },
        {
          "internalType": "uint256",
          "name": "liquidationAmounBorrow",
          "type": "uint256"
        }
      ],
      "stateMutability": "view",
      "type": "function"
    },
    {
      "inputs": [],
      "name": "poolLength",
      "outputs": [
        {
          "internalType": "uint256",
          "name": "",
          "type": "uint256"
        }
      ],
      "stateMutability": "view",
      "type": "function"
    },
    {
      "inputs": [
        {
          "internalType": "uint256",
          "name": "_pid",
          "type": "uint256"
        }
      ],
      "name": "refundBorrow",
      "outputs": [],
      "stateMutability": "nonpayable",
      "type": "function"
    },
    {
      "inputs": [
        {
          "internalType": "uint256",
          "name": "_pid",
          "type": "uint256"
        }
      ],
      "name": "refundLend",
      "outputs": [],
      "stateMutability": "nonpayable",
      "type": "function"
    },
    {
      "inputs": [
        {
          "internalType": "uint256",
          "name": "_lendFee",
          "type": "uint256"
        },
        {
          "internalType": "uint256",
          "name": "_borrowFee",
          "type": "uint256"
        }
      ],
      "name": "setFee",
      "outputs": [],
      "stateMutability": "nonpayable",
      "type": "function"
    },
    {
      "inputs": [
        {
          "internalType": "address payable",
          "name": "_feeAddress",
          "type": "address"
        }
      ],
      "name": "setFeeAddress",
      "outputs": [],
      "stateMutability": "nonpayable",
      "type": "function"
    },
    {
      "inputs": [
        {
          "internalType": "uint256",
          "name": "_minAmount",
          "type": "uint256"
        }
      ],
      "name": "setMinAmount",
      "outputs": [],
      "stateMutability": "nonpayable",
      "type": "function"
    },
    {
      "inputs": [],
      "name": "setPause",
      "outputs": [],
      "stateMutability": "nonpayable",
      "type": "function"
    },
    {
      "inputs": [
        {
          "internalType": "address",
          "name": "_swapRouter",
          "type": "address"
        }
      ],
      "name": "setSwapRouterAddress",
      "outputs": [],
      "stateMutability": "nonpayable",
      "type": "function"
    },
    {
      "inputs": [
        {
          "internalType": "uint256",
          "name": "_pid",
          "type": "uint256"
        }
      ],
      "name": "settle",
      "outputs": [],
      "stateMutability": "nonpayable",
      "type": "function"
    },
    {
      "inputs": [],
      "name": "swapRouter",
      "outputs": [
        {
          "internalType": "address",
          "name": "",
          "type": "address"
        }
      ],
      "stateMutability": "view",
      "type": "function"
    },
    {
      "inputs": [
        {
          "internalType": "address",
          "name": "",
          "type": "address"
        },
        {
          "internalType": "uint256",
          "name": "",
          "type": "uint256"
        }
      ],
      "name": "userBorrowInfo",
      "outputs": [
        {
          "internalType": "uint256",
          "name": "stakeAmount",
          "type": "uint256"
        },
        {
          "internalType": "uint256",
          "name": "refundAmount",
          "type": "uint256"
        },
        {
          "internalType": "bool",
          "name": "hasNoRefund",
          "type": "bool"
        },
        {
          "internalType": "bool",
          "name": "hasNoClaim",
          "type": "bool"
        }
      ],
      "stateMutability": "view",
      "type": "function"
    },
    {
      "inputs": [
        {
          "internalType": "address",
          "name": "",
          "type": "address"
        },
        {
          "internalType": "uint256",
          "name": "",
          "type": "uint256"
        }
      ],
      "name": "userLendInfo",
      "outputs": [
        {
          "internalType": "uint256",
          "name": "stakeAmount",
          "type": "uint256"
        },
        {
          "internalType": "uint256",
          "name": "refundAmount",
          "type": "uint256"
        },
        {
          "internalType": "bool",
          "name": "hasNoRefund",
          "type": "bool"
        },
        {
          "internalType": "bool",
          "name": "hasNoClaim",
          "type": "bool"
        }
      ],
      "stateMutability": "view",
      "type": "function"
    },
    {
      "inputs": [
        {
          "internalType": "uint256",
          "name": "_pid",
          "type": "uint256"
        },
        {
          "internalType": "uint256",
          "name": "_jpAmount",
          "type": "uint256"
        }
      ],
      "name": "withdrawBorrow",
      "outputs": [],
      "stateMutability": "nonpayable",
      "type": "function"
    },
    {
      "inputs": [
        {
          "internalType": "uint256",
          "name": "_pid",
          "type": "uint256"
        },
        {
          "internalType": "uint256",
          "name": "_spAmount",
          "type": "uint256"
        }
      ],
      "name": "withdrawLend",
      "outputs": [],
      "stateMutability": "nonpayable",
      "type": "function"
    }
  ],
  "bytecode": "0x608060405268056bc75e2d631000006001556002805460ff191690553480156200002857600080fd5b50604051620058dd380380620058dd833981810160405260808110156200004e57600080fd5b50805160208201516040830151606090930151600160005591929091806001600160a01b038116620000b25760405162461bcd60e51b81526004018080602001828103825260438152602001806200589a6043913960600191505060405180910390fd5b620000e77f8dddb57468cf5338ee155397ad1400a7a564308824f517d20a8a7c516523bb476001600160a01b0383166200022e565b506001600160a01b03841662000136576040805162461bcd60e51b815260206004820152600f60248201526e4973207a65726f206164647265737360881b604482015290519081900360640190fd5b6001600160a01b03831662000184576040805162461bcd60e51b815260206004820152600f60248201526e4973207a65726f206164647265737360881b604482015290519081900360640190fd5b6001600160a01b038216620001d2576040805162461bcd60e51b815260206004820152600f60248201526e4973207a65726f206164647265737360881b604482015290519081900360640190fd5b50600480546001600160a01b039485166001600160a01b0319918216179091556002805493851661010002610100600160a81b031990941693909317909255600380549190931691161790556000600581905560065562000232565b9055565b61565880620002426000396000f3fe60806040526004361061021a5760003560e01c80636c42fed211610123578063bb176a64116100ab578063d431b1ac1161006f578063d431b1ac1461085e578063e271fa0c14610873578063e626648a1461089d578063ebded017146108b2578063eec8d506146109305761021a565b8063bb176a6414610757578063bf38b8f614610790578063c31c9c07146107ba578063c9333756146107cf578063d353a1cb146108345761021a565b80638df82800116100f25780638df82800146106a157806390590da0146106cb5780639b2cb5d8146106ee578063a62ff16414610703578063b15975171461072d5761021a565b80636c42fed2146106055780637dc0d1d01461062f5780638705fcd414610644578063897b0637146106775761021a565b806341275358116101a657806352f7c9881161017557806352f7c988146104be5780635a5a971e146104ee57806361a552dc146105b1578063638c7e17146105c65780636abd7f29146105db5761021a565b8063412753581461041b578063415f12401461044c5780634aea0aec146104765780635249961b1461048b5761021a565b806316f941b5116101ed57806316f941b51461030b5780631e1079791461033057806338f2aa76146103605780633ab4a445146103905780633c9fadc3146103ba5761021a565b80630177b68c1461021f578063081e3eda1461027c57806308e7305f146102a357806314c090cc146102e1575b600080fd5b34801561022b57600080fd5b506102496004803603602081101561024257600080fd5b503561095a565b604080519687526020870195909552858501939093526060850191909152608084015260a0830152519081900360c00190f35b34801561028857600080fd5b5061029161099d565b60408051918252519081900360200190f35b3480156102af57600080fd5b506102cd600480360360208110156102c657600080fd5b50356109a3565b604080519115158252519081900360200190f35b3480156102ed57600080fd5b506102cd6004803603602081101561030457600080fd5b5035610a7c565b61032e6004803603604081101561032157600080fd5b5080359060200135610aa6565b005b34801561033c57600080fd5b5061032e6004803603604081101561035357600080fd5b5080359060200135610d6c565b34801561036c57600080fd5b5061032e6004803603604081101561038357600080fd5b50803590602001356111da565b34801561039c57600080fd5b5061032e600480360360208110156103b357600080fd5b5035611642565b3480156103c657600080fd5b506103f3600480360360408110156103dd57600080fd5b506001600160a01b038135169060200135611abf565b6040805194855260208501939093529015158383015215156060830152519081900360800190f35b34801561042757600080fd5b50610430611af7565b604080516001600160a01b039092168252519081900360200190f35b34801561045857600080fd5b5061032e6004803603602081101561046f57600080fd5b5035611b06565b34801561048257600080fd5b50610291611da1565b34801561049757600080fd5b5061032e600480360360208110156104ae57600080fd5b50356001600160a01b0316611da7565b3480156104ca57600080fd5b5061032e600480360360408110156104e157600080fd5b5080359060200135611e63565b3480156104fa57600080fd5b506105186004803603602081101561051157600080fd5b5035611ea6565b604051808e81526020018d81526020018c81526020018b81526020018a8152602001898152602001888152602001876001600160a01b03168152602001866001600160a01b0316815260200185600481111561057057fe5b8152602001846001600160a01b03168152602001836001600160a01b031681526020018281526020019d505050505050505050505050505060405180910390f35b3480156105bd57600080fd5b506102cd611f32565b3480156105d257600080fd5b50610430611f3b565b3480156105e757600080fd5b506102cd600480360360208110156105fe57600080fd5b5035611f6b565b34801561061157600080fd5b5061032e6004803603602081101561062857600080fd5b5035611f95565b34801561063b57600080fd5b506104306123a3565b34801561065057600080fd5b5061032e6004803603602081101561066757600080fd5b50356001600160a01b03166123b2565b34801561068357600080fd5b5061032e6004803603602081101561069a57600080fd5b5035612463565b3480156106ad57600080fd5b5061032e600480360360208110156106c457600080fd5b503561249f565b61032e600480360360408110156106e157600080fd5b508035906020013561273f565b3480156106fa57600080fd5b50610291612a59565b34801561070f57600080fd5b5061032e6004803603602081101561072657600080fd5b5035612a5f565b34801561073957600080fd5b506102916004803603602081101561075057600080fd5b5035612ea9565b34801561076357600080fd5b506103f36004803603604081101561077a57600080fd5b506001600160a01b038135169060200135612eed565b34801561079c57600080fd5b5061032e600480360360208110156107b357600080fd5b5035612f25565b3480156107c657600080fd5b506104306131fb565b3480156107db57600080fd5b506107f9600480360360208110156107f257600080fd5b503561320f565b6040518082600260200280838360005b83811015610821578181015183820152602001610809565b5050505090500191505060405180910390f35b34801561084057600080fd5b5061032e6004803603602081101561085757600080fd5b5035613444565b34801561086a57600080fd5b5061032e61370a565b34801561087f57600080fd5b5061032e6004803603602081101561089657600080fd5b5035613726565b3480156108a957600080fd5b506102916139fe565b3480156108be57600080fd5b5061032e60048036036101408110156108d657600080fd5b5080359060208101359067ffffffffffffffff604082013516906060810135906080810135906001600160a01b0360a082013581169160c081013582169160e0820135811691610100810135909116906101200135613a04565b34801561093c57600080fd5b5061032e6004803603602081101561095357600080fd5b5035613dd0565b6008818154811061096757fe5b60009182526020909120600690910201805460018201546002830154600384015460048501546005909501549395509193909286565b60075490565b600080600783815481106109b357fe5b90600052602060002090600c020190506000600884815481106109d257fe5b906000526020600020906006020190506109ea615343565b6109f38561320f565b90506000610a3d670de0b6b3a7640000610a2c610a3285855b6020020151610a2c670de0b6b3a76400008860015b60200201519061420a565b9061426c565b60018701549061420a565b90506000610a6f6305f5e100610a2c610a6788600b01546305f5e1006142ae90919063ffffffff16565b87549061420a565b9091109695505050505050565b600060078281548110610a8b57fe5b90600052602060002090600c02016000015442119050919050565b60026000541415610aec576040805162461bcd60e51b815260206004820152601f6024820152600080516020615362833981519152604482015290519081900360640190fd5b600260008190555460ff1615610b37576040805162461bcd60e51b81526020600482015260186024820152600080516020615469833981519152604482015290519081900360640190fd5b8160078181548110610b4557fe5b90600052602060002090600c0201600001544210610ba0576040805162461bcd60e51b81526020600482015260136024820152724c657373207468616e20746869732074696d6560681b604482015290519081900360640190fd5b82600060078281548110610bb057fe5b90600052602060002090600c020160080160149054906101000a900460ff166004811115610bda57fe5b14610c165760405162461bcd60e51b81526004018080602001828103825260288152602001806155496028913960400191505060405180910390fd5b600060078581548110610c2557fe5b600091825260208083203384526009825260408085208a8652909252908320600c92909202016008810154909350909190610c69906001600160a01b031687614308565b905060008111610caa5760405162461bcd60e51b81526004018080602001828103825260258152602001806154896025913960400191505060405180910390fd5b60028201805461ffff1916905560088301546001600160a01b0316610cf0578154610cd590346142ae565b82556005830154610ce690346142ae565b6005840155610d13565b8154610cfc90876142ae565b82556005830154610d0d90876142ae565b60058401555b6008830154604080518881526020810184905281516001600160a01b039093169233927f1d7b72e666a0b6217efe7cfa1b604ea5c7b39219563ce48b30c9da77045247a5928290030190a3505060016000555050505050565b60026000541415610db2576040805162461bcd60e51b815260206004820152601f6024820152600080516020615362833981519152604482015290519081900360640190fd5b600260008190555460ff1615610dfd576040805162461bcd60e51b81526020600482015260186024820152600080516020615469833981519152604482015290519081900360640190fd5b81600260078281548110610e0d57fe5b90600052602060002090600c020160080160149054906101000a900460ff166004811115610e3757fe5b1480610e795750600360078281548110610e4d57fe5b90600052602060002090600c020160080160149054906101000a900460ff166004811115610e7757fe5b145b610ec6576040805162461bcd60e51b815260206004820152601960248201527839ba30ba329d103334b734b9b4103634b8bab4b230ba34b7b760391b604482015290519081900360640190fd5b600060078481548110610ed557fe5b90600052602060002090600c02019050600060088581548110610ef457fe5b9060005260206000209060060201905060008411610f435760405162461bcd60e51b81526004018080602001828103825260278152602001806154206027913960400191505060405180910390fd5b600a82015460408051632770a7eb60e21b81523360048201526024810187905290516001600160a01b0390921691639dc29fac9160448082019260009290919082900301818387803b158015610f9857600080fd5b505af1158015610fac573d6000803e3d6000fd5b5050506006830154825460009250610fcd916305f5e10091610a2c9161420a565b90506000610fe782610a2c88670de0b6b3a764000061420a565b905060026008850154600160a01b900460ff16600481111561100557fe5b14156110dc578360010154421161104d5760405162461bcd60e51b81526004018080602001828103825260228152602001806156016022913960400191505060405180910390fd5b6000611072670de0b6b3a7640000610a2c86600301548561420a90919063ffffffff16565b600886015490915061108f9033906001600160a01b031683614344565b6008850154604080518981526020810184905281516001600160a01b039093169233927f0f5e74952c2f9259a748f3aa9a6c4534a6f46a5966e5baabdb6bd337f05234a8928290030190a3505b60036008850154600160a01b900460ff1660048111156110f857fe5b14156111cc578354421161113d5760405162461bcd60e51b81526004018080602001828103825260248152602001806153826024913960400191505060405180910390fd5b6000611162670de0b6b3a7640000610a2c86600501548561420a90919063ffffffff16565b600886015490915061117f9033906001600160a01b031683614344565b6008850154604080518981526020810184905281516001600160a01b039093169233927f0f5e74952c2f9259a748f3aa9a6c4534a6f46a5966e5baabdb6bd337f05234a8928290030190a3505b505060016000555050505050565b60026000541415611220576040805162461bcd60e51b815260206004820152601f6024820152600080516020615362833981519152604482015290519081900360640190fd5b600260008190555460ff161561126b576040805162461bcd60e51b81526020600482015260186024820152600080516020615469833981519152604482015290519081900360640190fd5b8160026007828154811061127b57fe5b90600052602060002090600c020160080160149054906101000a900460ff1660048111156112a557fe5b14806112e757506003600782815481106112bb57fe5b90600052602060002090600c020160080160149054906101000a900460ff1660048111156112e557fe5b145b611334576040805162461bcd60e51b815260206004820152601960248201527839ba30ba329d103334b734b9b4103634b8bab4b230ba34b7b760391b604482015290519081900360640190fd5b60006007848154811061134357fe5b90600052602060002090600c0201905060006008858154811061136257fe5b90600052602060002090600602019050600084116113b15760405162461bcd60e51b81526004018080602001828103825260258152602001806153a66025913960400191505060405180910390fd5b600982015460408051632770a7eb60e21b81523360048201526024810187905290516001600160a01b0390921691639dc29fac9160448082019260009290919082900301818387803b15801561140657600080fd5b505af115801561141a573d6000803e3d6000fd5b5050825491506000905061143a82610a2c88670de0b6b3a764000061420a565b905060026008850154600160a01b900460ff16600481111561145857fe5b141561154557836001015442116114b6576040805162461bcd60e51b815260206004820181905260248201527f77697468647261774c656e643a206c657373207468616e20656e642074696d65604482015290519081900360640190fd5b60006114db670de0b6b3a7640000610a2c84876002015461420a90919063ffffffff16565b60078601549091506114f89033906001600160a01b031683614344565b600785015460408051838152602081018a905281516001600160a01b039093169233927f690f32ccf3e832d5ff975d781039bc2affebee9c973939c9b710091b87954c9d928290030190a3505b60036008850154600160a01b900460ff16600481111561156157fe5b14156111cc57835442116115a65760405162461bcd60e51b81526004018080602001828103825260228152602001806154476022913960400191505060405180910390fd5b60006115cb670de0b6b3a7640000610a2c84876004015461420a90919063ffffffff16565b60078601549091506115e89033906001600160a01b031683614344565b600785015460408051838152602081018a905281516001600160a01b039093169233927f690f32ccf3e832d5ff975d781039bc2affebee9c973939c9b710091b87954c9d928290030190a350505060016000555050505050565b60026000541415611688576040805162461bcd60e51b815260206004820152601f6024820152600080516020615362833981519152604482015290519081900360640190fd5b600260008190555460ff16156116d3576040805162461bcd60e51b81526020600482015260186024820152600080516020615469833981519152604482015290519081900360640190fd5b80600781815481106116e157fe5b90600052602060002090600c020160000154421161173e576040805162461bcd60e51b8152602060048201526015602482015274477265617465207468616e20746869732074696d6560581b604482015290519081900360640190fd5b8160016007828154811061174e57fe5b90600052602060002090600c020160080160149054906101000a900460ff16600481111561177857fe5b14806117ba575060026007828154811061178e57fe5b90600052602060002090600c020160080160149054906101000a900460ff1660048111156117b857fe5b145b806117fb57506003600782815481106117cf57fe5b90600052602060002090600c020160080160149054906101000a900460ff1660048111156117f957fe5b145b61183a576040805162461bcd60e51b815260206004820152601b6024820152600080516020615529833981519152604482015290519081900360640190fd5b60006007848154811061184957fe5b90600052602060002090600c0201905060006008858154811061186857fe5b600091825260208083203384526009825260408085208a865290925292208054600690920290920192506118e3576040805162461bcd60e51b815260206004820152601f60248201527f636c61696d426f72726f773a206e6f7420636c61696d206a705f746f6b656e00604482015290519081900360640190fd5b6002810154610100900460ff1615611942576040805162461bcd60e51b815260206004820152601860248201527f636c61696d426f72726f773a20616761696e20636c61696d0000000000000000604482015290519081900360640190fd5b60006119676305f5e100610a2c8660060154866000015461420a90919063ffffffff16565b905060006119928560050154610a2c670de0b6b3a7640000866000015461420a90919063ffffffff16565b905060006119ac670de0b6b3a7640000610a2c858561420a565b600a870154604080516340c10f1960e01b81523360048201526024810184905290519293506001600160a01b03909116916340c10f199160448082019260009290919082900301818387803b158015611a0457600080fd5b505af1158015611a18573d6000803e3d6000fd5b5050865460009250611a399150670de0b6b3a764000090610a2c908661420a565b6007880154909150611a569033906001600160a01b031683614344565b60028501805461ff00191661010017905560088701546040805184815290516001600160a01b039092169133917f3ddafe3ebb4d0c818317027aabfa82dc9983942ceeb80523167e2de047b17fbd919081900360200190a3505060016000555050505050505050565b600960209081526000928352604080842090915290825290208054600182015460029092015490919060ff8082169161010090041684565b6003546001600160a01b031681565b611b0e6143f5565b600060088281548110611b1d57fe5b90600052602060002090600602019050600060078381548110611b3c57fe5b90600052602060002090600c0201905080600001544211611ba4576040805162461bcd60e51b815260206004820181905260248201527f6e6f772074696d65206973206c657373207468616e206d617463682074696d65604482015290519081900360640190fd5b60016008820154600160a01b900460ff166004811115611bc057fe5b14611bfc5760405162461bcd60e51b81526004018080602001828103825260278152602001806154ae6027913960400191505060405180910390fd5b60088101546007820154825460018401546001600160a01b039384169390921691600091611c44916301e1338091610a2c916305f5e10091611c3e91906144f5565b9061420a565b90506000611c656305f5e100610a2c611c5d85836142ae565b89549061420a565b90506000611c946305f5e100610a2c611c8d6305f5e1006005546142ae90919063ffffffff16565b859061420a565b9050600080611cba600260019054906101000a90046001600160a01b0316888886614537565b9150915083811115611d09576000611cd282866144f5565b60035460078b0154919250611cf4916001600160a01b03918216911683614344565b611cfe82826144f5565b60048b015550611d11565b600489018190555b6001890154600090611d2390846144f5565b60065460088b0154919250600091611d4591906001600160a01b031684614584565b60058c0181905560088b01805460ff60a01b1916600360a01b179055905060035b60016040518e907f516112f3bf06e373fcea44db364769c04cc7ef4392e6de95d2b250720bcacefb90600090a4505050505050505050505050565b60055481565b611daf6143f5565b6001600160a01b038116611dfc576040805162461bcd60e51b815260206004820152600f60248201526e4973207a65726f206164647265737360881b604482015290519081900360640190fd5b6002546040516001600160a01b0380841692610100900416907f4558149b3c5427365f76d4ff19bef30aba41f17e5e601d4661330d8d2b68762790600090a3600280546001600160a01b0390921661010002610100600160a81b0319909216919091179055565b611e6b6143f5565b60058290556006819055604051819083907f032dc6a2d839eb179729a55633fdf1c41a1fc4739394154117005db2b354b9b590600090a35050565b60078181548110611eb357fe5b60009182526020909120600c9091020180546001820154600283015460038401546004850154600586015460068701546007880154600889015460098a0154600a8b0154600b909b0154999b509799969895979496939592946001600160a01b039283169483831694600160a01b90930460ff1693918216929116908d565b60025460ff1681565b6000611f667f8dddb57468cf5338ee155397ad1400a7a564308824f517d20a8a7c516523bb476145d0565b905090565b600060078281548110611f7a57fe5b90600052602060002090600c02016001015442119050919050565b60026000541415611fdb576040805162461bcd60e51b815260206004820152601f6024820152600080516020615362833981519152604482015290519081900360640190fd5b600260008190555460ff1615612026576040805162461bcd60e51b81526020600482015260186024820152600080516020615469833981519152604482015290519081900360640190fd5b806007818154811061203457fe5b90600052602060002090600c0201600001544211612091576040805162461bcd60e51b8152602060048201526015602482015274477265617465207468616e20746869732074696d6560581b604482015290519081900360640190fd5b816001600782815481106120a157fe5b90600052602060002090600c020160080160149054906101000a900460ff1660048111156120cb57fe5b148061210d57506002600782815481106120e157fe5b90600052602060002090600c020160080160149054906101000a900460ff16600481111561210b57fe5b145b8061214e575060036007828154811061212257fe5b90600052602060002090600c020160080160149054906101000a900460ff16600481111561214c57fe5b145b61218d576040805162461bcd60e51b815260206004820152601b6024820152600080516020615529833981519152604482015290519081900360640190fd5b60006007848154811061219c57fe5b90600052602060002090600c020190506000600885815481106121bb57fe5b60009182526020808320338452600a825260408085208a86529092529220805460069092029092019250612236576040805162461bcd60e51b815260206004820152601d60248201527f636c61696d4c656e643a206e6f7420636c61696d2073705f746f6b656e000000604482015290519081900360640190fd5b6002810154610100900460ff161561228e576040805162461bcd60e51b8152602060048201526016602482015275636c61696d4c656e643a20616761696e20636c61696d60501b604482015290519081900360640190fd5b600483015481546000916122ae91610a2c90670de0b6b3a764000061420a565b835490915060006122cb670de0b6b3a7640000610a2c848661420a565b6009870154604080516340c10f1960e01b81523360048201526024810184905290519293506001600160a01b03909116916340c10f199160448082019260009290919082900301818387803b15801561232357600080fd5b505af1158015612337573d6000803e3d6000fd5b50505060028501805461ff0019166101001790555060088601546040805183815290516001600160a01b039092169133917f6f4dd2687b3c3bfa99d39742b01d6e0ad9604c48559791d5df4ff5df44b41dfd919081900360200190a35050600160005550505050505050565b6004546001600160a01b031681565b6123ba6143f5565b6001600160a01b038116612407576040805162461bcd60e51b815260206004820152600f60248201526e4973207a65726f206164647265737360881b604482015290519081900360640190fd5b6003546040516001600160a01b038084169216907fd44190acf9d04bdb5d3a1aafff7e6dee8b40b93dfb8c5d3f0eea4b9f4539c3f790600090a3600380546001600160a01b0319166001600160a01b0392909216919091179055565b61246b6143f5565b6001546040518291907ffa6189b739625142c695478e9d0095a1cb9e6fad92ad8a727e0055a5cc85b06b90600090a3600155565b6124a76143f5565b6000600782815481106124b657fe5b90600052602060002090600c020190506000600883815481106124d557fe5b90600052602060002090600602019050600783815481106124f257fe5b90600052602060002090600c0201600001544211612557576040805162461bcd60e51b815260206004820152601c60248201527f736574746c653a206c657373207468616e20736574746c6554696d6500000000604482015290519081900360640190fd5b60006008830154600160a01b900460ff16600481111561257357fe5b146125c5576040805162461bcd60e51b815260206004820181905260248201527f736574746c653a20706f6f6c207374617465206d757374206265206d61746368604482015290519081900360640190fd5b600082600401541180156125dd575060008260050154115b156126e5576125ea615343565b6125f38461320f565b9050600061261b670de0b6b3a7640000610a2c6126108585610a0c565b60058801549061420a565b9050600061263e8560060154610a2c6305f5e1008561420a90919063ffffffff16565b9050808560040154111561265e5780845560058501546001850155612698565b6004850154845582516126929061267f90610a2c6305f5e100876001610a21565b60068701546004880154610a2c9161420a565b60018501555b60088501805460ff60a01b1916600160a01b17905560405160019060009088907f516112f3bf06e373fcea44db364769c04cc7ef4392e6de95d2b250720bcacefb908390a450505061273a565b60088201805460ff60a01b1916600160a21b17905560048083015482556005830154600183015560405160009085907f516112f3bf06e373fcea44db364769c04cc7ef4392e6de95d2b250720bcacefb908390a45b505050565b60026000541415612785576040805162461bcd60e51b815260206004820152601f6024820152600080516020615362833981519152604482015290519081900360640190fd5b600260008190555460ff16156127d0576040805162461bcd60e51b81526020600482015260186024820152600080516020615469833981519152604482015290519081900360640190fd5b81600781815481106127de57fe5b90600052602060002090600c0201600001544210612839576040805162461bcd60e51b81526020600482015260136024820152724c657373207468616e20746869732074696d6560681b604482015290519081900360640190fd5b8260006007828154811061284957fe5b90600052602060002090600c020160080160149054906101000a900460ff16600481111561287357fe5b146128af5760405162461bcd60e51b81526004018080602001828103825260288152602001806155496028913960400191505060405180910390fd5b6000600785815481106128be57fe5b60009182526020808320338452600a825260408085208a865290925292206004600c9092029092019081015460038201549193506128fc91906144f5565b85111561293a5760405162461bcd60e51b815260040180806020018281038252602b8152602001806153f5602b913960400191505060405180910390fd5b6007820154600090612955906001600160a01b031687614308565b905060015481116129975760405162461bcd60e51b81526004018080602001828103825260218152602001806155926021913960400191505060405180910390fd5b60028201805461ffff1916905560078301546001600160a01b03166129dd5781546129c290346142ae565b825560048301546129d390346142ae565b6004840155612a00565b81546129e990876142ae565b825560048301546129fa90876142ae565b60048401555b6007830154604080518881526020810184905281516001600160a01b039093169233927f129e8c18c2f7baf99c7eb257934c21f038c72412803512dcf0a942a4562a82ea928290030190a3505060016000555050505050565b60015481565b60026000541415612aa5576040805162461bcd60e51b815260206004820152601f6024820152600080516020615362833981519152604482015290519081900360640190fd5b600260008190555460ff1615612af0576040805162461bcd60e51b81526020600482015260186024820152600080516020615469833981519152604482015290519081900360640190fd5b8060078181548110612afe57fe5b90600052602060002090600c0201600001544211612b5b576040805162461bcd60e51b8152602060048201526015602482015274477265617465207468616e20746869732074696d6560581b604482015290519081900360640190fd5b81600160078281548110612b6b57fe5b90600052602060002090600c020160080160149054906101000a900460ff166004811115612b9557fe5b1480612bd75750600260078281548110612bab57fe5b90600052602060002090600c020160080160149054906101000a900460ff166004811115612bd557fe5b145b80612c185750600360078281548110612bec57fe5b90600052602060002090600c020160080160149054906101000a900460ff166004811115612c1657fe5b145b612c57576040805162461bcd60e51b815260206004820152601b6024820152600080516020615529833981519152604482015290519081900360640190fd5b600060078481548110612c6657fe5b90600052602060002090600c02019050600060088581548110612c8557fe5b600091825260208083203384526009825260408085208a86529092529083206006929092020160018101546005860154919450919291612cc591906144f5565b11612d17576040805162461bcd60e51b815260206004820152601860248201527f726566756e64426f72726f773a206e6f7420726566756e640000000000000000604482015290519081900360640190fd5b8054612d66576040805162461bcd60e51b81526020600482015260196024820152781c99599d5b99109bdc9c9bddce881b9bdd081c1b195919d959603a1b604482015290519081900360640190fd5b600281015460ff1615612dc0576040805162461bcd60e51b815260206004820152601a60248201527f726566756e64426f72726f773a20616761696e20726566756e64000000000000604482015290519081900360640190fd5b60058301548154600091612de091610a2c90670de0b6b3a764000061420a565b90506000612e0f670de0b6b3a7640000610a2c84611c3e88600101548a600501546144f590919063ffffffff16565b6008860154909150612e2c9033906001600160a01b031683614344565b6001830154612e3b90826142ae565b60018085019190915560028401805460ff1916909117905560088501546040805183815290516001600160a01b039092169133917f732816f48de550f238bd0d4f5b79819c7b24a49d6132928978e3cd36568dd5db919081900360200190a350506001600055505050505050565b60008060078381548110612eb957fe5b90600052602060002090600c020190508060080160149054906101000a900460ff166004811115612ee657fe5b9392505050565b600a60209081526000928352604080842090915290825290208054600182015460029092015490919060ff8082169161010090041684565b60026000541415612f6b576040805162461bcd60e51b815260206004820152601f6024820152600080516020615362833981519152604482015290519081900360640190fd5b600260008190555460ff1615612fb6576040805162461bcd60e51b81526020600482015260186024820152600080516020615469833981519152604482015290519081900360640190fd5b80600460078281548110612fc657fe5b90600052602060002090600c020160080160149054906101000a900460ff166004811115612ff057fe5b14613042576040805162461bcd60e51b815260206004820152601b60248201527f73746174653a207374617465206d75737420626520756e646f6e650000000000604482015290519081900360640190fd5b60006007838154811061305157fe5b90600052602060002090600c0201905060008160040154116130ba576040805162461bcd60e51b815260206004820152601c60248201527f656d657267656e634c656e643a206e6f74207769746864726177616c00000000604482015290519081900360640190fd5b336000908152600a6020908152604080832086845290915290208054613121576040805162461bcd60e51b81526020600482015260176024820152761c99599d5b9913195b990e881b9bdd081c1b195919d959604a1b604482015290519081900360640190fd5b600281015460ff161561317b576040805162461bcd60e51b815260206004820152601860248201527f726566756e644c656e643a20616761696e20726566756e640000000000000000604482015290519081900360640190fd5b600782015481546131999133916001600160a01b0390911690614344565b60028101805460ff191660011790556007820154815460408051918252516001600160a01b039092169133917f71d14c5f08cb34cbfb59c06ea5151aafbf742d0b6ed00fdb83addd9afb5c0fd0919081900360200190a3505060016000555050565b60025461010090046001600160a01b031681565b613217615343565b60006007838154811061322657fe5b600091825260209182902060408051600280825260608083018452600c9095029093019550929383019080368337505050600783015481519192506001600160a01b031690829060009061327657fe5b6020908102919091010152600882015481516001600160a01b0390911690829060019081106132a157fe5b602090810291909101810191909152600480546040516304e59d2760e11b81529182018381528451602484015284516060946001600160a01b03909316936309cb3a4e93879392839260440191858101910280838360005b838110156133115781810151838201526020016132f9565b505050509050019250505060006040518083038186803b15801561333457600080fd5b505afa158015613348573d6000803e3d6000fd5b505050506040513d6000823e601f3d908101601f19168201604052602081101561337157600080fd5b8101908080516040519392919084600160201b82111561339057600080fd5b9083019060208201858111156133a557600080fd5b82518660208202830111600160201b821117156133c157600080fd5b82525081516020918201928201910280838360005b838110156133ee5781810151838201526020016133d6565b50505050905001604052505050905060405180604001604052808260008151811061341557fe5b602002602001015181526020018260018151811061342f57fe5b60200260200101518152509350505050919050565b61344c6143f5565b60006007828154811061345b57fe5b90600052602060002090600c0201905060006008838154811061347a57fe5b906000526020600020906006020190506007838154811061349757fe5b90600052602060002090600c02016001015442116134fc576040805162461bcd60e51b815260206004820152601a60248201527f66696e6973683a206c657373207468616e20656e642074696d65000000000000604482015290519081900360640190fd5b60016008830154600160a01b900460ff16600481111561351857fe5b146135545760405162461bcd60e51b81526004018080602001828103825260248152602001806155b36024913960400191505060405180910390fd5b60088201546007830154835460018501546001600160a01b039384169390921691600091613596916301e1338091610a2c916305f5e10091611c3e91906144f5565b905060006135b76305f5e100610a2c6135af85836142ae565b88549061420a565b905060006135df6305f5e100610a2c611c8d6305f5e1006005546142ae90919063ffffffff16565b9050600080613605600260019054906101000a90046001600160a01b0316888886614537565b915091508381101561365e576040805162461bcd60e51b815260206004820152601c60248201527f66696e6973683a20536c69707061676520697320746f6f206869676800000000604482015290519081900360640190fd5b838111156136a957600061367282866144f5565b60035460078c0154919250613694916001600160a01b03918216911683614344565b61369e82826144f5565b60028a0155506136b1565b600288018190555b60018801546000906136c390846144f5565b60065460088c01549192506000916136e591906001600160a01b031684614584565b60038b0181905560088c01805460ff60a01b1916600160a11b17905590506002611d66565b6137126143f5565b6002805460ff19811660ff90911615179055565b6002600054141561376c576040805162461bcd60e51b815260206004820152601f6024820152600080516020615362833981519152604482015290519081900360640190fd5b600260008190555460ff16156137b7576040805162461bcd60e51b81526020600482015260186024820152600080516020615469833981519152604482015290519081900360640190fd5b806004600782815481106137c757fe5b90600052602060002090600c020160080160149054906101000a900460ff1660048111156137f157fe5b14613843576040805162461bcd60e51b815260206004820152601b60248201527f73746174653a207374617465206d75737420626520756e646f6e650000000000604482015290519081900360640190fd5b60006007838154811061385257fe5b90600052602060002090600c0201905060008160050154116138bb576040805162461bcd60e51b815260206004820152601f60248201527f656d657267656e6379426f72726f773a206e6f74207769746864726177616c00604482015290519081900360640190fd5b33600090815260096020908152604080832086845290915290208054613924576040805162461bcd60e51b81526020600482015260196024820152781c99599d5b99109bdc9c9bddce881b9bdd081c1b195919d959603a1b604482015290519081900360640190fd5b600281015460ff161561397e576040805162461bcd60e51b815260206004820152601a60248201527f726566756e64426f72726f773a20616761696e20726566756e64000000000000604482015290519081900360640190fd5b6008820154815461399c9133916001600160a01b0390911690614344565b60028101805460ff191660011790556008820154815460408051918252516001600160a01b039092169133917f5a06c7de92f1dc59e8cba872927d016c80ce5f0fb2295c898dfb7a2f08e43fb1919081900360200190a3505060016000555050565b60065481565b613a0c6143f5565b898911613a4a5760405162461bcd60e51b815260040180806020018281038252602a8152602001806153cb602a913960400191505060405180910390fd5b6001600160a01b038216613aa5576040805162461bcd60e51b815260206004820152601a60248201527f637265617465506f6f6c3a6973207a65726f2061646472657373000000000000604482015290519081900360640190fd5b6001600160a01b038316613b00576040805162461bcd60e51b815260206004820152601a60248201527f637265617465506f6f6c3a6973207a65726f2061646472657373000000000000604482015290519081900360640190fd5b6007604051806101a001604052808c81526020018b81526020018a67ffffffffffffffff1681526020018981526020016000815260200160008152602001888152602001876001600160a01b03168152602001866001600160a01b0316815260200160006004811115613b6f57fe5b81526001600160a01b0380871660208084019190915286821660408085019190915260609384018790528554600181810188556000978852968390208651600c909202019081559185015195820195909555938301516002850155908201516003840155608082015160048085019190915560a0830151600585015560c0830151600685015560e08301516007850180549184166001600160a01b031992831617905561010084015160088601805491909416911617808355610120840151939493929160ff60a01b1990911690600160a01b908490811115613c4e57fe5b02179055506101408201516009820180546001600160a01b039283166001600160a01b031991821617909155610160840151600a8401805491909316911617905561018090910151600b9091015550506040805160c081018252600080825260208201818152928201818152606083018281526080840183815260a08501848152600880546001810182559552945160069094027ff3f7a9fe364faab93b216da50a3214154f22a0a2b415b23a84c8169e8b636ee381019490945594517ff3f7a9fe364faab93b216da50a3214154f22a0a2b415b23a84c8169e8b636ee484015590517ff3f7a9fe364faab93b216da50a3214154f22a0a2b415b23a84c8169e8b636ee5830155517ff3f7a9fe364faab93b216da50a3214154f22a0a2b415b23a84c8169e8b636ee682015591517ff3f7a9fe364faab93b216da50a3214154f22a0a2b415b23a84c8169e8b636ee7830155517ff3f7a9fe364faab93b216da50a3214154f22a0a2b415b23a84c8169e8b636ee8909101555050505050505050565b60026000541415613e16576040805162461bcd60e51b815260206004820152601f6024820152600080516020615362833981519152604482015290519081900360640190fd5b600260008190555460ff1615613e61576040805162461bcd60e51b81526020600482015260186024820152600080516020615469833981519152604482015290519081900360640190fd5b8060078181548110613e6f57fe5b90600052602060002090600c0201600001544211613ecc576040805162461bcd60e51b8152602060048201526015602482015274477265617465207468616e20746869732074696d6560581b604482015290519081900360640190fd5b81600160078281548110613edc57fe5b90600052602060002090600c020160080160149054906101000a900460ff166004811115613f0657fe5b1480613f485750600260078281548110613f1c57fe5b90600052602060002090600c020160080160149054906101000a900460ff166004811115613f4657fe5b145b80613f895750600360078281548110613f5d57fe5b90600052602060002090600c020160080160149054906101000a900460ff166004811115613f8757fe5b145b613fc8576040805162461bcd60e51b815260206004820152601b6024820152600080516020615529833981519152604482015290519081900360640190fd5b600060078481548110613fd757fe5b90600052602060002090600c02019050600060088581548110613ff657fe5b60009182526020808320338452600a825260408085208a8652909252922080546006909202909201925061406b576040805162461bcd60e51b81526020600482015260176024820152761c99599d5b9913195b990e881b9bdd081c1b195919d959604a1b604482015290519081900360640190fd5b8154600484015460009161407f91906144f5565b116140ca576040805162461bcd60e51b81526020600482015260166024820152751c99599d5b9913195b990e881b9bdd081c99599d5b9960521b604482015290519081900360640190fd5b600281015460ff1615614124576040805162461bcd60e51b815260206004820152601960248201527f726566756e644c656e643a2072657065617420726566756e6400000000000000604482015290519081900360640190fd5b6004830154815460009161414491610a2c90670de0b6b3a764000061420a565b90506000614173670de0b6b3a7640000610a2c84611c3e88600001548a600401546144f590919063ffffffff16565b60078601549091506141909033906001600160a01b031683614344565b60028301805460ff191660019081179091558301546141af90826142ae565b600184015560078501546040805183815290516001600160a01b039092169133917fc3e20279d41b3ed21d277920877e5e5c6665bf6aca607046a3fe0fd2bd6bda7d919081900360200190a350506001600055505050505050565b60008261421957506000614266565b8282028284828161422657fe5b04146142635760405162461bcd60e51b81526004018080602001828103825260218152602001806155716021913960400191505060405180910390fd5b90505b92915050565b600061426383836040518060400160405280601a81526020017f536166654d6174683a206469766973696f6e206279207a65726f0000000000008152506145d4565b600082820183811015614263576040805162461bcd60e51b815260206004820152601b60248201527f536166654d6174683a206164646974696f6e206f766572666c6f770000000000604482015290519081900360640190fd5b60006001600160a01b0383166143205734915061433e565b811561433e578261433c6001600160a01b038216333086614676565b505b50919050565b6001600160a01b03821661438e576040516001600160a01b0384169082156108fc029083906000818181858888f19350505050158015614388573d6000803e3d6000fd5b506143a5565b816143a36001600160a01b03821685846146d0565b505b816001600160a01b0316836001600160a01b03167fd12200efa34901b99367694174c3b0d32c99585fdf37c7c26892136ddd0836d9836040518082815260200191505060405180910390a3505050565b6040805133606090811b6020808401919091523090911b6034830152825160288184030181526048909201909252805191012034906000614434611f3b565b90506000816001600160a01b0316631ebaa1668460006040518363ffffffff1660e01b8152600401808381526020018281526020019250505060206040518083038186803b15801561448557600080fd5b505afa158015614499573d6000803e3d6000fd5b505050506040513d60208110156144af57600080fd5b50519050806144ef5760405162461bcd60e51b815260040180806020018281038252602e8152602001806154d5602e913960400191505060405180910390fd5b50505050565b600061426383836040518060400160405280601e81526020017f536166654d6174683a207375627472616374696f6e206f766572666c6f770000815250614722565b600080600080841161454a576000614567565b6002546145679061010090046001600160a01b031687878761477c565b90508061457688888885614919565b925092505094509492505050565b6000806305f5e100614596848761420a565b8161459d57fe5b04905080156145bd576003546145bd906001600160a01b03168583614344565b6145c783826144f5565b95945050505050565b5490565b600081836146605760405162461bcd60e51b81526004018080602001828103825283818151815260200191508051906020019080838360005b8381101561462557818101518382015260200161460d565b50505050905090810190601f1680156146525780820380516001836020036101000a031916815260200191505b509250505060405180910390fd5b50600083858161466c57fe5b0495945050505050565b604080516001600160a01b0380861660248301528416604482015260648082018490528251808303909101815260849091019091526020810180516001600160e01b03166323b872dd60e01b1790526144ef908590614df0565b604080516001600160a01b038416602482015260448082018490528251808303909101815260649091019091526020810180516001600160e01b031663a9059cbb60e01b17905261273a908490614df0565b600081848411156147745760405162461bcd60e51b815260206004820181815283516024840152835190928392604490910191908501908083836000831561462557818101518382015260200161460d565b505050900390565b60025460009085906060906147a09061010090046001600160a01b03168787614ea1565b90506060826001600160a01b0316631f00ca7486846040518363ffffffff1660e01b81526004018083815260200180602001828103825283818151815260200191508051906020019060200280838360005b8381101561480a5781810151838201526020016147f2565b50505050905001935050505060006040518083038186803b15801561482e57600080fd5b505afa158015614842573d6000803e3d6000fd5b505050506040513d6000823e601f3d908101601f19168201604052602081101561486b57600080fd5b8101908080516040519392919084600160201b82111561488a57600080fd5b90830190602082018581111561489f57600080fd5b82518660208202830111600160201b821117156148bb57600080fd5b82525081516020918201928201910280838360005b838110156148e85781810151838201526020016148d0565b5050505090500160405250505090508060008151811061490457fe5b60200260200101519350505050949350505050565b60006001600160a01b0384161561493757614937848660001961500b565b6001600160a01b0383161561495357614953838660001961500b565b846060614961828787614ea1565b905060606001600160a01b038716614aeb57826001600160a01b0316637ff36ab5866000853042601e016040518663ffffffff1660e01b81526004018085815260200180602001846001600160a01b03168152602001838152602001828103825285818151815260200191508051906020019060200280838360005b838110156149f55781810151838201526020016149dd565b50505050905001955050505050506000604051808303818588803b158015614a1c57600080fd5b505af1158015614a30573d6000803e3d6000fd5b50505050506040513d6000823e601f3d908101601f191682016040526020811015614a5a57600080fd5b8101908080516040519392919084600160201b821115614a7957600080fd5b908301906020820185811115614a8e57600080fd5b82518660208202830111600160201b82111715614aaa57600080fd5b82525081516020918201928201910280838360005b83811015614ad7578181015183820152602001614abf565b505050509050016040525050509050614d62565b6001600160a01b038616614be757826001600160a01b03166318cbafe5866000853042601e016040518663ffffffff1660e01b81526004018086815260200185815260200180602001846001600160a01b03168152602001838152602001828103825285818151815260200191508051906020019060200280838360005b83811015614b81578181015183820152602001614b69565b505050509050019650505050505050600060405180830381600087803b158015614baa57600080fd5b505af1158015614bbe573d6000803e3d6000fd5b505050506040513d6000823e601f3d908101601f191682016040526020811015614a5a57600080fd5b826001600160a01b03166338ed1739866000853042601e016040518663ffffffff1660e01b81526004018086815260200185815260200180602001846001600160a01b03168152602001838152602001828103825285818151815260200191508051906020019060200280838360005b83811015614c6f578181015183820152602001614c57565b505050509050019650505050505050600060405180830381600087803b158015614c9857600080fd5b505af1158015614cac573d6000803e3d6000fd5b505050506040513d6000823e601f3d908101601f191682016040526020811015614cd557600080fd5b8101908080516040519392919084600160201b821115614cf457600080fd5b908301906020820185811115614d0957600080fd5b82518660208202830111600160201b82111715614d2557600080fd5b82525081516020918201928201910280838360005b83811015614d52578181015183820152602001614d3a565b5050505090500160405250505090505b856001600160a01b0316876001600160a01b03167ffa2dda1cc1b86e41239702756b13effbc1a092b5c57e3ad320fbe4f3b13fe23583600081518110614da457fe5b602002602001015184600186510381518110614dbc57fe5b6020026020010151604051808381526020018281526020019250505060405180910390a38060018251038151811061490457fe5b6060614e45826040518060400160405280602081526020017f5361666545524332303a206c6f772d6c6576656c2063616c6c206661696c6564815250856001600160a01b03166151649092919063ffffffff16565b80519091501561273a57808060200190516020811015614e6457600080fd5b505161273a5760405162461bcd60e51b815260040180806020018281038252602a8152602001806155d7602a913960400191505060405180910390fd5b6040805160028082526060808301845292869291906020830190803683370190505091506001600160a01b03841615614eda5783614f40565b806001600160a01b031663ad5c46486040518163ffffffff1660e01b815260040160206040518083038186803b158015614f1357600080fd5b505afa158015614f27573d6000803e3d6000fd5b505050506040513d6020811015614f3d57600080fd5b50515b82600081518110614f4d57fe5b6001600160a01b039283166020918202929092010152831615614f705782614fd6565b806001600160a01b031663ad5c46486040518163ffffffff1660e01b815260040160206040518083038186803b158015614fa957600080fd5b505afa158015614fbd573d6000803e3d6000fd5b505050506040513d6020811015614fd357600080fd5b50515b82600181518110614fe357fe5b60200260200101906001600160a01b031690816001600160a01b031681525050509392505050565b604080516001600160a01b038481166024830152604480830185905283518084039091018152606490920183526020820180516001600160e01b031663095ea7b360e01b178152925182516000946060949389169392918291908083835b602083106150885780518252601f199092019160209182019101615069565b6001836020036101000a0380198251168184511680821785525050505050509050019150506000604051808303816000865af19150503d80600081146150ea576040519150601f19603f3d011682016040523d82523d6000602084013e6150ef565b606091505b509150915081801561511d57508051158061511d575080806020019051602081101561511a57600080fd5b50515b61515d576040805162461bcd60e51b815260206004820152600c60248201526b2173616665417070726f766560a01b604482015290519081900360640190fd5b5050505050565b6060615173848460008561517b565b949350505050565b6060824710156151bc5760405162461bcd60e51b81526004018080602001828103825260268152602001806155036026913960400191505060405180910390fd5b6151c5856152d7565b615216576040805162461bcd60e51b815260206004820152601d60248201527f416464726573733a2063616c6c20746f206e6f6e2d636f6e7472616374000000604482015290519081900360640190fd5b60006060866001600160a01b031685876040518082805190602001908083835b602083106152555780518252601f199092019160209182019101615236565b6001836020036101000a03801982511681845116808217855250505050505090500191505060006040518083038185875af1925050503d80600081146152b7576040519150601f19603f3d011682016040523d82523d6000602084013e6152bc565b606091505b50915091506152cc8282866152dd565b979650505050505050565b3b151590565b606083156152ec575081612ee6565b8251156152fc5782518084602001fd5b60405162461bcd60e51b815260206004820181815284516024840152845185939192839260440191908501908083836000831561462557818101518382015260200161460d565b6040518060400160405280600290602082028036833750919291505056fe5265656e7472616e637947756172643a207265656e7472616e742063616c6c007769746864726177426f72726f773a206c657373207468616e206d617463682074696d6577697468647261774c656e643a20776974686472617720616d6f756e74206973207a65726f637265617465506f6f6c3a656e642074696d65206772617465207468616e20736574746c652074696d656465706f7369744c656e643a20746865207175616e74697479206578636565647320746865206c696d69747769746864726177426f72726f773a20776974686472617720616d6f756e74206973207a65726f77697468647261774c656e643a206c657373207468616e206d617463682074696d655374616b6520686173206265656e2073757370656e64656400000000000000006465706f736974426f72726f773a206465706f73697420616d6f756e74206973207a65726f6c69717569646174653a20706f6f6c207374617465206d75737420626520657865637574696f6e6d756c74695369676e6174757265436c69656e74203a2054686973207478206973206e6f7420617072726f766564416464726573733a20696e73756666696369656e742062616c616e636520666f722063616c6c73746174653a206e6f74206d6174636820616e6420756e646f6e65000000000073746174653a20506f6f6c20737461747573206973206e6f7420657175616c20746f206d61746368536166654d6174683a206d756c7469706c69636174696f6e206f766572666c6f776465706f7369744c656e643a206c657373207468616e206d696e20616d6f756e7466696e6973683a20706f6f6c207374617465206d75737420626520657865637574696f6e5361666545524332303a204552433230206f7065726174696f6e20646964206e6f7420737563636565647769746864726177426f72726f773a206c657373207468616e20656e642074696d65a26469706673582212203bdb116bf1ec83274a70be6ca6d164ebdb4a3b28453b712a5666ac5d549b548464736f6c634300060c00336d756c74695369676e6174757265436c69656e74203a204d756c7469706c65207369676e617475726520636f6e74726163742061646472657373206973207a65726f21",
  "linkReferences": {},
  "deployedLinkReferences": {}
}