{
  "_format": "hh-sol-artifact-1",
  "contractName": "PledgePool",
  "sourceName": "contracts/pledge/PledgePool.sol",
  "abi": [
    {
      "inputs": [
        {
          "internalType": "address",
          "name": "_oracle",
          "type": "address"
        },
        {
          "internalType": "address",
          "name": "_swapRouter",
          "type": "address"
        },
        {
          "internalType": "address payable",
          "name": "_feeAddress",
          "type": "address"
        }
      ],
      "stateMutability": "nonpayable",
      "type": "constructor"
    },
    {
      "anonymous": false,
      "inputs": [
        {
          "indexed": true,
          "internalType": "address",
          "name": "from",
          "type": "address"
        },
        {
          "indexed": true,
          "internalType": "address",
          "name": "token",
          "type": "address"
        },
        {
          "indexed": false,
          "internalType": "uint256",
          "name": "amount",
          "type": "uint256"
        }
      ],
      "name": "ClaimBorrow",
      "type": "event"
    },
    {
      "anonymous": false,
      "inputs": [
        {
          "indexed": true,
          "internalType": "address",
          "name": "from",
          "type": "address"
        },
        {
          "indexed": true,
          "internalType": "address",
          "name": "token",
          "type": "address"
        },
        {
          "indexed": false,
          "internalType": "uint256",
          "name": "amount",
          "type": "uint256"
        }
      ],
      "name": "ClaimLend",
      "type": "event"
    },
    {
      "anonymous": false,
      "inputs": [
        {
          "indexed": true,
          "internalType": "address",
          "name": "from",
          "type": "address"
        },
        {
          "indexed": true,
          "internalType": "address",
          "name": "token",
          "type": "address"
        },
        {
          "indexed": false,
          "internalType": "uint256",
          "name": "amount",
          "type": "uint256"
        },
        {
          "indexed": false,
          "internalType": "uint256",
          "name": "mintAmount",
          "type": "uint256"
        }
      ],
      "name": "DepositBorrow",
      "type": "event"
    },
    {
      "anonymous": false,
      "inputs": [
        {
          "indexed": true,
          "internalType": "address",
          "name": "from",
          "type": "address"
        },
        {
          "indexed": true,
          "internalType": "address",
          "name": "token",
          "type": "address"
        },
        {
          "indexed": false,
          "internalType": "uint256",
          "name": "amount",
          "type": "uint256"
        },
        {
          "indexed": false,
          "internalType": "uint256",
          "name": "mintAmount",
          "type": "uint256"
        }
      ],
      "name": "DepositLend",
      "type": "event"
    },
    {
      "anonymous": false,
      "inputs": [
        {
          "indexed": true,
          "internalType": "address",
          "name": "from",
          "type": "address"
        },
        {
          "indexed": true,
          "internalType": "address",
          "name": "token",
          "type": "address"
        },
        {
          "indexed": false,
          "internalType": "uint256",
          "name": "amount",
          "type": "uint256"
        }
      ],
      "name": "EmergencyBorrowWithdrawal",
      "type": "event"
    },
    {
      "anonymous": false,
      "inputs": [
        {
          "indexed": true,
          "internalType": "address",
          "name": "from",
          "type": "address"
        },
        {
          "indexed": true,
          "internalType": "address",
          "name": "token",
          "type": "address"
        },
        {
          "indexed": false,
          "internalType": "uint256",
          "name": "amount",
          "type": "uint256"
        }
      ],
      "name": "EmergencyLendWithdrawal",
      "type": "event"
    },
    {
      "anonymous": false,
      "inputs": [
        {
          "indexed": true,
          "internalType": "address",
          "name": "previousOwner",
          "type": "address"
        },
        {
          "indexed": true,
          "internalType": "address",
          "name": "newOwner",
          "type": "address"
        }
      ],
      "name": "OwnershipTransferred",
      "type": "event"
    },
    {
      "anonymous": false,
      "inputs": [
        {
          "indexed": true,
          "internalType": "address",
          "name": "recieptor",
          "type": "address"
        },
        {
          "indexed": true,
          "internalType": "address",
          "name": "token",
          "type": "address"
        },
        {
          "indexed": false,
          "internalType": "uint256",
          "name": "amount",
          "type": "uint256"
        }
      ],
      "name": "Redeem",
      "type": "event"
    },
    {
      "anonymous": false,
      "inputs": [
        {
          "indexed": true,
          "internalType": "address",
          "name": "from",
          "type": "address"
        },
        {
          "indexed": true,
          "internalType": "address",
          "name": "token",
          "type": "address"
        },
        {
          "indexed": false,
          "internalType": "uint256",
          "name": "refund",
          "type": "uint256"
        }
      ],
      "name": "RefundBorrow",
      "type": "event"
    },
    {
      "anonymous": false,
      "inputs": [
        {
          "indexed": true,
          "internalType": "address",
          "name": "from",
          "type": "address"
        },
        {
          "indexed": true,
          "internalType": "address",
          "name": "token",
          "type": "address"
        },
        {
          "indexed": false,
          "internalType": "uint256",
          "name": "refund",
          "type": "uint256"
        }
      ],
      "name": "RefundLend",
      "type": "event"
    },
    {
      "anonymous": false,
      "inputs": [
        {
          "indexed": true,
          "internalType": "address",
          "name": "fromCoin",
          "type": "address"
        },
        {
          "indexed": true,
          "internalType": "address",
          "name": "toCoin",
          "type": "address"
        },
        {
          "indexed": false,
          "internalType": "uint256",
          "name": "fromValue",
          "type": "uint256"
        },
        {
          "indexed": false,
          "internalType": "uint256",
          "name": "toValue",
          "type": "uint256"
        }
      ],
      "name": "Swap",
      "type": "event"
    },
    {
      "anonymous": false,
      "inputs": [
        {
          "indexed": true,
          "internalType": "address",
          "name": "from",
          "type": "address"
        },
        {
          "indexed": true,
          "internalType": "address",
          "name": "token",
          "type": "address"
        },
        {
          "indexed": false,
          "internalType": "uint256",
          "name": "amount",
          "type": "uint256"
        },
        {
          "indexed": false,
          "internalType": "uint256",
          "name": "burnAmount",
          "type": "uint256"
        }
      ],
      "name": "WithdrawBorrow",
      "type": "event"
    },
    {
      "anonymous": false,
      "inputs": [
        {
          "indexed": true,
          "internalType": "address",
          "name": "from",
          "type": "address"
        },
        {
          "indexed": true,
          "internalType": "address",
          "name": "token",
          "type": "address"
        },
        {
          "indexed": false,
          "internalType": "uint256",
          "name": "amount",
          "type": "uint256"
        },
        {
          "indexed": false,
          "internalType": "uint256",
          "name": "burnAmount",
          "type": "uint256"
        }
      ],
      "name": "WithdrawLend",
      "type": "event"
    },
    {
      "inputs": [],
      "name": "borrowFee",
      "outputs": [
        {
          "internalType": "uint256",
          "name": "",
          "type": "uint256"
        }
      ],
      "stateMutability": "view",
      "type": "function"
    },
    {
      "inputs": [
        {
          "internalType": "uint256",
          "name": "_pid",
          "type": "uint256"
        }
      ],
      "name": "checkoutFinish",
      "outputs": [
        {
          "internalType": "bool",
          "name": "",
          "type": "bool"
        }
      ],
      "stateMutability": "view",
      "type": "function"
    },
    {
      "inputs": [
        {
          "internalType": "uint256",
          "name": "_pid",
          "type": "uint256"
        }
      ],
      "name": "checkoutLiquidate",
      "outputs": [
        {
          "internalType": "bool",
          "name": "",
          "type": "bool"
        }
      ],
      "stateMutability": "view",
      "type": "function"
    },
    {
      "inputs": [
        {
          "internalType": "uint256",
          "name": "_pid",
          "type": "uint256"
        }
      ],
      "name": "checkoutSettle",
      "outputs": [
        {
          "internalType": "bool",
          "name": "",
          "type": "bool"
        }
      ],
      "stateMutability": "view",
      "type": "function"
    },
    {
      "inputs": [
        {
          "internalType": "uint256",
          "name": "_pid",
          "type": "uint256"
        }
      ],
      "name": "claimBorrow",
      "outputs": [],
      "stateMutability": "nonpayable",
      "type": "function"
    },
    {
      "inputs": [
        {
          "internalType": "uint256",
          "name": "_pid",
          "type": "uint256"
        }
      ],
      "name": "claimLend",
      "outputs": [],
      "stateMutability": "nonpayable",
      "type": "function"
    },
    {
      "inputs": [
        {
          "internalType": "uint256",
          "name": "_settleTime",
          "type": "uint256"
        },
        {
          "internalType": "uint256",
          "name": "_endTime",
          "type": "uint256"
        },
        {
          "internalType": "uint64",
          "name": "_interestRate",
          "type": "uint64"
        },
        {
          "internalType": "uint256",
          "name": "_maxSupply",
          "type": "uint256"
        },
        {
          "internalType": "uint256",
          "name": "_martgageRate",
          "type": "uint256"
        },
        {
          "internalType": "address",
          "name": "_lendToken",
          "type": "address"
        },
        {
          "internalType": "address",
          "name": "_borrowToken",
          "type": "address"
        },
        {
          "internalType": "address",
          "name": "_spToken",
          "type": "address"
        },
        {
          "internalType": "address",
          "name": "_jpToken",
          "type": "address"
        },
        {
          "internalType": "uint256",
          "name": "_autoLiquidateThreshold",
          "type": "uint256"
        }
      ],
      "name": "createPoolInfo",
      "outputs": [],
      "stateMutability": "nonpayable",
      "type": "function"
    },
    {
      "inputs": [
        {
          "internalType": "uint256",
          "name": "_pid",
          "type": "uint256"
        },
        {
          "internalType": "uint256",
          "name": "_stakeAmount",
          "type": "uint256"
        },
        {
          "internalType": "uint256",
          "name": "_deadLine",
          "type": "uint256"
        }
      ],
      "name": "depositBorrow",
      "outputs": [],
      "stateMutability": "payable",
      "type": "function"
    },
    {
      "inputs": [
        {
          "internalType": "uint256",
          "name": "_pid",
          "type": "uint256"
        },
        {
          "internalType": "uint256",
          "name": "_stakeAmount",
          "type": "uint256"
        }
      ],
      "name": "depositLend",
      "outputs": [],
      "stateMutability": "payable",
      "type": "function"
    },
    {
      "inputs": [
        {
          "internalType": "uint256",
          "name": "_pid",
          "type": "uint256"
        }
      ],
      "name": "emergencyBorrowWithdrawal",
      "outputs": [],
      "stateMutability": "nonpayable",
      "type": "function"
    },
    {
      "inputs": [
        {
          "internalType": "uint256",
          "name": "_pid",
          "type": "uint256"
        }
      ],
      "name": "emergencyLendWithdrawal",
      "outputs": [],
      "stateMutability": "nonpayable",
      "type": "function"
    },
    {
      "inputs": [],
      "name": "feeAddress",
      "outputs": [
        {
          "internalType": "address payable",
          "name": "",
          "type": "address"
        }
      ],
      "stateMutability": "view",
      "type": "function"
    },
    {
      "inputs": [
        {
          "internalType": "uint256",
          "name": "_pid",
          "type": "uint256"
        }
      ],
      "name": "finish",
      "outputs": [],
      "stateMutability": "nonpayable",
      "type": "function"
    },
    {
      "inputs": [
        {
          "internalType": "uint256",
          "name": "_pid",
          "type": "uint256"
        }
      ],
      "name": "getPoolState",
      "outputs": [
        {
          "internalType": "uint256",
          "name": "",
          "type": "uint256"
        }
      ],
      "stateMutability": "view",
      "type": "function"
    },
    {
      "inputs": [
        {
          "internalType": "uint256",
          "name": "_pid",
          "type": "uint256"
        }
      ],
      "name": "getUnderlyingPriceView",
      "outputs": [
        {
          "internalType": "uint256[2]",
          "name": "",
          "type": "uint256[2]"
        }
      ],
      "stateMutability": "view",
      "type": "function"
    },
    {
      "inputs": [],
      "name": "globalPaused",
      "outputs": [
        {
          "internalType": "bool",
          "name": "",
          "type": "bool"
        }
      ],
      "stateMutability": "view",
      "type": "function"
    },
    {
      "inputs": [],
      "name": "lendFee",
      "outputs": [
        {
          "internalType": "uint256",
          "name": "",
          "type": "uint256"
        }
      ],
      "stateMutability": "view",
      "type": "function"
    },
    {
      "inputs": [
        {
          "internalType": "uint256",
          "name": "_pid",
          "type": "uint256"
        }
      ],
      "name": "liquidate",
      "outputs": [],
      "stateMutability": "nonpayable",
      "type": "function"
    },
    {
      "inputs": [],
      "name": "minAmount",
      "outputs": [
        {
          "internalType": "uint256",
          "name": "",
          "type": "uint256"
        }
      ],
      "stateMutability": "view",
      "type": "function"
    },
    {
      "inputs": [],
      "name": "oracle",
      "outputs": [
        {
          "internalType": "contract IBscPledgeOracle",
          "name": "",
          "type": "address"
        }
      ],
      "stateMutability": "view",
      "type": "function"
    },
    {
      "inputs": [],
      "name": "owner",
      "outputs": [
        {
          "internalType": "address",
          "name": "",
          "type": "address"
        }
      ],
      "stateMutability": "view",
      "type": "function"
    },
    {
      "inputs": [
        {
          "internalType": "uint256",
          "name": "",
          "type": "uint256"
        }
      ],
      "name": "poolBaseInfo",
      "outputs": [
        {
          "internalType": "uint256",
          "name": "settleTime",
          "type": "uint256"
        },
        {
          "internalType": "uint256",
          "name": "endTime",
          "type": "uint256"
        },
        {
          "internalType": "uint256",
          "name": "interestRate",
          "type": "uint256"
        },
        {
          "internalType": "uint256",
          "name": "maxSupply",
          "type": "uint256"
        },
        {
          "internalType": "uint256",
          "name": "lendSupply",
          "type": "uint256"
        },
        {
          "internalType": "uint256",
          "name": "borrowSupply",
          "type": "uint256"
        },
        {
          "internalType": "uint256",
          "name": "martgageRate",
          "type": "uint256"
        },
        {
          "internalType": "address",
          "name": "lendToken",
          "type": "address"
        },
        {
          "internalType": "address",
          "name": "borrowToken",
          "type": "address"
        },
        {
          "internalType": "enum PledgePool.PoolState",
          "name": "state",
          "type": "uint8"
        },
        {
          "internalType": "contract IDebtToken",
          "name": "spCoin",
          "type": "address"
        },
        {
          "internalType": "contract IDebtToken",
          "name": "jpCoin",
          "type": "address"
        },
        {
          "internalType": "uint256",
          "name": "autoLiquidateThreshold",
          "type": "uint256"
        }
      ],
      "stateMutability": "view",
      "type": "function"
    },
    {
      "inputs": [
        {
          "internalType": "uint256",
          "name": "",
          "type": "uint256"
        }
      ],
      "name": "poolDataInfo",
      "outputs": [
        {
          "internalType": "uint256",
          "name": "settleAmountLend",
          "type": "uint256"
        },
        {
          "internalType": "uint256",
          "name": "settleAmountBorrow",
          "type": "uint256"
        },
        {
          "internalType": "uint256",
          "name": "finishAmountLend",
          "type": "uint256"
        },
        {
          "internalType": "uint256",
          "name": "finishAmountBorrow",
          "type": "uint256"
        },
        {
          "internalType": "uint256",
          "name": "liquidationAmounLend",
          "type": "uint256"
        },
        {
          "internalType": "uint256",
          "name": "liquidationAmounBorrow",
          "type": "uint256"
        }
      ],
      "stateMutability": "view",
      "type": "function"
    },
    {
      "inputs": [],
      "name": "poolLength",
      "outputs": [
        {
          "internalType": "uint256",
          "name": "",
          "type": "uint256"
        }
      ],
      "stateMutability": "view",
      "type": "function"
    },
    {
      "inputs": [
        {
          "internalType": "uint256",
          "name": "_pid",
          "type": "uint256"
        }
      ],
      "name": "refundBorrow",
      "outputs": [],
      "stateMutability": "nonpayable",
      "type": "function"
    },
    {
      "inputs": [
        {
          "internalType": "uint256",
          "name": "_pid",
          "type": "uint256"
        }
      ],
      "name": "refundLend",
      "outputs": [],
      "stateMutability": "nonpayable",
      "type": "function"
    },
    {
      "inputs": [],
      "name": "renounceOwnership",
      "outputs": [],
      "stateMutability": "nonpayable",
      "type": "function"
    },
    {
      "inputs": [
        {
          "internalType": "uint256",
          "name": "_lendFee",
          "type": "uint256"
        },
        {
          "internalType": "uint256",
          "name": "_borrowFee",
          "type": "uint256"
        }
      ],
      "name": "setFee",
      "outputs": [],
      "stateMutability": "nonpayable",
      "type": "function"
    },
    {
      "inputs": [
        {
          "internalType": "address payable",
          "name": "_feeAddress",
          "type": "address"
        }
      ],
      "name": "setFeeAddress",
      "outputs": [],
      "stateMutability": "nonpayable",
      "type": "function"
    },
    {
      "inputs": [
        {
          "internalType": "uint256",
          "name": "_minAmount",
          "type": "uint256"
        }
      ],
      "name": "setMinAmount",
      "outputs": [],
      "stateMutability": "nonpayable",
      "type": "function"
    },
    {
      "inputs": [],
      "name": "setPause",
      "outputs": [],
      "stateMutability": "nonpayable",
      "type": "function"
    },
    {
      "inputs": [
        {
          "internalType": "address",
          "name": "_swapRouter",
          "type": "address"
        }
      ],
      "name": "setSwapRouterAddress",
      "outputs": [],
      "stateMutability": "nonpayable",
      "type": "function"
    },
    {
      "inputs": [
        {
          "internalType": "uint256",
          "name": "_pid",
          "type": "uint256"
        }
      ],
      "name": "settle",
      "outputs": [],
      "stateMutability": "nonpayable",
      "type": "function"
    },
    {
      "inputs": [],
      "name": "swapRouter",
      "outputs": [
        {
          "internalType": "address",
          "name": "",
          "type": "address"
        }
      ],
      "stateMutability": "view",
      "type": "function"
    },
    {
      "inputs": [
        {
          "internalType": "address",
          "name": "newOwner",
          "type": "address"
        }
      ],
      "name": "transferOwnership",
      "outputs": [],
      "stateMutability": "nonpayable",
      "type": "function"
    },
    {
      "inputs": [
        {
          "internalType": "uint256",
          "name": "_pid",
          "type": "uint256"
        },
        {
          "internalType": "uint64",
          "name": "_interestRate",
          "type": "uint64"
        },
        {
          "internalType": "uint256",
          "name": "_maxSupply",
          "type": "uint256"
        },
        {
          "internalType": "uint256",
          "name": "_autoLiquidateThreshold",
          "type": "uint256"
        }
      ],
      "name": "updatePoolBaseInfo",
      "outputs": [],
      "stateMutability": "nonpayable",
      "type": "function"
    },
    {
      "inputs": [
        {
          "internalType": "address",
          "name": "",
          "type": "address"
        },
        {
          "internalType": "uint256",
          "name": "",
          "type": "uint256"
        }
      ],
      "name": "userBorrowInfo",
      "outputs": [
        {
          "internalType": "uint256",
          "name": "stakeAmount",
          "type": "uint256"
        },
        {
          "internalType": "uint256",
          "name": "refundAmount",
          "type": "uint256"
        },
        {
          "internalType": "bool",
          "name": "hasNoRefund",
          "type": "bool"
        },
        {
          "internalType": "bool",
          "name": "hasNoClaim",
          "type": "bool"
        }
      ],
      "stateMutability": "view",
      "type": "function"
    },
    {
      "inputs": [
        {
          "internalType": "address",
          "name": "",
          "type": "address"
        },
        {
          "internalType": "uint256",
          "name": "",
          "type": "uint256"
        }
      ],
      "name": "userLendInfo",
      "outputs": [
        {
          "internalType": "uint256",
          "name": "stakeAmount",
          "type": "uint256"
        },
        {
          "internalType": "uint256",
          "name": "refundAmount",
          "type": "uint256"
        },
        {
          "internalType": "bool",
          "name": "hasNoRefund",
          "type": "bool"
        },
        {
          "internalType": "bool",
          "name": "hasNoClaim",
          "type": "bool"
        }
      ],
      "stateMutability": "view",
      "type": "function"
    },
    {
      "inputs": [
        {
          "internalType": "uint256",
          "name": "_pid",
          "type": "uint256"
        },
        {
          "internalType": "uint256",
          "name": "_jpAmount",
          "type": "uint256"
        },
        {
          "internalType": "uint256",
          "name": "_deadLine",
          "type": "uint256"
        }
      ],
      "name": "withdrawBorrow",
      "outputs": [],
      "stateMutability": "nonpayable",
      "type": "function"
    },
    {
      "inputs": [
        {
          "internalType": "uint256",
          "name": "_pid",
          "type": "uint256"
        },
        {
          "internalType": "uint256",
          "name": "_spAmount",
          "type": "uint256"
        }
      ],
      "name": "withdrawLend",
      "outputs": [],
      "stateMutability": "nonpayable",
      "type": "function"
    }
  ],
  "bytecode": "0x608060405268056bc75e2d631000006002556003805460ff191690553480156200002857600080fd5b5060405162005d0138038062005d01833981810160405260608110156200004e57600080fd5b5080516020820151604090920151600160009081559192916200007062000203565b600180546001600160a01b0319166001600160a01b038316908117909155604051919250906000907f8be0079c531659141344cd1fd0a4f28419497f9722a3daafe3b4186f6b6457e0908290a3506001600160a01b0383166200010c576040805162461bcd60e51b815260206004820152600f60248201526e4973207a65726f206164647265737360881b604482015290519081900360640190fd5b6001600160a01b0382166200015a576040805162461bcd60e51b815260206004820152600f60248201526e4973207a65726f206164647265737360881b604482015290519081900360640190fd5b6001600160a01b038116620001a8576040805162461bcd60e51b815260206004820152600f60248201526e4973207a65726f206164647265737360881b604482015290519081900360640190fd5b600580546001600160a01b039485166001600160a01b0319918216179091556003805493851661010002610100600160a81b031990941693909317909255600480549190931691161790556000600681905560075562000207565b3390565b615aea80620002176000396000f3fe60806040526004361061023b5760003560e01c80638705fcd41161012e578063c31c9c07116100ab578063e271fa0c1161006f578063e271fa0c146108fb578063e626648a14610925578063ebded0171461093a578063eec8d506146109b8578063f2fde38b146109e25761023b565b8063c31c9c071461080c578063c933375614610821578063c9bf047c14610886578063d353a1cb146108bc578063d431b1ac146108e65761023b565b80639b2cb5d8116100f25780639b2cb5d814610740578063a62ff16414610755578063b15975171461077f578063bb176a64146107a9578063bf38b8f6146107e25761023b565b80638705fcd414610681578063897b0637146106b45780638da5cb5b146106de5780638df82800146106f357806390590da01461071d5761023b565b80635249961b116101bc5780636abd7f29116101805780636abd7f29146105bd5780636c42fed2146105e7578063715018a61461061157806373effaf1146106265780637dc0d1d01461066c5761023b565b80635249961b1461045957806352f7c9881461048c578063593f4cb7146104bc5780635a5a971e146104e557806361a552dc146105a85761023b565b80633ab4a445116102035780633ab4a4451461035e5780633c9fadc31461038857806341275358146103e9578063415f12401461041a5780634aea0aec146104445761023b565b80630177b68c14610240578063081e3eda1461029d57806308e7305f146102c457806314c090cc1461030257806338f2aa761461032c575b600080fd5b34801561024c57600080fd5b5061026a6004803603602081101561026357600080fd5b5035610a15565b604080519687526020870195909552858501939093526060850191909152608084015260a0830152519081900360c00190f35b3480156102a957600080fd5b506102b2610a58565b60408051918252519081900360200190f35b3480156102d057600080fd5b506102ee600480360360208110156102e757600080fd5b5035610a5e565b604080519115158252519081900360200190f35b34801561030e57600080fd5b506102ee6004803603602081101561032557600080fd5b5035610b37565b34801561033857600080fd5b5061035c6004803603604081101561034f57600080fd5b5080359060200135610b61565b005b34801561036a57600080fd5b5061035c6004803603602081101561038157600080fd5b5035610fca565b34801561039457600080fd5b506103c1600480360360408110156103ab57600080fd5b506001600160a01b038135169060200135611447565b6040805194855260208501939093529015158383015215156060830152519081900360800190f35b3480156103f557600080fd5b506103fe61147f565b604080516001600160a01b039092168252519081900360200190f35b34801561042657600080fd5b5061035c6004803603602081101561043d57600080fd5b503561148e565b34801561045057600080fd5b506102b2611733565b34801561046557600080fd5b5061035c6004803603602081101561047c57600080fd5b50356001600160a01b0316611739565b34801561049857600080fd5b5061035c600480360360408110156104af57600080fd5b5080359060200135611810565b61035c600480360360608110156104d257600080fd5b508035906020810135906040013561187d565b3480156104f157600080fd5b5061050f6004803603602081101561050857600080fd5b5035611b8c565b604051808e81526020018d81526020018c81526020018b81526020018a8152602001898152602001888152602001876001600160a01b03168152602001866001600160a01b0316815260200185600481111561056757fe5b8152602001846001600160a01b03168152602001836001600160a01b031681526020018281526020019d505050505050505050505050505060405180910390f35b3480156105b457600080fd5b506102ee611c18565b3480156105c957600080fd5b506102ee600480360360208110156105e057600080fd5b5035611c21565b3480156105f357600080fd5b5061035c6004803603602081101561060a57600080fd5b5035611c4b565b34801561061d57600080fd5b5061035c612059565b34801561063257600080fd5b5061035c6004803603608081101561064957600080fd5b5080359067ffffffffffffffff6020820135169060408101359060600135612105565b34801561067857600080fd5b506103fe612219565b34801561068d57600080fd5b5061035c600480360360208110156106a457600080fd5b50356001600160a01b0316612228565b3480156106c057600080fd5b5061035c600480360360208110156106d757600080fd5b50356122f9565b3480156106ea57600080fd5b506103fe612360565b3480156106ff57600080fd5b5061035c6004803603602081101561071657600080fd5b503561236f565b61035c6004803603604081101561073357600080fd5b508035906020013561260b565b34801561074c57600080fd5b506102b2612925565b34801561076157600080fd5b5061035c6004803603602081101561077857600080fd5b503561292b565b34801561078b57600080fd5b506102b2600480360360208110156107a257600080fd5b5035612d7b565b3480156107b557600080fd5b506103c1600480360360408110156107cc57600080fd5b506001600160a01b038135169060200135612dbf565b3480156107ee57600080fd5b5061035c6004803603602081101561080557600080fd5b5035612df7565b34801561081857600080fd5b506103fe6130cd565b34801561082d57600080fd5b5061084b6004803603602081101561084457600080fd5b50356130e1565b6040518082600260200280838360005b8381101561087357818101518382015260200161085b565b5050505090500191505060405180910390f35b34801561089257600080fd5b5061035c600480360360608110156108a957600080fd5b5080359060208101359060400135613318565b3480156108c857600080fd5b5061035c600480360360208110156108df57600080fd5b50356137cf565b3480156108f257600080fd5b5061035c613ac6565b34801561090757600080fd5b5061035c6004803603602081101561091e57600080fd5b5035613b3c565b34801561093157600080fd5b506102b2613e14565b34801561094657600080fd5b5061035c600480360361014081101561095e57600080fd5b5080359060208101359067ffffffffffffffff604082013516906060810135906080810135906001600160a01b0360a082013581169160c081013582169160e0820135811691610100810135909116906101200135613e1a565b3480156109c457600080fd5b5061035c600480360360208110156109db57600080fd5b5035614241565b3480156109ee57600080fd5b5061035c60048036036020811015610a0557600080fd5b50356001600160a01b031661467b565b60098181548110610a2257fe5b60009182526020909120600690910201805460018201546002830154600384015460048501546005909501549395509193909286565b60085490565b60008060088381548110610a6e57fe5b90600052602060002090600c02019050600060098481548110610a8d57fe5b90600052602060002090600602019050610aa56157bd565b610aae856130e1565b90506000610af8670de0b6b3a7640000610ae7610aed85855b6020020151610ae7670de0b6b3a76400008860015b60200201519061477e565b906147e0565b60018701549061477e565b90506000610b2a6305f5e100610ae7610b2288600b01546305f5e10061482290919063ffffffff16565b87549061477e565b9091109695505050505050565b600060088281548110610b4657fe5b90600052602060002090600c02016000015442119050919050565b60026000541415610ba7576040805162461bcd60e51b815260206004820152601f60248201526000805160206157dc833981519152604482015290519081900360640190fd5b600260005560035460ff1615610bf2576040805162461bcd60e51b81526020600482015260186024820152600080516020615909833981519152604482015290519081900360640190fd5b81600260088281548110610c0257fe5b90600052602060002090600c020160080160149054906101000a900460ff166004811115610c2c57fe5b1480610c6e5750600360088281548110610c4257fe5b90600052602060002090600c020160080160149054906101000a900460ff166004811115610c6c57fe5b145b610cbb576040805162461bcd60e51b815260206004820152601960248201527839ba30ba329d103334b734b9b4103634b8bab4b230ba34b7b760391b604482015290519081900360640190fd5b600060088481548110610cca57fe5b90600052602060002090600c02019050600060098581548110610ce957fe5b9060005260206000209060060201905060008411610d385760405162461bcd60e51b81526004018080602001828103825260258152602001806158206025913960400191505060405180910390fd5b600982015460408051632770a7eb60e21b81523360048201526024810187905290516001600160a01b0390921691639dc29fac9160448082019260009290919082900301818387803b158015610d8d57600080fd5b505af1158015610da1573d6000803e3d6000fd5b50508254915060009050610dc182610ae788670de0b6b3a764000061477e565b905060026008850154600160a01b900460ff166004811115610ddf57fe5b1415610ecc5783600101544211610e3d576040805162461bcd60e51b815260206004820181905260248201527f77697468647261774c656e643a206c657373207468616e20656e642074696d65604482015290519081900360640190fd5b6000610e62670de0b6b3a7640000610ae784876002015461477e90919063ffffffff16565b6007860154909150610e7f9033906001600160a01b03168361487c565b600785015460408051838152602081018a905281516001600160a01b039093169233927f690f32ccf3e832d5ff975d781039bc2affebee9c973939c9b710091b87954c9d928290030190a3505b60036008850154600160a01b900460ff166004811115610ee857fe5b1415610fbc5783544211610f2d5760405162461bcd60e51b81526004018080602001828103825260228152602001806158e76022913960400191505060405180910390fd5b6000610f52670de0b6b3a7640000610ae784876004015461477e90919063ffffffff16565b6007860154909150610f6f9033906001600160a01b03168361487c565b600785015460408051838152602081018a905281516001600160a01b039093169233927f690f32ccf3e832d5ff975d781039bc2affebee9c973939c9b710091b87954c9d928290030190a3505b505060016000555050505050565b60026000541415611010576040805162461bcd60e51b815260206004820152601f60248201526000805160206157dc833981519152604482015290519081900360640190fd5b600260005560035460ff161561105b576040805162461bcd60e51b81526020600482015260186024820152600080516020615909833981519152604482015290519081900360640190fd5b806008818154811061106957fe5b90600052602060002090600c02016000015442116110c6576040805162461bcd60e51b8152602060048201526015602482015274477265617465207468616e20746869732074696d6560581b604482015290519081900360640190fd5b816001600882815481106110d657fe5b90600052602060002090600c020160080160149054906101000a900460ff16600481111561110057fe5b1480611142575060026008828154811061111657fe5b90600052602060002090600c020160080160149054906101000a900460ff16600481111561114057fe5b145b80611183575060036008828154811061115757fe5b90600052602060002090600c020160080160149054906101000a900460ff16600481111561118157fe5b145b6111c2576040805162461bcd60e51b815260206004820152601b602482015260008051602061599b833981519152604482015290519081900360640190fd5b6000600884815481106111d157fe5b90600052602060002090600c020190506000600985815481106111f057fe5b60009182526020808320338452600a825260408085208a8652909252922080546006909202909201925061126b576040805162461bcd60e51b815260206004820152601f60248201527f636c61696d426f72726f773a206e6f7420636c61696d206a705f746f6b656e00604482015290519081900360640190fd5b6002810154610100900460ff16156112ca576040805162461bcd60e51b815260206004820152601860248201527f636c61696d426f72726f773a20616761696e20636c61696d0000000000000000604482015290519081900360640190fd5b60006112ef6305f5e100610ae78660060154866000015461477e90919063ffffffff16565b9050600061131a8560050154610ae7670de0b6b3a7640000866000015461477e90919063ffffffff16565b90506000611334670de0b6b3a7640000610ae7858561477e565b600a870154604080516340c10f1960e01b81523360048201526024810184905290519293506001600160a01b03909116916340c10f199160448082019260009290919082900301818387803b15801561138c57600080fd5b505af11580156113a0573d6000803e3d6000fd5b50508654600092506113c19150670de0b6b3a764000090610ae7908661477e565b60078801549091506113de9033906001600160a01b03168361487c565b60028501805461ff00191661010017905560088701546040805184815290516001600160a01b039092169133917f3ddafe3ebb4d0c818317027aabfa82dc9983942ceeb80523167e2de047b17fbd919081900360200190a3505060016000555050505050505050565b600a60209081526000928352604080842090915290825290208054600182015460029092015490919060ff8082169161010090041684565b6004546001600160a01b031681565b61149661492d565b6001600160a01b03166114a7612360565b6001600160a01b0316146114f0576040805162461bcd60e51b81526020600482018190526024820152600080516020615a04833981519152604482015290519081900360640190fd5b6000600982815481106114ff57fe5b9060005260206000209060060201905060006008838154811061151e57fe5b90600052602060002090600c0201905080600001544211611586576040805162461bcd60e51b815260206004820181905260248201527f6e6f772074696d65206973206c657373207468616e206d617463682074696d65604482015290519081900360640190fd5b60016008820154600160a01b900460ff1660048111156115a257fe5b146115de5760405162461bcd60e51b815260040180806020018281038252602781526020018061594e6027913960400191505060405180910390fd5b6008810154600782015460028301546001600160a01b039283169290911690600090611620906305f5e10090610ae7906116189083614822565b88549061477e565b9050600061164f6305f5e100610ae76116486305f5e10060065461482290919063ffffffff16565b859061477e565b9050600080611675600360019054906101000a90046001600160a01b0316878786614931565b91509150838111156116c457600061168d828661497e565b60045460078a01549192506116af916001600160a01b0391821691168361487c565b6116b9828261497e565b60048a0155506116cc565b600488018190555b60018801546000906116de908461497e565b60075460088a015491925060009161170091906001600160a01b0316846149c0565b60058b0181905560088a01805491925060039160ff60a01b1916600160a01b835b02179055505050505050505050505050565b60065481565b61174161492d565b6001600160a01b0316611752612360565b6001600160a01b03161461179b576040805162461bcd60e51b81526020600482018190526024820152600080516020615a04833981519152604482015290519081900360640190fd5b6001600160a01b0381166117e8576040805162461bcd60e51b815260206004820152600f60248201526e4973207a65726f206164647265737360881b604482015290519081900360640190fd5b600380546001600160a01b0390921661010002610100600160a81b0319909216919091179055565b61181861492d565b6001600160a01b0316611829612360565b6001600160a01b031614611872576040805162461bcd60e51b81526020600482018190526024820152600080516020615a04833981519152604482015290519081900360640190fd5b600691909155600755565b600260005414156118c3576040805162461bcd60e51b815260206004820152601f60248201526000805160206157dc833981519152604482015290519081900360640190fd5b600260005560035460ff161561190e576040805162461bcd60e51b81526020600482015260186024820152600080516020615909833981519152604482015290519081900360640190fd5b826008818154811061191c57fe5b90600052602060002090600c0201600001544210611977576040805162461bcd60e51b81526020600482015260136024820152724c657373207468616e20746869732074696d6560681b604482015290519081900360640190fd5b8360006008828154811061198757fe5b90600052602060002090600c020160080160149054906101000a900460ff1660048111156119b157fe5b146119ed5760405162461bcd60e51b81526004018080602001828103825260288152602001806159bb6028913960400191505060405180910390fd5b8242811015611a34576040805162461bcd60e51b815260206004820152600e60248201526d1cdd185ad94e881156141254915160921b604482015290519081900360640190fd5b600060088781548110611a4357fe5b60009182526020808320338452600a825260408085208c8652909252908320600c92909202016008810154909350909190611a87906001600160a01b031689614a0c565b905060008111611ac85760405162461bcd60e51b81526004018080602001828103825260258152602001806159296025913960400191505060405180910390fd5b60028201805461ffff1916905560088301546001600160a01b0316611b0e578154611af39034614822565b82556005830154611b049034614822565b6005840155611b31565b8154611b1a9089614822565b82556005830154611b2b9089614822565b60058401555b6008830154604080518a81526020810184905281516001600160a01b039093169233927f1d7b72e666a0b6217efe7cfa1b604ea5c7b39219563ce48b30c9da77045247a5928290030190a35050600160005550505050505050565b60088181548110611b9957fe5b60009182526020909120600c9091020180546001820154600283015460038401546004850154600586015460068701546007880154600889015460098a0154600a8b0154600b909b0154999b509799969895979496939592946001600160a01b039283169483831694600160a01b90930460ff1693918216929116908d565b60035460ff1681565b600060088281548110611c3057fe5b90600052602060002090600c02016001015442119050919050565b60026000541415611c91576040805162461bcd60e51b815260206004820152601f60248201526000805160206157dc833981519152604482015290519081900360640190fd5b600260005560035460ff1615611cdc576040805162461bcd60e51b81526020600482015260186024820152600080516020615909833981519152604482015290519081900360640190fd5b8060088181548110611cea57fe5b90600052602060002090600c0201600001544211611d47576040805162461bcd60e51b8152602060048201526015602482015274477265617465207468616e20746869732074696d6560581b604482015290519081900360640190fd5b81600160088281548110611d5757fe5b90600052602060002090600c020160080160149054906101000a900460ff166004811115611d8157fe5b1480611dc35750600260088281548110611d9757fe5b90600052602060002090600c020160080160149054906101000a900460ff166004811115611dc157fe5b145b80611e045750600360088281548110611dd857fe5b90600052602060002090600c020160080160149054906101000a900460ff166004811115611e0257fe5b145b611e43576040805162461bcd60e51b815260206004820152601b602482015260008051602061599b833981519152604482015290519081900360640190fd5b600060088481548110611e5257fe5b90600052602060002090600c02019050600060098581548110611e7157fe5b60009182526020808320338452600b825260408085208a86529092529220805460069092029092019250611eec576040805162461bcd60e51b815260206004820152601d60248201527f636c61696d4c656e643a206e6f7420636c61696d2073705f746f6b656e000000604482015290519081900360640190fd5b6002810154610100900460ff1615611f44576040805162461bcd60e51b8152602060048201526016602482015275636c61696d4c656e643a20616761696e20636c61696d60501b604482015290519081900360640190fd5b60048301548154600091611f6491610ae790670de0b6b3a764000061477e565b83549091506000611f81670de0b6b3a7640000610ae7848661477e565b6009870154604080516340c10f1960e01b81523360048201526024810184905290519293506001600160a01b03909116916340c10f199160448082019260009290919082900301818387803b158015611fd957600080fd5b505af1158015611fed573d6000803e3d6000fd5b50505060028501805461ff0019166101001790555060088601546040805183815290516001600160a01b039092169133917f6f4dd2687b3c3bfa99d39742b01d6e0ad9604c48559791d5df4ff5df44b41dfd919081900360200190a35050600160005550505050505050565b61206161492d565b6001600160a01b0316612072612360565b6001600160a01b0316146120bb576040805162461bcd60e51b81526020600482018190526024820152600080516020615a04833981519152604482015290519081900360640190fd5b6001546040516000916001600160a01b0316907f8be0079c531659141344cd1fd0a4f28419497f9722a3daafe3b4186f6b6457e0908390a3600180546001600160a01b0319169055565b61210d61492d565b6001600160a01b031661211e612360565b6001600160a01b031614612167576040805162461bcd60e51b81526020600482018190526024820152600080516020615a04833981519152604482015290519081900360640190fd5b836008818154811061217557fe5b90600052602060002090600c02016000015442106121d0576040805162461bcd60e51b81526020600482015260136024820152724c657373207468616e20746869732074696d6560681b604482015290519081900360640190fd5b6000600886815481106121df57fe5b6000918252602090912067ffffffffffffffff9096166002600c9092029096019081019590955550506003830191909155600b9091015550565b6005546001600160a01b031681565b61223061492d565b6001600160a01b0316612241612360565b6001600160a01b03161461228a576040805162461bcd60e51b81526020600482018190526024820152600080516020615a04833981519152604482015290519081900360640190fd5b6001600160a01b0381166122d7576040805162461bcd60e51b815260206004820152600f60248201526e4973207a65726f206164647265737360881b604482015290519081900360640190fd5b600480546001600160a01b0319166001600160a01b0392909216919091179055565b61230161492d565b6001600160a01b0316612312612360565b6001600160a01b03161461235b576040805162461bcd60e51b81526020600482018190526024820152600080516020615a04833981519152604482015290519081900360640190fd5b600255565b6001546001600160a01b031690565b61237761492d565b6001600160a01b0316612388612360565b6001600160a01b0316146123d1576040805162461bcd60e51b81526020600482018190526024820152600080516020615a04833981519152604482015290519081900360640190fd5b6000600882815481106123e057fe5b90600052602060002090600c020190506000600983815481106123ff57fe5b906000526020600020906006020190506008838154811061241c57fe5b90600052602060002090600c0201600001544211612481576040805162461bcd60e51b815260206004820152601c60248201527f736574746c653a206c657373207468616e20736574746c6554696d6500000000604482015290519081900360640190fd5b60006008830154600160a01b900460ff16600481111561249d57fe5b146124ef576040805162461bcd60e51b815260206004820181905260248201527f736574746c653a20706f6f6c207374617465206d757374206265206d61746368604482015290519081900360640190fd5b60008260040154118015612507575060008260050154115b156125df576125146157bd565b61251d846130e1565b90506000612545670de0b6b3a7640000610ae761253a8585610ac7565b60058801549061477e565b905060006125688560060154610ae76305f5e1008561477e90919063ffffffff16565b9050808560040154111561258857808455600585015460018501556125c2565b6004850154845582516125bc906125a990610ae76305f5e100876001610adc565b60068701546004880154610ae79161477e565b60018501555b50505060088201805460ff60a01b1916600160a01b179055612606565b60088201805460ff60a01b1916600160a21b17905560048201548155600582015460018201555b505050565b60026000541415612651576040805162461bcd60e51b815260206004820152601f60248201526000805160206157dc833981519152604482015290519081900360640190fd5b600260005560035460ff161561269c576040805162461bcd60e51b81526020600482015260186024820152600080516020615909833981519152604482015290519081900360640190fd5b81600881815481106126aa57fe5b90600052602060002090600c0201600001544210612705576040805162461bcd60e51b81526020600482015260136024820152724c657373207468616e20746869732074696d6560681b604482015290519081900360640190fd5b8260006008828154811061271557fe5b90600052602060002090600c020160080160149054906101000a900460ff16600481111561273f57fe5b1461277b5760405162461bcd60e51b81526004018080602001828103825260288152602001806159bb6028913960400191505060405180910390fd5b60006008858154811061278a57fe5b60009182526020808320338452600b825260408085208a865290925292206004600c9092029092019081015460038201549193506127c8919061497e565b8511156128065760405162461bcd60e51b815260040180806020018281038252602b815260200180615895602b913960400191505060405180910390fd5b6007820154600090612821906001600160a01b031687614a0c565b905060025481116128635760405162461bcd60e51b8152600401808060200182810382526021815260200180615a246021913960400191505060405180910390fd5b60028201805461ffff1916905560078301546001600160a01b03166128a957815461288e9034614822565b8255600483015461289f9034614822565b60048401556128cc565b81546128b59087614822565b825560048301546128c69087614822565b60048401555b6007830154604080518881526020810184905281516001600160a01b039093169233927f129e8c18c2f7baf99c7eb257934c21f038c72412803512dcf0a942a4562a82ea928290030190a3505060016000555050505050565b60025481565b60026000541415612971576040805162461bcd60e51b815260206004820152601f60248201526000805160206157dc833981519152604482015290519081900360640190fd5b600260005560035460ff16156129bc576040805162461bcd60e51b81526020600482015260186024820152600080516020615909833981519152604482015290519081900360640190fd5b80600881815481106129ca57fe5b90600052602060002090600c0201600001544211612a27576040805162461bcd60e51b8152602060048201526015602482015274477265617465207468616e20746869732074696d6560581b604482015290519081900360640190fd5b81600160088281548110612a3757fe5b90600052602060002090600c020160080160149054906101000a900460ff166004811115612a6157fe5b1480612aa35750600260088281548110612a7757fe5b90600052602060002090600c020160080160149054906101000a900460ff166004811115612aa157fe5b145b80612ae45750600360088281548110612ab857fe5b90600052602060002090600c020160080160149054906101000a900460ff166004811115612ae257fe5b145b612b23576040805162461bcd60e51b815260206004820152601b602482015260008051602061599b833981519152604482015290519081900360640190fd5b600060088481548110612b3257fe5b90600052602060002090600c02019050600060098581548110612b5157fe5b60009182526020808320338452600a825260408085208a86529092529083206006929092020160018101546005860154919450919291612b91919061497e565b11612be3576040805162461bcd60e51b815260206004820152601860248201527f726566756e64426f72726f773a206e6f7420726566756e640000000000000000604482015290519081900360640190fd5b8054612c32576040805162461bcd60e51b81526020600482015260196024820152781c99599d5b99109bdc9c9bddce881b9bdd081c1b195919d959603a1b604482015290519081900360640190fd5b600281015460ff1615612c8c576040805162461bcd60e51b815260206004820152601a60248201527f726566756e64426f72726f773a20616761696e20726566756e64000000000000604482015290519081900360640190fd5b60058301548154600091612cac91610ae790670de0b6b3a764000061477e565b90506000612ce1670de0b6b3a7640000610ae784612cdb88600101548a6005015461497e90919063ffffffff16565b9061477e565b6008860154909150612cfe9033906001600160a01b03168361487c565b6001830154612d0d9082614822565b60018085019190915560028401805460ff1916909117905560088501546040805183815290516001600160a01b039092169133917f732816f48de550f238bd0d4f5b79819c7b24a49d6132928978e3cd36568dd5db919081900360200190a350506001600055505050505050565b60008060088381548110612d8b57fe5b90600052602060002090600c020190508060080160149054906101000a900460ff166004811115612db857fe5b9392505050565b600b60209081526000928352604080842090915290825290208054600182015460029092015490919060ff8082169161010090041684565b60026000541415612e3d576040805162461bcd60e51b815260206004820152601f60248201526000805160206157dc833981519152604482015290519081900360640190fd5b600260005560035460ff1615612e88576040805162461bcd60e51b81526020600482015260186024820152600080516020615909833981519152604482015290519081900360640190fd5b80600460088281548110612e9857fe5b90600052602060002090600c020160080160149054906101000a900460ff166004811115612ec257fe5b14612f14576040805162461bcd60e51b815260206004820152601b60248201527f73746174653a207374617465206d75737420626520756e646f6e650000000000604482015290519081900360640190fd5b600060088381548110612f2357fe5b90600052602060002090600c020190506000816004015411612f8c576040805162461bcd60e51b815260206004820152601c60248201527f656d657267656e634c656e643a206e6f74207769746864726177616c00000000604482015290519081900360640190fd5b336000908152600b6020908152604080832086845290915290208054612ff3576040805162461bcd60e51b81526020600482015260176024820152761c99599d5b9913195b990e881b9bdd081c1b195919d959604a1b604482015290519081900360640190fd5b600281015460ff161561304d576040805162461bcd60e51b815260206004820152601860248201527f726566756e644c656e643a20616761696e20726566756e640000000000000000604482015290519081900360640190fd5b6007820154815461306b9133916001600160a01b039091169061487c565b60028101805460ff191660011790556007820154815460408051918252516001600160a01b039092169133917f71d14c5f08cb34cbfb59c06ea5151aafbf742d0b6ed00fdb83addd9afb5c0fd0919081900360200190a3505060016000555050565b60035461010090046001600160a01b031681565b6130e96157bd565b6000600883815481106130f857fe5b600091825260209182902060408051600280825260608083018452600c9095029093019550929383019080368337505050600783015481519192506001600160a01b031690829060009061314857fe5b6020908102919091010152600882015481516001600160a01b03909116908290600190811061317357fe5b6020908102919091018101919091526005546040516304e59d2760e11b8152600481018381528451602483015284516060946001600160a01b03909416936309cb3a4e938793928392604490920191858101910280838360005b838110156131e55781810151838201526020016131cd565b505050509050019250505060006040518083038186803b15801561320857600080fd5b505afa15801561321c573d6000803e3d6000fd5b505050506040513d6000823e601f3d908101601f19168201604052602081101561324557600080fd5b8101908080516040519392919084600160201b82111561326457600080fd5b90830190602082018581111561327957600080fd5b82518660208202830111600160201b8211171561329557600080fd5b82525081516020918201928201910280838360005b838110156132c25781810151838201526020016132aa565b5050505090500160405250505090506040518060400160405280826000815181106132e957fe5b602002602001015181526020018260018151811061330357fe5b60200260200101518152509350505050919050565b6002600054141561335e576040805162461bcd60e51b815260206004820152601f60248201526000805160206157dc833981519152604482015290519081900360640190fd5b600260005560035460ff16156133a9576040805162461bcd60e51b81526020600482015260186024820152600080516020615909833981519152604482015290519081900360640190fd5b80428110156133f0576040805162461bcd60e51b815260206004820152600e60248201526d1cdd185ad94e881156141254915160921b604482015290519081900360640190fd5b8360026008828154811061340057fe5b90600052602060002090600c020160080160149054906101000a900460ff16600481111561342a57fe5b148061346c575060036008828154811061344057fe5b90600052602060002090600c020160080160149054906101000a900460ff16600481111561346a57fe5b145b6134b9576040805162461bcd60e51b815260206004820152601960248201527839ba30ba329d103334b734b9b4103634b8bab4b230ba34b7b760391b604482015290519081900360640190fd5b6000600886815481106134c857fe5b90600052602060002090600c020190506000600987815481106134e757fe5b90600052602060002090600602019050600086116135365760405162461bcd60e51b81526004018080602001828103825260278152602001806158c06027913960400191505060405180910390fd5b600a82015460408051632770a7eb60e21b81523360048201526024810189905290516001600160a01b0390921691639dc29fac9160448082019260009290919082900301818387803b15801561358b57600080fd5b505af115801561359f573d6000803e3d6000fd5b50505060068301548254600092506135c0916305f5e10091610ae79161477e565b905060006135da82610ae78a670de0b6b3a764000061477e565b905060026008850154600160a01b900460ff1660048111156135f857fe5b14156136cf57836001015442116136405760405162461bcd60e51b8152600401808060200182810382526022815260200180615a936022913960400191505060405180910390fd5b6000613665670de0b6b3a7640000610ae786600301548561477e90919063ffffffff16565b60088601549091506136829033906001600160a01b03168361487c565b6008850154604080518b81526020810184905281516001600160a01b039093169233927f0f5e74952c2f9259a748f3aa9a6c4534a6f46a5966e5baabdb6bd337f05234a8928290030190a3505b60036008850154600160a01b900460ff1660048111156136eb57fe5b14156137bf57835442116137305760405162461bcd60e51b81526004018080602001828103825260248152602001806157fc6024913960400191505060405180910390fd5b6000613755670de0b6b3a7640000610ae786600501548561477e90919063ffffffff16565b60088601549091506137729033906001600160a01b03168361487c565b6008850154604080518b81526020810184905281516001600160a01b039093169233927f0f5e74952c2f9259a748f3aa9a6c4534a6f46a5966e5baabdb6bd337f05234a8928290030190a3505b5050600160005550505050505050565b6137d761492d565b6001600160a01b03166137e8612360565b6001600160a01b031614613831576040805162461bcd60e51b81526020600482018190526024820152600080516020615a04833981519152604482015290519081900360640190fd5b60006008828154811061384057fe5b90600052602060002090600c0201905060006009838154811061385f57fe5b906000526020600020906006020190506008838154811061387c57fe5b90600052602060002090600c02016001015442116138e1576040805162461bcd60e51b815260206004820152601a60248201527f66696e6973683a206c657373207468616e20656e642074696d65000000000000604482015290519081900360640190fd5b60016008830154600160a01b900460ff1660048111156138fd57fe5b146139395760405162461bcd60e51b8152600401808060200182810382526024815260200180615a456024913960400191505060405180910390fd5b6008820154600783015460028401546001600160a01b039283169290911690600090613973906305f5e10090610ae790610b229083614822565b9050600061399b6305f5e100610ae76116486305f5e10060065461482290919063ffffffff16565b90506000806139c1600360019054906101000a90046001600160a01b0316878786614931565b9150915083811015613a1a576040805162461bcd60e51b815260206004820152601c60248201527f66696e6973683a20536c69707061676520697320746f6f206869676800000000604482015290519081900360640190fd5b83811115613a65576000613a2e828661497e565b60045460078b0154919250613a50916001600160a01b0391821691168361487c565b613a5a828261497e565b600289015550613a6d565b600287018190555b6001870154600090613a7f908461497e565b60065460088b0154919250600091613aa191906001600160a01b0316846149c0565b60038a0181905560088b01805491925060029160ff60a01b1916600160a01b83611721565b613ace61492d565b6001600160a01b0316613adf612360565b6001600160a01b031614613b28576040805162461bcd60e51b81526020600482018190526024820152600080516020615a04833981519152604482015290519081900360640190fd5b6003805460ff19811660ff90911615179055565b60026000541415613b82576040805162461bcd60e51b815260206004820152601f60248201526000805160206157dc833981519152604482015290519081900360640190fd5b600260005560035460ff1615613bcd576040805162461bcd60e51b81526020600482015260186024820152600080516020615909833981519152604482015290519081900360640190fd5b80600460088281548110613bdd57fe5b90600052602060002090600c020160080160149054906101000a900460ff166004811115613c0757fe5b14613c59576040805162461bcd60e51b815260206004820152601b60248201527f73746174653a207374617465206d75737420626520756e646f6e650000000000604482015290519081900360640190fd5b600060088381548110613c6857fe5b90600052602060002090600c020190506000816005015411613cd1576040805162461bcd60e51b815260206004820152601f60248201527f656d657267656e6379426f72726f773a206e6f74207769746864726177616c00604482015290519081900360640190fd5b336000908152600a6020908152604080832086845290915290208054613d3a576040805162461bcd60e51b81526020600482015260196024820152781c99599d5b99109bdc9c9bddce881b9bdd081c1b195919d959603a1b604482015290519081900360640190fd5b600281015460ff1615613d94576040805162461bcd60e51b815260206004820152601a60248201527f726566756e64426f72726f773a20616761696e20726566756e64000000000000604482015290519081900360640190fd5b60088201548154613db29133916001600160a01b039091169061487c565b60028101805460ff191660011790556008820154815460408051918252516001600160a01b039092169133917f5a06c7de92f1dc59e8cba872927d016c80ce5f0fb2295c898dfb7a2f08e43fb1919081900360200190a3505060016000555050565b60075481565b613e2261492d565b6001600160a01b0316613e33612360565b6001600160a01b031614613e7c576040805162461bcd60e51b81526020600482018190526024820152600080516020615a04833981519152604482015290519081900360640190fd5b898911613eba5760405162461bcd60e51b815260040180806020018281038252602a815260200180615845602a913960400191505060405180910390fd5b6001600160a01b038216613f15576040805162461bcd60e51b815260206004820152601a60248201527f637265617465506f6f6c3a6973207a65726f2061646472657373000000000000604482015290519081900360640190fd5b6001600160a01b038316613f70576040805162461bcd60e51b815260206004820152601a60248201527f637265617465506f6f6c3a6973207a65726f2061646472657373000000000000604482015290519081900360640190fd5b6008604051806101a001604052808c81526020018b81526020018a67ffffffffffffffff1681526020018981526020016000815260200160008152602001888152602001876001600160a01b03168152602001866001600160a01b0316815260200160006004811115613fdf57fe5b81526001600160a01b0380871660208084019190915286821660408085019190915260609384018790528554600181810188556000978852968390208651600c909202019081559185015195820195909555938301516002850155908201516003840155608082015160048085019190915560a0830151600585015560c0830151600685015560e08301516007850180549184166001600160a01b031992831617905561010084015160088601805491909416911617808355610120840151939493929160ff60a01b1990911690600160a01b9084908111156140be57fe5b0217905550610140820151600980830180546001600160a01b039384166001600160a01b031991821617909155610160850151600a850180549190941691161790915561018090920151600b909101556040805160c081018252600080825260208201818152928201818152606083018281526080840183815260a08501848152875460018101895597909452935160069096027f6e1540171b6c0c960b71a7020d9f60077f6af931a8bbf590da0223dacf75c7af81019690965593517f6e1540171b6c0c960b71a7020d9f60077f6af931a8bbf590da0223dacf75c7b0860155517f6e1540171b6c0c960b71a7020d9f60077f6af931a8bbf590da0223dacf75c7b185015591517f6e1540171b6c0c960b71a7020d9f60077f6af931a8bbf590da0223dacf75c7b2840155517f6e1540171b6c0c960b71a7020d9f60077f6af931a8bbf590da0223dacf75c7b3830155517f6e1540171b6c0c960b71a7020d9f60077f6af931a8bbf590da0223dacf75c7b49091015550505050505050505050565b60026000541415614287576040805162461bcd60e51b815260206004820152601f60248201526000805160206157dc833981519152604482015290519081900360640190fd5b600260005560035460ff16156142d2576040805162461bcd60e51b81526020600482015260186024820152600080516020615909833981519152604482015290519081900360640190fd5b80600881815481106142e057fe5b90600052602060002090600c020160000154421161433d576040805162461bcd60e51b8152602060048201526015602482015274477265617465207468616e20746869732074696d6560581b604482015290519081900360640190fd5b8160016008828154811061434d57fe5b90600052602060002090600c020160080160149054906101000a900460ff16600481111561437757fe5b14806143b9575060026008828154811061438d57fe5b90600052602060002090600c020160080160149054906101000a900460ff1660048111156143b757fe5b145b806143fa57506003600882815481106143ce57fe5b90600052602060002090600c020160080160149054906101000a900460ff1660048111156143f857fe5b145b614439576040805162461bcd60e51b815260206004820152601b602482015260008051602061599b833981519152604482015290519081900360640190fd5b60006008848154811061444857fe5b90600052602060002090600c0201905060006009858154811061446757fe5b60009182526020808320338452600b825260408085208a865290925292208054600690920290920192506144dc576040805162461bcd60e51b81526020600482015260176024820152761c99599d5b9913195b990e881b9bdd081c1b195919d959604a1b604482015290519081900360640190fd5b815460048401546000916144f0919061497e565b1161453b576040805162461bcd60e51b81526020600482015260166024820152751c99599d5b9913195b990e881b9bdd081c99599d5b9960521b604482015290519081900360640190fd5b600281015460ff1615614595576040805162461bcd60e51b815260206004820152601960248201527f726566756e644c656e643a2072657065617420726566756e6400000000000000604482015290519081900360640190fd5b600483015481546000916145b591610ae790670de0b6b3a764000061477e565b905060006145e4670de0b6b3a7640000610ae784612cdb88600001548a6004015461497e90919063ffffffff16565b60078601549091506146019033906001600160a01b03168361487c565b60028301805460ff191660019081179091558301546146209082614822565b600184015560078501546040805183815290516001600160a01b039092169133917fc3e20279d41b3ed21d277920877e5e5c6665bf6aca607046a3fe0fd2bd6bda7d919081900360200190a350506001600055505050505050565b61468361492d565b6001600160a01b0316614694612360565b6001600160a01b0316146146dd576040805162461bcd60e51b81526020600482018190526024820152600080516020615a04833981519152604482015290519081900360640190fd5b6001600160a01b0381166147225760405162461bcd60e51b815260040180806020018281038252602681526020018061586f6026913960400191505060405180910390fd5b6001546040516001600160a01b038084169216907f8be0079c531659141344cd1fd0a4f28419497f9722a3daafe3b4186f6b6457e090600090a3600180546001600160a01b0319166001600160a01b0392909216919091179055565b60008261478d575060006147da565b8282028284828161479a57fe5b04146147d75760405162461bcd60e51b81526004018080602001828103825260218152602001806159e36021913960400191505060405180910390fd5b90505b92915050565b60006147d783836040518060400160405280601a81526020017f536166654d6174683a206469766973696f6e206279207a65726f000000000000815250614a48565b6000828201838110156147d7576040805162461bcd60e51b815260206004820152601b60248201527f536166654d6174683a206164646974696f6e206f766572666c6f770000000000604482015290519081900360640190fd5b6001600160a01b0382166148c6576040516001600160a01b0384169082156108fc029083906000818181858888f193505050501580156148c0573d6000803e3d6000fd5b506148dd565b816148db6001600160a01b0382168584614aea565b505b816001600160a01b0316836001600160a01b03167fd12200efa34901b99367694174c3b0d32c99585fdf37c7c26892136ddd0836d9836040518082815260200191505060405180910390a3505050565b3390565b6000806000808411614944576000614961565b6003546149619061010090046001600160a01b0316878787614b3c565b90508061497088888885614cd9565b925092505094509492505050565b60006147d783836040518060400160405280601e81526020017f536166654d6174683a207375627472616374696f6e206f766572666c6f7700008152506151b0565b6000806305f5e1006149d2848761477e565b816149d957fe5b04905080156149f9576004546149f9906001600160a01b0316858361487c565b614a03838261497e565b95945050505050565b60006001600160a01b038316614a2457349150614a42565b8115614a425782614a406001600160a01b03821633308661520a565b505b50919050565b60008183614ad45760405162461bcd60e51b81526004018080602001828103825283818151815260200191508051906020019080838360005b83811015614a99578181015183820152602001614a81565b50505050905090810190601f168015614ac65780820380516001836020036101000a031916815260200191505b509250505060405180910390fd5b506000838581614ae057fe5b0495945050505050565b604080516001600160a01b038416602482015260448082018490528251808303909101815260649091019091526020810180516001600160e01b031663a9059cbb60e01b17905261260690849061526a565b6003546000908590606090614b609061010090046001600160a01b0316878761531b565b90506060826001600160a01b0316631f00ca7486846040518363ffffffff1660e01b81526004018083815260200180602001828103825283818151815260200191508051906020019060200280838360005b83811015614bca578181015183820152602001614bb2565b50505050905001935050505060006040518083038186803b158015614bee57600080fd5b505afa158015614c02573d6000803e3d6000fd5b505050506040513d6000823e601f3d908101601f191682016040526020811015614c2b57600080fd5b8101908080516040519392919084600160201b821115614c4a57600080fd5b908301906020820185811115614c5f57600080fd5b82518660208202830111600160201b82111715614c7b57600080fd5b82525081516020918201928201910280838360005b83811015614ca8578181015183820152602001614c90565b50505050905001604052505050905080600081518110614cc457fe5b60200260200101519350505050949350505050565b60006001600160a01b03841615614cf757614cf78486600019615485565b6001600160a01b03831615614d1357614d138386600019615485565b846060614d2182878761531b565b905060606001600160a01b038716614eab57826001600160a01b0316637ff36ab5866000853042601e016040518663ffffffff1660e01b81526004018085815260200180602001846001600160a01b03168152602001838152602001828103825285818151815260200191508051906020019060200280838360005b83811015614db5578181015183820152602001614d9d565b50505050905001955050505050506000604051808303818588803b158015614ddc57600080fd5b505af1158015614df0573d6000803e3d6000fd5b50505050506040513d6000823e601f3d908101601f191682016040526020811015614e1a57600080fd5b8101908080516040519392919084600160201b821115614e3957600080fd5b908301906020820185811115614e4e57600080fd5b82518660208202830111600160201b82111715614e6a57600080fd5b82525081516020918201928201910280838360005b83811015614e97578181015183820152602001614e7f565b505050509050016040525050509050615122565b6001600160a01b038616614fa757826001600160a01b03166318cbafe5866000853042601e016040518663ffffffff1660e01b81526004018086815260200185815260200180602001846001600160a01b03168152602001838152602001828103825285818151815260200191508051906020019060200280838360005b83811015614f41578181015183820152602001614f29565b505050509050019650505050505050600060405180830381600087803b158015614f6a57600080fd5b505af1158015614f7e573d6000803e3d6000fd5b505050506040513d6000823e601f3d908101601f191682016040526020811015614e1a57600080fd5b826001600160a01b03166338ed1739866000853042601e016040518663ffffffff1660e01b81526004018086815260200185815260200180602001846001600160a01b03168152602001838152602001828103825285818151815260200191508051906020019060200280838360005b8381101561502f578181015183820152602001615017565b505050509050019650505050505050600060405180830381600087803b15801561505857600080fd5b505af115801561506c573d6000803e3d6000fd5b505050506040513d6000823e601f3d908101601f19168201604052602081101561509557600080fd5b8101908080516040519392919084600160201b8211156150b457600080fd5b9083019060208201858111156150c957600080fd5b82518660208202830111600160201b821117156150e557600080fd5b82525081516020918201928201910280838360005b838110156151125781810151838201526020016150fa565b5050505090500160405250505090505b856001600160a01b0316876001600160a01b03167ffa2dda1cc1b86e41239702756b13effbc1a092b5c57e3ad320fbe4f3b13fe2358360008151811061516457fe5b60200260200101518460018651038151811061517c57fe5b6020026020010151604051808381526020018281526020019250505060405180910390a380600182510381518110614cc457fe5b600081848411156152025760405162461bcd60e51b8152602060048201818152835160248401528351909283926044909101919085019080838360008315614a99578181015183820152602001614a81565b505050900390565b604080516001600160a01b0380861660248301528416604482015260648082018490528251808303909101815260849091019091526020810180516001600160e01b03166323b872dd60e01b17905261526490859061526a565b50505050565b60606152bf826040518060400160405280602081526020017f5361666545524332303a206c6f772d6c6576656c2063616c6c206661696c6564815250856001600160a01b03166155de9092919063ffffffff16565b805190915015612606578080602001905160208110156152de57600080fd5b50516126065760405162461bcd60e51b815260040180806020018281038252602a815260200180615a69602a913960400191505060405180910390fd5b6040805160028082526060808301845292869291906020830190803683370190505091506001600160a01b0384161561535457836153ba565b806001600160a01b031663ad5c46486040518163ffffffff1660e01b815260040160206040518083038186803b15801561538d57600080fd5b505afa1580156153a1573d6000803e3d6000fd5b505050506040513d60208110156153b757600080fd5b50515b826000815181106153c757fe5b6001600160a01b0392831660209182029290920101528316156153ea5782615450565b806001600160a01b031663ad5c46486040518163ffffffff1660e01b815260040160206040518083038186803b15801561542357600080fd5b505afa158015615437573d6000803e3d6000fd5b505050506040513d602081101561544d57600080fd5b50515b8260018151811061545d57fe5b60200260200101906001600160a01b031690816001600160a01b031681525050509392505050565b604080516001600160a01b038481166024830152604480830185905283518084039091018152606490920183526020820180516001600160e01b031663095ea7b360e01b178152925182516000946060949389169392918291908083835b602083106155025780518252601f1990920191602091820191016154e3565b6001836020036101000a0380198251168184511680821785525050505050509050019150506000604051808303816000865af19150503d8060008114615564576040519150601f19603f3d011682016040523d82523d6000602084013e615569565b606091505b5091509150818015615597575080511580615597575080806020019051602081101561559457600080fd5b50515b6155d7576040805162461bcd60e51b815260206004820152600c60248201526b2173616665417070726f766560a01b604482015290519081900360640190fd5b5050505050565b60606155ed84846000856155f5565b949350505050565b6060824710156156365760405162461bcd60e51b81526004018080602001828103825260268152602001806159756026913960400191505060405180910390fd5b61563f85615751565b615690576040805162461bcd60e51b815260206004820152601d60248201527f416464726573733a2063616c6c20746f206e6f6e2d636f6e7472616374000000604482015290519081900360640190fd5b60006060866001600160a01b031685876040518082805190602001908083835b602083106156cf5780518252601f1990920191602091820191016156b0565b6001836020036101000a03801982511681845116808217855250505050505090500191505060006040518083038185875af1925050503d8060008114615731576040519150601f19603f3d011682016040523d82523d6000602084013e615736565b606091505b5091509150615746828286615757565b979650505050505050565b3b151590565b60608315615766575081612db8565b8251156157765782518084602001fd5b60405162461bcd60e51b8152602060048201818152845160248401528451859391928392604401919085019080838360008315614a99578181015183820152602001614a81565b6040518060400160405280600290602082028036833750919291505056fe5265656e7472616e637947756172643a207265656e7472616e742063616c6c007769746864726177426f72726f773a206c657373207468616e206d617463682074696d6577697468647261774c656e643a20776974686472617720616d6f756e74206973207a65726f637265617465506f6f6c3a656e642074696d65206772617465207468616e20736574746c652074696d654f776e61626c653a206e6577206f776e657220697320746865207a65726f20616464726573736465706f7369744c656e643a20746865207175616e74697479206578636565647320746865206c696d69747769746864726177426f72726f773a20776974686472617720616d6f756e74206973207a65726f77697468647261774c656e643a206c657373207468616e206d617463682074696d655374616b6520686173206265656e2073757370656e64656400000000000000006465706f736974426f72726f773a206465706f73697420616d6f756e74206973207a65726f6c69717569646174653a20706f6f6c207374617465206d75737420626520657865637574696f6e416464726573733a20696e73756666696369656e742062616c616e636520666f722063616c6c73746174653a206e6f74206d6174636820616e6420756e646f6e65000000000073746174653a20506f6f6c20737461747573206973206e6f7420657175616c20746f206d61746368536166654d6174683a206d756c7469706c69636174696f6e206f766572666c6f774f776e61626c653a2063616c6c6572206973206e6f7420746865206f776e65726465706f7369744c656e643a206c657373207468616e206d696e20616d6f756e7466696e6973683a20706f6f6c207374617465206d75737420626520657865637574696f6e5361666545524332303a204552433230206f7065726174696f6e20646964206e6f7420737563636565647769746864726177426f72726f773a206c657373207468616e20656e642074696d65a26469706673582212209d7819bef349641984e4e8448a3005bec2402fd3f37e4bc63118d0273742f0e164736f6c634300060c0033",
  "linkReferences": {},
  "deployedLinkReferences": {}
}