{
  "_format": "hh-sol-artifact-1",
  "contractName": "PledgePool",
  "sourceName": "contracts/pledge/PledgePool.sol",
  "abi": [
    {
      "inputs": [
        {
          "internalType": "address",
          "name": "_oracle",
          "type": "address"
        },
        {
          "internalType": "address",
          "name": "_swapRouter",
          "type": "address"
        },
        {
          "internalType": "address payable",
          "name": "_feeAddress",
          "type": "address"
        }
      ],
      "stateMutability": "nonpayable",
      "type": "constructor"
    },
    {
      "anonymous": false,
      "inputs": [
        {
          "indexed": true,
          "internalType": "address",
          "name": "from",
          "type": "address"
        },
        {
          "indexed": true,
          "internalType": "address",
          "name": "token",
          "type": "address"
        },
        {
          "indexed": false,
          "internalType": "uint256",
          "name": "amount",
          "type": "uint256"
        }
      ],
      "name": "ClaimBorrow",
      "type": "event"
    },
    {
      "anonymous": false,
      "inputs": [
        {
          "indexed": true,
          "internalType": "address",
          "name": "from",
          "type": "address"
        },
        {
          "indexed": true,
          "internalType": "address",
          "name": "token",
          "type": "address"
        },
        {
          "indexed": false,
          "internalType": "uint256",
          "name": "amount",
          "type": "uint256"
        }
      ],
      "name": "ClaimLend",
      "type": "event"
    },
    {
      "anonymous": false,
      "inputs": [
        {
          "indexed": true,
          "internalType": "address",
          "name": "from",
          "type": "address"
        },
        {
          "indexed": true,
          "internalType": "address",
          "name": "token",
          "type": "address"
        },
        {
          "indexed": false,
          "internalType": "uint256",
          "name": "amount",
          "type": "uint256"
        },
        {
          "indexed": false,
          "internalType": "uint256",
          "name": "mintAmount",
          "type": "uint256"
        }
      ],
      "name": "DepositBorrow",
      "type": "event"
    },
    {
      "anonymous": false,
      "inputs": [
        {
          "indexed": true,
          "internalType": "address",
          "name": "from",
          "type": "address"
        },
        {
          "indexed": true,
          "internalType": "address",
          "name": "token",
          "type": "address"
        },
        {
          "indexed": false,
          "internalType": "uint256",
          "name": "amount",
          "type": "uint256"
        },
        {
          "indexed": false,
          "internalType": "uint256",
          "name": "mintAmount",
          "type": "uint256"
        }
      ],
      "name": "DepositLend",
      "type": "event"
    },
    {
      "anonymous": false,
      "inputs": [
        {
          "indexed": true,
          "internalType": "address",
          "name": "from",
          "type": "address"
        },
        {
          "indexed": true,
          "internalType": "address",
          "name": "token",
          "type": "address"
        },
        {
          "indexed": false,
          "internalType": "uint256",
          "name": "amount",
          "type": "uint256"
        }
      ],
      "name": "EmergencyBorrowWithdrawal",
      "type": "event"
    },
    {
      "anonymous": false,
      "inputs": [
        {
          "indexed": true,
          "internalType": "address",
          "name": "from",
          "type": "address"
        },
        {
          "indexed": true,
          "internalType": "address",
          "name": "token",
          "type": "address"
        },
        {
          "indexed": false,
          "internalType": "uint256",
          "name": "amount",
          "type": "uint256"
        }
      ],
      "name": "EmergencyLendWithdrawal",
      "type": "event"
    },
    {
      "anonymous": false,
      "inputs": [
        {
          "indexed": true,
          "internalType": "address",
          "name": "previousOwner",
          "type": "address"
        },
        {
          "indexed": true,
          "internalType": "address",
          "name": "newOwner",
          "type": "address"
        }
      ],
      "name": "OwnershipTransferred",
      "type": "event"
    },
    {
      "anonymous": false,
      "inputs": [
        {
          "indexed": true,
          "internalType": "address",
          "name": "recieptor",
          "type": "address"
        },
        {
          "indexed": true,
          "internalType": "address",
          "name": "token",
          "type": "address"
        },
        {
          "indexed": false,
          "internalType": "uint256",
          "name": "amount",
          "type": "uint256"
        }
      ],
      "name": "Redeem",
      "type": "event"
    },
    {
      "anonymous": false,
      "inputs": [
        {
          "indexed": true,
          "internalType": "address",
          "name": "from",
          "type": "address"
        },
        {
          "indexed": true,
          "internalType": "address",
          "name": "token",
          "type": "address"
        },
        {
          "indexed": false,
          "internalType": "uint256",
          "name": "refund",
          "type": "uint256"
        }
      ],
      "name": "RefundBorrow",
      "type": "event"
    },
    {
      "anonymous": false,
      "inputs": [
        {
          "indexed": true,
          "internalType": "address",
          "name": "from",
          "type": "address"
        },
        {
          "indexed": true,
          "internalType": "address",
          "name": "token",
          "type": "address"
        },
        {
          "indexed": false,
          "internalType": "uint256",
          "name": "refund",
          "type": "uint256"
        }
      ],
      "name": "RefundLend",
      "type": "event"
    },
    {
      "anonymous": false,
      "inputs": [
        {
          "indexed": true,
          "internalType": "address",
          "name": "fromCoin",
          "type": "address"
        },
        {
          "indexed": true,
          "internalType": "address",
          "name": "toCoin",
          "type": "address"
        },
        {
          "indexed": false,
          "internalType": "uint256",
          "name": "fromValue",
          "type": "uint256"
        },
        {
          "indexed": false,
          "internalType": "uint256",
          "name": "toValue",
          "type": "uint256"
        }
      ],
      "name": "Swap",
      "type": "event"
    },
    {
      "anonymous": false,
      "inputs": [
        {
          "indexed": true,
          "internalType": "address",
          "name": "from",
          "type": "address"
        },
        {
          "indexed": true,
          "internalType": "address",
          "name": "token",
          "type": "address"
        },
        {
          "indexed": false,
          "internalType": "uint256",
          "name": "amount",
          "type": "uint256"
        },
        {
          "indexed": false,
          "internalType": "uint256",
          "name": "burnAmount",
          "type": "uint256"
        }
      ],
      "name": "WithdrawBorrow",
      "type": "event"
    },
    {
      "anonymous": false,
      "inputs": [
        {
          "indexed": true,
          "internalType": "address",
          "name": "from",
          "type": "address"
        },
        {
          "indexed": true,
          "internalType": "address",
          "name": "token",
          "type": "address"
        },
        {
          "indexed": false,
          "internalType": "uint256",
          "name": "amount",
          "type": "uint256"
        },
        {
          "indexed": false,
          "internalType": "uint256",
          "name": "burnAmount",
          "type": "uint256"
        }
      ],
      "name": "WithdrawLend",
      "type": "event"
    },
    {
      "inputs": [],
      "name": "borrowFee",
      "outputs": [
        {
          "internalType": "uint256",
          "name": "",
          "type": "uint256"
        }
      ],
      "stateMutability": "view",
      "type": "function"
    },
    {
      "inputs": [
        {
          "internalType": "uint256",
          "name": "_pid",
          "type": "uint256"
        }
      ],
      "name": "checkoutFinish",
      "outputs": [
        {
          "internalType": "bool",
          "name": "",
          "type": "bool"
        }
      ],
      "stateMutability": "view",
      "type": "function"
    },
    {
      "inputs": [
        {
          "internalType": "uint256",
          "name": "_pid",
          "type": "uint256"
        }
      ],
      "name": "checkoutLiquidate",
      "outputs": [
        {
          "internalType": "bool",
          "name": "",
          "type": "bool"
        }
      ],
      "stateMutability": "view",
      "type": "function"
    },
    {
      "inputs": [
        {
          "internalType": "uint256",
          "name": "_pid",
          "type": "uint256"
        }
      ],
      "name": "checkoutSettle",
      "outputs": [
        {
          "internalType": "bool",
          "name": "",
          "type": "bool"
        }
      ],
      "stateMutability": "view",
      "type": "function"
    },
    {
      "inputs": [
        {
          "internalType": "uint256",
          "name": "_pid",
          "type": "uint256"
        }
      ],
      "name": "claimBorrow",
      "outputs": [],
      "stateMutability": "nonpayable",
      "type": "function"
    },
    {
      "inputs": [
        {
          "internalType": "uint256",
          "name": "_pid",
          "type": "uint256"
        }
      ],
      "name": "claimLend",
      "outputs": [],
      "stateMutability": "nonpayable",
      "type": "function"
    },
    {
      "inputs": [
        {
          "internalType": "uint256",
          "name": "_settleTime",
          "type": "uint256"
        },
        {
          "internalType": "uint256",
          "name": "_endTime",
          "type": "uint256"
        },
        {
          "internalType": "uint64",
          "name": "_interestRate",
          "type": "uint64"
        },
        {
          "internalType": "uint256",
          "name": "_maxSupply",
          "type": "uint256"
        },
        {
          "internalType": "uint256",
          "name": "_martgageRate",
          "type": "uint256"
        },
        {
          "internalType": "address",
          "name": "_lendToken",
          "type": "address"
        },
        {
          "internalType": "address",
          "name": "_borrowToken",
          "type": "address"
        },
        {
          "internalType": "address",
          "name": "_spToken",
          "type": "address"
        },
        {
          "internalType": "address",
          "name": "_jpToken",
          "type": "address"
        },
        {
          "internalType": "uint256",
          "name": "_autoLiquidateThreshold",
          "type": "uint256"
        }
      ],
      "name": "createPoolInfo",
      "outputs": [],
      "stateMutability": "nonpayable",
      "type": "function"
    },
    {
      "inputs": [
        {
          "internalType": "uint256",
          "name": "_pid",
          "type": "uint256"
        },
        {
          "internalType": "uint256",
          "name": "_stakeAmount",
          "type": "uint256"
        },
        {
          "internalType": "uint256",
          "name": "_deadLine",
          "type": "uint256"
        }
      ],
      "name": "depositBorrow",
      "outputs": [],
      "stateMutability": "payable",
      "type": "function"
    },
    {
      "inputs": [
        {
          "internalType": "uint256",
          "name": "_pid",
          "type": "uint256"
        },
        {
          "internalType": "uint256",
          "name": "_stakeAmount",
          "type": "uint256"
        }
      ],
      "name": "depositLend",
      "outputs": [],
      "stateMutability": "payable",
      "type": "function"
    },
    {
      "inputs": [
        {
          "internalType": "uint256",
          "name": "_pid",
          "type": "uint256"
        }
      ],
      "name": "emergencyBorrowWithdrawal",
      "outputs": [],
      "stateMutability": "nonpayable",
      "type": "function"
    },
    {
      "inputs": [
        {
          "internalType": "uint256",
          "name": "_pid",
          "type": "uint256"
        }
      ],
      "name": "emergencyLendWithdrawal",
      "outputs": [],
      "stateMutability": "nonpayable",
      "type": "function"
    },
    {
      "inputs": [],
      "name": "feeAddress",
      "outputs": [
        {
          "internalType": "address payable",
          "name": "",
          "type": "address"
        }
      ],
      "stateMutability": "view",
      "type": "function"
    },
    {
      "inputs": [
        {
          "internalType": "uint256",
          "name": "_pid",
          "type": "uint256"
        }
      ],
      "name": "finish",
      "outputs": [],
      "stateMutability": "nonpayable",
      "type": "function"
    },
    {
      "inputs": [
        {
          "internalType": "uint256",
          "name": "_pid",
          "type": "uint256"
        }
      ],
      "name": "getPoolState",
      "outputs": [
        {
          "internalType": "uint256",
          "name": "",
          "type": "uint256"
        }
      ],
      "stateMutability": "view",
      "type": "function"
    },
    {
      "inputs": [
        {
          "internalType": "uint256",
          "name": "_pid",
          "type": "uint256"
        }
      ],
      "name": "getUnderlyingPriceView",
      "outputs": [
        {
          "internalType": "uint256[2]",
          "name": "",
          "type": "uint256[2]"
        }
      ],
      "stateMutability": "view",
      "type": "function"
    },
    {
      "inputs": [],
      "name": "globalPaused",
      "outputs": [
        {
          "internalType": "bool",
          "name": "",
          "type": "bool"
        }
      ],
      "stateMutability": "view",
      "type": "function"
    },
    {
      "inputs": [],
      "name": "lendFee",
      "outputs": [
        {
          "internalType": "uint256",
          "name": "",
          "type": "uint256"
        }
      ],
      "stateMutability": "view",
      "type": "function"
    },
    {
      "inputs": [
        {
          "internalType": "uint256",
          "name": "_pid",
          "type": "uint256"
        }
      ],
      "name": "liquidate",
      "outputs": [],
      "stateMutability": "nonpayable",
      "type": "function"
    },
    {
      "inputs": [],
      "name": "minAmount",
      "outputs": [
        {
          "internalType": "uint256",
          "name": "",
          "type": "uint256"
        }
      ],
      "stateMutability": "view",
      "type": "function"
    },
    {
      "inputs": [],
      "name": "oracle",
      "outputs": [
        {
          "internalType": "contract IBscPledgeOracle",
          "name": "",
          "type": "address"
        }
      ],
      "stateMutability": "view",
      "type": "function"
    },
    {
      "inputs": [],
      "name": "owner",
      "outputs": [
        {
          "internalType": "address",
          "name": "",
          "type": "address"
        }
      ],
      "stateMutability": "view",
      "type": "function"
    },
    {
      "inputs": [
        {
          "internalType": "uint256",
          "name": "",
          "type": "uint256"
        }
      ],
      "name": "poolBaseInfo",
      "outputs": [
        {
          "internalType": "uint256",
          "name": "settleTime",
          "type": "uint256"
        },
        {
          "internalType": "uint256",
          "name": "endTime",
          "type": "uint256"
        },
        {
          "internalType": "uint256",
          "name": "interestRate",
          "type": "uint256"
        },
        {
          "internalType": "uint256",
          "name": "maxSupply",
          "type": "uint256"
        },
        {
          "internalType": "uint256",
          "name": "lendSupply",
          "type": "uint256"
        },
        {
          "internalType": "uint256",
          "name": "borrowSupply",
          "type": "uint256"
        },
        {
          "internalType": "uint256",
          "name": "martgageRate",
          "type": "uint256"
        },
        {
          "internalType": "address",
          "name": "lendToken",
          "type": "address"
        },
        {
          "internalType": "address",
          "name": "borrowToken",
          "type": "address"
        },
        {
          "internalType": "enum PledgePool.PoolState",
          "name": "state",
          "type": "uint8"
        },
        {
          "internalType": "contract IDebtToken",
          "name": "spCoin",
          "type": "address"
        },
        {
          "internalType": "contract IDebtToken",
          "name": "jpCoin",
          "type": "address"
        },
        {
          "internalType": "uint256",
          "name": "autoLiquidateThreshold",
          "type": "uint256"
        }
      ],
      "stateMutability": "view",
      "type": "function"
    },
    {
      "inputs": [
        {
          "internalType": "uint256",
          "name": "",
          "type": "uint256"
        }
      ],
      "name": "poolDataInfo",
      "outputs": [
        {
          "internalType": "uint256",
          "name": "settleAmountLend",
          "type": "uint256"
        },
        {
          "internalType": "uint256",
          "name": "settleAmountBorrow",
          "type": "uint256"
        },
        {
          "internalType": "uint256",
          "name": "finishAmountLend",
          "type": "uint256"
        },
        {
          "internalType": "uint256",
          "name": "finishAmountBorrow",
          "type": "uint256"
        },
        {
          "internalType": "uint256",
          "name": "liquidationAmounLend",
          "type": "uint256"
        },
        {
          "internalType": "uint256",
          "name": "liquidationAmounBorrow",
          "type": "uint256"
        }
      ],
      "stateMutability": "view",
      "type": "function"
    },
    {
      "inputs": [],
      "name": "poolLength",
      "outputs": [
        {
          "internalType": "uint256",
          "name": "",
          "type": "uint256"
        }
      ],
      "stateMutability": "view",
      "type": "function"
    },
    {
      "inputs": [
        {
          "internalType": "uint256",
          "name": "_pid",
          "type": "uint256"
        }
      ],
      "name": "refundBorrow",
      "outputs": [],
      "stateMutability": "nonpayable",
      "type": "function"
    },
    {
      "inputs": [
        {
          "internalType": "uint256",
          "name": "_pid",
          "type": "uint256"
        }
      ],
      "name": "refundLend",
      "outputs": [],
      "stateMutability": "nonpayable",
      "type": "function"
    },
    {
      "inputs": [],
      "name": "renounceOwnership",
      "outputs": [],
      "stateMutability": "nonpayable",
      "type": "function"
    },
    {
      "inputs": [
        {
          "internalType": "uint256",
          "name": "_lendFee",
          "type": "uint256"
        },
        {
          "internalType": "uint256",
          "name": "_borrowFee",
          "type": "uint256"
        }
      ],
      "name": "setFee",
      "outputs": [],
      "stateMutability": "nonpayable",
      "type": "function"
    },
    {
      "inputs": [
        {
          "internalType": "address payable",
          "name": "_feeAddress",
          "type": "address"
        }
      ],
      "name": "setFeeAddress",
      "outputs": [],
      "stateMutability": "nonpayable",
      "type": "function"
    },
    {
      "inputs": [
        {
          "internalType": "uint256",
          "name": "_minAmount",
          "type": "uint256"
        }
      ],
      "name": "setMinAmount",
      "outputs": [],
      "stateMutability": "nonpayable",
      "type": "function"
    },
    {
      "inputs": [],
      "name": "setPause",
      "outputs": [],
      "stateMutability": "nonpayable",
      "type": "function"
    },
    {
      "inputs": [
        {
          "internalType": "address",
          "name": "_swapRouter",
          "type": "address"
        }
      ],
      "name": "setSwapRouterAddress",
      "outputs": [],
      "stateMutability": "nonpayable",
      "type": "function"
    },
    {
      "inputs": [
        {
          "internalType": "uint256",
          "name": "_pid",
          "type": "uint256"
        }
      ],
      "name": "settle",
      "outputs": [],
      "stateMutability": "nonpayable",
      "type": "function"
    },
    {
      "inputs": [],
      "name": "swapRouter",
      "outputs": [
        {
          "internalType": "address",
          "name": "",
          "type": "address"
        }
      ],
      "stateMutability": "view",
      "type": "function"
    },
    {
      "inputs": [
        {
          "internalType": "address",
          "name": "newOwner",
          "type": "address"
        }
      ],
      "name": "transferOwnership",
      "outputs": [],
      "stateMutability": "nonpayable",
      "type": "function"
    },
    {
      "inputs": [
        {
          "internalType": "uint256",
          "name": "_pid",
          "type": "uint256"
        },
        {
          "internalType": "uint64",
          "name": "_interestRate",
          "type": "uint64"
        },
        {
          "internalType": "uint256",
          "name": "_maxSupply",
          "type": "uint256"
        },
        {
          "internalType": "uint256",
          "name": "_autoLiquidateThreshold",
          "type": "uint256"
        }
      ],
      "name": "updatePoolBaseInfo",
      "outputs": [],
      "stateMutability": "nonpayable",
      "type": "function"
    },
    {
      "inputs": [
        {
          "internalType": "address",
          "name": "",
          "type": "address"
        },
        {
          "internalType": "uint256",
          "name": "",
          "type": "uint256"
        }
      ],
      "name": "userBorrowInfo",
      "outputs": [
        {
          "internalType": "uint256",
          "name": "stakeAmount",
          "type": "uint256"
        },
        {
          "internalType": "uint256",
          "name": "refundAmount",
          "type": "uint256"
        },
        {
          "internalType": "bool",
          "name": "hasNoRefund",
          "type": "bool"
        },
        {
          "internalType": "bool",
          "name": "hasNoClaim",
          "type": "bool"
        }
      ],
      "stateMutability": "view",
      "type": "function"
    },
    {
      "inputs": [
        {
          "internalType": "address",
          "name": "",
          "type": "address"
        },
        {
          "internalType": "uint256",
          "name": "",
          "type": "uint256"
        }
      ],
      "name": "userLendInfo",
      "outputs": [
        {
          "internalType": "uint256",
          "name": "stakeAmount",
          "type": "uint256"
        },
        {
          "internalType": "uint256",
          "name": "refundAmount",
          "type": "uint256"
        },
        {
          "internalType": "bool",
          "name": "hasNoRefund",
          "type": "bool"
        },
        {
          "internalType": "bool",
          "name": "hasNoClaim",
          "type": "bool"
        }
      ],
      "stateMutability": "view",
      "type": "function"
    },
    {
      "inputs": [
        {
          "internalType": "uint256",
          "name": "_pid",
          "type": "uint256"
        },
        {
          "internalType": "uint256",
          "name": "_jpAmount",
          "type": "uint256"
        },
        {
          "internalType": "uint256",
          "name": "_deadLine",
          "type": "uint256"
        }
      ],
      "name": "withdrawBorrow",
      "outputs": [],
      "stateMutability": "nonpayable",
      "type": "function"
    },
    {
      "inputs": [
        {
          "internalType": "uint256",
          "name": "_pid",
          "type": "uint256"
        },
        {
          "internalType": "uint256",
          "name": "_spAmount",
          "type": "uint256"
        }
      ],
      "name": "withdrawLend",
      "outputs": [],
      "stateMutability": "nonpayable",
      "type": "function"
    }
  ],
  "bytecode": "0x608060405268056bc75e2d631000006002556003805460ff191690553480156200002857600080fd5b5060405162005a9238038062005a92833981810160405260608110156200004e57600080fd5b5080516020820151604090920151600160009081559192916200007062000119565b600180546001600160a01b0319166001600160a01b038316908117909155604051919250906000907f8be0079c531659141344cd1fd0a4f28419497f9722a3daafe3b4186f6b6457e0908290a350600580546001600160a01b039485166001600160a01b0319918216179091556003805493851661010002610100600160a81b03199094169390931790925560048054919093169116179055600060068190556007556200011d565b3390565b615965806200012d6000396000f3fe60806040526004361061023b5760003560e01c80638705fcd41161012e578063c31c9c07116100ab578063e271fa0c1161006f578063e271fa0c146108fb578063e626648a14610925578063ebded0171461093a578063eec8d506146109b8578063f2fde38b146109e25761023b565b8063c31c9c071461080c578063c933375614610821578063c9bf047c14610886578063d353a1cb146108bc578063d431b1ac146108e65761023b565b80639b2cb5d8116100f25780639b2cb5d814610740578063a62ff16414610755578063b15975171461077f578063bb176a64146107a9578063bf38b8f6146107e25761023b565b80638705fcd414610681578063897b0637146106b45780638da5cb5b146106de5780638df82800146106f357806390590da01461071d5761023b565b80635249961b116101bc5780636abd7f29116101805780636abd7f29146105bd5780636c42fed2146105e7578063715018a61461061157806373effaf1146106265780637dc0d1d01461066c5761023b565b80635249961b1461045957806352f7c9881461048c578063593f4cb7146104bc5780635a5a971e146104e557806361a552dc146105a85761023b565b80633ab4a445116102035780633ab4a4451461035e5780633c9fadc31461038857806341275358146103e9578063415f12401461041a5780634aea0aec146104445761023b565b80630177b68c14610240578063081e3eda1461029d57806308e7305f146102c457806314c090cc1461030257806338f2aa761461032c575b600080fd5b34801561024c57600080fd5b5061026a6004803603602081101561026357600080fd5b5035610a15565b604080519687526020870195909552858501939093526060850191909152608084015260a0830152519081900360c00190f35b3480156102a957600080fd5b506102b2610a58565b60408051918252519081900360200190f35b3480156102d057600080fd5b506102ee600480360360208110156102e757600080fd5b5035610a5e565b604080519115158252519081900360200190f35b34801561030e57600080fd5b506102ee6004803603602081101561032557600080fd5b5035610b37565b34801561033857600080fd5b5061035c6004803603604081101561034f57600080fd5b5080359060200135610b61565b005b34801561036a57600080fd5b5061035c6004803603602081101561038157600080fd5b5035610ff8565b34801561039457600080fd5b506103c1600480360360408110156103ab57600080fd5b506001600160a01b038135169060200135611475565b6040805194855260208501939093529015158383015215156060830152519081900360800190f35b3480156103f557600080fd5b506103fe6114ad565b604080516001600160a01b039092168252519081900360200190f35b34801561042657600080fd5b5061035c6004803603602081101561043d57600080fd5b50356114bc565b34801561045057600080fd5b506102b2611709565b34801561046557600080fd5b5061035c6004803603602081101561047c57600080fd5b50356001600160a01b031661170f565b34801561049857600080fd5b5061035c600480360360408110156104af57600080fd5b5080359060200135611799565b61035c600480360360608110156104d257600080fd5b5080359060208101359060400135611806565b3480156104f157600080fd5b5061050f6004803603602081101561050857600080fd5b5035611b15565b604051808e81526020018d81526020018c81526020018b81526020018a8152602001898152602001888152602001876001600160a01b03168152602001866001600160a01b0316815260200185600481111561056757fe5b8152602001846001600160a01b03168152602001836001600160a01b031681526020018281526020019d505050505050505050505050505060405180910390f35b3480156105b457600080fd5b506102ee611ba1565b3480156105c957600080fd5b506102ee600480360360208110156105e057600080fd5b5035611baa565b3480156105f357600080fd5b5061035c6004803603602081101561060a57600080fd5b5035611bd4565b34801561061d57600080fd5b5061035c612009565b34801561063257600080fd5b5061035c6004803603608081101561064957600080fd5b5080359067ffffffffffffffff60208201351690604081013590606001356120b5565b34801561067857600080fd5b506103fe6121c9565b34801561068d57600080fd5b5061035c600480360360208110156106a457600080fd5b50356001600160a01b03166121d8565b3480156106c057600080fd5b5061035c600480360360208110156106d757600080fd5b503561225c565b3480156106ea57600080fd5b506103fe6122c3565b3480156106ff57600080fd5b5061035c6004803603602081101561071657600080fd5b50356122d2565b61035c6004803603604081101561073357600080fd5b508035906020013561256e565b34801561074c57600080fd5b506102b261289e565b34801561076157600080fd5b5061035c6004803603602081101561077857600080fd5b50356128a4565b34801561078b57600080fd5b506102b2600480360360208110156107a257600080fd5b5035612cf4565b3480156107b557600080fd5b506103c1600480360360408110156107cc57600080fd5b506001600160a01b038135169060200135612d38565b3480156107ee57600080fd5b5061035c6004803603602081101561080557600080fd5b5035612d70565b34801561081857600080fd5b506103fe613046565b34801561082d57600080fd5b5061084b6004803603602081101561084457600080fd5b503561305a565b6040518082600260200280838360005b8381101561087357818101518382015260200161085b565b5050505090500191505060405180910390f35b34801561089257600080fd5b5061035c600480360360608110156108a957600080fd5b5080359060208101359060400135613291565b3480156108c857600080fd5b5061035c600480360360208110156108df57600080fd5b5035613748565b3480156108f257600080fd5b5061035c613a3f565b34801561090757600080fd5b5061035c6004803603602081101561091e57600080fd5b5035613ab5565b34801561093157600080fd5b506102b2613d8d565b34801561094657600080fd5b5061035c600480360361014081101561095e57600080fd5b5080359060208101359067ffffffffffffffff604082013516906060810135906080810135906001600160a01b0360a082013581169160c081013582169160e0820135811691610100810135909116906101200135613d93565b3480156109c457600080fd5b5061035c600480360360208110156109db57600080fd5b5035614104565b3480156109ee57600080fd5b5061035c60048036036020811015610a0557600080fd5b50356001600160a01b031661453e565b60098181548110610a2257fe5b60009182526020909120600690910201805460018201546002830154600384015460048501546005909501549395509193909286565b60085490565b60008060088381548110610a6e57fe5b90600052602060002090600c02019050600060098481548110610a8d57fe5b90600052602060002090600602019050610aa5615680565b610aae8561305a565b90506000610af8670de0b6b3a7640000610ae7610aed85855b6020020151610ae7670de0b6b3a76400008860015b602002015190614641565b906146a3565b600187015490614641565b90506000610b2a6305f5e100610ae7610b2288600b01546305f5e1006146e590919063ffffffff16565b875490614641565b9091109695505050505050565b600060088281548110610b4657fe5b90600052602060002090600c02016000015442119050919050565b60026000541415610ba7576040805162461bcd60e51b815260206004820152601f602482015260008051602061569f833981519152604482015290519081900360640190fd5b600260005560035460ff1615610bf2576040805162461bcd60e51b815260206004820152601860248201526000805160206157cc833981519152604482015290519081900360640190fd5b81600260088281548110610c0257fe5b90600052602060002090600c020160080160149054906101000a900460ff166004811115610c2c57fe5b1480610c6e5750600360088281548110610c4257fe5b90600052602060002090600c020160080160149054906101000a900460ff166004811115610c6c57fe5b145b610cbb576040805162461bcd60e51b815260206004820152601960248201527839ba30ba329d103334b734b9b4103634b8bab4b230ba34b7b760391b604482015290519081900360640190fd5b600060088481548110610cca57fe5b90600052602060002090600c02019050600060098581548110610ce957fe5b9060005260206000209060060201905060008411610d385760405162461bcd60e51b81526004018080602001828103825260258152602001806156e36025913960400191505060405180910390fd5b600982015460408051632770a7eb60e21b81523360048201526024810187905290516001600160a01b0390921691639dc29fac9160448082019260009290919082900301818387803b158015610d8d57600080fd5b505af1158015610da1573d6000803e3d6000fd5b505050506000610dd56305f5e100610ae7610dcd6305f5e10087600201546146e590919063ffffffff16565b855490614641565b90506000610def82610ae788670de0b6b3a7640000614641565b905060026008850154600160a01b900460ff166004811115610e0d57fe5b1415610efa5783600101544211610e6b576040805162461bcd60e51b815260206004820181905260248201527f77697468647261774c656e643a206c657373207468616e20656e642074696d65604482015290519081900360640190fd5b6000610e90670de0b6b3a7640000610ae784876002015461464190919063ffffffff16565b6007860154909150610ead9033906001600160a01b03168361473f565b600785015460408051838152602081018a905281516001600160a01b039093169233927f690f32ccf3e832d5ff975d781039bc2affebee9c973939c9b710091b87954c9d928290030190a3505b60036008850154600160a01b900460ff166004811115610f1657fe5b1415610fea5783544211610f5b5760405162461bcd60e51b81526004018080602001828103825260228152602001806157aa6022913960400191505060405180910390fd5b6000610f80670de0b6b3a7640000610ae784876004015461464190919063ffffffff16565b6007860154909150610f9d9033906001600160a01b03168361473f565b600785015460408051838152602081018a905281516001600160a01b039093169233927f690f32ccf3e832d5ff975d781039bc2affebee9c973939c9b710091b87954c9d928290030190a3505b505060016000555050505050565b6002600054141561103e576040805162461bcd60e51b815260206004820152601f602482015260008051602061569f833981519152604482015290519081900360640190fd5b600260005560035460ff1615611089576040805162461bcd60e51b815260206004820152601860248201526000805160206157cc833981519152604482015290519081900360640190fd5b806008818154811061109757fe5b90600052602060002090600c02016000015442116110f4576040805162461bcd60e51b8152602060048201526015602482015274477265617465207468616e20746869732074696d6560581b604482015290519081900360640190fd5b8160016008828154811061110457fe5b90600052602060002090600c020160080160149054906101000a900460ff16600481111561112e57fe5b1480611170575060026008828154811061114457fe5b90600052602060002090600c020160080160149054906101000a900460ff16600481111561116e57fe5b145b806111b1575060036008828154811061118557fe5b90600052602060002090600c020160080160149054906101000a900460ff1660048111156111af57fe5b145b6111f0576040805162461bcd60e51b815260206004820152601b6024820152600080516020615837833981519152604482015290519081900360640190fd5b6000600884815481106111ff57fe5b90600052602060002090600c0201905060006009858154811061121e57fe5b60009182526020808320338452600a825260408085208a86529092529220805460069092029092019250611299576040805162461bcd60e51b815260206004820152601f60248201527f636c61696d426f72726f773a206e6f7420636c61696d206a705f746f6b656e00604482015290519081900360640190fd5b6002810154610100900460ff16156112f8576040805162461bcd60e51b815260206004820152601860248201527f636c61696d426f72726f773a20616761696e20636c61696d0000000000000000604482015290519081900360640190fd5b600061131d6305f5e100610ae78660060154866000015461464190919063ffffffff16565b905060006113488560050154610ae7670de0b6b3a7640000866000015461464190919063ffffffff16565b90506000611362670de0b6b3a7640000610ae78585614641565b600a870154604080516340c10f1960e01b81523360048201526024810184905290519293506001600160a01b03909116916340c10f199160448082019260009290919082900301818387803b1580156113ba57600080fd5b505af11580156113ce573d6000803e3d6000fd5b50508654600092506113ef9150670de0b6b3a764000090610ae79086614641565b600788015490915061140c9033906001600160a01b03168361473f565b60028501805461ff00191661010017905560088701546040805184815290516001600160a01b039092169133917f3ddafe3ebb4d0c818317027aabfa82dc9983942ceeb80523167e2de047b17fbd919081900360200190a3505060016000555050505050505050565b600a60209081526000928352604080842090915290825290208054600182015460029092015490919060ff8082169161010090041684565b6004546001600160a01b031681565b6114c46147f0565b6001600160a01b03166114d56122c3565b6001600160a01b03161461151e576040805162461bcd60e51b815260206004820181905260248201526000805160206158a0833981519152604482015290519081900360640190fd5b60006009828154811061152d57fe5b9060005260206000209060060201905060006008838154811061154c57fe5b90600052602060002090600c02019050806000015442116115b4576040805162461bcd60e51b815260206004820181905260248201527f6e6f772074696d65206973206c657373207468616e206d617463682074696d65604482015290519081900360640190fd5b6008810154600782015460028301546001600160a01b0392831692909116906000906115f6906305f5e10090610ae7906115ee90836146e5565b885490614641565b905060006116256305f5e100610ae761161e6305f5e1006006546146e590919063ffffffff16565b8590614641565b905060008061164b600360019054906101000a90046001600160a01b03168787866147f4565b915091508381111561169a5760006116638286614841565b60045460078a0154919250611685916001600160a01b0391821691168361473f565b61168f8282614841565b60048a0155506116a2565b600488018190555b60018801546000906116b49084614841565b60075460088a01549192506000916116d691906001600160a01b031684614883565b60058b0181905560088a01805491925060039160ff60a01b1916600160a01b835b02179055505050505050505050505050565b60065481565b6117176147f0565b6001600160a01b03166117286122c3565b6001600160a01b031614611771576040805162461bcd60e51b815260206004820181905260248201526000805160206158a0833981519152604482015290519081900360640190fd5b600380546001600160a01b0390921661010002610100600160a81b0319909216919091179055565b6117a16147f0565b6001600160a01b03166117b26122c3565b6001600160a01b0316146117fb576040805162461bcd60e51b815260206004820181905260248201526000805160206158a0833981519152604482015290519081900360640190fd5b600691909155600755565b6002600054141561184c576040805162461bcd60e51b815260206004820152601f602482015260008051602061569f833981519152604482015290519081900360640190fd5b600260005560035460ff1615611897576040805162461bcd60e51b815260206004820152601860248201526000805160206157cc833981519152604482015290519081900360640190fd5b82600881815481106118a557fe5b90600052602060002090600c0201600001544210611900576040805162461bcd60e51b81526020600482015260136024820152724c657373207468616e20746869732074696d6560681b604482015290519081900360640190fd5b8360006008828154811061191057fe5b90600052602060002090600c020160080160149054906101000a900460ff16600481111561193a57fe5b146119765760405162461bcd60e51b81526004018080602001828103825260288152602001806158576028913960400191505060405180910390fd5b82428110156119bd576040805162461bcd60e51b815260206004820152600e60248201526d1cdd185ad94e881156141254915160921b604482015290519081900360640190fd5b6000600887815481106119cc57fe5b60009182526020808320338452600a825260408085208c8652909252908320600c92909202016008810154909350909190611a10906001600160a01b0316896148cf565b905060008111611a515760405162461bcd60e51b81526004018080602001828103825260258152602001806157ec6025913960400191505060405180910390fd5b60028201805461ffff1916905560088301546001600160a01b0316611a97578154611a7c90346146e5565b82556005830154611a8d90346146e5565b6005840155611aba565b8154611aa390896146e5565b82556005830154611ab490896146e5565b60058401555b6008830154604080518a81526020810184905281516001600160a01b039093169233927f1d7b72e666a0b6217efe7cfa1b604ea5c7b39219563ce48b30c9da77045247a5928290030190a35050600160005550505050505050565b60088181548110611b2257fe5b60009182526020909120600c9091020180546001820154600283015460038401546004850154600586015460068701546007880154600889015460098a0154600a8b0154600b909b0154999b509799969895979496939592946001600160a01b039283169483831694600160a01b90930460ff1693918216929116908d565b60035460ff1681565b600060088281548110611bb957fe5b90600052602060002090600c02016001015442119050919050565b60026000541415611c1a576040805162461bcd60e51b815260206004820152601f602482015260008051602061569f833981519152604482015290519081900360640190fd5b600260005560035460ff1615611c65576040805162461bcd60e51b815260206004820152601860248201526000805160206157cc833981519152604482015290519081900360640190fd5b8060088181548110611c7357fe5b90600052602060002090600c0201600001544211611cd0576040805162461bcd60e51b8152602060048201526015602482015274477265617465207468616e20746869732074696d6560581b604482015290519081900360640190fd5b81600160088281548110611ce057fe5b90600052602060002090600c020160080160149054906101000a900460ff166004811115611d0a57fe5b1480611d4c5750600260088281548110611d2057fe5b90600052602060002090600c020160080160149054906101000a900460ff166004811115611d4a57fe5b145b80611d8d5750600360088281548110611d6157fe5b90600052602060002090600c020160080160149054906101000a900460ff166004811115611d8b57fe5b145b611dcc576040805162461bcd60e51b815260206004820152601b6024820152600080516020615837833981519152604482015290519081900360640190fd5b600060088481548110611ddb57fe5b90600052602060002090600c02019050600060098581548110611dfa57fe5b60009182526020808320338452600b825260408085208a86529092529220805460069092029092019250611e75576040805162461bcd60e51b815260206004820152601d60248201527f636c61696d4c656e643a206e6f7420636c61696d2073705f746f6b656e000000604482015290519081900360640190fd5b6002810154610100900460ff1615611ecd576040805162461bcd60e51b8152602060048201526016602482015275636c61696d4c656e643a20616761696e20636c61696d60501b604482015290519081900360640190fd5b60048301548154600091611eed91610ae790670de0b6b3a7640000614641565b90506000611f176305f5e100610ae7610b226305f5e10089600201546146e590919063ffffffff16565b90506000611f31670de0b6b3a7640000610ae78486614641565b6009870154604080516340c10f1960e01b81523360048201526024810184905290519293506001600160a01b03909116916340c10f199160448082019260009290919082900301818387803b158015611f8957600080fd5b505af1158015611f9d573d6000803e3d6000fd5b50505060028501805461ff0019166101001790555060088601546040805183815290516001600160a01b039092169133917f6f4dd2687b3c3bfa99d39742b01d6e0ad9604c48559791d5df4ff5df44b41dfd919081900360200190a35050600160005550505050505050565b6120116147f0565b6001600160a01b03166120226122c3565b6001600160a01b03161461206b576040805162461bcd60e51b815260206004820181905260248201526000805160206158a0833981519152604482015290519081900360640190fd5b6001546040516000916001600160a01b0316907f8be0079c531659141344cd1fd0a4f28419497f9722a3daafe3b4186f6b6457e0908390a3600180546001600160a01b0319169055565b6120bd6147f0565b6001600160a01b03166120ce6122c3565b6001600160a01b031614612117576040805162461bcd60e51b815260206004820181905260248201526000805160206158a0833981519152604482015290519081900360640190fd5b836008818154811061212557fe5b90600052602060002090600c0201600001544210612180576040805162461bcd60e51b81526020600482015260136024820152724c657373207468616e20746869732074696d6560681b604482015290519081900360640190fd5b60006008868154811061218f57fe5b6000918252602090912067ffffffffffffffff9096166002600c9092029096019081019590955550506003830191909155600b9091015550565b6005546001600160a01b031681565b6121e06147f0565b6001600160a01b03166121f16122c3565b6001600160a01b03161461223a576040805162461bcd60e51b815260206004820181905260248201526000805160206158a0833981519152604482015290519081900360640190fd5b600480546001600160a01b0319166001600160a01b0392909216919091179055565b6122646147f0565b6001600160a01b03166122756122c3565b6001600160a01b0316146122be576040805162461bcd60e51b815260206004820181905260248201526000805160206158a0833981519152604482015290519081900360640190fd5b600255565b6001546001600160a01b031690565b6122da6147f0565b6001600160a01b03166122eb6122c3565b6001600160a01b031614612334576040805162461bcd60e51b815260206004820181905260248201526000805160206158a0833981519152604482015290519081900360640190fd5b60006008828154811061234357fe5b90600052602060002090600c0201905060006009838154811061236257fe5b906000526020600020906006020190506008838154811061237f57fe5b90600052602060002090600c02016000015442116123e4576040805162461bcd60e51b815260206004820152601c60248201527f736574746c653a206c657373207468616e20736574746c6554696d6500000000604482015290519081900360640190fd5b60006008830154600160a01b900460ff16600481111561240057fe5b14612452576040805162461bcd60e51b815260206004820181905260248201527f736574746c653a20706f6f6c207374617465206d757374206265206d61746368604482015290519081900360640190fd5b6000826004015411801561246a575060008260050154115b1561254257612477615680565b6124808461305a565b905060006124a8670de0b6b3a7640000610ae761249d8585610ac7565b600588015490614641565b905060006124cb8560060154610ae76305f5e1008561464190919063ffffffff16565b905080856004015411156124eb5780845560058501546001850155612525565b60048501548455825161251f9061250c90610ae76305f5e100876001610adc565b60068701546004880154610ae791614641565b60018501555b50505060088201805460ff60a01b1916600160a01b179055612569565b60088201805460ff60a01b1916600160a21b17905560048201548155600582015460018201555b505050565b600260005414156125b4576040805162461bcd60e51b815260206004820152601f602482015260008051602061569f833981519152604482015290519081900360640190fd5b600260005560035460ff16156125ff576040805162461bcd60e51b815260206004820152601860248201526000805160206157cc833981519152604482015290519081900360640190fd5b816008818154811061260d57fe5b90600052602060002090600c0201600001544210612668576040805162461bcd60e51b81526020600482015260136024820152724c657373207468616e20746869732074696d6560681b604482015290519081900360640190fd5b8260006008828154811061267857fe5b90600052602060002090600c020160080160149054906101000a900460ff1660048111156126a257fe5b146126de5760405162461bcd60e51b81526004018080602001828103825260288152602001806158576028913960400191505060405180910390fd5b6000600885815481106126ed57fe5b60009182526020808320338452600b825260408085208a865290925292206004600c90920290920190810154600382015491935061272b9190614841565b8511156127695760405162461bcd60e51b815260040180806020018281038252602b815260200180615758602b913960400191505060405180910390fd5b6007820154600090612784906001600160a01b0316876148cf565b905060025481116127dc576040805162461bcd60e51b815260206004820152601e60248201527f6465706f7369744c656e643a206d696e20616d6f756e74206973203130300000604482015290519081900360640190fd5b60028201805461ffff1916905560078301546001600160a01b031661282257815461280790346146e5565b8255600483015461281890346146e5565b6004840155612845565b815461282e90876146e5565b8255600483015461283f90876146e5565b60048401555b6007830154604080518881526020810184905281516001600160a01b039093169233927f129e8c18c2f7baf99c7eb257934c21f038c72412803512dcf0a942a4562a82ea928290030190a3505060016000555050505050565b60025481565b600260005414156128ea576040805162461bcd60e51b815260206004820152601f602482015260008051602061569f833981519152604482015290519081900360640190fd5b600260005560035460ff1615612935576040805162461bcd60e51b815260206004820152601860248201526000805160206157cc833981519152604482015290519081900360640190fd5b806008818154811061294357fe5b90600052602060002090600c02016000015442116129a0576040805162461bcd60e51b8152602060048201526015602482015274477265617465207468616e20746869732074696d6560581b604482015290519081900360640190fd5b816001600882815481106129b057fe5b90600052602060002090600c020160080160149054906101000a900460ff1660048111156129da57fe5b1480612a1c57506002600882815481106129f057fe5b90600052602060002090600c020160080160149054906101000a900460ff166004811115612a1a57fe5b145b80612a5d5750600360088281548110612a3157fe5b90600052602060002090600c020160080160149054906101000a900460ff166004811115612a5b57fe5b145b612a9c576040805162461bcd60e51b815260206004820152601b6024820152600080516020615837833981519152604482015290519081900360640190fd5b600060088481548110612aab57fe5b90600052602060002090600c02019050600060098581548110612aca57fe5b60009182526020808320338452600a825260408085208a86529092529083206006929092020160018101546005860154919450919291612b0a9190614841565b11612b5c576040805162461bcd60e51b815260206004820152601860248201527f726566756e64426f72726f773a206e6f7420726566756e640000000000000000604482015290519081900360640190fd5b8054612bab576040805162461bcd60e51b81526020600482015260196024820152781c99599d5b99109bdc9c9bddce881b9bdd081c1b195919d959603a1b604482015290519081900360640190fd5b600281015460ff1615612c05576040805162461bcd60e51b815260206004820152601a60248201527f726566756e64426f72726f773a20616761696e20726566756e64000000000000604482015290519081900360640190fd5b60058301548154600091612c2591610ae790670de0b6b3a7640000614641565b90506000612c5a670de0b6b3a7640000610ae784612c5488600101548a6005015461484190919063ffffffff16565b90614641565b6008860154909150612c779033906001600160a01b03168361473f565b6001830154612c8690826146e5565b60018085019190915560028401805460ff1916909117905560088501546040805183815290516001600160a01b039092169133917f732816f48de550f238bd0d4f5b79819c7b24a49d6132928978e3cd36568dd5db919081900360200190a350506001600055505050505050565b60008060088381548110612d0457fe5b90600052602060002090600c020190508060080160149054906101000a900460ff166004811115612d3157fe5b9392505050565b600b60209081526000928352604080842090915290825290208054600182015460029092015490919060ff8082169161010090041684565b60026000541415612db6576040805162461bcd60e51b815260206004820152601f602482015260008051602061569f833981519152604482015290519081900360640190fd5b600260005560035460ff1615612e01576040805162461bcd60e51b815260206004820152601860248201526000805160206157cc833981519152604482015290519081900360640190fd5b80600460088281548110612e1157fe5b90600052602060002090600c020160080160149054906101000a900460ff166004811115612e3b57fe5b14612e8d576040805162461bcd60e51b815260206004820152601b60248201527f73746174653a207374617465206d75737420626520756e646f6e650000000000604482015290519081900360640190fd5b600060088381548110612e9c57fe5b90600052602060002090600c020190506000816004015411612f05576040805162461bcd60e51b815260206004820152601c60248201527f656d657267656e634c656e643a206e6f74207769746864726177616c00000000604482015290519081900360640190fd5b336000908152600b6020908152604080832086845290915290208054612f6c576040805162461bcd60e51b81526020600482015260176024820152761c99599d5b9913195b990e881b9bdd081c1b195919d959604a1b604482015290519081900360640190fd5b600281015460ff1615612fc6576040805162461bcd60e51b815260206004820152601860248201527f726566756e644c656e643a20616761696e20726566756e640000000000000000604482015290519081900360640190fd5b60078201548154612fe49133916001600160a01b039091169061473f565b60028101805460ff191660011790556007820154815460408051918252516001600160a01b039092169133917f71d14c5f08cb34cbfb59c06ea5151aafbf742d0b6ed00fdb83addd9afb5c0fd0919081900360200190a3505060016000555050565b60035461010090046001600160a01b031681565b613062615680565b60006008838154811061307157fe5b600091825260209182902060408051600280825260608083018452600c9095029093019550929383019080368337505050600783015481519192506001600160a01b03169082906000906130c157fe5b6020908102919091010152600882015481516001600160a01b0390911690829060019081106130ec57fe5b6020908102919091018101919091526005546040516304e59d2760e11b8152600481018381528451602483015284516060946001600160a01b03909416936309cb3a4e938793928392604490920191858101910280838360005b8381101561315e578181015183820152602001613146565b505050509050019250505060006040518083038186803b15801561318157600080fd5b505afa158015613195573d6000803e3d6000fd5b505050506040513d6000823e601f3d908101601f1916820160405260208110156131be57600080fd5b8101908080516040519392919084600160201b8211156131dd57600080fd5b9083019060208201858111156131f257600080fd5b82518660208202830111600160201b8211171561320e57600080fd5b82525081516020918201928201910280838360005b8381101561323b578181015183820152602001613223565b50505050905001604052505050905060405180604001604052808260008151811061326257fe5b602002602001015181526020018260018151811061327c57fe5b60200260200101518152509350505050919050565b600260005414156132d7576040805162461bcd60e51b815260206004820152601f602482015260008051602061569f833981519152604482015290519081900360640190fd5b600260005560035460ff1615613322576040805162461bcd60e51b815260206004820152601860248201526000805160206157cc833981519152604482015290519081900360640190fd5b8042811015613369576040805162461bcd60e51b815260206004820152600e60248201526d1cdd185ad94e881156141254915160921b604482015290519081900360640190fd5b8360026008828154811061337957fe5b90600052602060002090600c020160080160149054906101000a900460ff1660048111156133a357fe5b14806133e557506003600882815481106133b957fe5b90600052602060002090600c020160080160149054906101000a900460ff1660048111156133e357fe5b145b613432576040805162461bcd60e51b815260206004820152601960248201527839ba30ba329d103334b734b9b4103634b8bab4b230ba34b7b760391b604482015290519081900360640190fd5b60006008868154811061344157fe5b90600052602060002090600c0201905060006009878154811061346057fe5b90600052602060002090600602019050600086116134af5760405162461bcd60e51b81526004018080602001828103825260278152602001806157836027913960400191505060405180910390fd5b600a82015460408051632770a7eb60e21b81523360048201526024810189905290516001600160a01b0390921691639dc29fac9160448082019260009290919082900301818387803b15801561350457600080fd5b505af1158015613518573d6000803e3d6000fd5b5050506006830154825460009250613539916305f5e10091610ae791614641565b9050600061355382610ae78a670de0b6b3a7640000614641565b905060026008850154600160a01b900460ff16600481111561357157fe5b141561364857836001015442116135b95760405162461bcd60e51b815260040180806020018281038252602281526020018061590e6022913960400191505060405180910390fd5b60006135de670de0b6b3a7640000610ae786600301548561464190919063ffffffff16565b60088601549091506135fb9033906001600160a01b03168361473f565b6008850154604080518b81526020810184905281516001600160a01b039093169233927f0f5e74952c2f9259a748f3aa9a6c4534a6f46a5966e5baabdb6bd337f05234a8928290030190a3505b60036008850154600160a01b900460ff16600481111561366457fe5b141561373857835442116136a95760405162461bcd60e51b81526004018080602001828103825260248152602001806156bf6024913960400191505060405180910390fd5b60006136ce670de0b6b3a7640000610ae786600501548561464190919063ffffffff16565b60088601549091506136eb9033906001600160a01b03168361473f565b6008850154604080518b81526020810184905281516001600160a01b039093169233927f0f5e74952c2f9259a748f3aa9a6c4534a6f46a5966e5baabdb6bd337f05234a8928290030190a3505b5050600160005550505050505050565b6137506147f0565b6001600160a01b03166137616122c3565b6001600160a01b0316146137aa576040805162461bcd60e51b815260206004820181905260248201526000805160206158a0833981519152604482015290519081900360640190fd5b6000600882815481106137b957fe5b90600052602060002090600c020190506000600983815481106137d857fe5b90600052602060002090600602019050600883815481106137f557fe5b90600052602060002090600c020160010154421161385a576040805162461bcd60e51b815260206004820152601a60248201527f66696e6973683a206c657373207468616e20656e642074696d65000000000000604482015290519081900360640190fd5b60016008830154600160a01b900460ff16600481111561387657fe5b146138b25760405162461bcd60e51b81526004018080602001828103825260248152602001806158c06024913960400191505060405180910390fd5b6008820154600783015460028401546001600160a01b0392831692909116906000906138ec906305f5e10090610ae790610b2290836146e5565b905060006139146305f5e100610ae761161e6305f5e1006006546146e590919063ffffffff16565b905060008061393a600360019054906101000a90046001600160a01b03168787866147f4565b9150915083811015613993576040805162461bcd60e51b815260206004820152601c60248201527f66696e6973683a20536c69707061676520697320746f6f206869676800000000604482015290519081900360640190fd5b838111156139de5760006139a78286614841565b60045460078b01549192506139c9916001600160a01b0391821691168361473f565b6139d38282614841565b6002890155506139e6565b600287018190555b60018701546000906139f89084614841565b60065460088b0154919250600091613a1a91906001600160a01b031684614883565b60038a0181905560088b01805491925060029160ff60a01b1916600160a01b836116f7565b613a476147f0565b6001600160a01b0316613a586122c3565b6001600160a01b031614613aa1576040805162461bcd60e51b815260206004820181905260248201526000805160206158a0833981519152604482015290519081900360640190fd5b6003805460ff19811660ff90911615179055565b60026000541415613afb576040805162461bcd60e51b815260206004820152601f602482015260008051602061569f833981519152604482015290519081900360640190fd5b600260005560035460ff1615613b46576040805162461bcd60e51b815260206004820152601860248201526000805160206157cc833981519152604482015290519081900360640190fd5b80600460088281548110613b5657fe5b90600052602060002090600c020160080160149054906101000a900460ff166004811115613b8057fe5b14613bd2576040805162461bcd60e51b815260206004820152601b60248201527f73746174653a207374617465206d75737420626520756e646f6e650000000000604482015290519081900360640190fd5b600060088381548110613be157fe5b90600052602060002090600c020190506000816005015411613c4a576040805162461bcd60e51b815260206004820152601f60248201527f656d657267656e6379426f72726f773a206e6f74207769746864726177616c00604482015290519081900360640190fd5b336000908152600a6020908152604080832086845290915290208054613cb3576040805162461bcd60e51b81526020600482015260196024820152781c99599d5b99109bdc9c9bddce881b9bdd081c1b195919d959603a1b604482015290519081900360640190fd5b600281015460ff1615613d0d576040805162461bcd60e51b815260206004820152601a60248201527f726566756e64426f72726f773a20616761696e20726566756e64000000000000604482015290519081900360640190fd5b60088201548154613d2b9133916001600160a01b039091169061473f565b60028101805460ff191660011790556008820154815460408051918252516001600160a01b039092169133917f5a06c7de92f1dc59e8cba872927d016c80ce5f0fb2295c898dfb7a2f08e43fb1919081900360200190a3505060016000555050565b60075481565b613d9b6147f0565b6001600160a01b0316613dac6122c3565b6001600160a01b031614613df5576040805162461bcd60e51b815260206004820181905260248201526000805160206158a0833981519152604482015290519081900360640190fd5b898911613e335760405162461bcd60e51b815260040180806020018281038252602a815260200180615708602a913960400191505060405180910390fd5b6008604051806101a001604052808c81526020018b81526020018a67ffffffffffffffff1681526020018981526020016000815260200160008152602001888152602001876001600160a01b03168152602001866001600160a01b0316815260200160006004811115613ea257fe5b81526001600160a01b0380871660208084019190915286821660408085019190915260609384018790528554600181810188556000978852968390208651600c909202019081559185015195820195909555938301516002850155908201516003840155608082015160048085019190915560a0830151600585015560c0830151600685015560e08301516007850180549184166001600160a01b031992831617905561010084015160088601805491909416911617808355610120840151939493929160ff60a01b1990911690600160a01b908490811115613f8157fe5b0217905550610140820151600980830180546001600160a01b039384166001600160a01b031991821617909155610160850151600a850180549190941691161790915561018090920151600b909101556040805160c081018252600080825260208201818152928201818152606083018281526080840183815260a08501848152875460018101895597909452935160069096027f6e1540171b6c0c960b71a7020d9f60077f6af931a8bbf590da0223dacf75c7af81019690965593517f6e1540171b6c0c960b71a7020d9f60077f6af931a8bbf590da0223dacf75c7b0860155517f6e1540171b6c0c960b71a7020d9f60077f6af931a8bbf590da0223dacf75c7b185015591517f6e1540171b6c0c960b71a7020d9f60077f6af931a8bbf590da0223dacf75c7b2840155517f6e1540171b6c0c960b71a7020d9f60077f6af931a8bbf590da0223dacf75c7b3830155517f6e1540171b6c0c960b71a7020d9f60077f6af931a8bbf590da0223dacf75c7b49091015550505050505050505050565b6002600054141561414a576040805162461bcd60e51b815260206004820152601f602482015260008051602061569f833981519152604482015290519081900360640190fd5b600260005560035460ff1615614195576040805162461bcd60e51b815260206004820152601860248201526000805160206157cc833981519152604482015290519081900360640190fd5b80600881815481106141a357fe5b90600052602060002090600c0201600001544211614200576040805162461bcd60e51b8152602060048201526015602482015274477265617465207468616e20746869732074696d6560581b604482015290519081900360640190fd5b8160016008828154811061421057fe5b90600052602060002090600c020160080160149054906101000a900460ff16600481111561423a57fe5b148061427c575060026008828154811061425057fe5b90600052602060002090600c020160080160149054906101000a900460ff16600481111561427a57fe5b145b806142bd575060036008828154811061429157fe5b90600052602060002090600c020160080160149054906101000a900460ff1660048111156142bb57fe5b145b6142fc576040805162461bcd60e51b815260206004820152601b6024820152600080516020615837833981519152604482015290519081900360640190fd5b60006008848154811061430b57fe5b90600052602060002090600c0201905060006009858154811061432a57fe5b60009182526020808320338452600b825260408085208a8652909252922080546006909202909201925061439f576040805162461bcd60e51b81526020600482015260176024820152761c99599d5b9913195b990e881b9bdd081c1b195919d959604a1b604482015290519081900360640190fd5b815460048401546000916143b39190614841565b116143fe576040805162461bcd60e51b81526020600482015260166024820152751c99599d5b9913195b990e881b9bdd081c99599d5b9960521b604482015290519081900360640190fd5b600281015460ff1615614458576040805162461bcd60e51b815260206004820152601960248201527f726566756e644c656e643a2072657065617420726566756e6400000000000000604482015290519081900360640190fd5b6004830154815460009161447891610ae790670de0b6b3a7640000614641565b905060006144a7670de0b6b3a7640000610ae784612c5488600001548a6004015461484190919063ffffffff16565b60078601549091506144c49033906001600160a01b03168361473f565b60028301805460ff191660019081179091558301546144e390826146e5565b600184015560078501546040805183815290516001600160a01b039092169133917fc3e20279d41b3ed21d277920877e5e5c6665bf6aca607046a3fe0fd2bd6bda7d919081900360200190a350506001600055505050505050565b6145466147f0565b6001600160a01b03166145576122c3565b6001600160a01b0316146145a0576040805162461bcd60e51b815260206004820181905260248201526000805160206158a0833981519152604482015290519081900360640190fd5b6001600160a01b0381166145e55760405162461bcd60e51b81526004018080602001828103825260268152602001806157326026913960400191505060405180910390fd5b6001546040516001600160a01b038084169216907f8be0079c531659141344cd1fd0a4f28419497f9722a3daafe3b4186f6b6457e090600090a3600180546001600160a01b0319166001600160a01b0392909216919091179055565b6000826146505750600061469d565b8282028284828161465d57fe5b041461469a5760405162461bcd60e51b815260040180806020018281038252602181526020018061587f6021913960400191505060405180910390fd5b90505b92915050565b600061469a83836040518060400160405280601a81526020017f536166654d6174683a206469766973696f6e206279207a65726f00000000000081525061490b565b60008282018381101561469a576040805162461bcd60e51b815260206004820152601b60248201527f536166654d6174683a206164646974696f6e206f766572666c6f770000000000604482015290519081900360640190fd5b6001600160a01b038216614789576040516001600160a01b0384169082156108fc029083906000818181858888f19350505050158015614783573d6000803e3d6000fd5b506147a0565b8161479e6001600160a01b03821685846149ad565b505b816001600160a01b0316836001600160a01b03167fd12200efa34901b99367694174c3b0d32c99585fdf37c7c26892136ddd0836d9836040518082815260200191505060405180910390a3505050565b3390565b6000806000808411614807576000614824565b6003546148249061010090046001600160a01b03168787876149ff565b90508061483388888885614b9c565b925092505094509492505050565b600061469a83836040518060400160405280601e81526020017f536166654d6174683a207375627472616374696f6e206f766572666c6f770000815250615073565b6000806305f5e1006148958487614641565b8161489c57fe5b04905080156148bc576004546148bc906001600160a01b0316858361473f565b6148c68382614841565b95945050505050565b60006001600160a01b0383166148e757349150614905565b811561490557826149036001600160a01b0382163330866150cd565b505b50919050565b600081836149975760405162461bcd60e51b81526004018080602001828103825283818151815260200191508051906020019080838360005b8381101561495c578181015183820152602001614944565b50505050905090810190601f1680156149895780820380516001836020036101000a031916815260200191505b509250505060405180910390fd5b5060008385816149a357fe5b0495945050505050565b604080516001600160a01b038416602482015260448082018490528251808303909101815260649091019091526020810180516001600160e01b031663a9059cbb60e01b17905261256990849061512d565b6003546000908590606090614a239061010090046001600160a01b031687876151de565b90506060826001600160a01b0316631f00ca7486846040518363ffffffff1660e01b81526004018083815260200180602001828103825283818151815260200191508051906020019060200280838360005b83811015614a8d578181015183820152602001614a75565b50505050905001935050505060006040518083038186803b158015614ab157600080fd5b505afa158015614ac5573d6000803e3d6000fd5b505050506040513d6000823e601f3d908101601f191682016040526020811015614aee57600080fd5b8101908080516040519392919084600160201b821115614b0d57600080fd5b908301906020820185811115614b2257600080fd5b82518660208202830111600160201b82111715614b3e57600080fd5b82525081516020918201928201910280838360005b83811015614b6b578181015183820152602001614b53565b50505050905001604052505050905080600081518110614b8757fe5b60200260200101519350505050949350505050565b60006001600160a01b03841615614bba57614bba8486600019615348565b6001600160a01b03831615614bd657614bd68386600019615348565b846060614be48287876151de565b905060606001600160a01b038716614d6e57826001600160a01b0316637ff36ab5866000853042601e016040518663ffffffff1660e01b81526004018085815260200180602001846001600160a01b03168152602001838152602001828103825285818151815260200191508051906020019060200280838360005b83811015614c78578181015183820152602001614c60565b50505050905001955050505050506000604051808303818588803b158015614c9f57600080fd5b505af1158015614cb3573d6000803e3d6000fd5b50505050506040513d6000823e601f3d908101601f191682016040526020811015614cdd57600080fd5b8101908080516040519392919084600160201b821115614cfc57600080fd5b908301906020820185811115614d1157600080fd5b82518660208202830111600160201b82111715614d2d57600080fd5b82525081516020918201928201910280838360005b83811015614d5a578181015183820152602001614d42565b505050509050016040525050509050614fe5565b6001600160a01b038616614e6a57826001600160a01b03166318cbafe5866000853042601e016040518663ffffffff1660e01b81526004018086815260200185815260200180602001846001600160a01b03168152602001838152602001828103825285818151815260200191508051906020019060200280838360005b83811015614e04578181015183820152602001614dec565b505050509050019650505050505050600060405180830381600087803b158015614e2d57600080fd5b505af1158015614e41573d6000803e3d6000fd5b505050506040513d6000823e601f3d908101601f191682016040526020811015614cdd57600080fd5b826001600160a01b03166338ed1739866000853042601e016040518663ffffffff1660e01b81526004018086815260200185815260200180602001846001600160a01b03168152602001838152602001828103825285818151815260200191508051906020019060200280838360005b83811015614ef2578181015183820152602001614eda565b505050509050019650505050505050600060405180830381600087803b158015614f1b57600080fd5b505af1158015614f2f573d6000803e3d6000fd5b505050506040513d6000823e601f3d908101601f191682016040526020811015614f5857600080fd5b8101908080516040519392919084600160201b821115614f7757600080fd5b908301906020820185811115614f8c57600080fd5b82518660208202830111600160201b82111715614fa857600080fd5b82525081516020918201928201910280838360005b83811015614fd5578181015183820152602001614fbd565b5050505090500160405250505090505b856001600160a01b0316876001600160a01b03167ffa2dda1cc1b86e41239702756b13effbc1a092b5c57e3ad320fbe4f3b13fe2358360008151811061502757fe5b60200260200101518460018651038151811061503f57fe5b6020026020010151604051808381526020018281526020019250505060405180910390a380600182510381518110614b8757fe5b600081848411156150c55760405162461bcd60e51b815260206004820181815283516024840152835190928392604490910191908501908083836000831561495c578181015183820152602001614944565b505050900390565b604080516001600160a01b0380861660248301528416604482015260648082018490528251808303909101815260849091019091526020810180516001600160e01b03166323b872dd60e01b17905261512790859061512d565b50505050565b6060615182826040518060400160405280602081526020017f5361666545524332303a206c6f772d6c6576656c2063616c6c206661696c6564815250856001600160a01b03166154a19092919063ffffffff16565b805190915015612569578080602001905160208110156151a157600080fd5b50516125695760405162461bcd60e51b815260040180806020018281038252602a8152602001806158e4602a913960400191505060405180910390fd5b6040805160028082526060808301845292869291906020830190803683370190505091506001600160a01b03841615615217578361527d565b806001600160a01b031663ad5c46486040518163ffffffff1660e01b815260040160206040518083038186803b15801561525057600080fd5b505afa158015615264573d6000803e3d6000fd5b505050506040513d602081101561527a57600080fd5b50515b8260008151811061528a57fe5b6001600160a01b0392831660209182029290920101528316156152ad5782615313565b806001600160a01b031663ad5c46486040518163ffffffff1660e01b815260040160206040518083038186803b1580156152e657600080fd5b505afa1580156152fa573d6000803e3d6000fd5b505050506040513d602081101561531057600080fd5b50515b8260018151811061532057fe5b60200260200101906001600160a01b031690816001600160a01b031681525050509392505050565b604080516001600160a01b038481166024830152604480830185905283518084039091018152606490920183526020820180516001600160e01b031663095ea7b360e01b178152925182516000946060949389169392918291908083835b602083106153c55780518252601f1990920191602091820191016153a6565b6001836020036101000a0380198251168184511680821785525050505050509050019150506000604051808303816000865af19150503d8060008114615427576040519150601f19603f3d011682016040523d82523d6000602084013e61542c565b606091505b509150915081801561545a57508051158061545a575080806020019051602081101561545757600080fd5b50515b61549a576040805162461bcd60e51b815260206004820152600c60248201526b2173616665417070726f766560a01b604482015290519081900360640190fd5b5050505050565b60606154b084846000856154b8565b949350505050565b6060824710156154f95760405162461bcd60e51b81526004018080602001828103825260268152602001806158116026913960400191505060405180910390fd5b61550285615614565b615553576040805162461bcd60e51b815260206004820152601d60248201527f416464726573733a2063616c6c20746f206e6f6e2d636f6e7472616374000000604482015290519081900360640190fd5b60006060866001600160a01b031685876040518082805190602001908083835b602083106155925780518252601f199092019160209182019101615573565b6001836020036101000a03801982511681845116808217855250505050505090500191505060006040518083038185875af1925050503d80600081146155f4576040519150601f19603f3d011682016040523d82523d6000602084013e6155f9565b606091505b509150915061560982828661561a565b979650505050505050565b3b151590565b60608315615629575081612d31565b8251156156395782518084602001fd5b60405162461bcd60e51b815260206004820181815284516024840152845185939192839260440191908501908083836000831561495c578181015183820152602001614944565b6040518060400160405280600290602082028036833750919291505056fe5265656e7472616e637947756172643a207265656e7472616e742063616c6c007769746864726177426f72726f773a206c657373207468616e206d617463682074696d6577697468647261774c656e643a20776974686472617720616d6f756e74206973207a65726f637265617465506f6f6c3a656e642074696d65206772617465207468616e20736574746c652074696d654f776e61626c653a206e6577206f776e657220697320746865207a65726f20616464726573736465706f7369744c656e643a20746865207175616e74697479206578636565647320746865206c696d69747769746864726177426f72726f773a20776974686472617720616d6f756e74206973207a65726f77697468647261774c656e643a206c657373207468616e206d617463682074696d655374616b6520686173206265656e2073757370656e64656400000000000000006465706f736974426f72726f773a206465706f73697420616d6f756e74206973207a65726f416464726573733a20696e73756666696369656e742062616c616e636520666f722063616c6c73746174653a206e6f74206d6174636820616e6420756e646f6e65000000000073746174653a20506f6f6c20737461747573206973206e6f7420657175616c20746f206d61746368536166654d6174683a206d756c7469706c69636174696f6e206f766572666c6f774f776e61626c653a2063616c6c6572206973206e6f7420746865206f776e657266696e6973683a20706f6f6c207374617465206d75737420626520657865637574696f6e5361666545524332303a204552433230206f7065726174696f6e20646964206e6f7420737563636565647769746864726177426f72726f773a206c657373207468616e20656e642074696d65a2646970667358221220697f6b144dbe00a38bafa49ccfd94e06f565f1b23a45e9a95b5cf8f4c2dcea9a64736f6c634300060c0033",
  "linkReferences": {},
  "deployedLinkReferences": {}
}