{
  "_format": "hh-sol-artifact-1",
  "contractName": "PledgePool",
  "sourceName": "contracts/pledge/PledgePool.sol",
  "abi": [
    {
      "inputs": [
        {
          "internalType": "address",
          "name": "_oracle",
          "type": "address"
        },
        {
          "internalType": "address",
          "name": "_swapRouter",
          "type": "address"
        },
        {
          "internalType": "address payable",
          "name": "_feeAddress",
          "type": "address"
        }
      ],
      "stateMutability": "nonpayable",
      "type": "constructor"
    },
    {
      "anonymous": false,
      "inputs": [
        {
          "indexed": true,
          "internalType": "address",
          "name": "from",
          "type": "address"
        },
        {
          "indexed": true,
          "internalType": "address",
          "name": "token",
          "type": "address"
        },
        {
          "indexed": false,
          "internalType": "uint256",
          "name": "amount",
          "type": "uint256"
        }
      ],
      "name": "ClaimBorrow",
      "type": "event"
    },
    {
      "anonymous": false,
      "inputs": [
        {
          "indexed": true,
          "internalType": "address",
          "name": "from",
          "type": "address"
        },
        {
          "indexed": true,
          "internalType": "address",
          "name": "token",
          "type": "address"
        },
        {
          "indexed": false,
          "internalType": "uint256",
          "name": "amount",
          "type": "uint256"
        }
      ],
      "name": "ClaimLend",
      "type": "event"
    },
    {
      "anonymous": false,
      "inputs": [
        {
          "indexed": true,
          "internalType": "address",
          "name": "from",
          "type": "address"
        },
        {
          "indexed": true,
          "internalType": "address",
          "name": "token",
          "type": "address"
        },
        {
          "indexed": false,
          "internalType": "uint256",
          "name": "amount",
          "type": "uint256"
        },
        {
          "indexed": false,
          "internalType": "uint256",
          "name": "mintAmount",
          "type": "uint256"
        }
      ],
      "name": "DepositBorrow",
      "type": "event"
    },
    {
      "anonymous": false,
      "inputs": [
        {
          "indexed": true,
          "internalType": "address",
          "name": "from",
          "type": "address"
        },
        {
          "indexed": true,
          "internalType": "address",
          "name": "token",
          "type": "address"
        },
        {
          "indexed": false,
          "internalType": "uint256",
          "name": "amount",
          "type": "uint256"
        },
        {
          "indexed": false,
          "internalType": "uint256",
          "name": "mintAmount",
          "type": "uint256"
        }
      ],
      "name": "DepositLend",
      "type": "event"
    },
    {
      "anonymous": false,
      "inputs": [
        {
          "indexed": true,
          "internalType": "address",
          "name": "from",
          "type": "address"
        },
        {
          "indexed": true,
          "internalType": "address",
          "name": "token",
          "type": "address"
        },
        {
          "indexed": false,
          "internalType": "uint256",
          "name": "amount",
          "type": "uint256"
        }
      ],
      "name": "EmergencyBorrowWithdrawal",
      "type": "event"
    },
    {
      "anonymous": false,
      "inputs": [
        {
          "indexed": true,
          "internalType": "address",
          "name": "from",
          "type": "address"
        },
        {
          "indexed": true,
          "internalType": "address",
          "name": "token",
          "type": "address"
        },
        {
          "indexed": false,
          "internalType": "uint256",
          "name": "amount",
          "type": "uint256"
        }
      ],
      "name": "EmergencyLendWithdrawal",
      "type": "event"
    },
    {
      "anonymous": false,
      "inputs": [
        {
          "indexed": true,
          "internalType": "address",
          "name": "previousOwner",
          "type": "address"
        },
        {
          "indexed": true,
          "internalType": "address",
          "name": "newOwner",
          "type": "address"
        }
      ],
      "name": "OwnershipTransferred",
      "type": "event"
    },
    {
      "anonymous": false,
      "inputs": [
        {
          "indexed": true,
          "internalType": "address",
          "name": "recieptor",
          "type": "address"
        },
        {
          "indexed": true,
          "internalType": "address",
          "name": "token",
          "type": "address"
        },
        {
          "indexed": false,
          "internalType": "uint256",
          "name": "amount",
          "type": "uint256"
        }
      ],
      "name": "Redeem",
      "type": "event"
    },
    {
      "anonymous": false,
      "inputs": [
        {
          "indexed": true,
          "internalType": "address",
          "name": "from",
          "type": "address"
        },
        {
          "indexed": true,
          "internalType": "address",
          "name": "token",
          "type": "address"
        },
        {
          "indexed": false,
          "internalType": "uint256",
          "name": "refund",
          "type": "uint256"
        }
      ],
      "name": "RefundBorrow",
      "type": "event"
    },
    {
      "anonymous": false,
      "inputs": [
        {
          "indexed": true,
          "internalType": "address",
          "name": "from",
          "type": "address"
        },
        {
          "indexed": true,
          "internalType": "address",
          "name": "token",
          "type": "address"
        },
        {
          "indexed": false,
          "internalType": "uint256",
          "name": "refund",
          "type": "uint256"
        }
      ],
      "name": "RefundLend",
      "type": "event"
    },
    {
      "anonymous": false,
      "inputs": [
        {
          "indexed": true,
          "internalType": "address",
          "name": "fromCoin",
          "type": "address"
        },
        {
          "indexed": true,
          "internalType": "address",
          "name": "toCoin",
          "type": "address"
        },
        {
          "indexed": false,
          "internalType": "uint256",
          "name": "fromValue",
          "type": "uint256"
        },
        {
          "indexed": false,
          "internalType": "uint256",
          "name": "toValue",
          "type": "uint256"
        }
      ],
      "name": "Swap",
      "type": "event"
    },
    {
      "anonymous": false,
      "inputs": [
        {
          "indexed": true,
          "internalType": "address",
          "name": "from",
          "type": "address"
        },
        {
          "indexed": true,
          "internalType": "address",
          "name": "token",
          "type": "address"
        },
        {
          "indexed": false,
          "internalType": "uint256",
          "name": "amount",
          "type": "uint256"
        },
        {
          "indexed": false,
          "internalType": "uint256",
          "name": "burnAmount",
          "type": "uint256"
        }
      ],
      "name": "WithdrawBorrow",
      "type": "event"
    },
    {
      "anonymous": false,
      "inputs": [
        {
          "indexed": true,
          "internalType": "address",
          "name": "from",
          "type": "address"
        },
        {
          "indexed": true,
          "internalType": "address",
          "name": "token",
          "type": "address"
        },
        {
          "indexed": false,
          "internalType": "uint256",
          "name": "amount",
          "type": "uint256"
        },
        {
          "indexed": false,
          "internalType": "uint256",
          "name": "burnAmount",
          "type": "uint256"
        }
      ],
      "name": "WithdrawLend",
      "type": "event"
    },
    {
      "inputs": [],
      "name": "autoLiquidateThreshold",
      "outputs": [
        {
          "internalType": "uint256",
          "name": "",
          "type": "uint256"
        }
      ],
      "stateMutability": "view",
      "type": "function"
    },
    {
      "inputs": [],
      "name": "borrowFee",
      "outputs": [
        {
          "internalType": "uint256",
          "name": "",
          "type": "uint256"
        }
      ],
      "stateMutability": "view",
      "type": "function"
    },
    {
      "inputs": [
        {
          "internalType": "uint256",
          "name": "_pid",
          "type": "uint256"
        }
      ],
      "name": "checkoutFinish",
      "outputs": [
        {
          "internalType": "bool",
          "name": "",
          "type": "bool"
        }
      ],
      "stateMutability": "view",
      "type": "function"
    },
    {
      "inputs": [
        {
          "internalType": "uint256",
          "name": "_pid",
          "type": "uint256"
        }
      ],
      "name": "checkoutLiquidate",
      "outputs": [
        {
          "internalType": "bool",
          "name": "",
          "type": "bool"
        }
      ],
      "stateMutability": "view",
      "type": "function"
    },
    {
      "inputs": [
        {
          "internalType": "uint256",
          "name": "_pid",
          "type": "uint256"
        }
      ],
      "name": "checkoutSettle",
      "outputs": [
        {
          "internalType": "bool",
          "name": "",
          "type": "bool"
        }
      ],
      "stateMutability": "view",
      "type": "function"
    },
    {
      "inputs": [
        {
          "internalType": "uint256",
          "name": "_pid",
          "type": "uint256"
        }
      ],
      "name": "claimBorrow",
      "outputs": [],
      "stateMutability": "nonpayable",
      "type": "function"
    },
    {
      "inputs": [
        {
          "internalType": "uint256",
          "name": "_pid",
          "type": "uint256"
        }
      ],
      "name": "claimLend",
      "outputs": [],
      "stateMutability": "nonpayable",
      "type": "function"
    },
    {
      "inputs": [
        {
          "internalType": "uint256",
          "name": "_matchTime",
          "type": "uint256"
        },
        {
          "internalType": "uint256",
          "name": "_endTime",
          "type": "uint256"
        },
        {
          "internalType": "uint64",
          "name": "_interestRate",
          "type": "uint64"
        },
        {
          "internalType": "uint256",
          "name": "_maxSupply",
          "type": "uint256"
        },
        {
          "internalType": "uint256",
          "name": "_pledgeRate",
          "type": "uint256"
        },
        {
          "internalType": "address",
          "name": "_lendToken",
          "type": "address"
        },
        {
          "internalType": "address",
          "name": "_borrowToken",
          "type": "address"
        },
        {
          "internalType": "address",
          "name": "_spToken",
          "type": "address"
        },
        {
          "internalType": "address",
          "name": "_jpToken",
          "type": "address"
        }
      ],
      "name": "createPoolInfo",
      "outputs": [],
      "stateMutability": "nonpayable",
      "type": "function"
    },
    {
      "inputs": [
        {
          "internalType": "uint256",
          "name": "_pid",
          "type": "uint256"
        },
        {
          "internalType": "uint256",
          "name": "_stakeAmount",
          "type": "uint256"
        },
        {
          "internalType": "uint256",
          "name": "_deadLine",
          "type": "uint256"
        }
      ],
      "name": "depositBorrow",
      "outputs": [],
      "stateMutability": "payable",
      "type": "function"
    },
    {
      "inputs": [
        {
          "internalType": "uint256",
          "name": "_pid",
          "type": "uint256"
        },
        {
          "internalType": "uint256",
          "name": "_stakeAmount",
          "type": "uint256"
        }
      ],
      "name": "depositLend",
      "outputs": [],
      "stateMutability": "payable",
      "type": "function"
    },
    {
      "inputs": [
        {
          "internalType": "uint256",
          "name": "_pid",
          "type": "uint256"
        }
      ],
      "name": "emergencyBorrowWithdrawal",
      "outputs": [],
      "stateMutability": "nonpayable",
      "type": "function"
    },
    {
      "inputs": [
        {
          "internalType": "uint256",
          "name": "_pid",
          "type": "uint256"
        }
      ],
      "name": "emergencyLendWithdrawal",
      "outputs": [],
      "stateMutability": "nonpayable",
      "type": "function"
    },
    {
      "inputs": [],
      "name": "feeAddress",
      "outputs": [
        {
          "internalType": "address payable",
          "name": "",
          "type": "address"
        }
      ],
      "stateMutability": "view",
      "type": "function"
    },
    {
      "inputs": [
        {
          "internalType": "uint256",
          "name": "_pid",
          "type": "uint256"
        }
      ],
      "name": "finish",
      "outputs": [],
      "stateMutability": "nonpayable",
      "type": "function"
    },
    {
      "inputs": [
        {
          "internalType": "uint256",
          "name": "_pid",
          "type": "uint256"
        }
      ],
      "name": "getPoolState",
      "outputs": [
        {
          "internalType": "uint256",
          "name": "",
          "type": "uint256"
        }
      ],
      "stateMutability": "view",
      "type": "function"
    },
    {
      "inputs": [
        {
          "internalType": "uint256",
          "name": "_pid",
          "type": "uint256"
        }
      ],
      "name": "getUnderlyingPriceView",
      "outputs": [
        {
          "internalType": "uint256[2]",
          "name": "",
          "type": "uint256[2]"
        }
      ],
      "stateMutability": "view",
      "type": "function"
    },
    {
      "inputs": [],
      "name": "lendFee",
      "outputs": [
        {
          "internalType": "uint256",
          "name": "",
          "type": "uint256"
        }
      ],
      "stateMutability": "view",
      "type": "function"
    },
    {
      "inputs": [
        {
          "internalType": "uint256",
          "name": "_pid",
          "type": "uint256"
        }
      ],
      "name": "liquidate",
      "outputs": [],
      "stateMutability": "nonpayable",
      "type": "function"
    },
    {
      "inputs": [],
      "name": "oracle",
      "outputs": [
        {
          "internalType": "contract IBscPledgeOracle",
          "name": "",
          "type": "address"
        }
      ],
      "stateMutability": "view",
      "type": "function"
    },
    {
      "inputs": [],
      "name": "owner",
      "outputs": [
        {
          "internalType": "address",
          "name": "",
          "type": "address"
        }
      ],
      "stateMutability": "view",
      "type": "function"
    },
    {
      "inputs": [],
      "name": "paused",
      "outputs": [
        {
          "internalType": "bool",
          "name": "",
          "type": "bool"
        }
      ],
      "stateMutability": "view",
      "type": "function"
    },
    {
      "inputs": [
        {
          "internalType": "uint256",
          "name": "",
          "type": "uint256"
        }
      ],
      "name": "poolBaseInfo",
      "outputs": [
        {
          "internalType": "uint256",
          "name": "matchTime",
          "type": "uint256"
        },
        {
          "internalType": "uint256",
          "name": "endTime",
          "type": "uint256"
        },
        {
          "internalType": "uint256",
          "name": "interestRate",
          "type": "uint256"
        },
        {
          "internalType": "uint256",
          "name": "maxSupply",
          "type": "uint256"
        },
        {
          "internalType": "uint256",
          "name": "lendSupply",
          "type": "uint256"
        },
        {
          "internalType": "uint256",
          "name": "borrowSupply",
          "type": "uint256"
        },
        {
          "internalType": "uint256",
          "name": "pledgeRate",
          "type": "uint256"
        },
        {
          "internalType": "address",
          "name": "lendToken",
          "type": "address"
        },
        {
          "internalType": "address",
          "name": "borrowToken",
          "type": "address"
        },
        {
          "internalType": "enum PledgePool.PoolState",
          "name": "state",
          "type": "uint8"
        },
        {
          "internalType": "contract IDebtToken",
          "name": "spCoin",
          "type": "address"
        },
        {
          "internalType": "contract IDebtToken",
          "name": "jpCoin",
          "type": "address"
        }
      ],
      "stateMutability": "view",
      "type": "function"
    },
    {
      "inputs": [
        {
          "internalType": "uint256",
          "name": "",
          "type": "uint256"
        }
      ],
      "name": "poolDataInfo",
      "outputs": [
        {
          "internalType": "uint256",
          "name": "settleAmount0",
          "type": "uint256"
        },
        {
          "internalType": "uint256",
          "name": "settleAmount1",
          "type": "uint256"
        },
        {
          "internalType": "uint256",
          "name": "finishAmount0",
          "type": "uint256"
        },
        {
          "internalType": "uint256",
          "name": "finishAmount1",
          "type": "uint256"
        },
        {
          "internalType": "uint256",
          "name": "liquidationAmoun0",
          "type": "uint256"
        },
        {
          "internalType": "uint256",
          "name": "liquidationAmoun1",
          "type": "uint256"
        }
      ],
      "stateMutability": "view",
      "type": "function"
    },
    {
      "inputs": [],
      "name": "poolLength",
      "outputs": [
        {
          "internalType": "uint256",
          "name": "",
          "type": "uint256"
        }
      ],
      "stateMutability": "view",
      "type": "function"
    },
    {
      "inputs": [
        {
          "internalType": "uint256",
          "name": "_pid",
          "type": "uint256"
        }
      ],
      "name": "refundBorrow",
      "outputs": [],
      "stateMutability": "nonpayable",
      "type": "function"
    },
    {
      "inputs": [
        {
          "internalType": "uint256",
          "name": "_pid",
          "type": "uint256"
        }
      ],
      "name": "refundLend",
      "outputs": [],
      "stateMutability": "nonpayable",
      "type": "function"
    },
    {
      "inputs": [],
      "name": "renounceOwnership",
      "outputs": [],
      "stateMutability": "nonpayable",
      "type": "function"
    },
    {
      "inputs": [
        {
          "internalType": "uint256",
          "name": "_lendFee",
          "type": "uint256"
        },
        {
          "internalType": "uint256",
          "name": "_borrowFee",
          "type": "uint256"
        }
      ],
      "name": "setFee",
      "outputs": [],
      "stateMutability": "nonpayable",
      "type": "function"
    },
    {
      "inputs": [
        {
          "internalType": "address payable",
          "name": "_feeAddress",
          "type": "address"
        }
      ],
      "name": "setFeeAddress",
      "outputs": [],
      "stateMutability": "nonpayable",
      "type": "function"
    },
    {
      "inputs": [],
      "name": "setPause",
      "outputs": [],
      "stateMutability": "nonpayable",
      "type": "function"
    },
    {
      "inputs": [
        {
          "internalType": "address",
          "name": "_swapRouter",
          "type": "address"
        }
      ],
      "name": "setSwapRouterAddress",
      "outputs": [],
      "stateMutability": "nonpayable",
      "type": "function"
    },
    {
      "inputs": [
        {
          "internalType": "uint256",
          "name": "_pid",
          "type": "uint256"
        }
      ],
      "name": "settle",
      "outputs": [],
      "stateMutability": "nonpayable",
      "type": "function"
    },
    {
      "inputs": [],
      "name": "swapRouter",
      "outputs": [
        {
          "internalType": "address",
          "name": "",
          "type": "address"
        }
      ],
      "stateMutability": "view",
      "type": "function"
    },
    {
      "inputs": [
        {
          "internalType": "address",
          "name": "newOwner",
          "type": "address"
        }
      ],
      "name": "transferOwnership",
      "outputs": [],
      "stateMutability": "nonpayable",
      "type": "function"
    },
    {
      "inputs": [
        {
          "internalType": "uint256",
          "name": "_pid",
          "type": "uint256"
        },
        {
          "internalType": "uint64",
          "name": "_interestRate",
          "type": "uint64"
        },
        {
          "internalType": "uint256",
          "name": "_maxSupply",
          "type": "uint256"
        }
      ],
      "name": "updatePoolBaseInfo",
      "outputs": [],
      "stateMutability": "nonpayable",
      "type": "function"
    },
    {
      "inputs": [
        {
          "internalType": "address",
          "name": "",
          "type": "address"
        },
        {
          "internalType": "uint256",
          "name": "",
          "type": "uint256"
        }
      ],
      "name": "userBorrowInfo",
      "outputs": [
        {
          "internalType": "uint256",
          "name": "stakeAmount",
          "type": "uint256"
        },
        {
          "internalType": "uint256",
          "name": "refundAmount",
          "type": "uint256"
        },
        {
          "internalType": "bool",
          "name": "refundFlag",
          "type": "bool"
        },
        {
          "internalType": "bool",
          "name": "claimFlag",
          "type": "bool"
        }
      ],
      "stateMutability": "view",
      "type": "function"
    },
    {
      "inputs": [
        {
          "internalType": "address",
          "name": "",
          "type": "address"
        },
        {
          "internalType": "uint256",
          "name": "",
          "type": "uint256"
        }
      ],
      "name": "userLendInfo",
      "outputs": [
        {
          "internalType": "uint256",
          "name": "stakeAmount",
          "type": "uint256"
        },
        {
          "internalType": "uint256",
          "name": "refundAmount",
          "type": "uint256"
        },
        {
          "internalType": "bool",
          "name": "refundFlag",
          "type": "bool"
        },
        {
          "internalType": "bool",
          "name": "claimFlag",
          "type": "bool"
        }
      ],
      "stateMutability": "view",
      "type": "function"
    },
    {
      "inputs": [
        {
          "internalType": "uint256",
          "name": "_pid",
          "type": "uint256"
        },
        {
          "internalType": "uint256",
          "name": "_jpAmount",
          "type": "uint256"
        },
        {
          "internalType": "uint256",
          "name": "_deadLine",
          "type": "uint256"
        }
      ],
      "name": "withdrawBorrow",
      "outputs": [],
      "stateMutability": "nonpayable",
      "type": "function"
    },
    {
      "inputs": [
        {
          "internalType": "uint256",
          "name": "_pid",
          "type": "uint256"
        },
        {
          "internalType": "uint256",
          "name": "_spAmount",
          "type": "uint256"
        }
      ],
      "name": "withdrawLend",
      "outputs": [],
      "stateMutability": "nonpayable",
      "type": "function"
    }
  ],
  "bytecode": "0x60806040526001805460ff60a01b191690553480156200001e57600080fd5b50604051620054c2380380620054c2833981810160405260608110156200004457600080fd5b5080516020820151604090920151600160009081559192916200006662000109565b600180546001600160a01b0319166001600160a01b038316908117909155604051919250906000907f8be0079c531659141344cd1fd0a4f28419497f9722a3daafe3b4186f6b6457e0908290a350600480546001600160a01b039485166001600160a01b031991821617909155600280549385169382169390931790925560038054919093169116179055600060058190556006556301312d006007556200010d565b3390565b6153a5806200011d6000396000f3fe6080604052600436106102305760003560e01c80637dc0d1d01161012e578063bf38b8f6116100ab578063d431b1ac1161006f578063d431b1ac14610919578063e271fa0c1461092e578063e626648a14610958578063eec8d5061461096d578063f2fde38b1461099757610230565b8063bf38b8f614610815578063c31c9c071461083f578063c933375614610854578063c9bf047c146108b9578063d353a1cb146108ef57610230565b806390590da0116100f257806390590da0146106f0578063a62ff16414610713578063ad6102e51461073d578063b1597517146107b2578063bb176a64146107dc57610230565b80637dc0d1d0146106545780638705fcd4146106695780638a5a8f5f1461069c5780638da5cb5b146106b15780638df82800146106c657610230565b8063415f1240116101bc5780635a5a971e116101805780635a5a971e1461051a5780635c975abb146105d65780636abd7f29146105eb5780636c42fed214610615578063715018a61461063f57610230565b8063415f12401461044f5780634aea0aec146104795780635249961b1461048e57806352f7c988146104c1578063593f4cb7146104f157610230565b80632fc0c96c116102035780632fc0c96c1461032157806338f2aa76146103635780633ab4a445146103935780633c9fadc3146103bd578063412753581461041e57610230565b80630177b68c14610235578063081e3eda1461029257806308e7305f146102b957806314c090cc146102f7575b600080fd5b34801561024157600080fd5b5061025f6004803603602081101561025857600080fd5b50356109ca565b604080519687526020870195909552858501939093526060850191909152608084015260a0830152519081900360c00190f35b34801561029e57600080fd5b506102a7610a0d565b60408051918252519081900360200190f35b3480156102c557600080fd5b506102e3600480360360208110156102dc57600080fd5b5035610a13565b604080519115158252519081900360200190f35b34801561030357600080fd5b506102e36004803603602081101561031a57600080fd5b5035610aca565b34801561032d57600080fd5b506103616004803603606081101561034457600080fd5b5080359067ffffffffffffffff6020820135169060400135610af4565b005b34801561036f57600080fd5b506103616004803603604081101561038657600080fd5b5080359060200135610b97565b34801561039f57600080fd5b50610361600480360360208110156103b657600080fd5b5035610f6b565b3480156103c957600080fd5b506103f6600480360360408110156103e057600080fd5b506001600160a01b0381351690602001356112f2565b6040805194855260208501939093529015158383015215156060830152519081900360800190f35b34801561042a57600080fd5b5061043361132a565b604080516001600160a01b039092168252519081900360200190f35b34801561045b57600080fd5b506103616004803603602081101561047257600080fd5b5035611339565b34801561048557600080fd5b506102a761167f565b34801561049a57600080fd5b50610361600480360360208110156104b157600080fd5b50356001600160a01b0316611685565b3480156104cd57600080fd5b50610361600480360360408110156104e457600080fd5b5080359060200135611709565b6103616004803603606081101561050757600080fd5b5080359060208101359060400135611776565b34801561052657600080fd5b506105446004803603602081101561053d57600080fd5b5035611a7d565b604051808d81526020018c81526020018b81526020018a8152602001898152602001888152602001878152602001866001600160a01b03168152602001856001600160a01b0316815260200184600481111561059c57fe5b8152602001836001600160a01b03168152602001826001600160a01b031681526020019c5050505050505050505050505060405180910390f35b3480156105e257600080fd5b506102e3611b02565b3480156105f757600080fd5b506102e36004803603602081101561060e57600080fd5b5035611b12565b34801561062157600080fd5b506103616004803603602081101561063857600080fd5b5035611b3c565b34801561064b57600080fd5b50610361611e7b565b34801561066057600080fd5b50610433611f27565b34801561067557600080fd5b506103616004803603602081101561068c57600080fd5b50356001600160a01b0316611f36565b3480156106a857600080fd5b506102a7611fba565b3480156106bd57600080fd5b50610433611fc0565b3480156106d257600080fd5b50610361600480360360208110156106e957600080fd5b5035611fcf565b6103616004803603604081101561070657600080fd5b5080359060200135612269565b34801561071f57600080fd5b506103616004803603602081101561073657600080fd5b503561258b565b34801561074957600080fd5b50610361600480360361012081101561076157600080fd5b5080359060208101359067ffffffffffffffff604082013516906060810135906080810135906001600160a01b0360a082013581169160c081013582169160e08201358116916101000135166128df565b3480156107be57600080fd5b506102a7600480360360208110156107d557600080fd5b5035612bfe565b3480156107e857600080fd5b506103f6600480360360408110156107ff57600080fd5b506001600160a01b038135169060200135612c42565b34801561082157600080fd5b506103616004803603602081101561083857600080fd5b5035612c7a565b34801561084b57600080fd5b50610433612f38565b34801561086057600080fd5b5061087e6004803603602081101561087757600080fd5b5035612f47565b6040518082600260200280838360005b838110156108a657818101518382015260200161088e565b5050505090500191505060405180910390f35b3480156108c557600080fd5b50610361600480360360608110156108dc57600080fd5b508035906020810135906040013561317c565b3480156108fb57600080fd5b506103616004803603602081101561091257600080fd5b5035613570565b34801561092557600080fd5b5061036161399f565b34801561093a57600080fd5b506103616004803603602081101561095157600080fd5b5035613a22565b34801561096457600080fd5b506102a7613ce2565b34801561097957600080fd5b506103616004803603602081101561099057600080fd5b5035613ce8565b3480156109a357600080fd5b50610361600480360360208110156109ba57600080fd5b50356001600160a01b031661402c565b600981815481106109d757fe5b60009182526020909120600690910201805460018201546002830154600384015460048501546005909501549395509193909286565b60085490565b60008060098381548110610a2357fe5b90600052602060002090600602019050610a3b615111565b610a4484612f47565b90506000610a8e670de0b6b3a7640000610a7d610a8385855b6020020151610a7d670de0b6b3a76400008860015b60200201519061412f565b90614191565b60018701549061412f565b90506000610abe6305f5e100610a7d610ab66007546305f5e1006141d390919063ffffffff16565b87549061412f565b90911095945050505050565b600060088281548110610ad957fe5b90600052602060002090600b02016000015442119050919050565b610afc61422d565b6001600160a01b0316610b0d611fc0565b6001600160a01b031614610b56576040805162461bcd60e51b815260206004820181905260248201526000805160206152e0833981519152604482015290519081900360640190fd5b600060088481548110610b6557fe5b90600052602060002090600b020190508267ffffffffffffffff16816002018190555081816003018190555050505050565b60026000541415610bdd576040805162461bcd60e51b815260206004820152601f6024820152600080516020615130833981519152604482015290519081900360640190fd5b6002600055600154600160a01b900460ff1615610c2f576040805162461bcd60e51b81526020600482015260186024820152600080516020615233833981519152604482015290519081900360640190fd5b600060088381548110610c3e57fe5b90600052602060002090600b02019050600060098481548110610c5d57fe5b9060005260206000209060060201905060008311610cac5760405162461bcd60e51b81526004018080602001828103825260258152602001806151746025913960400191505060405180910390fd5b600982015460408051632770a7eb60e21b81523360048201526024810186905290516001600160a01b0390921691639dc29fac9160448082019260009290919082900301818387803b158015610d0157600080fd5b505af1158015610d15573d6000803e3d6000fd5b505050506000610d496305f5e100610a7d610d416305f5e10087600201546141d390919063ffffffff16565b85549061412f565b90506000610d6382610a7d87670de0b6b3a764000061412f565b905060026008850154600160a01b900460ff166004811115610d8157fe5b1415610e6e5783600101544211610ddf576040805162461bcd60e51b815260206004820181905260248201527f77697468647261774c656e643a206c657373207468616e20656e642074696d65604482015290519081900360640190fd5b6000610e04670de0b6b3a7640000610a7d84876002015461412f90919063ffffffff16565b6007860154909150610e219033906001600160a01b031683614231565b6007850154604080518381526020810189905281516001600160a01b039093169233927f690f32ccf3e832d5ff975d781039bc2affebee9c973939c9b710091b87954c9d928290030190a3505b60036008850154600160a01b900460ff166004811115610e8a57fe5b1415610f5e5783544211610ecf5760405162461bcd60e51b81526004018080602001828103825260228152602001806152116022913960400191505060405180910390fd5b6000610ef4670de0b6b3a7640000610a7d84876004015461412f90919063ffffffff16565b6007860154909150610f119033906001600160a01b031683614231565b6007850154604080518381526020810189905281516001600160a01b039093169233927f690f32ccf3e832d5ff975d781039bc2affebee9c973939c9b710091b87954c9d928290030190a3505b5050600160005550505050565b60026000541415610fb1576040805162461bcd60e51b815260206004820152601f6024820152600080516020615130833981519152604482015290519081900360640190fd5b6002600055600154600160a01b900460ff1615611003576040805162461bcd60e51b81526020600482015260186024820152600080516020615233833981519152604482015290519081900360640190fd5b806008818154811061101157fe5b90600052602060002090600b020160000154421161106e576040805162461bcd60e51b8152602060048201526015602482015274477265617465207468616e20746869732074696d6560581b604482015290519081900360640190fd5b60006008838154811061107d57fe5b90600052602060002090600b0201905060006009848154811061109c57fe5b60009182526020808320338452600a825260408085208986529092529220805460069092029092019250611117576040805162461bcd60e51b815260206004820152601f60248201527f636c61696d426f72726f773a206e6f7420636c61696d206a705f746f6b656e00604482015290519081900360640190fd5b6002810154610100900460ff1615611176576040805162461bcd60e51b815260206004820152601860248201527f636c61696d426f72726f773a20616761696e20636c61696d0000000000000000604482015290519081900360640190fd5b600061119b6305f5e100610a7d8660060154866000015461412f90919063ffffffff16565b905060006111c68560050154610a7d670de0b6b3a7640000866000015461412f90919063ffffffff16565b905060006111e0670de0b6b3a7640000610a7d858561412f565b600a870154604080516340c10f1960e01b81523360048201526024810184905290519293506001600160a01b03909116916340c10f199160448082019260009290919082900301818387803b15801561123857600080fd5b505af115801561124c573d6000803e3d6000fd5b505086546000925061126d9150670de0b6b3a764000090610a7d908661412f565b600788015490915061128a9033906001600160a01b031683614231565b60028501805461ff00191661010017905560088701546040805184815290516001600160a01b039092169133917f3ddafe3ebb4d0c818317027aabfa82dc9983942ceeb80523167e2de047b17fbd919081900360200190a35050600160005550505050505050565b600a60209081526000928352604080842090915290825290208054600182015460029092015490919060ff8082169161010090041684565b6003546001600160a01b031681565b61134161422d565b6001600160a01b0316611352611fc0565b6001600160a01b03161461139b576040805162461bcd60e51b815260206004820181905260248201526000805160206152e0833981519152604482015290519081900360640190fd5b6000600982815481106113aa57fe5b906000526020600020906006020190506000600883815481106113c957fe5b90600052602060002090600b0201905080600001544211611431576040805162461bcd60e51b815260206004820181905260248201527f6e6f772074696d65206973206c657373207468616e206d617463682074696d65604482015290519081900360640190fd5b6008810154600782015460028301546001600160a01b039283169290911690600090611473906305f5e10090610a7d9061146b90836141d3565b88549061412f565b600554909150156115a55760006114ab6305f5e100610a7d6114a46305f5e1006005546141d390919063ffffffff16565b859061412f565b60025490915060009081906114cb906001600160a01b03168787866142e2565b91509150838111156115075760006114e3828661431e565b60035460078a0154919250611505916001600160a01b03918216911683614231565b505b60048801819055600654156115885760006115436305f5e100610a7d60065461153d878e6001015461431e90919063ffffffff16565b9061412f565b60035460088a0154919250611565916001600160a01b03918216911683614231565b61157d61157284836141d3565b60018b01549061431e565b60058a01555061159d565b6001880154611597908361431e565b60058901555b50505061165a565b60025460009081906115c2906001600160a01b03168686866142e2565b600489018190556006549193509150156116425760006115fd6305f5e100610a7d60065461153d878d6001015461431e90919063ffffffff16565b600354600889015491925061161f916001600160a01b03918216911683614231565b61163761162c84836141d3565b60018a01549061431e565b600589015550611657565b6001870154611651908361431e565b60058801555b50505b6008840180546003919060ff60a01b1916600160a01b835b0217905550505050505050565b60055481565b61168d61422d565b6001600160a01b031661169e611fc0565b6001600160a01b0316146116e7576040805162461bcd60e51b815260206004820181905260248201526000805160206152e0833981519152604482015290519081900360640190fd5b600280546001600160a01b0319166001600160a01b0392909216919091179055565b61171161422d565b6001600160a01b0316611722611fc0565b6001600160a01b03161461176b576040805162461bcd60e51b815260206004820181905260248201526000805160206152e0833981519152604482015290519081900360640190fd5b600591909155600655565b600260005414156117bc576040805162461bcd60e51b815260206004820152601f6024820152600080516020615130833981519152604482015290519081900360640190fd5b6002600055600154600160a01b900460ff161561180e576040805162461bcd60e51b81526020600482015260186024820152600080516020615233833981519152604482015290519081900360640190fd5b826008818154811061181c57fe5b90600052602060002090600b0201600001544210611877576040805162461bcd60e51b81526020600482015260136024820152724c657373207468616e20746869732074696d6560681b604482015290519081900360640190fd5b8360006008828154811061188757fe5b90600052602060002090600b020160080160149054906101000a900460ff1660048111156118b157fe5b146118ed5760405162461bcd60e51b815260040180806020018281038252602181526020018061529e6021913960400191505060405180910390fd5b8242811015611934576040805162461bcd60e51b815260206004820152600e60248201526d1cdd185ad94e881156141254915160921b604482015290519081900360640190fd5b60006008878154811061194357fe5b60009182526020808320338452600a825260408085208c8652909252908320600b92909202016008810154909350909190611987906001600160a01b031689614360565b9050600081116119c85760405162461bcd60e51b81526004018080602001828103825260258152602001806152536025913960400191505060405180910390fd5b60028201805461ffff1916905560088301546001600160a01b03166119ff5781543490810183556005840180549091019055611a22565b8154611a0b90896141d3565b82556005830154611a1c90896141d3565b60058401555b6008830154604080518a81526020810184905281516001600160a01b039093169233927f1d7b72e666a0b6217efe7cfa1b604ea5c7b39219563ce48b30c9da77045247a5928290030190a35050600160005550505050505050565b60088181548110611a8a57fe5b60009182526020909120600b9091020180546001820154600283015460038401546004850154600586015460068701546007880154600889015460098a0154600a909a0154989a509698959794969395929491936001600160a01b039182169382821693600160a01b90920460ff169290811691168c565b600154600160a01b900460ff1681565b600060088281548110611b2157fe5b90600052602060002090600b02016001015442119050919050565b60026000541415611b82576040805162461bcd60e51b815260206004820152601f6024820152600080516020615130833981519152604482015290519081900360640190fd5b6002600055600154600160a01b900460ff1615611bd4576040805162461bcd60e51b81526020600482015260186024820152600080516020615233833981519152604482015290519081900360640190fd5b8060088181548110611be257fe5b90600052602060002090600b0201600001544211611c3f576040805162461bcd60e51b8152602060048201526015602482015274477265617465207468616e20746869732074696d6560581b604482015290519081900360640190fd5b600060088381548110611c4e57fe5b90600052602060002090600b02019050600060098481548110611c6d57fe5b60009182526020808320338452600b825260408085208986529092529220805460069092029092019250611ce8576040805162461bcd60e51b815260206004820152601d60248201527f636c61696d4c656e643a206e6f7420636c61696d2073705f746f6b656e000000604482015290519081900360640190fd5b6002810154610100900460ff1615611d40576040805162461bcd60e51b8152602060048201526016602482015275636c61696d4c656e643a20616761696e20636c61696d60501b604482015290519081900360640190fd5b60048301548154600091611d6091610a7d90670de0b6b3a764000061412f565b90506000611d8a6305f5e100610a7d610ab66305f5e10089600201546141d390919063ffffffff16565b90506000611da4670de0b6b3a7640000610a7d848661412f565b6009870154604080516340c10f1960e01b81523360048201526024810184905290519293506001600160a01b03909116916340c10f199160448082019260009290919082900301818387803b158015611dfc57600080fd5b505af1158015611e10573d6000803e3d6000fd5b50505060028501805461ff0019166101001790555060088601546040805183815290516001600160a01b039092169133917f6f4dd2687b3c3bfa99d39742b01d6e0ad9604c48559791d5df4ff5df44b41dfd919081900360200190a350506001600055505050505050565b611e8361422d565b6001600160a01b0316611e94611fc0565b6001600160a01b031614611edd576040805162461bcd60e51b815260206004820181905260248201526000805160206152e0833981519152604482015290519081900360640190fd5b6001546040516000916001600160a01b0316907f8be0079c531659141344cd1fd0a4f28419497f9722a3daafe3b4186f6b6457e0908390a3600180546001600160a01b0319169055565b6004546001600160a01b031681565b611f3e61422d565b6001600160a01b0316611f4f611fc0565b6001600160a01b031614611f98576040805162461bcd60e51b815260206004820181905260248201526000805160206152e0833981519152604482015290519081900360640190fd5b600380546001600160a01b0319166001600160a01b0392909216919091179055565b60075481565b6001546001600160a01b031690565b611fd761422d565b6001600160a01b0316611fe8611fc0565b6001600160a01b031614612031576040805162461bcd60e51b815260206004820181905260248201526000805160206152e0833981519152604482015290519081900360640190fd5b60006008828154811061204057fe5b90600052602060002090600b0201905060006009838154811061205f57fe5b906000526020600020906006020190506008838154811061207c57fe5b90600052602060002090600b02016000015442116120e1576040805162461bcd60e51b815260206004820152601b60248201527f736574746c653a206c657373207468616e206d6174636874696d650000000000604482015290519081900360640190fd5b60006008830154600160a01b900460ff1660048111156120fd57fe5b1461214f576040805162461bcd60e51b815260206004820181905260248201527f736574746c653a20706f6f6c207374617465206d757374206265206d61746368604482015290519081900360640190fd5b60008260040154118015612167575060008260050154115b1561222a57612174615111565b61217d84612f47565b905060006121a5670de0b6b3a7640000610a7d61219a8585610a5d565b60058801549061412f565b905060006121c88560060154610a7d6305f5e1008561412f90919063ffffffff16565b905080856004015411156121e85780845560058501546001850155612222565b60048501548455825161221c9061220990610a7d6305f5e100876001610a72565b60068701546004880154610a7d9161412f565b60018501555b505050612251565b60088201805460ff60a01b1916600160a21b17905560048201548155600582015460018201555b50600801805460ff60a01b1916600160a01b17905550565b600260005414156122af576040805162461bcd60e51b815260206004820152601f6024820152600080516020615130833981519152604482015290519081900360640190fd5b6002600055600154600160a01b900460ff1615612301576040805162461bcd60e51b81526020600482015260186024820152600080516020615233833981519152604482015290519081900360640190fd5b816008818154811061230f57fe5b90600052602060002090600b020160000154421061236a576040805162461bcd60e51b81526020600482015260136024820152724c657373207468616e20746869732074696d6560681b604482015290519081900360640190fd5b8260006008828154811061237a57fe5b90600052602060002090600b020160080160149054906101000a900460ff1660048111156123a457fe5b146123e05760405162461bcd60e51b815260040180806020018281038252602181526020018061529e6021913960400191505060405180910390fd5b6000600885815481106123ef57fe5b60009182526020808320338452600b80835260408086208b87529093529190932091029091016004810154600382015491935061242c919061431e565b85111561246a5760405162461bcd60e51b815260040180806020018281038252602b8152602001806151bf602b913960400191505060405180910390fd5b6007820154600090612485906001600160a01b031687614360565b905068056bc75e2d6310000081116124d8576040805162461bcd60e51b815260206004820152601160248201527006d696e20616d6f756e742069732031303607c1b604482015290519081900360640190fd5b60028201805461ffff1916905560078301546001600160a01b031661250f5781543490810183556004840180549091019055612532565b815461251b90876141d3565b8255600483015461252c90876141d3565b60048401555b6007830154604080518881526020810184905281516001600160a01b039093169233927f129e8c18c2f7baf99c7eb257934c21f038c72412803512dcf0a942a4562a82ea928290030190a3505060016000555050505050565b600260005414156125d1576040805162461bcd60e51b815260206004820152601f6024820152600080516020615130833981519152604482015290519081900360640190fd5b6002600055600154600160a01b900460ff1615612623576040805162461bcd60e51b81526020600482015260186024820152600080516020615233833981519152604482015290519081900360640190fd5b806008818154811061263157fe5b90600052602060002090600b020160000154421161268e576040805162461bcd60e51b8152602060048201526015602482015274477265617465207468616e20746869732074696d6560581b604482015290519081900360640190fd5b60006008838154811061269d57fe5b90600052602060002090600b020190506000600984815481106126bc57fe5b60009182526020808320338452600a8252604080852089865290925290832060069290920201600181015460058601549194509192916126fc919061431e565b1161274e576040805162461bcd60e51b815260206004820152601860248201527f726566756e64426f72726f773a206e6f7420726566756e640000000000000000604482015290519081900360640190fd5b805461279d576040805162461bcd60e51b81526020600482015260196024820152781c99599d5b99109bdc9c9bddce881b9bdd081c1b195919d959603a1b604482015290519081900360640190fd5b600281015460ff16156127f7576040805162461bcd60e51b815260206004820152601a60248201527f726566756e64426f72726f773a20616761696e20726566756e64000000000000604482015290519081900360640190fd5b6005830154815460009161281791610a7d90670de0b6b3a764000061412f565b90506000612846670de0b6b3a7640000610a7d8461153d88600101548a6005015461431e90919063ffffffff16565b60088601549091506128639033906001600160a01b031683614231565b600183015461287290826141d3565b60018085019190915560028401805460ff1916909117905560088501546040805183815290516001600160a01b039092169133917f732816f48de550f238bd0d4f5b79819c7b24a49d6132928978e3cd36568dd5db919081900360200190a3505060016000555050505050565b6128e761422d565b6001600160a01b03166128f8611fc0565b6001600160a01b031614612941576040805162461bcd60e51b815260206004820181905260248201526000805160206152e0833981519152604482015290519081900360640190fd5b60086040518061018001604052808b81526020018a81526020018967ffffffffffffffff1681526020018881526020016000815260200160008152602001878152602001866001600160a01b03168152602001856001600160a01b03168152602001600060048111156129b057fe5b81526001600160a01b038086166020808401919091528582166040938401528454600181810187556000968752958290208551600b90920201908155908401519481019490945590820151600284015560608201516003840155608082015160048085019190915560a0830151600585015560c0830151600685015560e08301516007850180549184166001600160a01b031992831617905561010084015160088601805491909416911617808355610120840151939493929160ff60a01b1990911690600160a01b908490811115612a8557fe5b0217905550610140820151600982810180546001600160a01b03199081166001600160a01b039485161790915561016090940151600a909301805490941692909116919091179091556040805160c081018252600080825260208201818152928201818152606083018281526080840183815260a0850184815287546001810189559790945293517f6e1540171b6c0c960b71a7020d9f60077f6af931a8bbf590da0223dacf75c7af60069097029687015593517f6e1540171b6c0c960b71a7020d9f60077f6af931a8bbf590da0223dacf75c7b0860155517f6e1540171b6c0c960b71a7020d9f60077f6af931a8bbf590da0223dacf75c7b185015591517f6e1540171b6c0c960b71a7020d9f60077f6af931a8bbf590da0223dacf75c7b2840155517f6e1540171b6c0c960b71a7020d9f60077f6af931a8bbf590da0223dacf75c7b3830155517f6e1540171b6c0c960b71a7020d9f60077f6af931a8bbf590da0223dacf75c7b490910155505050505050505050565b60008060088381548110612c0e57fe5b90600052602060002090600b020190508060080160149054906101000a900460ff166004811115612c3b57fe5b9392505050565b600b60209081526000928352604080842090915290825290208054600182015460029092015490919060ff8082169161010090041684565b60026000541415612cc0576040805162461bcd60e51b815260206004820152601f6024820152600080516020615130833981519152604482015290519081900360640190fd5b6002600055600154600160a01b900460ff1615612d12576040805162461bcd60e51b81526020600482015260186024820152600080516020615233833981519152604482015290519081900360640190fd5b600060088281548110612d2157fe5b90600052602060002090600b020190506000816004015411612d8a576040805162461bcd60e51b815260206004820152601c60248201527f656d657267656e634c656e643a206e6f74207769746864726177616c00000000604482015290519081900360640190fd5b60046008820154600160a01b900460ff166004811115612da657fe5b14612df8576040805162461bcd60e51b815260206004820152601f60248201527f656d657267656e63793a207374617465206d75737420626520756e646f6e6500604482015290519081900360640190fd5b336000908152600b6020908152604080832085845290915290208054612e5f576040805162461bcd60e51b81526020600482015260176024820152761c99599d5b9913195b990e881b9bdd081c1b195919d959604a1b604482015290519081900360640190fd5b600281015460ff1615612eb9576040805162461bcd60e51b815260206004820152601860248201527f726566756e644c656e643a20616761696e20726566756e640000000000000000604482015290519081900360640190fd5b60078201548154612ed79133916001600160a01b0390911690614231565b60028101805460ff191660011790556007820154815460408051918252516001600160a01b039092169133917f71d14c5f08cb34cbfb59c06ea5151aafbf742d0b6ed00fdb83addd9afb5c0fd0919081900360200190a35050600160005550565b6002546001600160a01b031681565b612f4f615111565b600060088381548110612f5e57fe5b600091825260209182902060408051600280825260608083018452600b9095029093019550929383019080368337505050600783015481519192506001600160a01b0316908290600090612fae57fe5b6020908102919091010152600882015481516001600160a01b039091169082906001908110612fd957fe5b602090810291909101810191909152600480546040516304e59d2760e11b81529182018381528451602484015284516060946001600160a01b03909316936309cb3a4e93879392839260440191858101910280838360005b83811015613049578181015183820152602001613031565b505050509050019250505060006040518083038186803b15801561306c57600080fd5b505afa158015613080573d6000803e3d6000fd5b505050506040513d6000823e601f3d908101601f1916820160405260208110156130a957600080fd5b8101908080516040519392919084600160201b8211156130c857600080fd5b9083019060208201858111156130dd57600080fd5b82518660208202830111600160201b821117156130f957600080fd5b82525081516020918201928201910280838360005b8381101561312657818101518382015260200161310e565b50505050905001604052505050905060405180604001604052808260008151811061314d57fe5b602002602001015181526020018260018151811061316757fe5b60200260200101518152509350505050919050565b600260005414156131c2576040805162461bcd60e51b815260206004820152601f6024820152600080516020615130833981519152604482015290519081900360640190fd5b6002600055600154600160a01b900460ff1615613214576040805162461bcd60e51b81526020600482015260186024820152600080516020615233833981519152604482015290519081900360640190fd5b804281101561325b576040805162461bcd60e51b815260206004820152600e60248201526d1cdd185ad94e881156141254915160921b604482015290519081900360640190fd5b60006008858154811061326a57fe5b90600052602060002090600b0201905060006009868154811061328957fe5b90600052602060002090600602019050600085116132d85760405162461bcd60e51b81526004018080602001828103825260278152602001806151ea6027913960400191505060405180910390fd5b600a82015460408051632770a7eb60e21b81523360048201526024810188905290516001600160a01b0390921691639dc29fac9160448082019260009290919082900301818387803b15801561332d57600080fd5b505af1158015613341573d6000803e3d6000fd5b5050506006830154825460009250613362916305f5e10091610a7d9161412f565b9050600061337c82610a7d89670de0b6b3a764000061412f565b905060026008850154600160a01b900460ff16600481111561339a57fe5b141561347157836001015442116133e25760405162461bcd60e51b815260040180806020018281038252602281526020018061534e6022913960400191505060405180910390fd5b6000613407670de0b6b3a7640000610a7d86600301548561412f90919063ffffffff16565b60088601549091506134249033906001600160a01b031683614231565b6008850154604080518a81526020810184905281516001600160a01b039093169233927f0f5e74952c2f9259a748f3aa9a6c4534a6f46a5966e5baabdb6bd337f05234a8928290030190a3505b60036008850154600160a01b900460ff16600481111561348d57fe5b141561356157835442116134d25760405162461bcd60e51b81526004018080602001828103825260248152602001806151506024913960400191505060405180910390fd5b60006134f7670de0b6b3a7640000610a7d86600501548561412f90919063ffffffff16565b60088601549091506135149033906001600160a01b031683614231565b6008850154604080518a81526020810184905281516001600160a01b039093169233927f0f5e74952c2f9259a748f3aa9a6c4534a6f46a5966e5baabdb6bd337f05234a8928290030190a3505b50506001600055505050505050565b61357861422d565b6001600160a01b0316613589611fc0565b6001600160a01b0316146135d2576040805162461bcd60e51b815260206004820181905260248201526000805160206152e0833981519152604482015290519081900360640190fd5b6000600882815481106135e157fe5b90600052602060002090600b0201905060006009838154811061360057fe5b906000526020600020906006020190506008838154811061361d57fe5b90600052602060002090600b0201600101544211613682576040805162461bcd60e51b815260206004820152601a60248201527f66696e6973683a206c657373207468616e20656e642074696d65000000000000604482015290519081900360640190fd5b60016008830154600160a01b900460ff16600481111561369e57fe5b146136da5760405162461bcd60e51b81526004018080602001828103825260248152602001806153006024913960400191505060405180910390fd5b6008820154600783015460028401546001600160a01b039283169290911690600090613714906305f5e10090610a7d90610ab690836141d3565b6005549091501561387a5760006137456305f5e100610a7d6114a46305f5e1006005546141d390919063ffffffff16565b6002549091506000908190613765906001600160a01b03168787866142e2565b91509150838110156137be576040805162461bcd60e51b815260206004820152601c60248201527f66696e6973683a20536c69707061676520697320746f6f206869676800000000604482015290519081900360640190fd5b60006137ca828661431e565b60035460078b01549192506137ec916001600160a01b03918216911683614231565b600288018590556006541561385c5760006138226305f5e100610a7d60065461153d888e6001015461431e90919063ffffffff16565b60035460088c0154919250613844916001600160a01b03918216911683614231565b61385161157285836141d3565b60038a015550613871565b600188015461386b908461431e565b60038901555b50505050613983565b6002546000908190613897906001600160a01b03168686866142e2565b91509150828110156138f0576040805162461bcd60e51b815260206004820152601c60248201527f66696e6973683a20536c69707061676520697320746f6f206869676800000000604482015290519081900360640190fd5b600286018390556006541561396b5760006139266305f5e100610a7d60065461153d878c6001015461431e90919063ffffffff16565b60035460088a0154919250613948916001600160a01b03918216911683614231565b61396061395584836141d3565b60018901549061431e565b600388015550613980565b600186015461397a908361431e565b60038701555b50505b6008850180546002919060ff60a01b1916600160a01b83611672565b6139a761422d565b6001600160a01b03166139b8611fc0565b6001600160a01b031614613a01576040805162461bcd60e51b815260206004820181905260248201526000805160206152e0833981519152604482015290519081900360640190fd5b6001805460ff60a01b198116600160a01b9182900460ff1615909102179055565b60026000541415613a68576040805162461bcd60e51b815260206004820152601f6024820152600080516020615130833981519152604482015290519081900360640190fd5b6002600055600154600160a01b900460ff1615613aba576040805162461bcd60e51b81526020600482015260186024820152600080516020615233833981519152604482015290519081900360640190fd5b600060088281548110613ac957fe5b90600052602060002090600b020190506000816005015411613b32576040805162461bcd60e51b815260206004820152601f60248201527f656d657267656e6379426f72726f773a206e6f74207769746864726177616c00604482015290519081900360640190fd5b60046008820154600160a01b900460ff166004811115613b4e57fe5b14613ba0576040805162461bcd60e51b815260206004820152601f60248201527f656d657267656e63793a207374617465206d75737420626520756e646f6e6500604482015290519081900360640190fd5b336000908152600a6020908152604080832085845290915290208054613c09576040805162461bcd60e51b81526020600482015260196024820152781c99599d5b99109bdc9c9bddce881b9bdd081c1b195919d959603a1b604482015290519081900360640190fd5b600281015460ff1615613c63576040805162461bcd60e51b815260206004820152601a60248201527f726566756e64426f72726f773a20616761696e20726566756e64000000000000604482015290519081900360640190fd5b60088201548154613c819133916001600160a01b0390911690614231565b60028101805460ff191660011790556008820154815460408051918252516001600160a01b039092169133917f5a06c7de92f1dc59e8cba872927d016c80ce5f0fb2295c898dfb7a2f08e43fb1919081900360200190a35050600160005550565b60065481565b60026000541415613d2e576040805162461bcd60e51b815260206004820152601f6024820152600080516020615130833981519152604482015290519081900360640190fd5b6002600055600154600160a01b900460ff1615613d80576040805162461bcd60e51b81526020600482015260186024820152600080516020615233833981519152604482015290519081900360640190fd5b8060088181548110613d8e57fe5b90600052602060002090600b0201600001544211613deb576040805162461bcd60e51b8152602060048201526015602482015274477265617465207468616e20746869732074696d6560581b604482015290519081900360640190fd5b600060088381548110613dfa57fe5b90600052602060002090600b02019050600060098481548110613e1957fe5b60009182526020808320338452600b825260408085208986529092529220805460069092029092019250613e8e576040805162461bcd60e51b81526020600482015260176024820152761c99599d5b9913195b990e881b9bdd081c1b195919d959604a1b604482015290519081900360640190fd5b81546004840154600091613ea2919061431e565b11613eed576040805162461bcd60e51b81526020600482015260166024820152751c99599d5b9913195b990e881b9bdd081c99599d5b9960521b604482015290519081900360640190fd5b600281015460ff1615613f47576040805162461bcd60e51b815260206004820152601960248201527f726566756e644c656e643a2072657065617420726566756e6400000000000000604482015290519081900360640190fd5b60048301548154600091613f6791610a7d90670de0b6b3a764000061412f565b90506000613f96670de0b6b3a7640000610a7d8461153d88600001548a6004015461431e90919063ffffffff16565b6007860154909150613fb39033906001600160a01b031683614231565b60028301805460ff19166001908117909155830154613fd290826141d3565b600184015560078501546040805183815290516001600160a01b039092169133917fc3e20279d41b3ed21d277920877e5e5c6665bf6aca607046a3fe0fd2bd6bda7d919081900360200190a3505060016000555050505050565b61403461422d565b6001600160a01b0316614045611fc0565b6001600160a01b03161461408e576040805162461bcd60e51b815260206004820181905260248201526000805160206152e0833981519152604482015290519081900360640190fd5b6001600160a01b0381166140d35760405162461bcd60e51b81526004018080602001828103825260268152602001806151996026913960400191505060405180910390fd5b6001546040516001600160a01b038084169216907f8be0079c531659141344cd1fd0a4f28419497f9722a3daafe3b4186f6b6457e090600090a3600180546001600160a01b0319166001600160a01b0392909216919091179055565b60008261413e5750600061418b565b8282028284828161414b57fe5b04146141885760405162461bcd60e51b81526004018080602001828103825260218152602001806152bf6021913960400191505060405180910390fd5b90505b92915050565b600061418883836040518060400160405280601a81526020017f536166654d6174683a206469766973696f6e206279207a65726f00000000000081525061439c565b600082820183811015614188576040805162461bcd60e51b815260206004820152601b60248201527f536166654d6174683a206164646974696f6e206f766572666c6f770000000000604482015290519081900360640190fd5b3390565b6001600160a01b03821661427b576040516001600160a01b0384169082156108fc029083906000818181858888f19350505050158015614275573d6000803e3d6000fd5b50614292565b816142906001600160a01b038216858461443e565b505b816001600160a01b0316836001600160a01b03167fd12200efa34901b99367694174c3b0d32c99585fdf37c7c26892136ddd0836d9836040518082815260200191505060405180910390a3505050565b60008060006142f387878787614495565b6002549091508190614310906001600160a01b031688888461462d565b925092505094509492505050565b600061418883836040518060400160405280601e81526020017f536166654d6174683a207375627472616374696f6e206f766572666c6f770000815250614b04565b60006001600160a01b03831661437857349150614396565b811561439657826143946001600160a01b038216333086614b5e565b505b50919050565b600081836144285760405162461bcd60e51b81526004018080602001828103825283818151815260200191508051906020019080838360005b838110156143ed5781810151838201526020016143d5565b50505050905090810190601f16801561441a5780820380516001836020036101000a031916815260200191505b509250505060405180910390fd5b50600083858161443457fe5b0495945050505050565b604080516001600160a01b038416602482015260448082018490528251808303909101815260649091019091526020810180516001600160e01b031663a9059cbb60e01b179052614490908490614bbe565b505050565b60025460009085906060906144b4906001600160a01b03168787614c6f565b90506060826001600160a01b0316631f00ca7486846040518363ffffffff1660e01b81526004018083815260200180602001828103825283818151815260200191508051906020019060200280838360005b8381101561451e578181015183820152602001614506565b50505050905001935050505060006040518083038186803b15801561454257600080fd5b505afa158015614556573d6000803e3d6000fd5b505050506040513d6000823e601f3d908101601f19168201604052602081101561457f57600080fd5b8101908080516040519392919084600160201b82111561459e57600080fd5b9083019060208201858111156145b357600080fd5b82518660208202830111600160201b821117156145cf57600080fd5b82525081516020918201928201910280838360005b838110156145fc5781810151838201526020016145e4565b5050505090500160405250505090508060008151811061461857fe5b60200260200101519350505050949350505050565b60006001600160a01b0384161561464b5761464b8486600019614dd9565b6001600160a01b03831615614667576146678386600019614dd9565b846060614675828787614c6f565b905060606001600160a01b0387166147ff57826001600160a01b0316637ff36ab5866000853042601e016040518663ffffffff1660e01b81526004018085815260200180602001846001600160a01b03168152602001838152602001828103825285818151815260200191508051906020019060200280838360005b838110156147095781810151838201526020016146f1565b50505050905001955050505050506000604051808303818588803b15801561473057600080fd5b505af1158015614744573d6000803e3d6000fd5b50505050506040513d6000823e601f3d908101601f19168201604052602081101561476e57600080fd5b8101908080516040519392919084600160201b82111561478d57600080fd5b9083019060208201858111156147a257600080fd5b82518660208202830111600160201b821117156147be57600080fd5b82525081516020918201928201910280838360005b838110156147eb5781810151838201526020016147d3565b505050509050016040525050509050614a76565b6001600160a01b0386166148fb57826001600160a01b03166318cbafe5866000853042601e016040518663ffffffff1660e01b81526004018086815260200185815260200180602001846001600160a01b03168152602001838152602001828103825285818151815260200191508051906020019060200280838360005b8381101561489557818101518382015260200161487d565b505050509050019650505050505050600060405180830381600087803b1580156148be57600080fd5b505af11580156148d2573d6000803e3d6000fd5b505050506040513d6000823e601f3d908101601f19168201604052602081101561476e57600080fd5b826001600160a01b03166338ed1739866000853042601e016040518663ffffffff1660e01b81526004018086815260200185815260200180602001846001600160a01b03168152602001838152602001828103825285818151815260200191508051906020019060200280838360005b8381101561498357818101518382015260200161496b565b505050509050019650505050505050600060405180830381600087803b1580156149ac57600080fd5b505af11580156149c0573d6000803e3d6000fd5b505050506040513d6000823e601f3d908101601f1916820160405260208110156149e957600080fd5b8101908080516040519392919084600160201b821115614a0857600080fd5b908301906020820185811115614a1d57600080fd5b82518660208202830111600160201b82111715614a3957600080fd5b82525081516020918201928201910280838360005b83811015614a66578181015183820152602001614a4e565b5050505090500160405250505090505b856001600160a01b0316876001600160a01b03167ffa2dda1cc1b86e41239702756b13effbc1a092b5c57e3ad320fbe4f3b13fe23583600081518110614ab857fe5b602002602001015184600186510381518110614ad057fe5b6020026020010151604051808381526020018281526020019250505060405180910390a38060018251038151811061461857fe5b60008184841115614b565760405162461bcd60e51b81526020600482018181528351602484015283519092839260449091019190850190808383600083156143ed5781810151838201526020016143d5565b505050900390565b604080516001600160a01b0380861660248301528416604482015260648082018490528251808303909101815260849091019091526020810180516001600160e01b03166323b872dd60e01b179052614bb8908590614bbe565b50505050565b6060614c13826040518060400160405280602081526020017f5361666545524332303a206c6f772d6c6576656c2063616c6c206661696c6564815250856001600160a01b0316614f329092919063ffffffff16565b80519091501561449057808060200190516020811015614c3257600080fd5b50516144905760405162461bcd60e51b815260040180806020018281038252602a815260200180615324602a913960400191505060405180910390fd5b6040805160028082526060808301845292869291906020830190803683370190505091506001600160a01b03841615614ca85783614d0e565b806001600160a01b031663ad5c46486040518163ffffffff1660e01b815260040160206040518083038186803b158015614ce157600080fd5b505afa158015614cf5573d6000803e3d6000fd5b505050506040513d6020811015614d0b57600080fd5b50515b82600081518110614d1b57fe5b6001600160a01b039283166020918202929092010152831615614d3e5782614da4565b806001600160a01b031663ad5c46486040518163ffffffff1660e01b815260040160206040518083038186803b158015614d7757600080fd5b505afa158015614d8b573d6000803e3d6000fd5b505050506040513d6020811015614da157600080fd5b50515b82600181518110614db157fe5b60200260200101906001600160a01b031690816001600160a01b031681525050509392505050565b604080516001600160a01b038481166024830152604480830185905283518084039091018152606490920183526020820180516001600160e01b031663095ea7b360e01b178152925182516000946060949389169392918291908083835b60208310614e565780518252601f199092019160209182019101614e37565b6001836020036101000a0380198251168184511680821785525050505050509050019150506000604051808303816000865af19150503d8060008114614eb8576040519150601f19603f3d011682016040523d82523d6000602084013e614ebd565b606091505b5091509150818015614eeb575080511580614eeb5750808060200190516020811015614ee857600080fd5b50515b614f2b576040805162461bcd60e51b815260206004820152600c60248201526b2173616665417070726f766560a01b604482015290519081900360640190fd5b5050505050565b6060614f418484600085614f49565b949350505050565b606082471015614f8a5760405162461bcd60e51b81526004018080602001828103825260268152602001806152786026913960400191505060405180910390fd5b614f93856150a5565b614fe4576040805162461bcd60e51b815260206004820152601d60248201527f416464726573733a2063616c6c20746f206e6f6e2d636f6e7472616374000000604482015290519081900360640190fd5b60006060866001600160a01b031685876040518082805190602001908083835b602083106150235780518252601f199092019160209182019101615004565b6001836020036101000a03801982511681845116808217855250505050505090500191505060006040518083038185875af1925050503d8060008114615085576040519150601f19603f3d011682016040523d82523d6000602084013e61508a565b606091505b509150915061509a8282866150ab565b979650505050505050565b3b151590565b606083156150ba575081612c3b565b8251156150ca5782518084602001fd5b60405162461bcd60e51b81526020600482018181528451602484015284518593919283926044019190850190808383600083156143ed5781810151838201526020016143d5565b6040518060400160405280600290602082028036833750919291505056fe5265656e7472616e637947756172643a207265656e7472616e742063616c6c007769746864726177426f72726f773a206c657373207468616e206d617463682074696d6577697468647261774c656e643a20776974686472617720616d6f756e74206973207a65726f4f776e61626c653a206e6577206f776e657220697320746865207a65726f20616464726573736465706f7369744c656e643a20746865207175616e74697479206578636565647320746865206c696d69747769746864726177426f72726f773a20776974686472617720616d6f756e74206973207a65726f77697468647261774c656e643a206c657373207468616e206d617463682074696d655374616b6520686173206265656e2073757370656e64656400000000000000006465706f736974426f72726f773a206465706f73697420616d6f756e74206973207a65726f416464726573733a20696e73756666696369656e742062616c616e636520666f722063616c6c506f6f6c20737461747573206973206e6f7420657175616c20746f206d61746368536166654d6174683a206d756c7469706c69636174696f6e206f766572666c6f774f776e61626c653a2063616c6c6572206973206e6f7420746865206f776e657266696e6973683a20706f6f6c207374617465206d75737420626520657865637574696f6e5361666545524332303a204552433230206f7065726174696f6e20646964206e6f7420737563636565647769746864726177426f72726f773a206c657373207468616e20656e642074696d65a2646970667358221220fad24a3ee0462213accac26d45d4334b979a804acd9e6270bd79a97751952bea64736f6c634300060c0033",
  "linkReferences": {},
  "deployedLinkReferences": {}
}