{
  "_format": "hh-sol-artifact-1",
  "contractName": "PledgePool",
  "sourceName": "contracts/pledge/PledgePool.sol",
  "abi": [
    {
      "inputs": [
        {
          "internalType": "address",
          "name": "_oracle",
          "type": "address"
        },
        {
          "internalType": "address",
          "name": "_swapRouter",
          "type": "address"
        },
        {
          "internalType": "address payable",
          "name": "_feeAddress",
          "type": "address"
        }
      ],
      "stateMutability": "nonpayable",
      "type": "constructor"
    },
    {
      "anonymous": false,
      "inputs": [
        {
          "indexed": true,
          "internalType": "address",
          "name": "from",
          "type": "address"
        },
        {
          "indexed": true,
          "internalType": "address",
          "name": "token",
          "type": "address"
        },
        {
          "indexed": false,
          "internalType": "uint256",
          "name": "amount",
          "type": "uint256"
        }
      ],
      "name": "ClaimBorrow",
      "type": "event"
    },
    {
      "anonymous": false,
      "inputs": [
        {
          "indexed": true,
          "internalType": "address",
          "name": "from",
          "type": "address"
        },
        {
          "indexed": true,
          "internalType": "address",
          "name": "token",
          "type": "address"
        },
        {
          "indexed": false,
          "internalType": "uint256",
          "name": "amount",
          "type": "uint256"
        }
      ],
      "name": "ClaimLend",
      "type": "event"
    },
    {
      "anonymous": false,
      "inputs": [
        {
          "indexed": true,
          "internalType": "address",
          "name": "from",
          "type": "address"
        },
        {
          "indexed": true,
          "internalType": "address",
          "name": "token",
          "type": "address"
        },
        {
          "indexed": false,
          "internalType": "uint256",
          "name": "amount",
          "type": "uint256"
        },
        {
          "indexed": false,
          "internalType": "uint256",
          "name": "mintAmount",
          "type": "uint256"
        }
      ],
      "name": "DepositBorrow",
      "type": "event"
    },
    {
      "anonymous": false,
      "inputs": [
        {
          "indexed": true,
          "internalType": "address",
          "name": "from",
          "type": "address"
        },
        {
          "indexed": true,
          "internalType": "address",
          "name": "token",
          "type": "address"
        },
        {
          "indexed": false,
          "internalType": "uint256",
          "name": "amount",
          "type": "uint256"
        },
        {
          "indexed": false,
          "internalType": "uint256",
          "name": "mintAmount",
          "type": "uint256"
        }
      ],
      "name": "DepositLend",
      "type": "event"
    },
    {
      "anonymous": false,
      "inputs": [
        {
          "indexed": true,
          "internalType": "address",
          "name": "from",
          "type": "address"
        },
        {
          "indexed": true,
          "internalType": "address",
          "name": "token",
          "type": "address"
        },
        {
          "indexed": false,
          "internalType": "uint256",
          "name": "amount",
          "type": "uint256"
        }
      ],
      "name": "EmergencyBorrowWithdrawal",
      "type": "event"
    },
    {
      "anonymous": false,
      "inputs": [
        {
          "indexed": true,
          "internalType": "address",
          "name": "from",
          "type": "address"
        },
        {
          "indexed": true,
          "internalType": "address",
          "name": "token",
          "type": "address"
        },
        {
          "indexed": false,
          "internalType": "uint256",
          "name": "amount",
          "type": "uint256"
        }
      ],
      "name": "EmergencyLendWithdrawal",
      "type": "event"
    },
    {
      "anonymous": false,
      "inputs": [
        {
          "indexed": true,
          "internalType": "address",
          "name": "previousOwner",
          "type": "address"
        },
        {
          "indexed": true,
          "internalType": "address",
          "name": "newOwner",
          "type": "address"
        }
      ],
      "name": "OwnershipTransferred",
      "type": "event"
    },
    {
      "anonymous": false,
      "inputs": [
        {
          "indexed": true,
          "internalType": "address",
          "name": "recieptor",
          "type": "address"
        },
        {
          "indexed": true,
          "internalType": "address",
          "name": "token",
          "type": "address"
        },
        {
          "indexed": false,
          "internalType": "uint256",
          "name": "amount",
          "type": "uint256"
        }
      ],
      "name": "Redeem",
      "type": "event"
    },
    {
      "anonymous": false,
      "inputs": [
        {
          "indexed": true,
          "internalType": "address",
          "name": "from",
          "type": "address"
        },
        {
          "indexed": true,
          "internalType": "address",
          "name": "token",
          "type": "address"
        },
        {
          "indexed": false,
          "internalType": "uint256",
          "name": "refund",
          "type": "uint256"
        }
      ],
      "name": "RefundBorrow",
      "type": "event"
    },
    {
      "anonymous": false,
      "inputs": [
        {
          "indexed": true,
          "internalType": "address",
          "name": "from",
          "type": "address"
        },
        {
          "indexed": true,
          "internalType": "address",
          "name": "token",
          "type": "address"
        },
        {
          "indexed": false,
          "internalType": "uint256",
          "name": "refund",
          "type": "uint256"
        }
      ],
      "name": "RefundLend",
      "type": "event"
    },
    {
      "anonymous": false,
      "inputs": [
        {
          "indexed": true,
          "internalType": "address",
          "name": "fromCoin",
          "type": "address"
        },
        {
          "indexed": true,
          "internalType": "address",
          "name": "toCoin",
          "type": "address"
        },
        {
          "indexed": false,
          "internalType": "uint256",
          "name": "fromValue",
          "type": "uint256"
        },
        {
          "indexed": false,
          "internalType": "uint256",
          "name": "toValue",
          "type": "uint256"
        }
      ],
      "name": "Swap",
      "type": "event"
    },
    {
      "anonymous": false,
      "inputs": [
        {
          "indexed": true,
          "internalType": "address",
          "name": "from",
          "type": "address"
        },
        {
          "indexed": true,
          "internalType": "address",
          "name": "token",
          "type": "address"
        },
        {
          "indexed": false,
          "internalType": "uint256",
          "name": "amount",
          "type": "uint256"
        },
        {
          "indexed": false,
          "internalType": "uint256",
          "name": "burnAmount",
          "type": "uint256"
        }
      ],
      "name": "WithdrawBorrow",
      "type": "event"
    },
    {
      "anonymous": false,
      "inputs": [
        {
          "indexed": true,
          "internalType": "address",
          "name": "from",
          "type": "address"
        },
        {
          "indexed": true,
          "internalType": "address",
          "name": "token",
          "type": "address"
        },
        {
          "indexed": false,
          "internalType": "uint256",
          "name": "amount",
          "type": "uint256"
        },
        {
          "indexed": false,
          "internalType": "uint256",
          "name": "burnAmount",
          "type": "uint256"
        }
      ],
      "name": "WithdrawLend",
      "type": "event"
    },
    {
      "inputs": [],
      "name": "borrowFee",
      "outputs": [
        {
          "internalType": "uint256",
          "name": "",
          "type": "uint256"
        }
      ],
      "stateMutability": "view",
      "type": "function"
    },
    {
      "inputs": [
        {
          "internalType": "uint256",
          "name": "_pid",
          "type": "uint256"
        }
      ],
      "name": "checkoutFinish",
      "outputs": [
        {
          "internalType": "bool",
          "name": "",
          "type": "bool"
        }
      ],
      "stateMutability": "view",
      "type": "function"
    },
    {
      "inputs": [
        {
          "internalType": "uint256",
          "name": "_pid",
          "type": "uint256"
        }
      ],
      "name": "checkoutLiquidate",
      "outputs": [
        {
          "internalType": "bool",
          "name": "",
          "type": "bool"
        }
      ],
      "stateMutability": "view",
      "type": "function"
    },
    {
      "inputs": [
        {
          "internalType": "uint256",
          "name": "_pid",
          "type": "uint256"
        }
      ],
      "name": "checkoutSettle",
      "outputs": [
        {
          "internalType": "bool",
          "name": "",
          "type": "bool"
        }
      ],
      "stateMutability": "view",
      "type": "function"
    },
    {
      "inputs": [
        {
          "internalType": "uint256",
          "name": "_pid",
          "type": "uint256"
        }
      ],
      "name": "claimBorrow",
      "outputs": [],
      "stateMutability": "nonpayable",
      "type": "function"
    },
    {
      "inputs": [
        {
          "internalType": "uint256",
          "name": "_pid",
          "type": "uint256"
        }
      ],
      "name": "claimLend",
      "outputs": [],
      "stateMutability": "nonpayable",
      "type": "function"
    },
    {
      "inputs": [
        {
          "internalType": "uint256",
          "name": "_matchTime",
          "type": "uint256"
        },
        {
          "internalType": "uint256",
          "name": "_endTime",
          "type": "uint256"
        },
        {
          "internalType": "uint64",
          "name": "_interestRate",
          "type": "uint64"
        },
        {
          "internalType": "uint256",
          "name": "_maxSupply",
          "type": "uint256"
        },
        {
          "internalType": "uint256",
          "name": "_pledgeRate",
          "type": "uint256"
        },
        {
          "internalType": "address",
          "name": "_lendToken",
          "type": "address"
        },
        {
          "internalType": "address",
          "name": "_borrowToken",
          "type": "address"
        },
        {
          "internalType": "address",
          "name": "_spToken",
          "type": "address"
        },
        {
          "internalType": "address",
          "name": "_jpToken",
          "type": "address"
        },
        {
          "internalType": "uint256",
          "name": "_autoLiquidateThreshold",
          "type": "uint256"
        }
      ],
      "name": "createPoolInfo",
      "outputs": [],
      "stateMutability": "nonpayable",
      "type": "function"
    },
    {
      "inputs": [
        {
          "internalType": "uint256",
          "name": "_pid",
          "type": "uint256"
        },
        {
          "internalType": "uint256",
          "name": "_stakeAmount",
          "type": "uint256"
        },
        {
          "internalType": "uint256",
          "name": "_deadLine",
          "type": "uint256"
        }
      ],
      "name": "depositBorrow",
      "outputs": [],
      "stateMutability": "payable",
      "type": "function"
    },
    {
      "inputs": [
        {
          "internalType": "uint256",
          "name": "_pid",
          "type": "uint256"
        },
        {
          "internalType": "uint256",
          "name": "_stakeAmount",
          "type": "uint256"
        }
      ],
      "name": "depositLend",
      "outputs": [],
      "stateMutability": "payable",
      "type": "function"
    },
    {
      "inputs": [
        {
          "internalType": "uint256",
          "name": "_pid",
          "type": "uint256"
        }
      ],
      "name": "emergencyBorrowWithdrawal",
      "outputs": [],
      "stateMutability": "nonpayable",
      "type": "function"
    },
    {
      "inputs": [
        {
          "internalType": "uint256",
          "name": "_pid",
          "type": "uint256"
        }
      ],
      "name": "emergencyLendWithdrawal",
      "outputs": [],
      "stateMutability": "nonpayable",
      "type": "function"
    },
    {
      "inputs": [],
      "name": "feeAddress",
      "outputs": [
        {
          "internalType": "address payable",
          "name": "",
          "type": "address"
        }
      ],
      "stateMutability": "view",
      "type": "function"
    },
    {
      "inputs": [
        {
          "internalType": "uint256",
          "name": "_pid",
          "type": "uint256"
        }
      ],
      "name": "finish",
      "outputs": [],
      "stateMutability": "nonpayable",
      "type": "function"
    },
    {
      "inputs": [
        {
          "internalType": "uint256",
          "name": "_pid",
          "type": "uint256"
        }
      ],
      "name": "getPoolState",
      "outputs": [
        {
          "internalType": "uint256",
          "name": "",
          "type": "uint256"
        }
      ],
      "stateMutability": "view",
      "type": "function"
    },
    {
      "inputs": [
        {
          "internalType": "uint256",
          "name": "_pid",
          "type": "uint256"
        }
      ],
      "name": "getUnderlyingPriceView",
      "outputs": [
        {
          "internalType": "uint256[2]",
          "name": "",
          "type": "uint256[2]"
        }
      ],
      "stateMutability": "view",
      "type": "function"
    },
    {
      "inputs": [],
      "name": "lendFee",
      "outputs": [
        {
          "internalType": "uint256",
          "name": "",
          "type": "uint256"
        }
      ],
      "stateMutability": "view",
      "type": "function"
    },
    {
      "inputs": [
        {
          "internalType": "uint256",
          "name": "_pid",
          "type": "uint256"
        }
      ],
      "name": "liquidate",
      "outputs": [],
      "stateMutability": "nonpayable",
      "type": "function"
    },
    {
      "inputs": [],
      "name": "minAmount",
      "outputs": [
        {
          "internalType": "uint256",
          "name": "",
          "type": "uint256"
        }
      ],
      "stateMutability": "view",
      "type": "function"
    },
    {
      "inputs": [],
      "name": "oracle",
      "outputs": [
        {
          "internalType": "contract IBscPledgeOracle",
          "name": "",
          "type": "address"
        }
      ],
      "stateMutability": "view",
      "type": "function"
    },
    {
      "inputs": [],
      "name": "owner",
      "outputs": [
        {
          "internalType": "address",
          "name": "",
          "type": "address"
        }
      ],
      "stateMutability": "view",
      "type": "function"
    },
    {
      "inputs": [],
      "name": "paused",
      "outputs": [
        {
          "internalType": "bool",
          "name": "",
          "type": "bool"
        }
      ],
      "stateMutability": "view",
      "type": "function"
    },
    {
      "inputs": [
        {
          "internalType": "uint256",
          "name": "",
          "type": "uint256"
        }
      ],
      "name": "poolBaseInfo",
      "outputs": [
        {
          "internalType": "uint256",
          "name": "matchTime",
          "type": "uint256"
        },
        {
          "internalType": "uint256",
          "name": "endTime",
          "type": "uint256"
        },
        {
          "internalType": "uint256",
          "name": "interestRate",
          "type": "uint256"
        },
        {
          "internalType": "uint256",
          "name": "maxSupply",
          "type": "uint256"
        },
        {
          "internalType": "uint256",
          "name": "lendSupply",
          "type": "uint256"
        },
        {
          "internalType": "uint256",
          "name": "borrowSupply",
          "type": "uint256"
        },
        {
          "internalType": "uint256",
          "name": "pledgeRate",
          "type": "uint256"
        },
        {
          "internalType": "address",
          "name": "lendToken",
          "type": "address"
        },
        {
          "internalType": "address",
          "name": "borrowToken",
          "type": "address"
        },
        {
          "internalType": "enum PledgePool.PoolState",
          "name": "state",
          "type": "uint8"
        },
        {
          "internalType": "contract IDebtToken",
          "name": "spCoin",
          "type": "address"
        },
        {
          "internalType": "contract IDebtToken",
          "name": "jpCoin",
          "type": "address"
        },
        {
          "internalType": "uint256",
          "name": "autoLiquidateThreshold",
          "type": "uint256"
        }
      ],
      "stateMutability": "view",
      "type": "function"
    },
    {
      "inputs": [
        {
          "internalType": "uint256",
          "name": "",
          "type": "uint256"
        }
      ],
      "name": "poolDataInfo",
      "outputs": [
        {
          "internalType": "uint256",
          "name": "settleAmount0",
          "type": "uint256"
        },
        {
          "internalType": "uint256",
          "name": "settleAmount1",
          "type": "uint256"
        },
        {
          "internalType": "uint256",
          "name": "finishAmount0",
          "type": "uint256"
        },
        {
          "internalType": "uint256",
          "name": "finishAmount1",
          "type": "uint256"
        },
        {
          "internalType": "uint256",
          "name": "liquidationAmoun0",
          "type": "uint256"
        },
        {
          "internalType": "uint256",
          "name": "liquidationAmoun1",
          "type": "uint256"
        }
      ],
      "stateMutability": "view",
      "type": "function"
    },
    {
      "inputs": [],
      "name": "poolLength",
      "outputs": [
        {
          "internalType": "uint256",
          "name": "",
          "type": "uint256"
        }
      ],
      "stateMutability": "view",
      "type": "function"
    },
    {
      "inputs": [
        {
          "internalType": "uint256",
          "name": "_pid",
          "type": "uint256"
        }
      ],
      "name": "refundBorrow",
      "outputs": [],
      "stateMutability": "nonpayable",
      "type": "function"
    },
    {
      "inputs": [
        {
          "internalType": "uint256",
          "name": "_pid",
          "type": "uint256"
        }
      ],
      "name": "refundLend",
      "outputs": [],
      "stateMutability": "nonpayable",
      "type": "function"
    },
    {
      "inputs": [],
      "name": "renounceOwnership",
      "outputs": [],
      "stateMutability": "nonpayable",
      "type": "function"
    },
    {
      "inputs": [
        {
          "internalType": "uint256",
          "name": "_lendFee",
          "type": "uint256"
        },
        {
          "internalType": "uint256",
          "name": "_borrowFee",
          "type": "uint256"
        }
      ],
      "name": "setFee",
      "outputs": [],
      "stateMutability": "nonpayable",
      "type": "function"
    },
    {
      "inputs": [
        {
          "internalType": "address payable",
          "name": "_feeAddress",
          "type": "address"
        }
      ],
      "name": "setFeeAddress",
      "outputs": [],
      "stateMutability": "nonpayable",
      "type": "function"
    },
    {
      "inputs": [],
      "name": "setPause",
      "outputs": [],
      "stateMutability": "nonpayable",
      "type": "function"
    },
    {
      "inputs": [
        {
          "internalType": "address",
          "name": "_swapRouter",
          "type": "address"
        }
      ],
      "name": "setSwapRouterAddress",
      "outputs": [],
      "stateMutability": "nonpayable",
      "type": "function"
    },
    {
      "inputs": [
        {
          "internalType": "uint256",
          "name": "_pid",
          "type": "uint256"
        }
      ],
      "name": "settle",
      "outputs": [],
      "stateMutability": "nonpayable",
      "type": "function"
    },
    {
      "inputs": [],
      "name": "swapRouter",
      "outputs": [
        {
          "internalType": "address",
          "name": "",
          "type": "address"
        }
      ],
      "stateMutability": "view",
      "type": "function"
    },
    {
      "inputs": [
        {
          "internalType": "address",
          "name": "newOwner",
          "type": "address"
        }
      ],
      "name": "transferOwnership",
      "outputs": [],
      "stateMutability": "nonpayable",
      "type": "function"
    },
    {
      "inputs": [
        {
          "internalType": "uint256",
          "name": "_pid",
          "type": "uint256"
        },
        {
          "internalType": "uint64",
          "name": "_interestRate",
          "type": "uint64"
        },
        {
          "internalType": "uint256",
          "name": "_maxSupply",
          "type": "uint256"
        },
        {
          "internalType": "uint256",
          "name": "_autoLiquidateThreshold",
          "type": "uint256"
        }
      ],
      "name": "updatePoolBaseInfo",
      "outputs": [],
      "stateMutability": "nonpayable",
      "type": "function"
    },
    {
      "inputs": [
        {
          "internalType": "address",
          "name": "",
          "type": "address"
        },
        {
          "internalType": "uint256",
          "name": "",
          "type": "uint256"
        }
      ],
      "name": "userBorrowInfo",
      "outputs": [
        {
          "internalType": "uint256",
          "name": "stakeAmount",
          "type": "uint256"
        },
        {
          "internalType": "uint256",
          "name": "refundAmount",
          "type": "uint256"
        },
        {
          "internalType": "bool",
          "name": "refundFlag",
          "type": "bool"
        },
        {
          "internalType": "bool",
          "name": "claimFlag",
          "type": "bool"
        }
      ],
      "stateMutability": "view",
      "type": "function"
    },
    {
      "inputs": [
        {
          "internalType": "address",
          "name": "",
          "type": "address"
        },
        {
          "internalType": "uint256",
          "name": "",
          "type": "uint256"
        }
      ],
      "name": "userLendInfo",
      "outputs": [
        {
          "internalType": "uint256",
          "name": "stakeAmount",
          "type": "uint256"
        },
        {
          "internalType": "uint256",
          "name": "refundAmount",
          "type": "uint256"
        },
        {
          "internalType": "bool",
          "name": "refundFlag",
          "type": "bool"
        },
        {
          "internalType": "bool",
          "name": "claimFlag",
          "type": "bool"
        }
      ],
      "stateMutability": "view",
      "type": "function"
    },
    {
      "inputs": [
        {
          "internalType": "uint256",
          "name": "_pid",
          "type": "uint256"
        },
        {
          "internalType": "uint256",
          "name": "_jpAmount",
          "type": "uint256"
        },
        {
          "internalType": "uint256",
          "name": "_deadLine",
          "type": "uint256"
        }
      ],
      "name": "withdrawBorrow",
      "outputs": [],
      "stateMutability": "nonpayable",
      "type": "function"
    },
    {
      "inputs": [
        {
          "internalType": "uint256",
          "name": "_pid",
          "type": "uint256"
        },
        {
          "internalType": "uint256",
          "name": "_spAmount",
          "type": "uint256"
        }
      ],
      "name": "withdrawLend",
      "outputs": [],
      "stateMutability": "nonpayable",
      "type": "function"
    }
  ],
  "bytecode": "0x608060405268056bc75e2d631000006002556003805460ff191690553480156200002857600080fd5b506040516200598738038062005987833981810160405260608110156200004e57600080fd5b5080516020820151604090920151600160009081559192916200007062000119565b600180546001600160a01b0319166001600160a01b038316908117909155604051919250906000907f8be0079c531659141344cd1fd0a4f28419497f9722a3daafe3b4186f6b6457e0908290a350600580546001600160a01b039485166001600160a01b0319918216179091556003805493851661010002610100600160a81b03199094169390931790925560048054919093169116179055600060068190556007556200011d565b3390565b61585a806200012d6000396000f3fe6080604052600436106102305760003560e01c80637dc0d1d01161012e578063c31c9c07116100ab578063e271fa0c1161006f578063e271fa0c146108c6578063e626648a146108f0578063ebded01714610905578063eec8d50614610983578063f2fde38b146109ad57610230565b8063c31c9c07146107d7578063c9333756146107ec578063c9bf047c14610851578063d353a1cb14610887578063d431b1ac146108b157610230565b80639b2cb5d8116100f25780639b2cb5d81461070b578063a62ff16414610720578063b15975171461074a578063bb176a6414610774578063bf38b8f6146107ad57610230565b80637dc0d1d0146106615780638705fcd4146106765780638da5cb5b146106a95780638df82800146106be57806390590da0146106e857610230565b80634aea0aec116101bc5780635c975abb116101805780635c975abb1461059d5780636abd7f29146105b25780636c42fed2146105dc578063715018a61461060657806373effaf11461061b57610230565b80634aea0aec146104395780635249961b1461044e57806352f7c98814610481578063593f4cb7146104b15780635a5a971e146104da57610230565b806338f2aa761161020357806338f2aa76146103215780633ab4a445146103535780633c9fadc31461037d57806341275358146103de578063415f12401461040f57610230565b80630177b68c14610235578063081e3eda1461029257806308e7305f146102b957806314c090cc146102f7575b600080fd5b34801561024157600080fd5b5061025f6004803603602081101561025857600080fd5b50356109e0565b604080519687526020870195909552858501939093526060850191909152608084015260a0830152519081900360c00190f35b34801561029e57600080fd5b506102a7610a23565b60408051918252519081900360200190f35b3480156102c557600080fd5b506102e3600480360360208110156102dc57600080fd5b5035610a29565b604080519115158252519081900360200190f35b34801561030357600080fd5b506102e36004803603602081101561031a57600080fd5b5035610b02565b34801561032d57600080fd5b506103516004803603604081101561034457600080fd5b5080359060200135610b2c565b005b34801561035f57600080fd5b506103516004803603602081101561037657600080fd5b5035610fc3565b34801561038957600080fd5b506103b6600480360360408110156103a057600080fd5b506001600160a01b038135169060200135611440565b6040805194855260208501939093529015158383015215156060830152519081900360800190f35b3480156103ea57600080fd5b506103f3611478565b604080516001600160a01b039092168252519081900360200190f35b34801561041b57600080fd5b506103516004803603602081101561043257600080fd5b5035611487565b34801561044557600080fd5b506102a76116d4565b34801561045a57600080fd5b506103516004803603602081101561047157600080fd5b50356001600160a01b03166116da565b34801561048d57600080fd5b50610351600480360360408110156104a457600080fd5b5080359060200135611764565b610351600480360360608110156104c757600080fd5b50803590602081013590604001356117d1565b3480156104e657600080fd5b50610504600480360360208110156104fd57600080fd5b5035611ae0565b604051808e81526020018d81526020018c81526020018b81526020018a8152602001898152602001888152602001876001600160a01b03168152602001866001600160a01b0316815260200185600481111561055c57fe5b8152602001846001600160a01b03168152602001836001600160a01b031681526020018281526020019d505050505050505050505050505060405180910390f35b3480156105a957600080fd5b506102e3611b6c565b3480156105be57600080fd5b506102e3600480360360208110156105d557600080fd5b5035611b75565b3480156105e857600080fd5b50610351600480360360208110156105ff57600080fd5b5035611b9f565b34801561061257600080fd5b50610351611fd4565b34801561062757600080fd5b506103516004803603608081101561063e57600080fd5b5080359067ffffffffffffffff6020820135169060408101359060600135612080565b34801561066d57600080fd5b506103f3612194565b34801561068257600080fd5b506103516004803603602081101561069957600080fd5b50356001600160a01b03166121a3565b3480156106b557600080fd5b506103f3612227565b3480156106ca57600080fd5b50610351600480360360208110156106e157600080fd5b5035612236565b610351600480360360408110156106fe57600080fd5b50803590602001356124d2565b34801561071757600080fd5b506102a7612802565b34801561072c57600080fd5b506103516004803603602081101561074357600080fd5b5035612808565b34801561075657600080fd5b506102a76004803603602081101561076d57600080fd5b5035612c58565b34801561078057600080fd5b506103b66004803603604081101561079757600080fd5b506001600160a01b038135169060200135612c9c565b3480156107b957600080fd5b50610351600480360360208110156107d057600080fd5b5035612cd4565b3480156107e357600080fd5b506103f3612faa565b3480156107f857600080fd5b506108166004803603602081101561080f57600080fd5b5035612fbe565b6040518082600260200280838360005b8381101561083e578181015183820152602001610826565b5050505090500191505060405180910390f35b34801561085d57600080fd5b506103516004803603606081101561087457600080fd5b50803590602081013590604001356131f5565b34801561089357600080fd5b50610351600480360360208110156108aa57600080fd5b50356136ac565b3480156108bd57600080fd5b506103516139a3565b3480156108d257600080fd5b50610351600480360360208110156108e957600080fd5b5035613a19565b3480156108fc57600080fd5b506102a7613cf1565b34801561091157600080fd5b50610351600480360361014081101561092957600080fd5b5080359060208101359067ffffffffffffffff604082013516906060810135906080810135906001600160a01b0360a082013581169160c081013582169160e0820135811691610100810135909116906101200135613cf7565b34801561098f57600080fd5b50610351600480360360208110156109a657600080fd5b503561402a565b3480156109b957600080fd5b50610351600480360360208110156109d057600080fd5b50356001600160a01b0316614464565b600981815481106109ed57fe5b60009182526020909120600690910201805460018201546002830154600384015460048501546005909501549395509193909286565b60085490565b60008060088381548110610a3957fe5b90600052602060002090600c02019050600060098481548110610a5857fe5b90600052602060002090600602019050610a706155a6565b610a7985612fbe565b90506000610ac3670de0b6b3a7640000610ab2610ab885855b6020020151610ab2670de0b6b3a76400008860015b602002015190614567565b906145c9565b600187015490614567565b90506000610af56305f5e100610ab2610aed88600b01546305f5e10061460b90919063ffffffff16565b875490614567565b9091109695505050505050565b600060088281548110610b1157fe5b90600052602060002090600c02016000015442119050919050565b60026000541415610b72576040805162461bcd60e51b815260206004820152601f60248201526000805160206155c5833981519152604482015290519081900360640190fd5b600260005560035460ff1615610bbd576040805162461bcd60e51b815260206004820152601860248201526000805160206156c8833981519152604482015290519081900360640190fd5b81600260088281548110610bcd57fe5b90600052602060002090600c020160080160149054906101000a900460ff166004811115610bf757fe5b1480610c395750600360088281548110610c0d57fe5b90600052602060002090600c020160080160149054906101000a900460ff166004811115610c3757fe5b145b610c86576040805162461bcd60e51b815260206004820152601960248201527839ba30ba329d103334b734b9b4103634b8bab4b230ba34b7b760391b604482015290519081900360640190fd5b600060088481548110610c9557fe5b90600052602060002090600c02019050600060098581548110610cb457fe5b9060005260206000209060060201905060008411610d035760405162461bcd60e51b81526004018080602001828103825260258152602001806156096025913960400191505060405180910390fd5b600982015460408051632770a7eb60e21b81523360048201526024810187905290516001600160a01b0390921691639dc29fac9160448082019260009290919082900301818387803b158015610d5857600080fd5b505af1158015610d6c573d6000803e3d6000fd5b505050506000610da06305f5e100610ab2610d986305f5e100876002015461460b90919063ffffffff16565b855490614567565b90506000610dba82610ab288670de0b6b3a7640000614567565b905060026008850154600160a01b900460ff166004811115610dd857fe5b1415610ec55783600101544211610e36576040805162461bcd60e51b815260206004820181905260248201527f77697468647261774c656e643a206c657373207468616e20656e642074696d65604482015290519081900360640190fd5b6000610e5b670de0b6b3a7640000610ab284876002015461456790919063ffffffff16565b6007860154909150610e789033906001600160a01b031683614665565b600785015460408051838152602081018a905281516001600160a01b039093169233927f690f32ccf3e832d5ff975d781039bc2affebee9c973939c9b710091b87954c9d928290030190a3505b60036008850154600160a01b900460ff166004811115610ee157fe5b1415610fb55783544211610f265760405162461bcd60e51b81526004018080602001828103825260228152602001806156a66022913960400191505060405180910390fd5b6000610f4b670de0b6b3a7640000610ab284876004015461456790919063ffffffff16565b6007860154909150610f689033906001600160a01b031683614665565b600785015460408051838152602081018a905281516001600160a01b039093169233927f690f32ccf3e832d5ff975d781039bc2affebee9c973939c9b710091b87954c9d928290030190a3505b505060016000555050505050565b60026000541415611009576040805162461bcd60e51b815260206004820152601f60248201526000805160206155c5833981519152604482015290519081900360640190fd5b600260005560035460ff1615611054576040805162461bcd60e51b815260206004820152601860248201526000805160206156c8833981519152604482015290519081900360640190fd5b806008818154811061106257fe5b90600052602060002090600c02016000015442116110bf576040805162461bcd60e51b8152602060048201526015602482015274477265617465207468616e20746869732074696d6560581b604482015290519081900360640190fd5b816001600882815481106110cf57fe5b90600052602060002090600c020160080160149054906101000a900460ff1660048111156110f957fe5b148061113b575060026008828154811061110f57fe5b90600052602060002090600c020160080160149054906101000a900460ff16600481111561113957fe5b145b8061117c575060036008828154811061115057fe5b90600052602060002090600c020160080160149054906101000a900460ff16600481111561117a57fe5b145b6111bb576040805162461bcd60e51b815260206004820152601b6024820152600080516020615733833981519152604482015290519081900360640190fd5b6000600884815481106111ca57fe5b90600052602060002090600c020190506000600985815481106111e957fe5b60009182526020808320338452600a825260408085208a86529092529220805460069092029092019250611264576040805162461bcd60e51b815260206004820152601f60248201527f636c61696d426f72726f773a206e6f7420636c61696d206a705f746f6b656e00604482015290519081900360640190fd5b6002810154610100900460ff16156112c3576040805162461bcd60e51b815260206004820152601860248201527f636c61696d426f72726f773a20616761696e20636c61696d0000000000000000604482015290519081900360640190fd5b60006112e86305f5e100610ab28660060154866000015461456790919063ffffffff16565b905060006113138560050154610ab2670de0b6b3a7640000866000015461456790919063ffffffff16565b9050600061132d670de0b6b3a7640000610ab28585614567565b600a870154604080516340c10f1960e01b81523360048201526024810184905290519293506001600160a01b03909116916340c10f199160448082019260009290919082900301818387803b15801561138557600080fd5b505af1158015611399573d6000803e3d6000fd5b50508654600092506113ba9150670de0b6b3a764000090610ab29086614567565b60078801549091506113d79033906001600160a01b031683614665565b60028501805461ff00191661010017905560088701546040805184815290516001600160a01b039092169133917f3ddafe3ebb4d0c818317027aabfa82dc9983942ceeb80523167e2de047b17fbd919081900360200190a3505060016000555050505050505050565b600a60209081526000928352604080842090915290825290208054600182015460029092015490919060ff8082169161010090041684565b6004546001600160a01b031681565b61148f614716565b6001600160a01b03166114a0612227565b6001600160a01b0316146114e9576040805162461bcd60e51b81526020600482018190526024820152600080516020615795833981519152604482015290519081900360640190fd5b6000600982815481106114f857fe5b9060005260206000209060060201905060006008838154811061151757fe5b90600052602060002090600c020190508060000154421161157f576040805162461bcd60e51b815260206004820181905260248201527f6e6f772074696d65206973206c657373207468616e206d617463682074696d65604482015290519081900360640190fd5b6008810154600782015460028301546001600160a01b0392831692909116906000906115c1906305f5e10090610ab2906115b9908361460b565b885490614567565b905060006115f06305f5e100610ab26115e96305f5e10060065461460b90919063ffffffff16565b8590614567565b9050600080611616600360019054906101000a90046001600160a01b031687878661471a565b915091508381111561166557600061162e8286614767565b60045460078a0154919250611650916001600160a01b03918216911683614665565b61165a8282614767565b60048a01555061166d565b600488018190555b600188015460009061167f9084614767565b60075460088a01549192506000916116a191906001600160a01b0316846147a9565b60058b0181905560088a01805491925060039160ff60a01b1916600160a01b835b02179055505050505050505050505050565b60065481565b6116e2614716565b6001600160a01b03166116f3612227565b6001600160a01b03161461173c576040805162461bcd60e51b81526020600482018190526024820152600080516020615795833981519152604482015290519081900360640190fd5b600380546001600160a01b0390921661010002610100600160a81b0319909216919091179055565b61176c614716565b6001600160a01b031661177d612227565b6001600160a01b0316146117c6576040805162461bcd60e51b81526020600482018190526024820152600080516020615795833981519152604482015290519081900360640190fd5b600691909155600755565b60026000541415611817576040805162461bcd60e51b815260206004820152601f60248201526000805160206155c5833981519152604482015290519081900360640190fd5b600260005560035460ff1615611862576040805162461bcd60e51b815260206004820152601860248201526000805160206156c8833981519152604482015290519081900360640190fd5b826008818154811061187057fe5b90600052602060002090600c02016000015442106118cb576040805162461bcd60e51b81526020600482015260136024820152724c657373207468616e20746869732074696d6560681b604482015290519081900360640190fd5b836000600882815481106118db57fe5b90600052602060002090600c020160080160149054906101000a900460ff16600481111561190557fe5b146119415760405162461bcd60e51b81526004018080602001828103825260218152602001806157536021913960400191505060405180910390fd5b8242811015611988576040805162461bcd60e51b815260206004820152600e60248201526d1cdd185ad94e881156141254915160921b604482015290519081900360640190fd5b60006008878154811061199757fe5b60009182526020808320338452600a825260408085208c8652909252908320600c929092020160088101549093509091906119db906001600160a01b0316896147f5565b905060008111611a1c5760405162461bcd60e51b81526004018080602001828103825260258152602001806156e86025913960400191505060405180910390fd5b60028201805461ffff1916905560088301546001600160a01b0316611a62578154611a47903461460b565b82556005830154611a58903461460b565b6005840155611a85565b8154611a6e908961460b565b82556005830154611a7f908961460b565b60058401555b6008830154604080518a81526020810184905281516001600160a01b039093169233927f1d7b72e666a0b6217efe7cfa1b604ea5c7b39219563ce48b30c9da77045247a5928290030190a35050600160005550505050505050565b60088181548110611aed57fe5b60009182526020909120600c9091020180546001820154600283015460038401546004850154600586015460068701546007880154600889015460098a0154600a8b0154600b909b0154999b509799969895979496939592946001600160a01b039283169483831694600160a01b90930460ff1693918216929116908d565b60035460ff1681565b600060088281548110611b8457fe5b90600052602060002090600c02016001015442119050919050565b60026000541415611be5576040805162461bcd60e51b815260206004820152601f60248201526000805160206155c5833981519152604482015290519081900360640190fd5b600260005560035460ff1615611c30576040805162461bcd60e51b815260206004820152601860248201526000805160206156c8833981519152604482015290519081900360640190fd5b8060088181548110611c3e57fe5b90600052602060002090600c0201600001544211611c9b576040805162461bcd60e51b8152602060048201526015602482015274477265617465207468616e20746869732074696d6560581b604482015290519081900360640190fd5b81600160088281548110611cab57fe5b90600052602060002090600c020160080160149054906101000a900460ff166004811115611cd557fe5b1480611d175750600260088281548110611ceb57fe5b90600052602060002090600c020160080160149054906101000a900460ff166004811115611d1557fe5b145b80611d585750600360088281548110611d2c57fe5b90600052602060002090600c020160080160149054906101000a900460ff166004811115611d5657fe5b145b611d97576040805162461bcd60e51b815260206004820152601b6024820152600080516020615733833981519152604482015290519081900360640190fd5b600060088481548110611da657fe5b90600052602060002090600c02019050600060098581548110611dc557fe5b60009182526020808320338452600b825260408085208a86529092529220805460069092029092019250611e40576040805162461bcd60e51b815260206004820152601d60248201527f636c61696d4c656e643a206e6f7420636c61696d2073705f746f6b656e000000604482015290519081900360640190fd5b6002810154610100900460ff1615611e98576040805162461bcd60e51b8152602060048201526016602482015275636c61696d4c656e643a20616761696e20636c61696d60501b604482015290519081900360640190fd5b60048301548154600091611eb891610ab290670de0b6b3a7640000614567565b90506000611ee26305f5e100610ab2610aed6305f5e100896002015461460b90919063ffffffff16565b90506000611efc670de0b6b3a7640000610ab28486614567565b6009870154604080516340c10f1960e01b81523360048201526024810184905290519293506001600160a01b03909116916340c10f199160448082019260009290919082900301818387803b158015611f5457600080fd5b505af1158015611f68573d6000803e3d6000fd5b50505060028501805461ff0019166101001790555060088601546040805183815290516001600160a01b039092169133917f6f4dd2687b3c3bfa99d39742b01d6e0ad9604c48559791d5df4ff5df44b41dfd919081900360200190a35050600160005550505050505050565b611fdc614716565b6001600160a01b0316611fed612227565b6001600160a01b031614612036576040805162461bcd60e51b81526020600482018190526024820152600080516020615795833981519152604482015290519081900360640190fd5b6001546040516000916001600160a01b0316907f8be0079c531659141344cd1fd0a4f28419497f9722a3daafe3b4186f6b6457e0908390a3600180546001600160a01b0319169055565b612088614716565b6001600160a01b0316612099612227565b6001600160a01b0316146120e2576040805162461bcd60e51b81526020600482018190526024820152600080516020615795833981519152604482015290519081900360640190fd5b83600881815481106120f057fe5b90600052602060002090600c020160000154421061214b576040805162461bcd60e51b81526020600482015260136024820152724c657373207468616e20746869732074696d6560681b604482015290519081900360640190fd5b60006008868154811061215a57fe5b6000918252602090912067ffffffffffffffff9096166002600c9092029096019081019590955550506003830191909155600b9091015550565b6005546001600160a01b031681565b6121ab614716565b6001600160a01b03166121bc612227565b6001600160a01b031614612205576040805162461bcd60e51b81526020600482018190526024820152600080516020615795833981519152604482015290519081900360640190fd5b600480546001600160a01b0319166001600160a01b0392909216919091179055565b6001546001600160a01b031690565b61223e614716565b6001600160a01b031661224f612227565b6001600160a01b031614612298576040805162461bcd60e51b81526020600482018190526024820152600080516020615795833981519152604482015290519081900360640190fd5b6000600882815481106122a757fe5b90600052602060002090600c020190506000600983815481106122c657fe5b90600052602060002090600602019050600883815481106122e357fe5b90600052602060002090600c0201600001544211612348576040805162461bcd60e51b815260206004820152601b60248201527f736574746c653a206c657373207468616e206d6174636874696d650000000000604482015290519081900360640190fd5b60006008830154600160a01b900460ff16600481111561236457fe5b146123b6576040805162461bcd60e51b815260206004820181905260248201527f736574746c653a20706f6f6c207374617465206d757374206265206d61746368604482015290519081900360640190fd5b600082600401541180156123ce575060008260050154115b156124a6576123db6155a6565b6123e484612fbe565b9050600061240c670de0b6b3a7640000610ab26124018585610a92565b600588015490614567565b9050600061242f8560060154610ab26305f5e1008561456790919063ffffffff16565b9050808560040154111561244f5780845560058501546001850155612489565b6004850154845582516124839061247090610ab26305f5e100876001610aa7565b60068701546004880154610ab291614567565b60018501555b50505060088201805460ff60a01b1916600160a01b1790556124cd565b60088201805460ff60a01b1916600160a21b17905560048201548155600582015460018201555b505050565b60026000541415612518576040805162461bcd60e51b815260206004820152601f60248201526000805160206155c5833981519152604482015290519081900360640190fd5b600260005560035460ff1615612563576040805162461bcd60e51b815260206004820152601860248201526000805160206156c8833981519152604482015290519081900360640190fd5b816008818154811061257157fe5b90600052602060002090600c02016000015442106125cc576040805162461bcd60e51b81526020600482015260136024820152724c657373207468616e20746869732074696d6560681b604482015290519081900360640190fd5b826000600882815481106125dc57fe5b90600052602060002090600c020160080160149054906101000a900460ff16600481111561260657fe5b146126425760405162461bcd60e51b81526004018080602001828103825260218152602001806157536021913960400191505060405180910390fd5b60006008858154811061265157fe5b60009182526020808320338452600b825260408085208a865290925292206004600c90920290920190810154600382015491935061268f9190614767565b8511156126cd5760405162461bcd60e51b815260040180806020018281038252602b815260200180615654602b913960400191505060405180910390fd5b60078201546000906126e8906001600160a01b0316876147f5565b90506002548111612740576040805162461bcd60e51b815260206004820152601e60248201527f6465706f7369744c656e643a206d696e20616d6f756e74206973203130300000604482015290519081900360640190fd5b60028201805461ffff1916905560078301546001600160a01b031661278657815461276b903461460b565b8255600483015461277c903461460b565b60048401556127a9565b8154612792908761460b565b825560048301546127a3908761460b565b60048401555b6007830154604080518881526020810184905281516001600160a01b039093169233927f129e8c18c2f7baf99c7eb257934c21f038c72412803512dcf0a942a4562a82ea928290030190a3505060016000555050505050565b60025481565b6002600054141561284e576040805162461bcd60e51b815260206004820152601f60248201526000805160206155c5833981519152604482015290519081900360640190fd5b600260005560035460ff1615612899576040805162461bcd60e51b815260206004820152601860248201526000805160206156c8833981519152604482015290519081900360640190fd5b80600881815481106128a757fe5b90600052602060002090600c0201600001544211612904576040805162461bcd60e51b8152602060048201526015602482015274477265617465207468616e20746869732074696d6560581b604482015290519081900360640190fd5b8160016008828154811061291457fe5b90600052602060002090600c020160080160149054906101000a900460ff16600481111561293e57fe5b1480612980575060026008828154811061295457fe5b90600052602060002090600c020160080160149054906101000a900460ff16600481111561297e57fe5b145b806129c1575060036008828154811061299557fe5b90600052602060002090600c020160080160149054906101000a900460ff1660048111156129bf57fe5b145b612a00576040805162461bcd60e51b815260206004820152601b6024820152600080516020615733833981519152604482015290519081900360640190fd5b600060088481548110612a0f57fe5b90600052602060002090600c02019050600060098581548110612a2e57fe5b60009182526020808320338452600a825260408085208a86529092529083206006929092020160018101546005860154919450919291612a6e9190614767565b11612ac0576040805162461bcd60e51b815260206004820152601860248201527f726566756e64426f72726f773a206e6f7420726566756e640000000000000000604482015290519081900360640190fd5b8054612b0f576040805162461bcd60e51b81526020600482015260196024820152781c99599d5b99109bdc9c9bddce881b9bdd081c1b195919d959603a1b604482015290519081900360640190fd5b600281015460ff1615612b69576040805162461bcd60e51b815260206004820152601a60248201527f726566756e64426f72726f773a20616761696e20726566756e64000000000000604482015290519081900360640190fd5b60058301548154600091612b8991610ab290670de0b6b3a7640000614567565b90506000612bbe670de0b6b3a7640000610ab284612bb888600101548a6005015461476790919063ffffffff16565b90614567565b6008860154909150612bdb9033906001600160a01b031683614665565b6001830154612bea908261460b565b60018085019190915560028401805460ff1916909117905560088501546040805183815290516001600160a01b039092169133917f732816f48de550f238bd0d4f5b79819c7b24a49d6132928978e3cd36568dd5db919081900360200190a350506001600055505050505050565b60008060088381548110612c6857fe5b90600052602060002090600c020190508060080160149054906101000a900460ff166004811115612c9557fe5b9392505050565b600b60209081526000928352604080842090915290825290208054600182015460029092015490919060ff8082169161010090041684565b60026000541415612d1a576040805162461bcd60e51b815260206004820152601f60248201526000805160206155c5833981519152604482015290519081900360640190fd5b600260005560035460ff1615612d65576040805162461bcd60e51b815260206004820152601860248201526000805160206156c8833981519152604482015290519081900360640190fd5b80600460088281548110612d7557fe5b90600052602060002090600c020160080160149054906101000a900460ff166004811115612d9f57fe5b14612df1576040805162461bcd60e51b815260206004820152601b60248201527f73746174653a207374617465206d75737420626520756e646f6e650000000000604482015290519081900360640190fd5b600060088381548110612e0057fe5b90600052602060002090600c020190506000816004015411612e69576040805162461bcd60e51b815260206004820152601c60248201527f656d657267656e634c656e643a206e6f74207769746864726177616c00000000604482015290519081900360640190fd5b336000908152600b6020908152604080832086845290915290208054612ed0576040805162461bcd60e51b81526020600482015260176024820152761c99599d5b9913195b990e881b9bdd081c1b195919d959604a1b604482015290519081900360640190fd5b600281015460ff1615612f2a576040805162461bcd60e51b815260206004820152601860248201527f726566756e644c656e643a20616761696e20726566756e640000000000000000604482015290519081900360640190fd5b60078201548154612f489133916001600160a01b0390911690614665565b60028101805460ff191660011790556007820154815460408051918252516001600160a01b039092169133917f71d14c5f08cb34cbfb59c06ea5151aafbf742d0b6ed00fdb83addd9afb5c0fd0919081900360200190a3505060016000555050565b60035461010090046001600160a01b031681565b612fc66155a6565b600060088381548110612fd557fe5b600091825260209182902060408051600280825260608083018452600c9095029093019550929383019080368337505050600783015481519192506001600160a01b031690829060009061302557fe5b6020908102919091010152600882015481516001600160a01b03909116908290600190811061305057fe5b6020908102919091018101919091526005546040516304e59d2760e11b8152600481018381528451602483015284516060946001600160a01b03909416936309cb3a4e938793928392604490920191858101910280838360005b838110156130c25781810151838201526020016130aa565b505050509050019250505060006040518083038186803b1580156130e557600080fd5b505afa1580156130f9573d6000803e3d6000fd5b505050506040513d6000823e601f3d908101601f19168201604052602081101561312257600080fd5b8101908080516040519392919084600160201b82111561314157600080fd5b90830190602082018581111561315657600080fd5b82518660208202830111600160201b8211171561317257600080fd5b82525081516020918201928201910280838360005b8381101561319f578181015183820152602001613187565b5050505090500160405250505090506040518060400160405280826000815181106131c657fe5b60200260200101518152602001826001815181106131e057fe5b60200260200101518152509350505050919050565b6002600054141561323b576040805162461bcd60e51b815260206004820152601f60248201526000805160206155c5833981519152604482015290519081900360640190fd5b600260005560035460ff1615613286576040805162461bcd60e51b815260206004820152601860248201526000805160206156c8833981519152604482015290519081900360640190fd5b80428110156132cd576040805162461bcd60e51b815260206004820152600e60248201526d1cdd185ad94e881156141254915160921b604482015290519081900360640190fd5b836002600882815481106132dd57fe5b90600052602060002090600c020160080160149054906101000a900460ff16600481111561330757fe5b1480613349575060036008828154811061331d57fe5b90600052602060002090600c020160080160149054906101000a900460ff16600481111561334757fe5b145b613396576040805162461bcd60e51b815260206004820152601960248201527839ba30ba329d103334b734b9b4103634b8bab4b230ba34b7b760391b604482015290519081900360640190fd5b6000600886815481106133a557fe5b90600052602060002090600c020190506000600987815481106133c457fe5b90600052602060002090600602019050600086116134135760405162461bcd60e51b815260040180806020018281038252602781526020018061567f6027913960400191505060405180910390fd5b600a82015460408051632770a7eb60e21b81523360048201526024810189905290516001600160a01b0390921691639dc29fac9160448082019260009290919082900301818387803b15801561346857600080fd5b505af115801561347c573d6000803e3d6000fd5b505050600683015482546000925061349d916305f5e10091610ab291614567565b905060006134b782610ab28a670de0b6b3a7640000614567565b905060026008850154600160a01b900460ff1660048111156134d557fe5b14156135ac578360010154421161351d5760405162461bcd60e51b81526004018080602001828103825260228152602001806158036022913960400191505060405180910390fd5b6000613542670de0b6b3a7640000610ab286600301548561456790919063ffffffff16565b600886015490915061355f9033906001600160a01b031683614665565b6008850154604080518b81526020810184905281516001600160a01b039093169233927f0f5e74952c2f9259a748f3aa9a6c4534a6f46a5966e5baabdb6bd337f05234a8928290030190a3505b60036008850154600160a01b900460ff1660048111156135c857fe5b141561369c578354421161360d5760405162461bcd60e51b81526004018080602001828103825260248152602001806155e56024913960400191505060405180910390fd5b6000613632670de0b6b3a7640000610ab286600501548561456790919063ffffffff16565b600886015490915061364f9033906001600160a01b031683614665565b6008850154604080518b81526020810184905281516001600160a01b039093169233927f0f5e74952c2f9259a748f3aa9a6c4534a6f46a5966e5baabdb6bd337f05234a8928290030190a3505b5050600160005550505050505050565b6136b4614716565b6001600160a01b03166136c5612227565b6001600160a01b03161461370e576040805162461bcd60e51b81526020600482018190526024820152600080516020615795833981519152604482015290519081900360640190fd5b60006008828154811061371d57fe5b90600052602060002090600c0201905060006009838154811061373c57fe5b906000526020600020906006020190506008838154811061375957fe5b90600052602060002090600c02016001015442116137be576040805162461bcd60e51b815260206004820152601a60248201527f66696e6973683a206c657373207468616e20656e642074696d65000000000000604482015290519081900360640190fd5b60016008830154600160a01b900460ff1660048111156137da57fe5b146138165760405162461bcd60e51b81526004018080602001828103825260248152602001806157b56024913960400191505060405180910390fd5b6008820154600783015460028401546001600160a01b039283169290911690600090613850906305f5e10090610ab290610aed908361460b565b905060006138786305f5e100610ab26115e96305f5e10060065461460b90919063ffffffff16565b905060008061389e600360019054906101000a90046001600160a01b031687878661471a565b91509150838110156138f7576040805162461bcd60e51b815260206004820152601c60248201527f66696e6973683a20536c69707061676520697320746f6f206869676800000000604482015290519081900360640190fd5b8381111561394257600061390b8286614767565b60045460078b015491925061392d916001600160a01b03918216911683614665565b6139378282614767565b60028901555061394a565b600287018190555b600187015460009061395c9084614767565b60065460078b015491925060009161397e91906001600160a01b0316846147a9565b60038a0181905560088b01805491925060029160ff60a01b1916600160a01b836116c2565b6139ab614716565b6001600160a01b03166139bc612227565b6001600160a01b031614613a05576040805162461bcd60e51b81526020600482018190526024820152600080516020615795833981519152604482015290519081900360640190fd5b6003805460ff19811660ff90911615179055565b60026000541415613a5f576040805162461bcd60e51b815260206004820152601f60248201526000805160206155c5833981519152604482015290519081900360640190fd5b600260005560035460ff1615613aaa576040805162461bcd60e51b815260206004820152601860248201526000805160206156c8833981519152604482015290519081900360640190fd5b80600460088281548110613aba57fe5b90600052602060002090600c020160080160149054906101000a900460ff166004811115613ae457fe5b14613b36576040805162461bcd60e51b815260206004820152601b60248201527f73746174653a207374617465206d75737420626520756e646f6e650000000000604482015290519081900360640190fd5b600060088381548110613b4557fe5b90600052602060002090600c020190506000816005015411613bae576040805162461bcd60e51b815260206004820152601f60248201527f656d657267656e6379426f72726f773a206e6f74207769746864726177616c00604482015290519081900360640190fd5b336000908152600a6020908152604080832086845290915290208054613c17576040805162461bcd60e51b81526020600482015260196024820152781c99599d5b99109bdc9c9bddce881b9bdd081c1b195919d959603a1b604482015290519081900360640190fd5b600281015460ff1615613c71576040805162461bcd60e51b815260206004820152601a60248201527f726566756e64426f72726f773a20616761696e20726566756e64000000000000604482015290519081900360640190fd5b60088201548154613c8f9133916001600160a01b0390911690614665565b60028101805460ff191660011790556008820154815460408051918252516001600160a01b039092169133917f5a06c7de92f1dc59e8cba872927d016c80ce5f0fb2295c898dfb7a2f08e43fb1919081900360200190a3505060016000555050565b60075481565b613cff614716565b6001600160a01b0316613d10612227565b6001600160a01b031614613d59576040805162461bcd60e51b81526020600482018190526024820152600080516020615795833981519152604482015290519081900360640190fd5b6008604051806101a001604052808c81526020018b81526020018a67ffffffffffffffff1681526020018981526020016000815260200160008152602001888152602001876001600160a01b03168152602001866001600160a01b0316815260200160006004811115613dc857fe5b81526001600160a01b0380871660208084019190915286821660408085019190915260609384018790528554600181810188556000978852968390208651600c909202019081559185015195820195909555938301516002850155908201516003840155608082015160048085019190915560a0830151600585015560c0830151600685015560e08301516007850180549184166001600160a01b031992831617905561010084015160088601805491909416911617808355610120840151939493929160ff60a01b1990911690600160a01b908490811115613ea757fe5b0217905550610140820151600980830180546001600160a01b039384166001600160a01b031991821617909155610160850151600a850180549190941691161790915561018090920151600b909101556040805160c081018252600080825260208201818152928201818152606083018281526080840183815260a08501848152875460018101895597909452935160069096027f6e1540171b6c0c960b71a7020d9f60077f6af931a8bbf590da0223dacf75c7af81019690965593517f6e1540171b6c0c960b71a7020d9f60077f6af931a8bbf590da0223dacf75c7b0860155517f6e1540171b6c0c960b71a7020d9f60077f6af931a8bbf590da0223dacf75c7b185015591517f6e1540171b6c0c960b71a7020d9f60077f6af931a8bbf590da0223dacf75c7b2840155517f6e1540171b6c0c960b71a7020d9f60077f6af931a8bbf590da0223dacf75c7b3830155517f6e1540171b6c0c960b71a7020d9f60077f6af931a8bbf590da0223dacf75c7b49091015550505050505050505050565b60026000541415614070576040805162461bcd60e51b815260206004820152601f60248201526000805160206155c5833981519152604482015290519081900360640190fd5b600260005560035460ff16156140bb576040805162461bcd60e51b815260206004820152601860248201526000805160206156c8833981519152604482015290519081900360640190fd5b80600881815481106140c957fe5b90600052602060002090600c0201600001544211614126576040805162461bcd60e51b8152602060048201526015602482015274477265617465207468616e20746869732074696d6560581b604482015290519081900360640190fd5b8160016008828154811061413657fe5b90600052602060002090600c020160080160149054906101000a900460ff16600481111561416057fe5b14806141a2575060026008828154811061417657fe5b90600052602060002090600c020160080160149054906101000a900460ff1660048111156141a057fe5b145b806141e357506003600882815481106141b757fe5b90600052602060002090600c020160080160149054906101000a900460ff1660048111156141e157fe5b145b614222576040805162461bcd60e51b815260206004820152601b6024820152600080516020615733833981519152604482015290519081900360640190fd5b60006008848154811061423157fe5b90600052602060002090600c0201905060006009858154811061425057fe5b60009182526020808320338452600b825260408085208a865290925292208054600690920290920192506142c5576040805162461bcd60e51b81526020600482015260176024820152761c99599d5b9913195b990e881b9bdd081c1b195919d959604a1b604482015290519081900360640190fd5b815460048401546000916142d99190614767565b11614324576040805162461bcd60e51b81526020600482015260166024820152751c99599d5b9913195b990e881b9bdd081c99599d5b9960521b604482015290519081900360640190fd5b600281015460ff161561437e576040805162461bcd60e51b815260206004820152601960248201527f726566756e644c656e643a2072657065617420726566756e6400000000000000604482015290519081900360640190fd5b6004830154815460009161439e91610ab290670de0b6b3a7640000614567565b905060006143cd670de0b6b3a7640000610ab284612bb888600001548a6004015461476790919063ffffffff16565b60078601549091506143ea9033906001600160a01b031683614665565b60028301805460ff19166001908117909155830154614409908261460b565b600184015560078501546040805183815290516001600160a01b039092169133917fc3e20279d41b3ed21d277920877e5e5c6665bf6aca607046a3fe0fd2bd6bda7d919081900360200190a350506001600055505050505050565b61446c614716565b6001600160a01b031661447d612227565b6001600160a01b0316146144c6576040805162461bcd60e51b81526020600482018190526024820152600080516020615795833981519152604482015290519081900360640190fd5b6001600160a01b03811661450b5760405162461bcd60e51b815260040180806020018281038252602681526020018061562e6026913960400191505060405180910390fd5b6001546040516001600160a01b038084169216907f8be0079c531659141344cd1fd0a4f28419497f9722a3daafe3b4186f6b6457e090600090a3600180546001600160a01b0319166001600160a01b0392909216919091179055565b600082614576575060006145c3565b8282028284828161458357fe5b04146145c05760405162461bcd60e51b81526004018080602001828103825260218152602001806157746021913960400191505060405180910390fd5b90505b92915050565b60006145c083836040518060400160405280601a81526020017f536166654d6174683a206469766973696f6e206279207a65726f000000000000815250614831565b6000828201838110156145c0576040805162461bcd60e51b815260206004820152601b60248201527f536166654d6174683a206164646974696f6e206f766572666c6f770000000000604482015290519081900360640190fd5b6001600160a01b0382166146af576040516001600160a01b0384169082156108fc029083906000818181858888f193505050501580156146a9573d6000803e3d6000fd5b506146c6565b816146c46001600160a01b03821685846148d3565b505b816001600160a01b0316836001600160a01b03167fd12200efa34901b99367694174c3b0d32c99585fdf37c7c26892136ddd0836d9836040518082815260200191505060405180910390a3505050565b3390565b600080600080841161472d57600061474a565b60035461474a9061010090046001600160a01b0316878787614925565b90508061475988888885614ac2565b925092505094509492505050565b60006145c083836040518060400160405280601e81526020017f536166654d6174683a207375627472616374696f6e206f766572666c6f770000815250614f99565b6000806305f5e1006147bb8487614567565b816147c257fe5b04905080156147e2576004546147e2906001600160a01b03168583614665565b6147ec8382614767565b95945050505050565b60006001600160a01b03831661480d5734915061482b565b811561482b57826148296001600160a01b038216333086614ff3565b505b50919050565b600081836148bd5760405162461bcd60e51b81526004018080602001828103825283818151815260200191508051906020019080838360005b8381101561488257818101518382015260200161486a565b50505050905090810190601f1680156148af5780820380516001836020036101000a031916815260200191505b509250505060405180910390fd5b5060008385816148c957fe5b0495945050505050565b604080516001600160a01b038416602482015260448082018490528251808303909101815260649091019091526020810180516001600160e01b031663a9059cbb60e01b1790526124cd908490615053565b60035460009085906060906149499061010090046001600160a01b03168787615104565b90506060826001600160a01b0316631f00ca7486846040518363ffffffff1660e01b81526004018083815260200180602001828103825283818151815260200191508051906020019060200280838360005b838110156149b357818101518382015260200161499b565b50505050905001935050505060006040518083038186803b1580156149d757600080fd5b505afa1580156149eb573d6000803e3d6000fd5b505050506040513d6000823e601f3d908101601f191682016040526020811015614a1457600080fd5b8101908080516040519392919084600160201b821115614a3357600080fd5b908301906020820185811115614a4857600080fd5b82518660208202830111600160201b82111715614a6457600080fd5b82525081516020918201928201910280838360005b83811015614a91578181015183820152602001614a79565b50505050905001604052505050905080600081518110614aad57fe5b60200260200101519350505050949350505050565b60006001600160a01b03841615614ae057614ae0848660001961526e565b6001600160a01b03831615614afc57614afc838660001961526e565b846060614b0a828787615104565b905060606001600160a01b038716614c9457826001600160a01b0316637ff36ab5866000853042601e016040518663ffffffff1660e01b81526004018085815260200180602001846001600160a01b03168152602001838152602001828103825285818151815260200191508051906020019060200280838360005b83811015614b9e578181015183820152602001614b86565b50505050905001955050505050506000604051808303818588803b158015614bc557600080fd5b505af1158015614bd9573d6000803e3d6000fd5b50505050506040513d6000823e601f3d908101601f191682016040526020811015614c0357600080fd5b8101908080516040519392919084600160201b821115614c2257600080fd5b908301906020820185811115614c3757600080fd5b82518660208202830111600160201b82111715614c5357600080fd5b82525081516020918201928201910280838360005b83811015614c80578181015183820152602001614c68565b505050509050016040525050509050614f0b565b6001600160a01b038616614d9057826001600160a01b03166318cbafe5866000853042601e016040518663ffffffff1660e01b81526004018086815260200185815260200180602001846001600160a01b03168152602001838152602001828103825285818151815260200191508051906020019060200280838360005b83811015614d2a578181015183820152602001614d12565b505050509050019650505050505050600060405180830381600087803b158015614d5357600080fd5b505af1158015614d67573d6000803e3d6000fd5b505050506040513d6000823e601f3d908101601f191682016040526020811015614c0357600080fd5b826001600160a01b03166338ed1739866000853042601e016040518663ffffffff1660e01b81526004018086815260200185815260200180602001846001600160a01b03168152602001838152602001828103825285818151815260200191508051906020019060200280838360005b83811015614e18578181015183820152602001614e00565b505050509050019650505050505050600060405180830381600087803b158015614e4157600080fd5b505af1158015614e55573d6000803e3d6000fd5b505050506040513d6000823e601f3d908101601f191682016040526020811015614e7e57600080fd5b8101908080516040519392919084600160201b821115614e9d57600080fd5b908301906020820185811115614eb257600080fd5b82518660208202830111600160201b82111715614ece57600080fd5b82525081516020918201928201910280838360005b83811015614efb578181015183820152602001614ee3565b5050505090500160405250505090505b856001600160a01b0316876001600160a01b03167ffa2dda1cc1b86e41239702756b13effbc1a092b5c57e3ad320fbe4f3b13fe23583600081518110614f4d57fe5b602002602001015184600186510381518110614f6557fe5b6020026020010151604051808381526020018281526020019250505060405180910390a380600182510381518110614aad57fe5b60008184841115614feb5760405162461bcd60e51b815260206004820181815283516024840152835190928392604490910191908501908083836000831561488257818101518382015260200161486a565b505050900390565b604080516001600160a01b0380861660248301528416604482015260648082018490528251808303909101815260849091019091526020810180516001600160e01b03166323b872dd60e01b17905261504d908590615053565b50505050565b60606150a8826040518060400160405280602081526020017f5361666545524332303a206c6f772d6c6576656c2063616c6c206661696c6564815250856001600160a01b03166153c79092919063ffffffff16565b8051909150156124cd578080602001905160208110156150c757600080fd5b50516124cd5760405162461bcd60e51b815260040180806020018281038252602a8152602001806157d9602a913960400191505060405180910390fd5b6040805160028082526060808301845292869291906020830190803683370190505091506001600160a01b0384161561513d57836151a3565b806001600160a01b031663ad5c46486040518163ffffffff1660e01b815260040160206040518083038186803b15801561517657600080fd5b505afa15801561518a573d6000803e3d6000fd5b505050506040513d60208110156151a057600080fd5b50515b826000815181106151b057fe5b6001600160a01b0392831660209182029290920101528316156151d35782615239565b806001600160a01b031663ad5c46486040518163ffffffff1660e01b815260040160206040518083038186803b15801561520c57600080fd5b505afa158015615220573d6000803e3d6000fd5b505050506040513d602081101561523657600080fd5b50515b8260018151811061524657fe5b60200260200101906001600160a01b031690816001600160a01b031681525050509392505050565b604080516001600160a01b038481166024830152604480830185905283518084039091018152606490920183526020820180516001600160e01b031663095ea7b360e01b178152925182516000946060949389169392918291908083835b602083106152eb5780518252601f1990920191602091820191016152cc565b6001836020036101000a0380198251168184511680821785525050505050509050019150506000604051808303816000865af19150503d806000811461534d576040519150601f19603f3d011682016040523d82523d6000602084013e615352565b606091505b5091509150818015615380575080511580615380575080806020019051602081101561537d57600080fd5b50515b6153c0576040805162461bcd60e51b815260206004820152600c60248201526b2173616665417070726f766560a01b604482015290519081900360640190fd5b5050505050565b60606153d684846000856153de565b949350505050565b60608247101561541f5760405162461bcd60e51b815260040180806020018281038252602681526020018061570d6026913960400191505060405180910390fd5b6154288561553a565b615479576040805162461bcd60e51b815260206004820152601d60248201527f416464726573733a2063616c6c20746f206e6f6e2d636f6e7472616374000000604482015290519081900360640190fd5b60006060866001600160a01b031685876040518082805190602001908083835b602083106154b85780518252601f199092019160209182019101615499565b6001836020036101000a03801982511681845116808217855250505050505090500191505060006040518083038185875af1925050503d806000811461551a576040519150601f19603f3d011682016040523d82523d6000602084013e61551f565b606091505b509150915061552f828286615540565b979650505050505050565b3b151590565b6060831561554f575081612c95565b82511561555f5782518084602001fd5b60405162461bcd60e51b815260206004820181815284516024840152845185939192839260440191908501908083836000831561488257818101518382015260200161486a565b6040518060400160405280600290602082028036833750919291505056fe5265656e7472616e637947756172643a207265656e7472616e742063616c6c007769746864726177426f72726f773a206c657373207468616e206d617463682074696d6577697468647261774c656e643a20776974686472617720616d6f756e74206973207a65726f4f776e61626c653a206e6577206f776e657220697320746865207a65726f20616464726573736465706f7369744c656e643a20746865207175616e74697479206578636565647320746865206c696d69747769746864726177426f72726f773a20776974686472617720616d6f756e74206973207a65726f77697468647261774c656e643a206c657373207468616e206d617463682074696d655374616b6520686173206265656e2073757370656e64656400000000000000006465706f736974426f72726f773a206465706f73697420616d6f756e74206973207a65726f416464726573733a20696e73756666696369656e742062616c616e636520666f722063616c6c73746174653a206e6f74206d6174636820616e6420756e646f6e650000000000506f6f6c20737461747573206973206e6f7420657175616c20746f206d61746368536166654d6174683a206d756c7469706c69636174696f6e206f766572666c6f774f776e61626c653a2063616c6c6572206973206e6f7420746865206f776e657266696e6973683a20706f6f6c207374617465206d75737420626520657865637574696f6e5361666545524332303a204552433230206f7065726174696f6e20646964206e6f7420737563636565647769746864726177426f72726f773a206c657373207468616e20656e642074696d65a2646970667358221220adf9117b1e0745a1feed0931e93b3ed38ddd977f644b5580dd486bfb481e7d8f64736f6c634300060c0033",
  "linkReferences": {},
  "deployedLinkReferences": {}
}