{
  "_format": "hh-sol-artifact-1",
  "contractName": "AddressPrivileges",
  "sourceName": "contracts/pledge/AddressPrivileges.sol",
  "abi": [
    {
      "anonymous": false,
      "inputs": [
        {
          "indexed": true,
          "internalType": "address",
          "name": "previousOwner",
          "type": "address"
        },
        {
          "indexed": true,
          "internalType": "address",
          "name": "newOwner",
          "type": "address"
        }
      ],
      "name": "OwnershipTransferred",
      "type": "event"
    },
    {
      "inputs": [
        {
          "internalType": "address",
          "name": "_addMinter",
          "type": "address"
        }
      ],
      "name": "addMinter",
      "outputs": [
        {
          "internalType": "bool",
          "name": "",
          "type": "bool"
        }
      ],
      "stateMutability": "nonpayable",
      "type": "function"
    },
    {
      "inputs": [
        {
          "internalType": "address",
          "name": "_delMinter",
          "type": "address"
        }
      ],
      "name": "delMinter",
      "outputs": [
        {
          "internalType": "bool",
          "name": "",
          "type": "bool"
        }
      ],
      "stateMutability": "nonpayable",
      "type": "function"
    },
    {
      "inputs": [
        {
          "internalType": "uint256",
          "name": "_index",
          "type": "uint256"
        }
      ],
      "name": "getMinter",
      "outputs": [
        {
          "internalType": "address",
          "name": "",
          "type": "address"
        }
      ],
      "stateMutability": "view",
      "type": "function"
    },
    {
      "inputs": [],
      "name": "getMinterLength",
      "outputs": [
        {
          "internalType": "uint256",
          "name": "",
          "type": "uint256"
        }
      ],
      "stateMutability": "view",
      "type": "function"
    },
    {
      "inputs": [
        {
          "internalType": "address",
          "name": "account",
          "type": "address"
        }
      ],
      "name": "isMinter",
      "outputs": [
        {
          "internalType": "bool",
          "name": "",
          "type": "bool"
        }
      ],
      "stateMutability": "view",
      "type": "function"
    },
    {
      "inputs": [],
      "name": "owner",
      "outputs": [
        {
          "internalType": "address",
          "name": "",
          "type": "address"
        }
      ],
      "stateMutability": "view",
      "type": "function"
    },
    {
      "inputs": [],
      "name": "renounceOwnership",
      "outputs": [],
      "stateMutability": "nonpayable",
      "type": "function"
    },
    {
      "inputs": [
        {
          "internalType": "address",
          "name": "newOwner",
          "type": "address"
        }
      ],
      "name": "transferOwnership",
      "outputs": [],
      "stateMutability": "nonpayable",
      "type": "function"
    }
  ],
  "bytecode": "0x608060405234801561001057600080fd5b50600061001b61006a565b600080546001600160a01b0319166001600160a01b0383169081178255604051929350917f8be0079c531659141344cd1fd0a4f28419497f9722a3daafe3b4186f6b6457e0908290a35061006e565b3390565b61082c8061007d6000396000f3fe608060405234801561001057600080fd5b50600436106100885760003560e01c80638da5cb5b1161005b5780638da5cb5b14610124578063983b2d561461012c578063aa271e1a14610152578063f2fde38b1461017857610088565b80630323aac71461008d57806323338b88146100a75780635b7121f8146100e1578063715018a61461011a575b600080fd5b61009561019e565b60408051918252519081900360200190f35b6100cd600480360360208110156100bd57600080fd5b50356001600160a01b03166101af565b604080519115158252519081900360200190f35b6100fe600480360360208110156100f757600080fd5b5035610269565b604080516001600160a01b039092168252519081900360200190f35b6101226102d5565b005b6100fe610381565b6100cd6004803603602081101561014257600080fd5b50356001600160a01b0316610390565b6100cd6004803603602081101561016857600080fd5b50356001600160a01b0316610444565b6101226004803603602081101561018e57600080fd5b50356001600160a01b0316610451565b60006101aa6001610553565b905090565b60006101b961055e565b6001600160a01b03166101ca610381565b6001600160a01b031614610213576040805162461bcd60e51b815260206004820181905260248201526000805160206107d7833981519152604482015290519081900360640190fd5b6001600160a01b0382166102585760405162461bcd60e51b815260040180806020018281038252602581526020018061078d6025913960400191505060405180910390fd5b610263600183610562565b92915050565b6000600161027561019e565b038211156102ca576040805162461bcd60e51b815260206004820152601a60248201527f546f6b656e3a20696e646578206f7574206f6620626f756e6473000000000000604482015290519081900360640190fd5b61026360018361057e565b6102dd61055e565b6001600160a01b03166102ee610381565b6001600160a01b031614610337576040805162461bcd60e51b815260206004820181905260248201526000805160206107d7833981519152604482015290519081900360640190fd5b600080546040516001600160a01b03909116907f8be0079c531659141344cd1fd0a4f28419497f9722a3daafe3b4186f6b6457e0908390a3600080546001600160a01b0319169055565b6000546001600160a01b031690565b600061039a61055e565b6001600160a01b03166103ab610381565b6001600160a01b0316146103f4576040805162461bcd60e51b815260206004820181905260248201526000805160206107d7833981519152604482015290519081900360640190fd5b6001600160a01b0382166104395760405162461bcd60e51b81526004018080602001828103825260258152602001806107b26025913960400191505060405180910390fd5b61026360018361058a565b600061026360018361059f565b61045961055e565b6001600160a01b031661046a610381565b6001600160a01b0316146104b3576040805162461bcd60e51b815260206004820181905260248201526000805160206107d7833981519152604482015290519081900360640190fd5b6001600160a01b0381166104f85760405162461bcd60e51b81526004018080602001828103825260268152602001806107676026913960400191505060405180910390fd5b600080546040516001600160a01b03808516939216917f8be0079c531659141344cd1fd0a4f28419497f9722a3daafe3b4186f6b6457e091a3600080546001600160a01b0319166001600160a01b0392909216919091179055565b6000610263826105b4565b3390565b6000610577836001600160a01b0384166105b8565b9392505050565b6000610577838361067e565b6000610577836001600160a01b0384166106e2565b6000610577836001600160a01b03841661072c565b5490565b6000818152600183016020526040812054801561067457835460001980830191908101906000908790839081106105eb57fe5b906000526020600020015490508087600001848154811061060857fe5b60009182526020808320909101929092558281526001898101909252604090209084019055865487908061063857fe5b60019003818190600052602060002001600090559055866001016000878152602001908152602001600020600090556001945050505050610263565b6000915050610263565b815460009082106106c05760405162461bcd60e51b81526004018080602001828103825260228152602001806107456022913960400191505060405180910390fd5b8260000182815481106106cf57fe5b9060005260206000200154905092915050565b60006106ee838361072c565b61072457508154600181810184556000848152602080822090930184905584548482528286019093526040902091909155610263565b506000610263565b6000908152600191909101602052604090205415159056fe456e756d657261626c655365743a20696e646578206f7574206f6620626f756e64734f776e61626c653a206e6577206f776e657220697320746865207a65726f2061646472657373546f6b656e3a205f64656c4d696e74657220697320746865207a65726f2061646472657373546f6b656e3a205f6164644d696e74657220697320746865207a65726f20616464726573734f776e61626c653a2063616c6c6572206973206e6f7420746865206f776e6572a2646970667358221220215abc2135999bd25883a605f6bbe4eac8ff1628dc4e839dcb3e928f9dce458464736f6c634300060c0033",
  "linkReferences": {},
  "deployedLinkReferences": {}
}