{
  "_format": "hh-sol-artifact-1",
  "contractName": "AddressPrivileges",
  "sourceName": "contracts/pledge/AddressPrivileges.sol",
  "abi": [
    {
      "inputs": [
        {
          "internalType": "address",
          "name": "multiSignature",
          "type": "address"
        }
      ],
      "stateMutability": "nonpayable",
      "type": "constructor"
    },
    {
      "inputs": [
        {
          "internalType": "address",
          "name": "_addMinter",
          "type": "address"
        }
      ],
      "name": "addMinter",
      "outputs": [
        {
          "internalType": "bool",
          "name": "",
          "type": "bool"
        }
      ],
      "stateMutability": "nonpayable",
      "type": "function"
    },
    {
      "inputs": [
        {
          "internalType": "address",
          "name": "_delMinter",
          "type": "address"
        }
      ],
      "name": "delMinter",
      "outputs": [
        {
          "internalType": "bool",
          "name": "",
          "type": "bool"
        }
      ],
      "stateMutability": "nonpayable",
      "type": "function"
    },
    {
      "inputs": [
        {
          "internalType": "uint256",
          "name": "_index",
          "type": "uint256"
        }
      ],
      "name": "getMinter",
      "outputs": [
        {
          "internalType": "address",
          "name": "",
          "type": "address"
        }
      ],
      "stateMutability": "view",
      "type": "function"
    },
    {
      "inputs": [],
      "name": "getMinterLength",
      "outputs": [
        {
          "internalType": "uint256",
          "name": "",
          "type": "uint256"
        }
      ],
      "stateMutability": "view",
      "type": "function"
    },
    {
      "inputs": [],
      "name": "getMultiSignatureAddress",
      "outputs": [
        {
          "internalType": "address",
          "name": "",
          "type": "address"
        }
      ],
      "stateMutability": "view",
      "type": "function"
    },
    {
      "inputs": [
        {
          "internalType": "address",
          "name": "account",
          "type": "address"
        }
      ],
      "name": "isMinter",
      "outputs": [
        {
          "internalType": "bool",
          "name": "",
          "type": "bool"
        }
      ],
      "stateMutability": "view",
      "type": "function"
    }
  ],
  "bytecode": "0x608060405234801561001057600080fd5b5060405161077f38038061077f8339818101604052602081101561003357600080fd5b5051806001600160a01b03811661007b5760405162461bcd60e51b815260040180806020018281038252604381526020018061073c6043913960600191505060405180910390fd5b6100ae7f8dddb57468cf5338ee155397ad1400a7a564308824f517d20a8a7c516523bb476001600160a01b0383166100b5565b50506100b9565b9055565b610674806100c86000396000f3fe608060405234801561001057600080fd5b50600436106100625760003560e01c80630323aac71461006757806323338b88146100815780635b7121f8146100bb578063638c7e17146100f4578063983b2d56146100fc578063aa271e1a14610122575b600080fd5b61006f610148565b60408051918252519081900360200190f35b6100a76004803603602081101561009757600080fd5b50356001600160a01b0316610159565b604080519115158252519081900360200190f35b6100d8600480360360208110156100d157600080fd5b50356101b9565b604080516001600160a01b039092168252519081900360200190f35b6100d8610225565b6100a76004803603602081101561011257600080fd5b50356001600160a01b0316610250565b6100a76004803603602081101561013857600080fd5b50356001600160a01b03166102aa565b600061015460006102b7565b905090565b60006101636102c2565b6001600160a01b0382166101a85760405162461bcd60e51b81526004018080602001828103825260258152602001806105c76025913960400191505060405180910390fd5b6101b36000836103c2565b92915050565b600060016101c5610148565b0382111561021a576040805162461bcd60e51b815260206004820152601a60248201527f546f6b656e3a20696e646578206f7574206f6620626f756e6473000000000000604482015290519081900360640190fd5b6101b36000836103de565b60006101547f8dddb57468cf5338ee155397ad1400a7a564308824f517d20a8a7c516523bb476103ea565b600061025a6102c2565b6001600160a01b03821661029f5760405162461bcd60e51b815260040180806020018281038252602581526020018061061a6025913960400191505060405180910390fd5b6101b36000836103ee565b60006101b3600083610403565b60006101b3826103ea565b6040805133606090811b6020808401919091523090911b6034830152825160288184030181526048909201909252805191012034906000610301610225565b90506000816001600160a01b0316631ebaa1668460006040518363ffffffff1660e01b8152600401808381526020018281526020019250505060206040518083038186803b15801561035257600080fd5b505afa158015610366573d6000803e3d6000fd5b505050506040513d602081101561037c57600080fd5b50519050806103bc5760405162461bcd60e51b815260040180806020018281038252602e8152602001806105ec602e913960400191505060405180910390fd5b50505050565b60006103d7836001600160a01b038416610418565b9392505050565b60006103d783836104de565b5490565b60006103d7836001600160a01b038416610542565b60006103d7836001600160a01b03841661058c565b600081815260018301602052604081205480156104d4578354600019808301919081019060009087908390811061044b57fe5b906000526020600020015490508087600001848154811061046857fe5b60009182526020808320909101929092558281526001898101909252604090209084019055865487908061049857fe5b600190038181906000526020600020016000905590558660010160008781526020019081526020016000206000905560019450505050506101b3565b60009150506101b3565b815460009082106105205760405162461bcd60e51b81526004018080602001828103825260228152602001806105a56022913960400191505060405180910390fd5b82600001828154811061052f57fe5b9060005260206000200154905092915050565b600061054e838361058c565b610584575081546001818101845560008481526020808220909301849055845484825282860190935260409020919091556101b3565b5060006101b3565b6000908152600191909101602052604090205415159056fe456e756d657261626c655365743a20696e646578206f7574206f6620626f756e6473546f6b656e3a205f64656c4d696e74657220697320746865207a65726f20616464726573736d756c74695369676e6174757265436c69656e74203a2054686973207478206973206e6f7420617072726f766564546f6b656e3a205f6164644d696e74657220697320746865207a65726f2061646472657373a2646970667358221220d7b343dc994a9e9a32906be42709e63113c3fe6a5f8ffdaf27bbb8b11366c35e64736f6c634300060c00336d756c74695369676e6174757265436c69656e74203a204d756c7469706c65207369676e617475726520636f6e74726163742061646472657373206973207a65726f21",
  "linkReferences": {},
  "deployedLinkReferences": {}
}